{
  "contractName": "Roulette",
  "abi": [
    {
      "anonymous": false,
      "inputs": [
        {
          "components": [
            {
              "internalType": "address",
              "name": "player",
              "type": "address"
            },
            {
              "internalType": "enum Roulette.BetType",
              "name": "bet_type",
              "type": "uint8"
            },
            {
              "internalType": "uint256",
              "name": "bet",
              "type": "uint256"
            },
            {
              "internalType": "uint256",
              "name": "bet_amount",
              "type": "uint256"
            },
            {
              "internalType": "uint256",
              "name": "timestamp",
              "type": "uint256"
            }
          ],
          "indexed": false,
          "internalType": "struct Roulette.Bet",
          "name": "bet",
          "type": "tuple"
        }
      ],
      "name": "BetPlaced",
      "type": "event"
    },
    {
      "anonymous": false,
      "inputs": [
        {
          "indexed": false,
          "internalType": "uint256",
          "name": "roll",
          "type": "uint256"
        }
      ],
      "name": "OutcomeDecided",
      "type": "event"
    },
    {
      "inputs": [],
      "name": "balance",
      "outputs": [
        {
          "internalType": "uint256",
          "name": "",
          "type": "uint256"
        }
      ],
      "stateMutability": "view",
      "type": "function",
      "constant": true
    },
    {
      "inputs": [],
      "name": "deposit",
      "outputs": [],
      "stateMutability": "payable",
      "type": "function",
      "payable": true
    },
    {
      "inputs": [],
      "name": "owner",
      "outputs": [
        {
          "internalType": "address",
          "name": "",
          "type": "address"
        }
      ],
      "stateMutability": "view",
      "type": "function",
      "constant": true
    },
    {
      "inputs": [
        {
          "internalType": "uint256",
          "name": "amount",
          "type": "uint256"
        }
      ],
      "name": "withdraw",
      "outputs": [],
      "stateMutability": "nonpayable",
      "type": "function"
    },
    {
      "inputs": [],
      "name": "get_bets",
      "outputs": [
        {
          "components": [
            {
              "internalType": "address",
              "name": "player",
              "type": "address"
            },
            {
              "internalType": "enum Roulette.BetType",
              "name": "bet_type",
              "type": "uint8"
            },
            {
              "internalType": "uint256",
              "name": "bet",
              "type": "uint256"
            },
            {
              "internalType": "uint256",
              "name": "bet_amount",
              "type": "uint256"
            },
            {
              "internalType": "uint256",
              "name": "timestamp",
              "type": "uint256"
            }
          ],
          "internalType": "struct Roulette.Bet[]",
          "name": "",
          "type": "tuple[]"
        }
      ],
      "stateMutability": "view",
      "type": "function",
      "constant": true
    },
    {
      "inputs": [],
      "name": "get_bets_length",
      "outputs": [
        {
          "internalType": "uint256",
          "name": "",
          "type": "uint256"
        }
      ],
      "stateMutability": "view",
      "type": "function",
      "constant": true
    },
    {
      "inputs": [
        {
          "internalType": "enum Roulette.BetType",
          "name": "bet_type",
          "type": "uint8"
        },
        {
          "internalType": "uint256",
          "name": "bet_amount",
          "type": "uint256"
        },
        {
          "internalType": "uint256",
          "name": "bet",
          "type": "uint256"
        }
      ],
      "name": "place_bet",
      "outputs": [],
      "stateMutability": "nonpayable",
      "type": "function"
    },
    {
      "inputs": [
        {
          "internalType": "uint256",
          "name": "mod",
          "type": "uint256"
        }
      ],
      "name": "random",
      "outputs": [
        {
          "internalType": "uint256",
          "name": "",
          "type": "uint256"
        }
      ],
      "stateMutability": "view",
      "type": "function",
      "constant": true
    },
    {
      "inputs": [
        {
          "internalType": "uint256",
          "name": "roll",
          "type": "uint256"
        }
      ],
      "name": "is_red",
      "outputs": [
        {
          "internalType": "bool",
          "name": "",
          "type": "bool"
        }
      ],
      "stateMutability": "pure",
      "type": "function",
      "constant": true
    },
    {
      "inputs": [
        {
          "components": [
            {
              "internalType": "address",
              "name": "player",
              "type": "address"
            },
            {
              "internalType": "enum Roulette.BetType",
              "name": "bet_type",
              "type": "uint8"
            },
            {
              "internalType": "uint256",
              "name": "bet",
              "type": "uint256"
            },
            {
              "internalType": "uint256",
              "name": "bet_amount",
              "type": "uint256"
            },
            {
              "internalType": "uint256",
              "name": "timestamp",
              "type": "uint256"
            }
          ],
          "internalType": "struct Roulette.Bet",
          "name": "bet",
          "type": "tuple"
        },
        {
          "internalType": "uint256",
          "name": "roll",
          "type": "uint256"
        }
      ],
      "name": "calculate_winnings",
      "outputs": [
        {
          "internalType": "uint256",
          "name": "",
          "type": "uint256"
        }
      ],
      "stateMutability": "pure",
      "type": "function",
      "constant": true
    },
    {
      "inputs": [],
      "name": "play",
      "outputs": [],
      "stateMutability": "nonpayable",
      "type": "function"
    }
  ],
  "bytecode": "0x608060405234801561001057600080fd5b50600080546001600160a01b03191633179055610b98806100326000396000f3fe60806040526004361061009c5760003560e01c806393e84cd91161006457806393e84cd914610165578063b4b674cb1461017a578063b69ef8a8146101aa578063b863bd37146101cc578063d0e30db0146101ec578063f1c08178146101f457600080fd5b8063161b5834146100a15780632e1a7d4d146100d4578063797fae9d146100f65780637b275c881461010b5780638da5cb5b1461012d575b600080fd5b3480156100ad57600080fd5b506100c16100bc36600461092e565b610214565b6040519081526020015b60405180910390f35b3480156100e057600080fd5b506100f46100ef3660046109cc565b61030a565b005b34801561010257600080fd5b506002546100c1565b34801561011757600080fd5b50610120610395565b6040516100cb9190610a39565b34801561013957600080fd5b5060005461014d906001600160a01b031681565b6040516001600160a01b0390911681526020016100cb565b34801561017157600080fd5b506100f461045a565b34801561018657600080fd5b5061019a6101953660046109cc565b610648565b60405190151581526020016100cb565b3480156101b657600080fd5b50336000908152600160205260409020546100c1565b3480156101d857600080fd5b506100c16101e73660046109cc565b610694565b6100f46106d6565b34801561020057600080fd5b506100f461020f3660046108fb565b610709565b60008161022357506000610304565b60008360200151600281111561023b5761023b610b36565b14156102825761024a82610648565b610255576001610258565b60005b60ff168360400151141561027d576060830151610276906002610aad565b9050610304565b610300565b60018360200151600281111561029a5761029a610b36565b14156102c6576102ab600283610afe565b8360400151141561027d576060830151610276906002610aad565b6002836020015160028111156102de576102de610b36565b1415610300578183604001511415610300576060830151610276906023610aad565b5060005b92915050565b6000811161031757600080fd5b3360009081526001602052604090205481111561033357600080fd5b8047101561034057600080fd5b336000908152600160205260408120805483929061035f908490610acc565b9091555050604051339082156108fc029083906000818181858888f19350505050158015610391573d6000803e3d6000fd5b5050565b60606002805480602002602001604051908101604052809291908181526020016000905b828210156104515760008481526020908190206040805160a081019091526004850290910180546001600160a01b03811683529192909190830190600160a01b900460ff16600281111561040f5761040f610b36565b600281111561042057610420610b36565b81526020016001820154815260200160028201548152602001600382015481525050815260200190600101906103b9565b50505050905090565b6000546001600160a01b0316331461047157600080fd5b600061047d6025610694565b90507f34cc19c6a5758956f8aec81e3f501b1a3fe6c4b9879081781ec6be0a438f3a54816040516104b091815260200190565b60405180910390a160005b600254811015610638578161052657600281815481106104dd576104dd610b4c565b600091825260208083206002600490930201919091015482546001600160a01b0316835260019091526040822080549192909161051b908490610a95565b909155506106269050565b60006105c56002838154811061053e5761053e610b4c565b60009182526020918290206040805160a0810190915260049092020180546001600160a01b0381168352919290919083019060ff600160a01b90910416600281111561058c5761058c610b36565b600281111561059d5761059d610b36565b8152602001600182015481526020016002820154815260200160038201548152505084610214565b90508015610624578060016000600285815481106105e5576105e5610b4c565b600091825260208083206004909202909101546001600160a01b031683528201929092526040018120805490919061061e908490610a95565b90915550505b505b8061063081610ae3565b9150506104bb565b5061064560026000610881565b50565b6000600b82108061066457506012821180156106645750601d82105b1561067d57610674600283610afe565b60011492915050565b610688600283610afe565b1592915050565b919050565b60008144426040516020016106b3929190918252602082015260400190565b6040516020818303038152906040528051906020012060001c6103049190610afe565b600034116106e357600080fd5b3360009081526001602052604081208054349290610702908490610a95565b9091555050565b6000821180156107285750336000908152600160205260409020548211155b61073157600080fd5b3360009081526001602052604081208054849290610750908490610acc565b90915550506040805160a081019091523381526000906020810185600281111561077c5761077c610b36565b815260208082018590526040820186905242606090920191909152600280546001810182556000829052835160049091027f405787fa12a823e0f2b7631cc41b3ba8828b3321ca811111fa75cd3aa3bb5ace0180546001600160a01b039092166001600160a01b03198316811782559385015194955085949093909284926001600160a81b03191690911790600160a01b90849081111561081f5761081f610b36565b021790555060408201518160010155606082015181600201556080820151816003015550507f29f156ad513b7b2d9699a68b4b2a96f0c4f22d41903adcba76052b0470e511b4816040516108739190610a87565b60405180910390a150505050565b508054600082556004029060005260206000209081019061064591905b808211156108d15780546001600160a81b031916815560006001820181905560028201819055600382015560040161089e565b5090565b80356001600160a01b038116811461068f57600080fd5b80356003811061068f57600080fd5b60008060006060848603121561091057600080fd5b610919846108ec565b95602085013595506040909401359392505050565b60008082840360c081121561094257600080fd5b60a081121561095057600080fd5b5060405160a0810181811067ffffffffffffffff8211171561098257634e487b7160e01b600052604160045260246000fd5b60405261098e846108d5565b815261099c602085016108ec565b60208201526040848101359082015260608085013590820152608080850135908201529460a09093013593505050565b6000602082840312156109de57600080fd5b5035919050565b80516001600160a01b03168252602081015160038110610a1557634e487b7160e01b600052602160045260246000fd5b60208301526040818101519083015260608082015190830152608090810151910152565b6020808252825182820181905260009190848201906040850190845b81811015610a7b57610a688385516109e5565b9284019260a09290920191600101610a55565b50909695505050505050565b60a0810161030482846109e5565b60008219821115610aa857610aa8610b20565b500190565b6000816000190483118215151615610ac757610ac7610b20565b500290565b600082821015610ade57610ade610b20565b500390565b6000600019821415610af757610af7610b20565b5060010190565b600082610b1b57634e487b7160e01b600052601260045260246000fd5b500690565b634e487b7160e01b600052601160045260246000fd5b634e487b7160e01b600052602160045260246000fd5b634e487b7160e01b600052603260045260246000fdfea2646970667358221220406b72b51c9ca601eef6c7d844b5962ab6ac1b9d3f8072fa60122c32466652af64736f6c63430008070033",
  "immutableReferences": {},
  "source": "/// @title Roulette 0.2.0\n/// @author awphi (https://github.com/awphi)\n/// @notice Roulette game from GlassCasino - L3 BSc ComSci Project @ Durham University\n/// @dev -\n\n// SPDX-License-Identifier: MIT\npragma solidity >=0.4.22 <0.9.0;\n\nimport \"./Bank.sol\";\nimport \"./Owned.sol\";\n\ncontract Roulette is Owned, Bank {\n  enum BetType {\n    COLOUR,\n    ODDEVEN,\n    STRAIGHTUP\n    /*\n    HIGHLOW, \n    COLUMN, \n    DOZENS, \n    SPLIT, \n    STREET, \n    CORNER, \n    LINE, \n    FIVE, \n    BASKET, \n    SNAKE \n    */\n  }\n\n  struct Bet {\n    address player;\n    BetType bet_type;\n    uint bet;\n    uint bet_amount;\n    uint timestamp;\n  }\n\n  // Used so dApp can listen to emitted event to update UIs as soon as the outcome is rolled\n  event OutcomeDecided(uint roll);\n  event BetPlaced(Bet bet);\n\n  Bet[] bets;\n\n  function get_bets() public view returns (Bet[] memory) {\n    return bets;\n  }\n\n  function get_bets_length() public view returns (uint) {\n    return bets.length;\n  }\n\n  function place_bet(BetType bet_type, uint bet_amount, uint bet) public {\n    require(bet_amount > 0 && funds[msg.sender] >= bet_amount);\n    funds[msg.sender] -= bet_amount;\n    Bet memory b = Bet(msg.sender, bet_type, bet, bet_amount, block.timestamp);\n    bets.push(b);\n    \n    emit BetPlaced(b);\n  }\n\n  // Note: Replace with chainlink\n  function random(uint mod) public view returns (uint) {\n    return\n      uint(keccak256(abi.encodePacked(block.difficulty, block.timestamp))) % mod;\n  }\n\n  function is_red(uint roll) public pure returns (bool) {\n    if (roll < 11 || (roll > 18 && roll < 29)) {\n      // Red odd, black even\n      return roll % 2 == 1;\n    } else {\n      return roll % 2 == 0;\n    }\n  }\n\n  function calculate_winnings(Bet memory bet, uint roll) public pure returns (uint) {\n    // House edge\n    if (roll == 0) {\n      return 0;\n    }\n\n    if (bet.bet_type == BetType.COLOUR) {\n      // 0 = red, 1 = black\n      if (bet.bet == (is_red(roll) ? 0 : 1)) {\n        return bet.bet_amount * 2;\n      }\n    } else if (bet.bet_type == BetType.ODDEVEN) {\n      // 0 = even, 1 = odd\n      if (bet.bet == (roll % 2)) {\n        return bet.bet_amount * 2;\n      }\n    } else if (bet.bet_type == BetType.STRAIGHTUP) {\n      if (bet.bet == roll) {\n        return bet.bet_amount * 35;\n      }\n    }\n\n    return 0;\n  }\n\n  function play() public onlyHouse {\n    uint roll = random(37);\n    emit OutcomeDecided(roll);\n\n    for (uint i = 0; i < bets.length; i++) {\n      if (roll == 0) {\n        // If it came up with the house edge, designate stake to the house\n        funds[owner] += bets[i].bet_amount;\n      } else {\n        uint w = calculate_winnings(bets[i], roll);\n        if(w > 0) {\n          // Else if player won (w > 0) designate their winnings (incl. stake) to them\n          funds[bets[i].player] += w;\n        }\n        // Else player lost and roll != 0, funds stay in the contract to pay off future winners\n      }\n    }\n\n    delete bets;\n  }\n}\n",
  "sourcePath": "F:\\1Repo\\glass-casino\\contracts\\Roulette.sol",
  "compiler": {
    "name": "solc",
    "version": "0.8.7+commit.e28d00a7.Emscripten.clang"
  },
  "schemaVersion": "3.4.3",
  "updatedAt": "2022-01-15T23:30:27.466Z",
  "networkType": "ethereum",
  "devdoc": {
    "kind": "dev",
    "methods": {},
    "version": 1
  },
  "userdoc": {
    "kind": "user",
    "methods": {},
    "version": 1
  }
}