{
	"data": {
		"bytecode": {
			"linkReferences": {},
			"object": "60c060405234801561001057600080fd5b50738c7382f9d8f56b33781fe506e897a4f1e2d1725573326c977e6efc84e512bb9c30f76e30c160ed06fb8173ffffffffffffffffffffffffffffffffffffffff1660a08173ffffffffffffffffffffffffffffffffffffffff1660601b815250508073ffffffffffffffffffffffffffffffffffffffff1660808173ffffffffffffffffffffffffffffffffffffffff1660601b81525050505033600160006101000a81548173ffffffffffffffffffffffffffffffffffffffff021916908373ffffffffffffffffffffffffffffffffffffffff1602179055507f6e75b569a01ef56d18cab6a8e71e6600d6ce853834d4a5748b720d06f878b3a460001b600381905550655af3107a400060048190555060805160601c60a05160601c61149161015c6000396000818161032b0152610a3201526000818161047601526109f601526114916000f3fe6080604052600436106100705760003560e01c806394985ddd1161004e57806394985ddd14610106578063b69ef8a81461012f578063d0e30db01461015a578063ddfd29cf1461016457610070565b8063205023fc146100755780632e1a7d4d146100b25780638da5cb5b146100db575b600080fd5b34801561008157600080fd5b5061009c60048036038101906100979190610c96565b61018d565b6040516100a991906110bc565b60405180910390f35b3480156100be57600080fd5b506100d960048036038101906100d49190610d29565b6101fd565b005b3480156100e757600080fd5b506100f0610303565b6040516100fd9190610f3e565b60405180910390f35b34801561011257600080fd5b5061012d60048036038101906101289190610ce9565b610329565b005b34801561013b57600080fd5b506101446103c5565b60405161015191906110bc565b60405180910390f35b61016261040c565b005b34801561017057600080fd5b5061018b60048036038101906101869190610c56565b610471565b005b60008082148061019d5750606482145b806101a85750603282145b156101b657600090506101f6565b8380156101c35750603282115b806101d85750831580156101d75750603282105b5b156101f1576002836101ea919061115a565b90506101f6565b600090505b9392505050565b6000811161020a57600080fd5b80600260003373ffffffffffffffffffffffffffffffffffffffff1673ffffffffffffffffffffffffffffffffffffffff16815260200190815260200160002054101561025657600080fd5b8047101561026357600080fd5b80600260003373ffffffffffffffffffffffffffffffffffffffff1673ffffffffffffffffffffffffffffffffffffffff16815260200190815260200160002060008282546102b291906111b4565b925050819055503373ffffffffffffffffffffffffffffffffffffffff166108fc829081150290604051600060405180830381858888f193505050501580156102ff573d6000803e3d6000fd5b5050565b600160009054906101000a900473ffffffffffffffffffffffffffffffffffffffff1681565b7f000000000000000000000000000000000000000000000000000000000000000073ffffffffffffffffffffffffffffffffffffffff163373ffffffffffffffffffffffffffffffffffffffff16146103b7576040517f08c379a00000000000000000000000000000000000000000000000000000000081526004016103ae90611045565b60405180910390fd5b6103c18282610790565b5050565b6000600260003373ffffffffffffffffffffffffffffffffffffffff1673ffffffffffffffffffffffffffffffffffffffff16815260200190815260200160002054905090565b6000341161041957600080fd5b34600260003373ffffffffffffffffffffffffffffffffffffffff1673ffffffffffffffffffffffffffffffffffffffff16815260200190815260200160002060008282546104689190611104565b92505081905550565b6004547f000000000000000000000000000000000000000000000000000000000000000073ffffffffffffffffffffffffffffffffffffffff166370a08231306040518263ffffffff1660e01b81526004016104cd9190610f3e565b60206040518083038186803b1580156104e557600080fd5b505afa1580156104f9573d6000803e3d6000fd5b505050506040513d601f19601f8201168201806040525081019061051d9190610d56565b101561055e576040517f08c379a000000000000000000000000000000000000000000000000000000000815260040161055590611025565b60405180910390fd5b6000801b600560003373ffffffffffffffffffffffffffffffffffffffff1673ffffffffffffffffffffffffffffffffffffffff16815260200190815260200160002054146105e2576040517f08c379a00000000000000000000000000000000000000000000000000000000081526004016105d990611005565b60405180910390fd5b60008111610625576040517f08c379a000000000000000000000000000000000000000000000000000000000815260040161061c90611065565b60405180910390fd5b60006106356003546004546109f2565b905080600560003373ffffffffffffffffffffffffffffffffffffffff1673ffffffffffffffffffffffffffffffffffffffff1681526020019081526020016000208190555081600260003373ffffffffffffffffffffffffffffffffffffffff1673ffffffffffffffffffffffffffffffffffffffff16815260200190815260200160002060008282546106ca91906111b4565b92505081905550604051806060016040528084151581526020018381526020013373ffffffffffffffffffffffffffffffffffffffff168152506006600083815260200190815260200160002060008201518160000160006101000a81548160ff0219169083151502179055506020820151816001015560408201518160020160006101000a81548173ffffffffffffffffffffffffffffffffffffffff021916908373ffffffffffffffffffffffffffffffffffffffff160217905550905050505050565b600060016064836107a19190611281565b6107ab9190611104565b90506000600660008581526020019081526020016000206040518060600160405290816000820160009054906101000a900460ff16151515158152602001600182015481526020016002820160009054906101000a900473ffffffffffffffffffffffffffffffffffffffff1673ffffffffffffffffffffffffffffffffffffffff1673ffffffffffffffffffffffffffffffffffffffff1681525050905060008083148061085a5750606483145b806108655750603283145b156108eb57816020015160026000600160009054906101000a900473ffffffffffffffffffffffffffffffffffffffff1673ffffffffffffffffffffffffffffffffffffffff1673ffffffffffffffffffffffffffffffffffffffff16815260200190815260200160002060008282546108df9190611104565b92505081905550610965565b6108fe826000015183602001518561018d565b90506000811115610964578060026000846040015173ffffffffffffffffffffffffffffffffffffffff1673ffffffffffffffffffffffffffffffffffffffff168152602001908152602001600020600082825461095c9190611104565b925050819055505b5b6000801b60056000846040015173ffffffffffffffffffffffffffffffffffffffff1673ffffffffffffffffffffffffffffffffffffffff168152602001908152602001600020819055507fdc953b0a9b1361cec32f3c920fc496d4540ba3df4071d4665662bd0a691964d98284836040516109e393929190611085565b60405180910390a15050505050565b60007f000000000000000000000000000000000000000000000000000000000000000073ffffffffffffffffffffffffffffffffffffffff16634000aea07f000000000000000000000000000000000000000000000000000000000000000084866000604051602001610a66929190610f97565b6040516020818303038152906040526040518463ffffffff1660e01b8152600401610a9393929190610f59565b602060405180830381600087803b158015610aad57600080fd5b505af1158015610ac1573d6000803e3d6000fd5b505050506040513d601f19601f82011682018060405250810190610ae59190610c29565b506000610b078460003060008089815260200190815260200160002054610b51565b9050600160008086815260200190815260200160002054610b289190611104565b60008086815260200190815260200160002081905550610b488482610b8d565b91505092915050565b600084848484604051602001610b6a9493929190610fc0565b6040516020818303038152906040528051906020012060001c9050949350505050565b60008282604051602001610ba2929190610f12565b60405160208183030381529060405280519060200120905092915050565b600081359050610bcf81611416565b92915050565b600081519050610be481611416565b92915050565b600081359050610bf98161142d565b92915050565b600081359050610c0e81611444565b92915050565b600081519050610c2381611444565b92915050565b600060208284031215610c3f57610c3e611310565b5b6000610c4d84828501610bd5565b91505092915050565b60008060408385031215610c6d57610c6c611310565b5b6000610c7b85828601610bc0565b9250506020610c8c85828601610bff565b9150509250929050565b600080600060608486031215610caf57610cae611310565b5b6000610cbd86828701610bc0565b9350506020610cce86828701610bff565b9250506040610cdf86828701610bff565b9150509250925092565b60008060408385031215610d0057610cff611310565b5b6000610d0e85828601610bea565b9250506020610d1f85828601610bff565b9150509250929050565b600060208284031215610d3f57610d3e611310565b5b6000610d4d84828501610bff565b91505092915050565b600060208284031215610d6c57610d6b611310565b5b6000610d7a84828501610c14565b91505092915050565b610d8c816111e8565b82525050565b610d9b816111e8565b82525050565b610daa816111fa565b82525050565b610db981611206565b82525050565b610dd0610dcb82611206565b61126d565b82525050565b6000610de1826110d7565b610deb81856110e2565b9350610dfb81856020860161123a565b610e0481611315565b840191505092915050565b6000610e1c602a836110f3565b9150610e2782611326565b604082019050919050565b6000610e3f602c836110f3565b9150610e4a82611375565b604082019050919050565b6000610e62601f836110f3565b9150610e6d826113c4565b602082019050919050565b6000610e856013836110f3565b9150610e90826113ed565b602082019050919050565b606082016000820151610eb16000850182610da1565b506020820151610ec46020850182610edd565b506040820151610ed76040850182610d83565b50505050565b610ee681611230565b82525050565b610ef581611230565b82525050565b610f0c610f0782611230565b611277565b82525050565b6000610f1e8285610dbf565b602082019150610f2e8284610efb565b6020820191508190509392505050565b6000602082019050610f536000830184610d92565b92915050565b6000606082019050610f6e6000830186610d92565b610f7b6020830185610eec565b8181036040830152610f8d8184610dd6565b9050949350505050565b6000604082019050610fac6000830185610db0565b610fb96020830184610eec565b9392505050565b6000608082019050610fd56000830187610db0565b610fe26020830186610eec565b610fef6040830185610d92565b610ffc6060830184610eec565b95945050505050565b6000602082019050818103600083015261101e81610e0f565b9050919050565b6000602082019050818103600083015261103e81610e32565b9050919050565b6000602082019050818103600083015261105e81610e55565b9050919050565b6000602082019050818103600083015261107e81610e78565b9050919050565b600060a08201905061109a6000830186610e9b565b6110a76060830185610eec565b6110b46080830184610eec565b949350505050565b60006020820190506110d16000830184610eec565b92915050565b600081519050919050565b600082825260208201905092915050565b600082825260208201905092915050565b600061110f82611230565b915061111a83611230565b9250827fffffffffffffffffffffffffffffffffffffffffffffffffffffffffffffffff0382111561114f5761114e6112b2565b5b828201905092915050565b600061116582611230565b915061117083611230565b9250817fffffffffffffffffffffffffffffffffffffffffffffffffffffffffffffffff04831182151516156111a9576111a86112b2565b5b828202905092915050565b60006111bf82611230565b91506111ca83611230565b9250828210156111dd576111dc6112b2565b5b828203905092915050565b60006111f382611210565b9050919050565b60008115159050919050565b6000819050919050565b600073ffffffffffffffffffffffffffffffffffffffff82169050919050565b6000819050919050565b60005b8381101561125857808201518184015260208101905061123d565b83811115611267576000848401525b50505050565b6000819050919050565b6000819050919050565b600061128c82611230565b915061129783611230565b9250826112a7576112a66112e1565b5b828206905092915050565b7f4e487b7100000000000000000000000000000000000000000000000000000000600052601160045260246000fd5b7f4e487b7100000000000000000000000000000000000000000000000000000000600052601260045260246000fd5b600080fd5b6000601f19601f8301169050919050565b7f53656e646572206861732067616d652070656e64696e67202d2074727920616760008201527f61696e206c617465722e00000000000000000000000000000000000000000000602082015250565b7f4e6f7420656e6f756768204c494e4b202d2066696c6c20636f6e74726163742060008201527f77697468206661756365742e0000000000000000000000000000000000000000602082015250565b7f4f6e6c7920565246436f6f7264696e61746f722063616e2066756c66696c6c00600082015250565b7f496e76616c69642062657420616d6f756e742e00000000000000000000000000600082015250565b61141f816111fa565b811461142a57600080fd5b50565b61143681611206565b811461144157600080fd5b50565b61144d81611230565b811461145857600080fd5b5056fea26469706673582212203d006e273c4348d01c698b2c059664e899d45fc423127eac90d7eeb084001d3964736f6c63430008070033",
			"opcodes": "PUSH1 0xC0 PUSH1 0x40 MSTORE CALLVALUE DUP1 ISZERO PUSH2 0x10 JUMPI PUSH1 0x0 DUP1 REVERT JUMPDEST POP PUSH20 0x8C7382F9D8F56B33781FE506E897A4F1E2D17255 PUSH20 0x326C977E6EFC84E512BB9C30F76E30C160ED06FB DUP2 PUSH20 0xFFFFFFFFFFFFFFFFFFFFFFFFFFFFFFFFFFFFFFFF AND PUSH1 0xA0 DUP2 PUSH20 0xFFFFFFFFFFFFFFFFFFFFFFFFFFFFFFFFFFFFFFFF AND PUSH1 0x60 SHL DUP2 MSTORE POP POP DUP1 PUSH20 0xFFFFFFFFFFFFFFFFFFFFFFFFFFFFFFFFFFFFFFFF AND PUSH1 0x80 DUP2 PUSH20 0xFFFFFFFFFFFFFFFFFFFFFFFFFFFFFFFFFFFFFFFF AND PUSH1 0x60 SHL DUP2 MSTORE POP POP POP POP CALLER PUSH1 0x1 PUSH1 0x0 PUSH2 0x100 EXP DUP2 SLOAD DUP2 PUSH20 0xFFFFFFFFFFFFFFFFFFFFFFFFFFFFFFFFFFFFFFFF MUL NOT AND SWAP1 DUP4 PUSH20 0xFFFFFFFFFFFFFFFFFFFFFFFFFFFFFFFFFFFFFFFF AND MUL OR SWAP1 SSTORE POP PUSH32 0x6E75B569A01EF56D18CAB6A8E71E6600D6CE853834D4A5748B720D06F878B3A4 PUSH1 0x0 SHL PUSH1 0x3 DUP2 SWAP1 SSTORE POP PUSH6 0x5AF3107A4000 PUSH1 0x4 DUP2 SWAP1 SSTORE POP PUSH1 0x80 MLOAD PUSH1 0x60 SHR PUSH1 0xA0 MLOAD PUSH1 0x60 SHR PUSH2 0x1491 PUSH2 0x15C PUSH1 0x0 CODECOPY PUSH1 0x0 DUP2 DUP2 PUSH2 0x32B ADD MSTORE PUSH2 0xA32 ADD MSTORE PUSH1 0x0 DUP2 DUP2 PUSH2 0x476 ADD MSTORE PUSH2 0x9F6 ADD MSTORE PUSH2 0x1491 PUSH1 0x0 RETURN INVALID PUSH1 0x80 PUSH1 0x40 MSTORE PUSH1 0x4 CALLDATASIZE LT PUSH2 0x70 JUMPI PUSH1 0x0 CALLDATALOAD PUSH1 0xE0 SHR DUP1 PUSH4 0x94985DDD GT PUSH2 0x4E JUMPI DUP1 PUSH4 0x94985DDD EQ PUSH2 0x106 JUMPI DUP1 PUSH4 0xB69EF8A8 EQ PUSH2 0x12F JUMPI DUP1 PUSH4 0xD0E30DB0 EQ PUSH2 0x15A JUMPI DUP1 PUSH4 0xDDFD29CF EQ PUSH2 0x164 JUMPI PUSH2 0x70 JUMP JUMPDEST DUP1 PUSH4 0x205023FC EQ PUSH2 0x75 JUMPI DUP1 PUSH4 0x2E1A7D4D EQ PUSH2 0xB2 JUMPI DUP1 PUSH4 0x8DA5CB5B EQ PUSH2 0xDB JUMPI JUMPDEST PUSH1 0x0 DUP1 REVERT JUMPDEST CALLVALUE DUP1 ISZERO PUSH2 0x81 JUMPI PUSH1 0x0 DUP1 REVERT JUMPDEST POP PUSH2 0x9C PUSH1 0x4 DUP1 CALLDATASIZE SUB DUP2 ADD SWAP1 PUSH2 0x97 SWAP2 SWAP1 PUSH2 0xC96 JUMP JUMPDEST PUSH2 0x18D JUMP JUMPDEST PUSH1 0x40 MLOAD PUSH2 0xA9 SWAP2 SWAP1 PUSH2 0x10BC JUMP JUMPDEST PUSH1 0x40 MLOAD DUP1 SWAP2 SUB SWAP1 RETURN JUMPDEST CALLVALUE DUP1 ISZERO PUSH2 0xBE JUMPI PUSH1 0x0 DUP1 REVERT JUMPDEST POP PUSH2 0xD9 PUSH1 0x4 DUP1 CALLDATASIZE SUB DUP2 ADD SWAP1 PUSH2 0xD4 SWAP2 SWAP1 PUSH2 0xD29 JUMP JUMPDEST PUSH2 0x1FD JUMP JUMPDEST STOP JUMPDEST CALLVALUE DUP1 ISZERO PUSH2 0xE7 JUMPI PUSH1 0x0 DUP1 REVERT JUMPDEST POP PUSH2 0xF0 PUSH2 0x303 JUMP JUMPDEST PUSH1 0x40 MLOAD PUSH2 0xFD SWAP2 SWAP1 PUSH2 0xF3E JUMP JUMPDEST PUSH1 0x40 MLOAD DUP1 SWAP2 SUB SWAP1 RETURN JUMPDEST CALLVALUE DUP1 ISZERO PUSH2 0x112 JUMPI PUSH1 0x0 DUP1 REVERT JUMPDEST POP PUSH2 0x12D PUSH1 0x4 DUP1 CALLDATASIZE SUB DUP2 ADD SWAP1 PUSH2 0x128 SWAP2 SWAP1 PUSH2 0xCE9 JUMP JUMPDEST PUSH2 0x329 JUMP JUMPDEST STOP JUMPDEST CALLVALUE DUP1 ISZERO PUSH2 0x13B JUMPI PUSH1 0x0 DUP1 REVERT JUMPDEST POP PUSH2 0x144 PUSH2 0x3C5 JUMP JUMPDEST PUSH1 0x40 MLOAD PUSH2 0x151 SWAP2 SWAP1 PUSH2 0x10BC JUMP JUMPDEST PUSH1 0x40 MLOAD DUP1 SWAP2 SUB SWAP1 RETURN JUMPDEST PUSH2 0x162 PUSH2 0x40C JUMP JUMPDEST STOP JUMPDEST CALLVALUE DUP1 ISZERO PUSH2 0x170 JUMPI PUSH1 0x0 DUP1 REVERT JUMPDEST POP PUSH2 0x18B PUSH1 0x4 DUP1 CALLDATASIZE SUB DUP2 ADD SWAP1 PUSH2 0x186 SWAP2 SWAP1 PUSH2 0xC56 JUMP JUMPDEST PUSH2 0x471 JUMP JUMPDEST STOP JUMPDEST PUSH1 0x0 DUP1 DUP3 EQ DUP1 PUSH2 0x19D JUMPI POP PUSH1 0x64 DUP3 EQ JUMPDEST DUP1 PUSH2 0x1A8 JUMPI POP PUSH1 0x32 DUP3 EQ JUMPDEST ISZERO PUSH2 0x1B6 JUMPI PUSH1 0x0 SWAP1 POP PUSH2 0x1F6 JUMP JUMPDEST DUP4 DUP1 ISZERO PUSH2 0x1C3 JUMPI POP PUSH1 0x32 DUP3 GT JUMPDEST DUP1 PUSH2 0x1D8 JUMPI POP DUP4 ISZERO DUP1 ISZERO PUSH2 0x1D7 JUMPI POP PUSH1 0x32 DUP3 LT JUMPDEST JUMPDEST ISZERO PUSH2 0x1F1 JUMPI PUSH1 0x2 DUP4 PUSH2 0x1EA SWAP2 SWAP1 PUSH2 0x115A JUMP JUMPDEST SWAP1 POP PUSH2 0x1F6 JUMP JUMPDEST PUSH1 0x0 SWAP1 POP JUMPDEST SWAP4 SWAP3 POP POP POP JUMP JUMPDEST PUSH1 0x0 DUP2 GT PUSH2 0x20A JUMPI PUSH1 0x0 DUP1 REVERT JUMPDEST DUP1 PUSH1 0x2 PUSH1 0x0 CALLER PUSH20 0xFFFFFFFFFFFFFFFFFFFFFFFFFFFFFFFFFFFFFFFF AND PUSH20 0xFFFFFFFFFFFFFFFFFFFFFFFFFFFFFFFFFFFFFFFF AND DUP2 MSTORE PUSH1 0x20 ADD SWAP1 DUP2 MSTORE PUSH1 0x20 ADD PUSH1 0x0 KECCAK256 SLOAD LT ISZERO PUSH2 0x256 JUMPI PUSH1 0x0 DUP1 REVERT JUMPDEST DUP1 SELFBALANCE LT ISZERO PUSH2 0x263 JUMPI PUSH1 0x0 DUP1 REVERT JUMPDEST DUP1 PUSH1 0x2 PUSH1 0x0 CALLER PUSH20 0xFFFFFFFFFFFFFFFFFFFFFFFFFFFFFFFFFFFFFFFF AND PUSH20 0xFFFFFFFFFFFFFFFFFFFFFFFFFFFFFFFFFFFFFFFF AND DUP2 MSTORE PUSH1 0x20 ADD SWAP1 DUP2 MSTORE PUSH1 0x20 ADD PUSH1 0x0 KECCAK256 PUSH1 0x0 DUP3 DUP3 SLOAD PUSH2 0x2B2 SWAP2 SWAP1 PUSH2 0x11B4 JUMP JUMPDEST SWAP3 POP POP DUP2 SWAP1 SSTORE POP CALLER PUSH20 0xFFFFFFFFFFFFFFFFFFFFFFFFFFFFFFFFFFFFFFFF AND PUSH2 0x8FC DUP3 SWAP1 DUP2 ISZERO MUL SWAP1 PUSH1 0x40 MLOAD PUSH1 0x0 PUSH1 0x40 MLOAD DUP1 DUP4 SUB DUP2 DUP6 DUP9 DUP9 CALL SWAP4 POP POP POP POP ISZERO DUP1 ISZERO PUSH2 0x2FF JUMPI RETURNDATASIZE PUSH1 0x0 DUP1 RETURNDATACOPY RETURNDATASIZE PUSH1 0x0 REVERT JUMPDEST POP POP JUMP JUMPDEST PUSH1 0x1 PUSH1 0x0 SWAP1 SLOAD SWAP1 PUSH2 0x100 EXP SWAP1 DIV PUSH20 0xFFFFFFFFFFFFFFFFFFFFFFFFFFFFFFFFFFFFFFFF AND DUP2 JUMP JUMPDEST PUSH32 0x0 PUSH20 0xFFFFFFFFFFFFFFFFFFFFFFFFFFFFFFFFFFFFFFFF AND CALLER PUSH20 0xFFFFFFFFFFFFFFFFFFFFFFFFFFFFFFFFFFFFFFFF AND EQ PUSH2 0x3B7 JUMPI PUSH1 0x40 MLOAD PUSH32 0x8C379A000000000000000000000000000000000000000000000000000000000 DUP2 MSTORE PUSH1 0x4 ADD PUSH2 0x3AE SWAP1 PUSH2 0x1045 JUMP JUMPDEST PUSH1 0x40 MLOAD DUP1 SWAP2 SUB SWAP1 REVERT JUMPDEST PUSH2 0x3C1 DUP3 DUP3 PUSH2 0x790 JUMP JUMPDEST POP POP JUMP JUMPDEST PUSH1 0x0 PUSH1 0x2 PUSH1 0x0 CALLER PUSH20 0xFFFFFFFFFFFFFFFFFFFFFFFFFFFFFFFFFFFFFFFF AND PUSH20 0xFFFFFFFFFFFFFFFFFFFFFFFFFFFFFFFFFFFFFFFF AND DUP2 MSTORE PUSH1 0x20 ADD SWAP1 DUP2 MSTORE PUSH1 0x20 ADD PUSH1 0x0 KECCAK256 SLOAD SWAP1 POP SWAP1 JUMP JUMPDEST PUSH1 0x0 CALLVALUE GT PUSH2 0x419 JUMPI PUSH1 0x0 DUP1 REVERT JUMPDEST CALLVALUE PUSH1 0x2 PUSH1 0x0 CALLER PUSH20 0xFFFFFFFFFFFFFFFFFFFFFFFFFFFFFFFFFFFFFFFF AND PUSH20 0xFFFFFFFFFFFFFFFFFFFFFFFFFFFFFFFFFFFFFFFF AND DUP2 MSTORE PUSH1 0x20 ADD SWAP1 DUP2 MSTORE PUSH1 0x20 ADD PUSH1 0x0 KECCAK256 PUSH1 0x0 DUP3 DUP3 SLOAD PUSH2 0x468 SWAP2 SWAP1 PUSH2 0x1104 JUMP JUMPDEST SWAP3 POP POP DUP2 SWAP1 SSTORE POP JUMP JUMPDEST PUSH1 0x4 SLOAD PUSH32 0x0 PUSH20 0xFFFFFFFFFFFFFFFFFFFFFFFFFFFFFFFFFFFFFFFF AND PUSH4 0x70A08231 ADDRESS PUSH1 0x40 MLOAD DUP3 PUSH4 0xFFFFFFFF AND PUSH1 0xE0 SHL DUP2 MSTORE PUSH1 0x4 ADD PUSH2 0x4CD SWAP2 SWAP1 PUSH2 0xF3E JUMP JUMPDEST PUSH1 0x20 PUSH1 0x40 MLOAD DUP1 DUP4 SUB DUP2 DUP7 DUP1 EXTCODESIZE ISZERO DUP1 ISZERO PUSH2 0x4E5 JUMPI PUSH1 0x0 DUP1 REVERT JUMPDEST POP GAS STATICCALL ISZERO DUP1 ISZERO PUSH2 0x4F9 JUMPI RETURNDATASIZE PUSH1 0x0 DUP1 RETURNDATACOPY RETURNDATASIZE PUSH1 0x0 REVERT JUMPDEST POP POP POP POP PUSH1 0x40 MLOAD RETURNDATASIZE PUSH1 0x1F NOT PUSH1 0x1F DUP3 ADD AND DUP3 ADD DUP1 PUSH1 0x40 MSTORE POP DUP2 ADD SWAP1 PUSH2 0x51D SWAP2 SWAP1 PUSH2 0xD56 JUMP JUMPDEST LT ISZERO PUSH2 0x55E JUMPI PUSH1 0x40 MLOAD PUSH32 0x8C379A000000000000000000000000000000000000000000000000000000000 DUP2 MSTORE PUSH1 0x4 ADD PUSH2 0x555 SWAP1 PUSH2 0x1025 JUMP JUMPDEST PUSH1 0x40 MLOAD DUP1 SWAP2 SUB SWAP1 REVERT JUMPDEST PUSH1 0x0 DUP1 SHL PUSH1 0x5 PUSH1 0x0 CALLER PUSH20 0xFFFFFFFFFFFFFFFFFFFFFFFFFFFFFFFFFFFFFFFF AND PUSH20 0xFFFFFFFFFFFFFFFFFFFFFFFFFFFFFFFFFFFFFFFF AND DUP2 MSTORE PUSH1 0x20 ADD SWAP1 DUP2 MSTORE PUSH1 0x20 ADD PUSH1 0x0 KECCAK256 SLOAD EQ PUSH2 0x5E2 JUMPI PUSH1 0x40 MLOAD PUSH32 0x8C379A000000000000000000000000000000000000000000000000000000000 DUP2 MSTORE PUSH1 0x4 ADD PUSH2 0x5D9 SWAP1 PUSH2 0x1005 JUMP JUMPDEST PUSH1 0x40 MLOAD DUP1 SWAP2 SUB SWAP1 REVERT JUMPDEST PUSH1 0x0 DUP2 GT PUSH2 0x625 JUMPI PUSH1 0x40 MLOAD PUSH32 0x8C379A000000000000000000000000000000000000000000000000000000000 DUP2 MSTORE PUSH1 0x4 ADD PUSH2 0x61C SWAP1 PUSH2 0x1065 JUMP JUMPDEST PUSH1 0x40 MLOAD DUP1 SWAP2 SUB SWAP1 REVERT JUMPDEST PUSH1 0x0 PUSH2 0x635 PUSH1 0x3 SLOAD PUSH1 0x4 SLOAD PUSH2 0x9F2 JUMP JUMPDEST SWAP1 POP DUP1 PUSH1 0x5 PUSH1 0x0 CALLER PUSH20 0xFFFFFFFFFFFFFFFFFFFFFFFFFFFFFFFFFFFFFFFF AND PUSH20 0xFFFFFFFFFFFFFFFFFFFFFFFFFFFFFFFFFFFFFFFF AND DUP2 MSTORE PUSH1 0x20 ADD SWAP1 DUP2 MSTORE PUSH1 0x20 ADD PUSH1 0x0 KECCAK256 DUP2 SWAP1 SSTORE POP DUP2 PUSH1 0x2 PUSH1 0x0 CALLER PUSH20 0xFFFFFFFFFFFFFFFFFFFFFFFFFFFFFFFFFFFFFFFF AND PUSH20 0xFFFFFFFFFFFFFFFFFFFFFFFFFFFFFFFFFFFFFFFF AND DUP2 MSTORE PUSH1 0x20 ADD SWAP1 DUP2 MSTORE PUSH1 0x20 ADD PUSH1 0x0 KECCAK256 PUSH1 0x0 DUP3 DUP3 SLOAD PUSH2 0x6CA SWAP2 SWAP1 PUSH2 0x11B4 JUMP JUMPDEST SWAP3 POP POP DUP2 SWAP1 SSTORE POP PUSH1 0x40 MLOAD DUP1 PUSH1 0x60 ADD PUSH1 0x40 MSTORE DUP1 DUP5 ISZERO ISZERO DUP2 MSTORE PUSH1 0x20 ADD DUP4 DUP2 MSTORE PUSH1 0x20 ADD CALLER PUSH20 0xFFFFFFFFFFFFFFFFFFFFFFFFFFFFFFFFFFFFFFFF AND DUP2 MSTORE POP PUSH1 0x6 PUSH1 0x0 DUP4 DUP2 MSTORE PUSH1 0x20 ADD SWAP1 DUP2 MSTORE PUSH1 0x20 ADD PUSH1 0x0 KECCAK256 PUSH1 0x0 DUP3 ADD MLOAD DUP2 PUSH1 0x0 ADD PUSH1 0x0 PUSH2 0x100 EXP DUP2 SLOAD DUP2 PUSH1 0xFF MUL NOT AND SWAP1 DUP4 ISZERO ISZERO MUL OR SWAP1 SSTORE POP PUSH1 0x20 DUP3 ADD MLOAD DUP2 PUSH1 0x1 ADD SSTORE PUSH1 0x40 DUP3 ADD MLOAD DUP2 PUSH1 0x2 ADD PUSH1 0x0 PUSH2 0x100 EXP DUP2 SLOAD DUP2 PUSH20 0xFFFFFFFFFFFFFFFFFFFFFFFFFFFFFFFFFFFFFFFF MUL NOT AND SWAP1 DUP4 PUSH20 0xFFFFFFFFFFFFFFFFFFFFFFFFFFFFFFFFFFFFFFFF AND MUL OR SWAP1 SSTORE POP SWAP1 POP POP POP POP POP JUMP JUMPDEST PUSH1 0x0 PUSH1 0x1 PUSH1 0x64 DUP4 PUSH2 0x7A1 SWAP2 SWAP1 PUSH2 0x1281 JUMP JUMPDEST PUSH2 0x7AB SWAP2 SWAP1 PUSH2 0x1104 JUMP JUMPDEST SWAP1 POP PUSH1 0x0 PUSH1 0x6 PUSH1 0x0 DUP6 DUP2 MSTORE PUSH1 0x20 ADD SWAP1 DUP2 MSTORE PUSH1 0x20 ADD PUSH1 0x0 KECCAK256 PUSH1 0x40 MLOAD DUP1 PUSH1 0x60 ADD PUSH1 0x40 MSTORE SWAP1 DUP2 PUSH1 0x0 DUP3 ADD PUSH1 0x0 SWAP1 SLOAD SWAP1 PUSH2 0x100 EXP SWAP1 DIV PUSH1 0xFF AND ISZERO ISZERO ISZERO ISZERO DUP2 MSTORE PUSH1 0x20 ADD PUSH1 0x1 DUP3 ADD SLOAD DUP2 MSTORE PUSH1 0x20 ADD PUSH1 0x2 DUP3 ADD PUSH1 0x0 SWAP1 SLOAD SWAP1 PUSH2 0x100 EXP SWAP1 DIV PUSH20 0xFFFFFFFFFFFFFFFFFFFFFFFFFFFFFFFFFFFFFFFF AND PUSH20 0xFFFFFFFFFFFFFFFFFFFFFFFFFFFFFFFFFFFFFFFF AND PUSH20 0xFFFFFFFFFFFFFFFFFFFFFFFFFFFFFFFFFFFFFFFF AND DUP2 MSTORE POP POP SWAP1 POP PUSH1 0x0 DUP1 DUP4 EQ DUP1 PUSH2 0x85A JUMPI POP PUSH1 0x64 DUP4 EQ JUMPDEST DUP1 PUSH2 0x865 JUMPI POP PUSH1 0x32 DUP4 EQ JUMPDEST ISZERO PUSH2 0x8EB JUMPI DUP2 PUSH1 0x20 ADD MLOAD PUSH1 0x2 PUSH1 0x0 PUSH1 0x1 PUSH1 0x0 SWAP1 SLOAD SWAP1 PUSH2 0x100 EXP SWAP1 DIV PUSH20 0xFFFFFFFFFFFFFFFFFFFFFFFFFFFFFFFFFFFFFFFF AND PUSH20 0xFFFFFFFFFFFFFFFFFFFFFFFFFFFFFFFFFFFFFFFF AND PUSH20 0xFFFFFFFFFFFFFFFFFFFFFFFFFFFFFFFFFFFFFFFF AND DUP2 MSTORE PUSH1 0x20 ADD SWAP1 DUP2 MSTORE PUSH1 0x20 ADD PUSH1 0x0 KECCAK256 PUSH1 0x0 DUP3 DUP3 SLOAD PUSH2 0x8DF SWAP2 SWAP1 PUSH2 0x1104 JUMP JUMPDEST SWAP3 POP POP DUP2 SWAP1 SSTORE POP PUSH2 0x965 JUMP JUMPDEST PUSH2 0x8FE DUP3 PUSH1 0x0 ADD MLOAD DUP4 PUSH1 0x20 ADD MLOAD DUP6 PUSH2 0x18D JUMP JUMPDEST SWAP1 POP PUSH1 0x0 DUP2 GT ISZERO PUSH2 0x964 JUMPI DUP1 PUSH1 0x2 PUSH1 0x0 DUP5 PUSH1 0x40 ADD MLOAD PUSH20 0xFFFFFFFFFFFFFFFFFFFFFFFFFFFFFFFFFFFFFFFF AND PUSH20 0xFFFFFFFFFFFFFFFFFFFFFFFFFFFFFFFFFFFFFFFF AND DUP2 MSTORE PUSH1 0x20 ADD SWAP1 DUP2 MSTORE PUSH1 0x20 ADD PUSH1 0x0 KECCAK256 PUSH1 0x0 DUP3 DUP3 SLOAD PUSH2 0x95C SWAP2 SWAP1 PUSH2 0x1104 JUMP JUMPDEST SWAP3 POP POP DUP2 SWAP1 SSTORE POP JUMPDEST JUMPDEST PUSH1 0x0 DUP1 SHL PUSH1 0x5 PUSH1 0x0 DUP5 PUSH1 0x40 ADD MLOAD PUSH20 0xFFFFFFFFFFFFFFFFFFFFFFFFFFFFFFFFFFFFFFFF AND PUSH20 0xFFFFFFFFFFFFFFFFFFFFFFFFFFFFFFFFFFFFFFFF AND DUP2 MSTORE PUSH1 0x20 ADD SWAP1 DUP2 MSTORE PUSH1 0x20 ADD PUSH1 0x0 KECCAK256 DUP2 SWAP1 SSTORE POP PUSH32 0xDC953B0A9B1361CEC32F3C920FC496D4540BA3DF4071D4665662BD0A691964D9 DUP3 DUP5 DUP4 PUSH1 0x40 MLOAD PUSH2 0x9E3 SWAP4 SWAP3 SWAP2 SWAP1 PUSH2 0x1085 JUMP JUMPDEST PUSH1 0x40 MLOAD DUP1 SWAP2 SUB SWAP1 LOG1 POP POP POP POP POP JUMP JUMPDEST PUSH1 0x0 PUSH32 0x0 PUSH20 0xFFFFFFFFFFFFFFFFFFFFFFFFFFFFFFFFFFFFFFFF AND PUSH4 0x4000AEA0 PUSH32 0x0 DUP5 DUP7 PUSH1 0x0 PUSH1 0x40 MLOAD PUSH1 0x20 ADD PUSH2 0xA66 SWAP3 SWAP2 SWAP1 PUSH2 0xF97 JUMP JUMPDEST PUSH1 0x40 MLOAD PUSH1 0x20 DUP2 DUP4 SUB SUB DUP2 MSTORE SWAP1 PUSH1 0x40 MSTORE PUSH1 0x40 MLOAD DUP5 PUSH4 0xFFFFFFFF AND PUSH1 0xE0 SHL DUP2 MSTORE PUSH1 0x4 ADD PUSH2 0xA93 SWAP4 SWAP3 SWAP2 SWAP1 PUSH2 0xF59 JUMP JUMPDEST PUSH1 0x20 PUSH1 0x40 MLOAD DUP1 DUP4 SUB DUP2 PUSH1 0x0 DUP8 DUP1 EXTCODESIZE ISZERO DUP1 ISZERO PUSH2 0xAAD JUMPI PUSH1 0x0 DUP1 REVERT JUMPDEST POP GAS CALL ISZERO DUP1 ISZERO PUSH2 0xAC1 JUMPI RETURNDATASIZE PUSH1 0x0 DUP1 RETURNDATACOPY RETURNDATASIZE PUSH1 0x0 REVERT JUMPDEST POP POP POP POP PUSH1 0x40 MLOAD RETURNDATASIZE PUSH1 0x1F NOT PUSH1 0x1F DUP3 ADD AND DUP3 ADD DUP1 PUSH1 0x40 MSTORE POP DUP2 ADD SWAP1 PUSH2 0xAE5 SWAP2 SWAP1 PUSH2 0xC29 JUMP JUMPDEST POP PUSH1 0x0 PUSH2 0xB07 DUP5 PUSH1 0x0 ADDRESS PUSH1 0x0 DUP1 DUP10 DUP2 MSTORE PUSH1 0x20 ADD SWAP1 DUP2 MSTORE PUSH1 0x20 ADD PUSH1 0x0 KECCAK256 SLOAD PUSH2 0xB51 JUMP JUMPDEST SWAP1 POP PUSH1 0x1 PUSH1 0x0 DUP1 DUP7 DUP2 MSTORE PUSH1 0x20 ADD SWAP1 DUP2 MSTORE PUSH1 0x20 ADD PUSH1 0x0 KECCAK256 SLOAD PUSH2 0xB28 SWAP2 SWAP1 PUSH2 0x1104 JUMP JUMPDEST PUSH1 0x0 DUP1 DUP7 DUP2 MSTORE PUSH1 0x20 ADD SWAP1 DUP2 MSTORE PUSH1 0x20 ADD PUSH1 0x0 KECCAK256 DUP2 SWAP1 SSTORE POP PUSH2 0xB48 DUP5 DUP3 PUSH2 0xB8D JUMP JUMPDEST SWAP2 POP POP SWAP3 SWAP2 POP POP JUMP JUMPDEST PUSH1 0x0 DUP5 DUP5 DUP5 DUP5 PUSH1 0x40 MLOAD PUSH1 0x20 ADD PUSH2 0xB6A SWAP5 SWAP4 SWAP3 SWAP2 SWAP1 PUSH2 0xFC0 JUMP JUMPDEST PUSH1 0x40 MLOAD PUSH1 0x20 DUP2 DUP4 SUB SUB DUP2 MSTORE SWAP1 PUSH1 0x40 MSTORE DUP1 MLOAD SWAP1 PUSH1 0x20 ADD KECCAK256 PUSH1 0x0 SHR SWAP1 POP SWAP5 SWAP4 POP POP POP POP JUMP JUMPDEST PUSH1 0x0 DUP3 DUP3 PUSH1 0x40 MLOAD PUSH1 0x20 ADD PUSH2 0xBA2 SWAP3 SWAP2 SWAP1 PUSH2 0xF12 JUMP JUMPDEST PUSH1 0x40 MLOAD PUSH1 0x20 DUP2 DUP4 SUB SUB DUP2 MSTORE SWAP1 PUSH1 0x40 MSTORE DUP1 MLOAD SWAP1 PUSH1 0x20 ADD KECCAK256 SWAP1 POP SWAP3 SWAP2 POP POP JUMP JUMPDEST PUSH1 0x0 DUP2 CALLDATALOAD SWAP1 POP PUSH2 0xBCF DUP2 PUSH2 0x1416 JUMP JUMPDEST SWAP3 SWAP2 POP POP JUMP JUMPDEST PUSH1 0x0 DUP2 MLOAD SWAP1 POP PUSH2 0xBE4 DUP2 PUSH2 0x1416 JUMP JUMPDEST SWAP3 SWAP2 POP POP JUMP JUMPDEST PUSH1 0x0 DUP2 CALLDATALOAD SWAP1 POP PUSH2 0xBF9 DUP2 PUSH2 0x142D JUMP JUMPDEST SWAP3 SWAP2 POP POP JUMP JUMPDEST PUSH1 0x0 DUP2 CALLDATALOAD SWAP1 POP PUSH2 0xC0E DUP2 PUSH2 0x1444 JUMP JUMPDEST SWAP3 SWAP2 POP POP JUMP JUMPDEST PUSH1 0x0 DUP2 MLOAD SWAP1 POP PUSH2 0xC23 DUP2 PUSH2 0x1444 JUMP JUMPDEST SWAP3 SWAP2 POP POP JUMP JUMPDEST PUSH1 0x0 PUSH1 0x20 DUP3 DUP5 SUB SLT ISZERO PUSH2 0xC3F JUMPI PUSH2 0xC3E PUSH2 0x1310 JUMP JUMPDEST JUMPDEST PUSH1 0x0 PUSH2 0xC4D DUP5 DUP3 DUP6 ADD PUSH2 0xBD5 JUMP JUMPDEST SWAP2 POP POP SWAP3 SWAP2 POP POP JUMP JUMPDEST PUSH1 0x0 DUP1 PUSH1 0x40 DUP4 DUP6 SUB SLT ISZERO PUSH2 0xC6D JUMPI PUSH2 0xC6C PUSH2 0x1310 JUMP JUMPDEST JUMPDEST PUSH1 0x0 PUSH2 0xC7B DUP6 DUP3 DUP7 ADD PUSH2 0xBC0 JUMP JUMPDEST SWAP3 POP POP PUSH1 0x20 PUSH2 0xC8C DUP6 DUP3 DUP7 ADD PUSH2 0xBFF JUMP JUMPDEST SWAP2 POP POP SWAP3 POP SWAP3 SWAP1 POP JUMP JUMPDEST PUSH1 0x0 DUP1 PUSH1 0x0 PUSH1 0x60 DUP5 DUP7 SUB SLT ISZERO PUSH2 0xCAF JUMPI PUSH2 0xCAE PUSH2 0x1310 JUMP JUMPDEST JUMPDEST PUSH1 0x0 PUSH2 0xCBD DUP7 DUP3 DUP8 ADD PUSH2 0xBC0 JUMP JUMPDEST SWAP4 POP POP PUSH1 0x20 PUSH2 0xCCE DUP7 DUP3 DUP8 ADD PUSH2 0xBFF JUMP JUMPDEST SWAP3 POP POP PUSH1 0x40 PUSH2 0xCDF DUP7 DUP3 DUP8 ADD PUSH2 0xBFF JUMP JUMPDEST SWAP2 POP POP SWAP3 POP SWAP3 POP SWAP3 JUMP JUMPDEST PUSH1 0x0 DUP1 PUSH1 0x40 DUP4 DUP6 SUB SLT ISZERO PUSH2 0xD00 JUMPI PUSH2 0xCFF PUSH2 0x1310 JUMP JUMPDEST JUMPDEST PUSH1 0x0 PUSH2 0xD0E DUP6 DUP3 DUP7 ADD PUSH2 0xBEA JUMP JUMPDEST SWAP3 POP POP PUSH1 0x20 PUSH2 0xD1F DUP6 DUP3 DUP7 ADD PUSH2 0xBFF JUMP JUMPDEST SWAP2 POP POP SWAP3 POP SWAP3 SWAP1 POP JUMP JUMPDEST PUSH1 0x0 PUSH1 0x20 DUP3 DUP5 SUB SLT ISZERO PUSH2 0xD3F JUMPI PUSH2 0xD3E PUSH2 0x1310 JUMP JUMPDEST JUMPDEST PUSH1 0x0 PUSH2 0xD4D DUP5 DUP3 DUP6 ADD PUSH2 0xBFF JUMP JUMPDEST SWAP2 POP POP SWAP3 SWAP2 POP POP JUMP JUMPDEST PUSH1 0x0 PUSH1 0x20 DUP3 DUP5 SUB SLT ISZERO PUSH2 0xD6C JUMPI PUSH2 0xD6B PUSH2 0x1310 JUMP JUMPDEST JUMPDEST PUSH1 0x0 PUSH2 0xD7A DUP5 DUP3 DUP6 ADD PUSH2 0xC14 JUMP JUMPDEST SWAP2 POP POP SWAP3 SWAP2 POP POP JUMP JUMPDEST PUSH2 0xD8C DUP2 PUSH2 0x11E8 JUMP JUMPDEST DUP3 MSTORE POP POP JUMP JUMPDEST PUSH2 0xD9B DUP2 PUSH2 0x11E8 JUMP JUMPDEST DUP3 MSTORE POP POP JUMP JUMPDEST PUSH2 0xDAA DUP2 PUSH2 0x11FA JUMP JUMPDEST DUP3 MSTORE POP POP JUMP JUMPDEST PUSH2 0xDB9 DUP2 PUSH2 0x1206 JUMP JUMPDEST DUP3 MSTORE POP POP JUMP JUMPDEST PUSH2 0xDD0 PUSH2 0xDCB DUP3 PUSH2 0x1206 JUMP JUMPDEST PUSH2 0x126D JUMP JUMPDEST DUP3 MSTORE POP POP JUMP JUMPDEST PUSH1 0x0 PUSH2 0xDE1 DUP3 PUSH2 0x10D7 JUMP JUMPDEST PUSH2 0xDEB DUP2 DUP6 PUSH2 0x10E2 JUMP JUMPDEST SWAP4 POP PUSH2 0xDFB DUP2 DUP6 PUSH1 0x20 DUP7 ADD PUSH2 0x123A JUMP JUMPDEST PUSH2 0xE04 DUP2 PUSH2 0x1315 JUMP JUMPDEST DUP5 ADD SWAP2 POP POP SWAP3 SWAP2 POP POP JUMP JUMPDEST PUSH1 0x0 PUSH2 0xE1C PUSH1 0x2A DUP4 PUSH2 0x10F3 JUMP JUMPDEST SWAP2 POP PUSH2 0xE27 DUP3 PUSH2 0x1326 JUMP JUMPDEST PUSH1 0x40 DUP3 ADD SWAP1 POP SWAP2 SWAP1 POP JUMP JUMPDEST PUSH1 0x0 PUSH2 0xE3F PUSH1 0x2C DUP4 PUSH2 0x10F3 JUMP JUMPDEST SWAP2 POP PUSH2 0xE4A DUP3 PUSH2 0x1375 JUMP JUMPDEST PUSH1 0x40 DUP3 ADD SWAP1 POP SWAP2 SWAP1 POP JUMP JUMPDEST PUSH1 0x0 PUSH2 0xE62 PUSH1 0x1F DUP4 PUSH2 0x10F3 JUMP JUMPDEST SWAP2 POP PUSH2 0xE6D DUP3 PUSH2 0x13C4 JUMP JUMPDEST PUSH1 0x20 DUP3 ADD SWAP1 POP SWAP2 SWAP1 POP JUMP JUMPDEST PUSH1 0x0 PUSH2 0xE85 PUSH1 0x13 DUP4 PUSH2 0x10F3 JUMP JUMPDEST SWAP2 POP PUSH2 0xE90 DUP3 PUSH2 0x13ED JUMP JUMPDEST PUSH1 0x20 DUP3 ADD SWAP1 POP SWAP2 SWAP1 POP JUMP JUMPDEST PUSH1 0x60 DUP3 ADD PUSH1 0x0 DUP3 ADD MLOAD PUSH2 0xEB1 PUSH1 0x0 DUP6 ADD DUP3 PUSH2 0xDA1 JUMP JUMPDEST POP PUSH1 0x20 DUP3 ADD MLOAD PUSH2 0xEC4 PUSH1 0x20 DUP6 ADD DUP3 PUSH2 0xEDD JUMP JUMPDEST POP PUSH1 0x40 DUP3 ADD MLOAD PUSH2 0xED7 PUSH1 0x40 DUP6 ADD DUP3 PUSH2 0xD83 JUMP JUMPDEST POP POP POP POP JUMP JUMPDEST PUSH2 0xEE6 DUP2 PUSH2 0x1230 JUMP JUMPDEST DUP3 MSTORE POP POP JUMP JUMPDEST PUSH2 0xEF5 DUP2 PUSH2 0x1230 JUMP JUMPDEST DUP3 MSTORE POP POP JUMP JUMPDEST PUSH2 0xF0C PUSH2 0xF07 DUP3 PUSH2 0x1230 JUMP JUMPDEST PUSH2 0x1277 JUMP JUMPDEST DUP3 MSTORE POP POP JUMP JUMPDEST PUSH1 0x0 PUSH2 0xF1E DUP3 DUP6 PUSH2 0xDBF JUMP JUMPDEST PUSH1 0x20 DUP3 ADD SWAP2 POP PUSH2 0xF2E DUP3 DUP5 PUSH2 0xEFB JUMP JUMPDEST PUSH1 0x20 DUP3 ADD SWAP2 POP DUP2 SWAP1 POP SWAP4 SWAP3 POP POP POP JUMP JUMPDEST PUSH1 0x0 PUSH1 0x20 DUP3 ADD SWAP1 POP PUSH2 0xF53 PUSH1 0x0 DUP4 ADD DUP5 PUSH2 0xD92 JUMP JUMPDEST SWAP3 SWAP2 POP POP JUMP JUMPDEST PUSH1 0x0 PUSH1 0x60 DUP3 ADD SWAP1 POP PUSH2 0xF6E PUSH1 0x0 DUP4 ADD DUP7 PUSH2 0xD92 JUMP JUMPDEST PUSH2 0xF7B PUSH1 0x20 DUP4 ADD DUP6 PUSH2 0xEEC JUMP JUMPDEST DUP2 DUP2 SUB PUSH1 0x40 DUP4 ADD MSTORE PUSH2 0xF8D DUP2 DUP5 PUSH2 0xDD6 JUMP JUMPDEST SWAP1 POP SWAP5 SWAP4 POP POP POP POP JUMP JUMPDEST PUSH1 0x0 PUSH1 0x40 DUP3 ADD SWAP1 POP PUSH2 0xFAC PUSH1 0x0 DUP4 ADD DUP6 PUSH2 0xDB0 JUMP JUMPDEST PUSH2 0xFB9 PUSH1 0x20 DUP4 ADD DUP5 PUSH2 0xEEC JUMP JUMPDEST SWAP4 SWAP3 POP POP POP JUMP JUMPDEST PUSH1 0x0 PUSH1 0x80 DUP3 ADD SWAP1 POP PUSH2 0xFD5 PUSH1 0x0 DUP4 ADD DUP8 PUSH2 0xDB0 JUMP JUMPDEST PUSH2 0xFE2 PUSH1 0x20 DUP4 ADD DUP7 PUSH2 0xEEC JUMP JUMPDEST PUSH2 0xFEF PUSH1 0x40 DUP4 ADD DUP6 PUSH2 0xD92 JUMP JUMPDEST PUSH2 0xFFC PUSH1 0x60 DUP4 ADD DUP5 PUSH2 0xEEC JUMP JUMPDEST SWAP6 SWAP5 POP POP POP POP POP JUMP JUMPDEST PUSH1 0x0 PUSH1 0x20 DUP3 ADD SWAP1 POP DUP2 DUP2 SUB PUSH1 0x0 DUP4 ADD MSTORE PUSH2 0x101E DUP2 PUSH2 0xE0F JUMP JUMPDEST SWAP1 POP SWAP2 SWAP1 POP JUMP JUMPDEST PUSH1 0x0 PUSH1 0x20 DUP3 ADD SWAP1 POP DUP2 DUP2 SUB PUSH1 0x0 DUP4 ADD MSTORE PUSH2 0x103E DUP2 PUSH2 0xE32 JUMP JUMPDEST SWAP1 POP SWAP2 SWAP1 POP JUMP JUMPDEST PUSH1 0x0 PUSH1 0x20 DUP3 ADD SWAP1 POP DUP2 DUP2 SUB PUSH1 0x0 DUP4 ADD MSTORE PUSH2 0x105E DUP2 PUSH2 0xE55 JUMP JUMPDEST SWAP1 POP SWAP2 SWAP1 POP JUMP JUMPDEST PUSH1 0x0 PUSH1 0x20 DUP3 ADD SWAP1 POP DUP2 DUP2 SUB PUSH1 0x0 DUP4 ADD MSTORE PUSH2 0x107E DUP2 PUSH2 0xE78 JUMP JUMPDEST SWAP1 POP SWAP2 SWAP1 POP JUMP JUMPDEST PUSH1 0x0 PUSH1 0xA0 DUP3 ADD SWAP1 POP PUSH2 0x109A PUSH1 0x0 DUP4 ADD DUP7 PUSH2 0xE9B JUMP JUMPDEST PUSH2 0x10A7 PUSH1 0x60 DUP4 ADD DUP6 PUSH2 0xEEC JUMP JUMPDEST PUSH2 0x10B4 PUSH1 0x80 DUP4 ADD DUP5 PUSH2 0xEEC JUMP JUMPDEST SWAP5 SWAP4 POP POP POP POP JUMP JUMPDEST PUSH1 0x0 PUSH1 0x20 DUP3 ADD SWAP1 POP PUSH2 0x10D1 PUSH1 0x0 DUP4 ADD DUP5 PUSH2 0xEEC JUMP JUMPDEST SWAP3 SWAP2 POP POP JUMP JUMPDEST PUSH1 0x0 DUP2 MLOAD SWAP1 POP SWAP2 SWAP1 POP JUMP JUMPDEST PUSH1 0x0 DUP3 DUP3 MSTORE PUSH1 0x20 DUP3 ADD SWAP1 POP SWAP3 SWAP2 POP POP JUMP JUMPDEST PUSH1 0x0 DUP3 DUP3 MSTORE PUSH1 0x20 DUP3 ADD SWAP1 POP SWAP3 SWAP2 POP POP JUMP JUMPDEST PUSH1 0x0 PUSH2 0x110F DUP3 PUSH2 0x1230 JUMP JUMPDEST SWAP2 POP PUSH2 0x111A DUP4 PUSH2 0x1230 JUMP JUMPDEST SWAP3 POP DUP3 PUSH32 0xFFFFFFFFFFFFFFFFFFFFFFFFFFFFFFFFFFFFFFFFFFFFFFFFFFFFFFFFFFFFFFFF SUB DUP3 GT ISZERO PUSH2 0x114F JUMPI PUSH2 0x114E PUSH2 0x12B2 JUMP JUMPDEST JUMPDEST DUP3 DUP3 ADD SWAP1 POP SWAP3 SWAP2 POP POP JUMP JUMPDEST PUSH1 0x0 PUSH2 0x1165 DUP3 PUSH2 0x1230 JUMP JUMPDEST SWAP2 POP PUSH2 0x1170 DUP4 PUSH2 0x1230 JUMP JUMPDEST SWAP3 POP DUP2 PUSH32 0xFFFFFFFFFFFFFFFFFFFFFFFFFFFFFFFFFFFFFFFFFFFFFFFFFFFFFFFFFFFFFFFF DIV DUP4 GT DUP3 ISZERO ISZERO AND ISZERO PUSH2 0x11A9 JUMPI PUSH2 0x11A8 PUSH2 0x12B2 JUMP JUMPDEST JUMPDEST DUP3 DUP3 MUL SWAP1 POP SWAP3 SWAP2 POP POP JUMP JUMPDEST PUSH1 0x0 PUSH2 0x11BF DUP3 PUSH2 0x1230 JUMP JUMPDEST SWAP2 POP PUSH2 0x11CA DUP4 PUSH2 0x1230 JUMP JUMPDEST SWAP3 POP DUP3 DUP3 LT ISZERO PUSH2 0x11DD JUMPI PUSH2 0x11DC PUSH2 0x12B2 JUMP JUMPDEST JUMPDEST DUP3 DUP3 SUB SWAP1 POP SWAP3 SWAP2 POP POP JUMP JUMPDEST PUSH1 0x0 PUSH2 0x11F3 DUP3 PUSH2 0x1210 JUMP JUMPDEST SWAP1 POP SWAP2 SWAP1 POP JUMP JUMPDEST PUSH1 0x0 DUP2 ISZERO ISZERO SWAP1 POP SWAP2 SWAP1 POP JUMP JUMPDEST PUSH1 0x0 DUP2 SWAP1 POP SWAP2 SWAP1 POP JUMP JUMPDEST PUSH1 0x0 PUSH20 0xFFFFFFFFFFFFFFFFFFFFFFFFFFFFFFFFFFFFFFFF DUP3 AND SWAP1 POP SWAP2 SWAP1 POP JUMP JUMPDEST PUSH1 0x0 DUP2 SWAP1 POP SWAP2 SWAP1 POP JUMP JUMPDEST PUSH1 0x0 JUMPDEST DUP4 DUP2 LT ISZERO PUSH2 0x1258 JUMPI DUP1 DUP3 ADD MLOAD DUP2 DUP5 ADD MSTORE PUSH1 0x20 DUP2 ADD SWAP1 POP PUSH2 0x123D JUMP JUMPDEST DUP4 DUP2 GT ISZERO PUSH2 0x1267 JUMPI PUSH1 0x0 DUP5 DUP5 ADD MSTORE JUMPDEST POP POP POP POP JUMP JUMPDEST PUSH1 0x0 DUP2 SWAP1 POP SWAP2 SWAP1 POP JUMP JUMPDEST PUSH1 0x0 DUP2 SWAP1 POP SWAP2 SWAP1 POP JUMP JUMPDEST PUSH1 0x0 PUSH2 0x128C DUP3 PUSH2 0x1230 JUMP JUMPDEST SWAP2 POP PUSH2 0x1297 DUP4 PUSH2 0x1230 JUMP JUMPDEST SWAP3 POP DUP3 PUSH2 0x12A7 JUMPI PUSH2 0x12A6 PUSH2 0x12E1 JUMP JUMPDEST JUMPDEST DUP3 DUP3 MOD SWAP1 POP SWAP3 SWAP2 POP POP JUMP JUMPDEST PUSH32 0x4E487B7100000000000000000000000000000000000000000000000000000000 PUSH1 0x0 MSTORE PUSH1 0x11 PUSH1 0x4 MSTORE PUSH1 0x24 PUSH1 0x0 REVERT JUMPDEST PUSH32 0x4E487B7100000000000000000000000000000000000000000000000000000000 PUSH1 0x0 MSTORE PUSH1 0x12 PUSH1 0x4 MSTORE PUSH1 0x24 PUSH1 0x0 REVERT JUMPDEST PUSH1 0x0 DUP1 REVERT JUMPDEST PUSH1 0x0 PUSH1 0x1F NOT PUSH1 0x1F DUP4 ADD AND SWAP1 POP SWAP2 SWAP1 POP JUMP JUMPDEST PUSH32 0x53656E646572206861732067616D652070656E64696E67202D20747279206167 PUSH1 0x0 DUP3 ADD MSTORE PUSH32 0x61696E206C617465722E00000000000000000000000000000000000000000000 PUSH1 0x20 DUP3 ADD MSTORE POP JUMP JUMPDEST PUSH32 0x4E6F7420656E6F756768204C494E4B202D2066696C6C20636F6E747261637420 PUSH1 0x0 DUP3 ADD MSTORE PUSH32 0x77697468206661756365742E0000000000000000000000000000000000000000 PUSH1 0x20 DUP3 ADD MSTORE POP JUMP JUMPDEST PUSH32 0x4F6E6C7920565246436F6F7264696E61746F722063616E2066756C66696C6C00 PUSH1 0x0 DUP3 ADD MSTORE POP JUMP JUMPDEST PUSH32 0x496E76616C69642062657420616D6F756E742E00000000000000000000000000 PUSH1 0x0 DUP3 ADD MSTORE POP JUMP JUMPDEST PUSH2 0x141F DUP2 PUSH2 0x11FA JUMP JUMPDEST DUP2 EQ PUSH2 0x142A JUMPI PUSH1 0x0 DUP1 REVERT JUMPDEST POP JUMP JUMPDEST PUSH2 0x1436 DUP2 PUSH2 0x1206 JUMP JUMPDEST DUP2 EQ PUSH2 0x1441 JUMPI PUSH1 0x0 DUP1 REVERT JUMPDEST POP JUMP JUMPDEST PUSH2 0x144D DUP2 PUSH2 0x1230 JUMP JUMPDEST DUP2 EQ PUSH2 0x1458 JUMPI PUSH1 0x0 DUP1 REVERT JUMPDEST POP JUMP INVALID LOG2 PUSH5 0x6970667358 0x22 SLT KECCAK256 RETURNDATASIZE STOP PUSH15 0x273C4348D01C698B2C059664E899D4 0x5F 0xC4 0x23 SLT PUSH31 0xAC90D7EEB084001D3964736F6C634300080700330000000000000000000000 "
		},
		"gasEstimates": {
			"creation": {
				"codeDepositCost": "1053000",
				"executionCost": "infinite",
				"totalCost": "infinite"
			},
			"external": {
				"balance()": "2548",
				"deposit()": "infinite",
				"get_winnings(bool,uint256,uint256)": "infinite",
				"owner()": "2559",
				"play(bool,uint256)": "infinite",
				"rawFulfillRandomness(bytes32,uint256)": "infinite",
				"withdraw(uint256)": "infinite"
			},
			"internal": {
				"fulfillRandomness(bytes32,uint256)": "infinite"
			}
		},
		"methodIdentifiers": {
			"balance()": "b69ef8a8",
			"deposit()": "d0e30db0",
			"get_winnings(bool,uint256,uint256)": "205023fc",
			"owner()": "8da5cb5b",
			"play(bool,uint256)": "ddfd29cf",
			"rawFulfillRandomness(bytes32,uint256)": "94985ddd",
			"withdraw(uint256)": "2e1a7d4d"
		}
	},
	"abi": [
		{
			"inputs": [],
			"stateMutability": "nonpayable",
			"type": "constructor"
		},
		{
			"anonymous": false,
			"inputs": [
				{
					"components": [
						{
							"internalType": "bool",
							"name": "betHigher",
							"type": "bool"
						},
						{
							"internalType": "uint256",
							"name": "bet_amount",
							"type": "uint256"
						},
						{
							"internalType": "address",
							"name": "player",
							"type": "address"
						}
					],
					"indexed": false,
					"internalType": "struct Dice.Game",
					"name": "stake",
					"type": "tuple"
				},
				{
					"indexed": false,
					"internalType": "uint256",
					"name": "roll",
					"type": "uint256"
				},
				{
					"indexed": false,
					"internalType": "uint256",
					"name": "winnings",
					"type": "uint256"
				}
			],
			"name": "GameComplete",
			"type": "event"
		},
		{
			"inputs": [],
			"name": "balance",
			"outputs": [
				{
					"internalType": "uint256",
					"name": "",
					"type": "uint256"
				}
			],
			"stateMutability": "view",
			"type": "function"
		},
		{
			"inputs": [],
			"name": "deposit",
			"outputs": [],
			"stateMutability": "payable",
			"type": "function"
		},
		{
			"inputs": [
				{
					"internalType": "bool",
					"name": "betHigher",
					"type": "bool"
				},
				{
					"internalType": "uint256",
					"name": "bet_amount",
					"type": "uint256"
				},
				{
					"internalType": "uint256",
					"name": "roll",
					"type": "uint256"
				}
			],
			"name": "get_winnings",
			"outputs": [
				{
					"internalType": "uint256",
					"name": "",
					"type": "uint256"
				}
			],
			"stateMutability": "pure",
			"type": "function"
		},
		{
			"inputs": [],
			"name": "owner",
			"outputs": [
				{
					"internalType": "address",
					"name": "",
					"type": "address"
				}
			],
			"stateMutability": "view",
			"type": "function"
		},
		{
			"inputs": [
				{
					"internalType": "bool",
					"name": "betHigher",
					"type": "bool"
				},
				{
					"internalType": "uint256",
					"name": "bet_amount",
					"type": "uint256"
				}
			],
			"name": "play",
			"outputs": [],
			"stateMutability": "nonpayable",
			"type": "function"
		},
		{
			"inputs": [
				{
					"internalType": "bytes32",
					"name": "requestId",
					"type": "bytes32"
				},
				{
					"internalType": "uint256",
					"name": "randomness",
					"type": "uint256"
				}
			],
			"name": "rawFulfillRandomness",
			"outputs": [],
			"stateMutability": "nonpayable",
			"type": "function"
		},
		{
			"inputs": [
				{
					"internalType": "uint256",
					"name": "amount",
					"type": "uint256"
				}
			],
			"name": "withdraw",
			"outputs": [],
			"stateMutability": "nonpayable",
			"type": "function"
		}
	]
}