{
	"data": {
		"bytecode": {
			"linkReferences": {},
			"object": "60806040526001600060146101000a81548160ff02191690831515021790555034801561002b57600080fd5b50336000806101000a81548173ffffffffffffffffffffffffffffffffffffffff021916908373ffffffffffffffffffffffffffffffffffffffff1602179055506112ca8061007b6000396000f3fe6080604052600436106100865760003560e01c806393e84cd91161005957806393e84cd914610135578063b4b674cb1461014c578063b863bd3714610189578063f0780bd5146101c6578063f4d4c9d71461020357610086565b80635fe36f0a1461008b57806366ec8dbf146100b6578063797fae9d146100df5780637b275c881461010a575b600080fd5b34801561009757600080fd5b506100a061021f565b6040516100ad9190610e3e565b60405180910390f35b3480156100c257600080fd5b506100dd60048036038101906100d89190610bd2565b61026a565b005b3480156100eb57600080fd5b506100f46102fb565b6040516101019190610e90565b60405180910390f35b34801561011657600080fd5b5061011f610308565b60405161012c9190610e1c565b60405180910390f35b34801561014157600080fd5b5061014a61040c565b005b34801561015857600080fd5b50610173600480360381019061016e9190610bd2565b6106ab565b6040516101809190610e5a565b60405180910390f35b34801561019557600080fd5b506101b060048036038101906101ab9190610bd2565b6106fc565b6040516101bd9190610e90565b60405180910390f35b3480156101d257600080fd5b506101ed60048036038101906101e89190610b92565b61073c565b6040516101fa9190610e90565b60405180910390f35b61021d60048036038101906102189190610b52565b61088a565b005b6102276109f2565b6002606480602002604051908101604052809291908260648015610260576020028201915b81548152602001906001019080831161024c575b5050505050905090565b60005b6001606461027b9190610fe6565b8110156102d05760026001826102919190610f36565b606481106102a2576102a16111c9565b5b0154600282606481106102b8576102b76111c9565b5b018190555080806102c8906110b8565b91505061026d565b50806002600160646102e29190610fe6565b606481106102f3576102f26111c9565b5b018190555050565b6000600180549050905090565b60606001805480602002602001604051908101604052809291908181526020016000905b8282101561040357838290600052602060002090600302016040518060800160405290816000820160009054906101000a900473ffffffffffffffffffffffffffffffffffffffff1673ffffffffffffffffffffffffffffffffffffffff1673ffffffffffffffffffffffffffffffffffffffff1681526020016000820160149054906101000a900460ff1660028111156103ca576103c961119a565b5b60028111156103dc576103db61119a565b5b8152602001600182015481526020016002820154815250508152602001906001019061032c565b50505050905090565b60008054906101000a900473ffffffffffffffffffffffffffffffffffffffff1673ffffffffffffffffffffffffffffffffffffffff163373ffffffffffffffffffffffffffffffffffffffff161461046457600080fd5b600060149054906101000a900460ff1661047d57600080fd5b60008060146101000a81548160ff02191690831515021790555060006104a360256106fc565b90506104ae8161026a565b7f34cc19c6a5758956f8aec81e3f501b1a3fe6c4b9879081781ec6be0a438f3a54816040516104dd9190610e90565b60405180910390a160005b60018054905081101561067e5760006105d26001838154811061050e5761050d6111c9565b5b90600052602060002090600302016040518060800160405290816000820160009054906101000a900473ffffffffffffffffffffffffffffffffffffffff1673ffffffffffffffffffffffffffffffffffffffff1673ffffffffffffffffffffffffffffffffffffffff1681526020016000820160149054906101000a900460ff1660028111156105a2576105a161119a565b5b60028111156105b4576105b361119a565b5b8152602001600182015481526020016002820154815250508461073c565b9050600081111561066a57600182815481106105f1576105f06111c9565b5b906000526020600020906003020160000160009054906101000a900473ffffffffffffffffffffffffffffffffffffffff1673ffffffffffffffffffffffffffffffffffffffff166108fc829081150290604051600060405180830381858888f19350505050158015610668573d6000803e3d6000fd5b505b508080610676906110b8565b9150506104e8565b506001600061068d9190610a15565b6001600060146101000a81548160ff02191690831515021790555050565b6000600b8210806106c857506012821180156106c75750601d82105b5b156106e45760016002836106dc919061110b565b1490506106f7565b60006002836106f3919061110b565b1490505b919050565b6000814442604051602001610712929190610df0565b6040516020818303038152906040528051906020012060001c610735919061110b565b9050919050565b60008082141561074f5760009050610884565b600060028111156107635761076261119a565b5b8360200151600281111561077a5761077961119a565b5b14156107c257610789826106ab565b610794576001610797565b60005b60ff16836040015114156107bd57600283606001516107b69190610f8c565b9050610884565b61087f565b600160028111156107d6576107d561119a565b5b836020015160028111156107ed576107ec61119a565b5b141561082857600282610800919061110b565b83604001511415610823576002836060015161081c9190610f8c565b9050610884565b61087e565b60028081111561083b5761083a61119a565b5b836020015160028111156108525761085161119a565b5b141561087d57818360400151141561087c57602383606001516108759190610f8c565b9050610884565b5b5b5b600090505b92915050565b600060149054906101000a900460ff166108a357600080fd5b600034116108b057600080fd5b600060405180608001604052803373ffffffffffffffffffffffffffffffffffffffff1681526020018460028111156108ec576108eb61119a565b5b8152602001838152602001348152509050600181908060018154018082558091505060019003906000526020600020906003020160009091909190915060008201518160000160006101000a81548173ffffffffffffffffffffffffffffffffffffffff021916908373ffffffffffffffffffffffffffffffffffffffff16021790555060208201518160000160146101000a81548160ff0219169083600281111561099b5761099a61119a565b5b0217905550604082015181600101556060820151816002015550507fa57654d9dea7a6159d461426e0cf53aeec9acb37e0bc98d127aad3e8ed0e3566816040516109e59190610e75565b60405180910390a1505050565b60405180610c800160405280606490602082028036833780820191505090505090565b5080546000825560030290600052602060002090810190610a369190610a39565b50565b5b80821115610a9757600080820160006101000a81549073ffffffffffffffffffffffffffffffffffffffff02191690556000820160146101000a81549060ff02191690556001820160009055600282016000905550600301610a3a565b5090565b600081359050610aaa81611256565b92915050565b600081359050610abf8161126d565b92915050565b600060808284031215610adb57610ada611227565b5b610ae56080610eab565b90506000610af584828501610a9b565b6000830152506020610b0984828501610ab0565b6020830152506040610b1d84828501610b3d565b6040830152506060610b3184828501610b3d565b60608301525092915050565b600081359050610b4c8161127d565b92915050565b60008060408385031215610b6957610b6861122c565b5b6000610b7785828601610ab0565b9250506020610b8885828601610b3d565b9150509250929050565b60008060a08385031215610ba957610ba861122c565b5b6000610bb785828601610ac5565b9250506080610bc885828601610b3d565b9150509250929050565b600060208284031215610be857610be761122c565b5b6000610bf684828501610b3d565b91505092915050565b6000610c0b8383610d11565b60808301905092915050565b6000610c238383610dbb565b60208301905092915050565b610c388161101a565b82525050565b6000610c4982610eea565b610c538185610f1a565b9350610c5e83610ed0565b8060005b83811015610c8f578151610c768882610bff565b9750610c8183610f00565b925050600181019050610c62565b5085935050505092915050565b610ca581610ef5565b610caf8184610f2b565b9250610cba82610ee0565b8060005b83811015610ceb578151610cd28782610c17565b9650610cdd83610f0d565b925050600181019050610cbe565b505050505050565b610cfc8161102c565b82525050565b610d0b81611075565b82525050565b608082016000820151610d276000850182610c2f565b506020820151610d3a6020850182610d02565b506040820151610d4d6040850182610dbb565b506060820151610d606060850182610dbb565b50505050565b608082016000820151610d7c6000850182610c2f565b506020820151610d8f6020850182610d02565b506040820151610da26040850182610dbb565b506060820151610db56060850182610dbb565b50505050565b610dc48161106b565b82525050565b610dd38161106b565b82525050565b610dea610de58261106b565b611101565b82525050565b6000610dfc8285610dd9565b602082019150610e0c8284610dd9565b6020820191508190509392505050565b60006020820190508181036000830152610e368184610c3e565b905092915050565b6000610c8082019050610e546000830184610c9c565b92915050565b6000602082019050610e6f6000830184610cf3565b92915050565b6000608082019050610e8a6000830184610d66565b92915050565b6000602082019050610ea56000830184610dca565b92915050565b6000610eb5610ec6565b9050610ec18282611087565b919050565b6000604051905090565b6000819050602082019050919050565b6000819050919050565b600081519050919050565b600060649050919050565b6000602082019050919050565b6000602082019050919050565b600082825260208201905092915050565b600081905092915050565b6000610f418261106b565b9150610f4c8361106b565b9250827fffffffffffffffffffffffffffffffffffffffffffffffffffffffffffffffff03821115610f8157610f8061113c565b5b828201905092915050565b6000610f978261106b565b9150610fa28361106b565b9250817fffffffffffffffffffffffffffffffffffffffffffffffffffffffffffffffff0483118215151615610fdb57610fda61113c565b5b828202905092915050565b6000610ff18261106b565b9150610ffc8361106b565b92508282101561100f5761100e61113c565b5b828203905092915050565b60006110258261104b565b9050919050565b60008115159050919050565b600081905061104682611242565b919050565b600073ffffffffffffffffffffffffffffffffffffffff82169050919050565b6000819050919050565b600061108082611038565b9050919050565b61109082611231565b810181811067ffffffffffffffff821117156110af576110ae6111f8565b5b80604052505050565b60006110c38261106b565b91507fffffffffffffffffffffffffffffffffffffffffffffffffffffffffffffffff8214156110f6576110f561113c565b5b600182019050919050565b6000819050919050565b60006111168261106b565b91506111218361106b565b9250826111315761113061116b565b5b828206905092915050565b7f4e487b7100000000000000000000000000000000000000000000000000000000600052601160045260246000fd5b7f4e487b7100000000000000000000000000000000000000000000000000000000600052601260045260246000fd5b7f4e487b7100000000000000000000000000000000000000000000000000000000600052602160045260246000fd5b7f4e487b7100000000000000000000000000000000000000000000000000000000600052603260045260246000fd5b7f4e487b7100000000000000000000000000000000000000000000000000000000600052604160045260246000fd5b600080fd5b600080fd5b6000601f19601f8301169050919050565b600381106112535761125261119a565b5b50565b61125f8161101a565b811461126a57600080fd5b50565b6003811061127a57600080fd5b50565b6112868161106b565b811461129157600080fd5b5056fea26469706673582212207d5e8e8fc2b34f6aed89d524f3b6f7e058f15e28c2a8171f1000a1f7c75fd0d864736f6c63430008070033",
			"opcodes": "PUSH1 0x80 PUSH1 0x40 MSTORE PUSH1 0x1 PUSH1 0x0 PUSH1 0x14 PUSH2 0x100 EXP DUP2 SLOAD DUP2 PUSH1 0xFF MUL NOT AND SWAP1 DUP4 ISZERO ISZERO MUL OR SWAP1 SSTORE POP CALLVALUE DUP1 ISZERO PUSH2 0x2B JUMPI PUSH1 0x0 DUP1 REVERT JUMPDEST POP CALLER PUSH1 0x0 DUP1 PUSH2 0x100 EXP DUP2 SLOAD DUP2 PUSH20 0xFFFFFFFFFFFFFFFFFFFFFFFFFFFFFFFFFFFFFFFF MUL NOT AND SWAP1 DUP4 PUSH20 0xFFFFFFFFFFFFFFFFFFFFFFFFFFFFFFFFFFFFFFFF AND MUL OR SWAP1 SSTORE POP PUSH2 0x12CA DUP1 PUSH2 0x7B PUSH1 0x0 CODECOPY PUSH1 0x0 RETURN INVALID PUSH1 0x80 PUSH1 0x40 MSTORE PUSH1 0x4 CALLDATASIZE LT PUSH2 0x86 JUMPI PUSH1 0x0 CALLDATALOAD PUSH1 0xE0 SHR DUP1 PUSH4 0x93E84CD9 GT PUSH2 0x59 JUMPI DUP1 PUSH4 0x93E84CD9 EQ PUSH2 0x135 JUMPI DUP1 PUSH4 0xB4B674CB EQ PUSH2 0x14C JUMPI DUP1 PUSH4 0xB863BD37 EQ PUSH2 0x189 JUMPI DUP1 PUSH4 0xF0780BD5 EQ PUSH2 0x1C6 JUMPI DUP1 PUSH4 0xF4D4C9D7 EQ PUSH2 0x203 JUMPI PUSH2 0x86 JUMP JUMPDEST DUP1 PUSH4 0x5FE36F0A EQ PUSH2 0x8B JUMPI DUP1 PUSH4 0x66EC8DBF EQ PUSH2 0xB6 JUMPI DUP1 PUSH4 0x797FAE9D EQ PUSH2 0xDF JUMPI DUP1 PUSH4 0x7B275C88 EQ PUSH2 0x10A JUMPI JUMPDEST PUSH1 0x0 DUP1 REVERT JUMPDEST CALLVALUE DUP1 ISZERO PUSH2 0x97 JUMPI PUSH1 0x0 DUP1 REVERT JUMPDEST POP PUSH2 0xA0 PUSH2 0x21F JUMP JUMPDEST PUSH1 0x40 MLOAD PUSH2 0xAD SWAP2 SWAP1 PUSH2 0xE3E JUMP JUMPDEST PUSH1 0x40 MLOAD DUP1 SWAP2 SUB SWAP1 RETURN JUMPDEST CALLVALUE DUP1 ISZERO PUSH2 0xC2 JUMPI PUSH1 0x0 DUP1 REVERT JUMPDEST POP PUSH2 0xDD PUSH1 0x4 DUP1 CALLDATASIZE SUB DUP2 ADD SWAP1 PUSH2 0xD8 SWAP2 SWAP1 PUSH2 0xBD2 JUMP JUMPDEST PUSH2 0x26A JUMP JUMPDEST STOP JUMPDEST CALLVALUE DUP1 ISZERO PUSH2 0xEB JUMPI PUSH1 0x0 DUP1 REVERT JUMPDEST POP PUSH2 0xF4 PUSH2 0x2FB JUMP JUMPDEST PUSH1 0x40 MLOAD PUSH2 0x101 SWAP2 SWAP1 PUSH2 0xE90 JUMP JUMPDEST PUSH1 0x40 MLOAD DUP1 SWAP2 SUB SWAP1 RETURN JUMPDEST CALLVALUE DUP1 ISZERO PUSH2 0x116 JUMPI PUSH1 0x0 DUP1 REVERT JUMPDEST POP PUSH2 0x11F PUSH2 0x308 JUMP JUMPDEST PUSH1 0x40 MLOAD PUSH2 0x12C SWAP2 SWAP1 PUSH2 0xE1C JUMP JUMPDEST PUSH1 0x40 MLOAD DUP1 SWAP2 SUB SWAP1 RETURN JUMPDEST CALLVALUE DUP1 ISZERO PUSH2 0x141 JUMPI PUSH1 0x0 DUP1 REVERT JUMPDEST POP PUSH2 0x14A PUSH2 0x40C JUMP JUMPDEST STOP JUMPDEST CALLVALUE DUP1 ISZERO PUSH2 0x158 JUMPI PUSH1 0x0 DUP1 REVERT JUMPDEST POP PUSH2 0x173 PUSH1 0x4 DUP1 CALLDATASIZE SUB DUP2 ADD SWAP1 PUSH2 0x16E SWAP2 SWAP1 PUSH2 0xBD2 JUMP JUMPDEST PUSH2 0x6AB JUMP JUMPDEST PUSH1 0x40 MLOAD PUSH2 0x180 SWAP2 SWAP1 PUSH2 0xE5A JUMP JUMPDEST PUSH1 0x40 MLOAD DUP1 SWAP2 SUB SWAP1 RETURN JUMPDEST CALLVALUE DUP1 ISZERO PUSH2 0x195 JUMPI PUSH1 0x0 DUP1 REVERT JUMPDEST POP PUSH2 0x1B0 PUSH1 0x4 DUP1 CALLDATASIZE SUB DUP2 ADD SWAP1 PUSH2 0x1AB SWAP2 SWAP1 PUSH2 0xBD2 JUMP JUMPDEST PUSH2 0x6FC JUMP JUMPDEST PUSH1 0x40 MLOAD PUSH2 0x1BD SWAP2 SWAP1 PUSH2 0xE90 JUMP JUMPDEST PUSH1 0x40 MLOAD DUP1 SWAP2 SUB SWAP1 RETURN JUMPDEST CALLVALUE DUP1 ISZERO PUSH2 0x1D2 JUMPI PUSH1 0x0 DUP1 REVERT JUMPDEST POP PUSH2 0x1ED PUSH1 0x4 DUP1 CALLDATASIZE SUB DUP2 ADD SWAP1 PUSH2 0x1E8 SWAP2 SWAP1 PUSH2 0xB92 JUMP JUMPDEST PUSH2 0x73C JUMP JUMPDEST PUSH1 0x40 MLOAD PUSH2 0x1FA SWAP2 SWAP1 PUSH2 0xE90 JUMP JUMPDEST PUSH1 0x40 MLOAD DUP1 SWAP2 SUB SWAP1 RETURN JUMPDEST PUSH2 0x21D PUSH1 0x4 DUP1 CALLDATASIZE SUB DUP2 ADD SWAP1 PUSH2 0x218 SWAP2 SWAP1 PUSH2 0xB52 JUMP JUMPDEST PUSH2 0x88A JUMP JUMPDEST STOP JUMPDEST PUSH2 0x227 PUSH2 0x9F2 JUMP JUMPDEST PUSH1 0x2 PUSH1 0x64 DUP1 PUSH1 0x20 MUL PUSH1 0x40 MLOAD SWAP1 DUP2 ADD PUSH1 0x40 MSTORE DUP1 SWAP3 SWAP2 SWAP1 DUP3 PUSH1 0x64 DUP1 ISZERO PUSH2 0x260 JUMPI PUSH1 0x20 MUL DUP3 ADD SWAP2 JUMPDEST DUP2 SLOAD DUP2 MSTORE PUSH1 0x20 ADD SWAP1 PUSH1 0x1 ADD SWAP1 DUP1 DUP4 GT PUSH2 0x24C JUMPI JUMPDEST POP POP POP POP POP SWAP1 POP SWAP1 JUMP JUMPDEST PUSH1 0x0 JUMPDEST PUSH1 0x1 PUSH1 0x64 PUSH2 0x27B SWAP2 SWAP1 PUSH2 0xFE6 JUMP JUMPDEST DUP2 LT ISZERO PUSH2 0x2D0 JUMPI PUSH1 0x2 PUSH1 0x1 DUP3 PUSH2 0x291 SWAP2 SWAP1 PUSH2 0xF36 JUMP JUMPDEST PUSH1 0x64 DUP2 LT PUSH2 0x2A2 JUMPI PUSH2 0x2A1 PUSH2 0x11C9 JUMP JUMPDEST JUMPDEST ADD SLOAD PUSH1 0x2 DUP3 PUSH1 0x64 DUP2 LT PUSH2 0x2B8 JUMPI PUSH2 0x2B7 PUSH2 0x11C9 JUMP JUMPDEST JUMPDEST ADD DUP2 SWAP1 SSTORE POP DUP1 DUP1 PUSH2 0x2C8 SWAP1 PUSH2 0x10B8 JUMP JUMPDEST SWAP2 POP POP PUSH2 0x26D JUMP JUMPDEST POP DUP1 PUSH1 0x2 PUSH1 0x1 PUSH1 0x64 PUSH2 0x2E2 SWAP2 SWAP1 PUSH2 0xFE6 JUMP JUMPDEST PUSH1 0x64 DUP2 LT PUSH2 0x2F3 JUMPI PUSH2 0x2F2 PUSH2 0x11C9 JUMP JUMPDEST JUMPDEST ADD DUP2 SWAP1 SSTORE POP POP JUMP JUMPDEST PUSH1 0x0 PUSH1 0x1 DUP1 SLOAD SWAP1 POP SWAP1 POP SWAP1 JUMP JUMPDEST PUSH1 0x60 PUSH1 0x1 DUP1 SLOAD DUP1 PUSH1 0x20 MUL PUSH1 0x20 ADD PUSH1 0x40 MLOAD SWAP1 DUP2 ADD PUSH1 0x40 MSTORE DUP1 SWAP3 SWAP2 SWAP1 DUP2 DUP2 MSTORE PUSH1 0x20 ADD PUSH1 0x0 SWAP1 JUMPDEST DUP3 DUP3 LT ISZERO PUSH2 0x403 JUMPI DUP4 DUP3 SWAP1 PUSH1 0x0 MSTORE PUSH1 0x20 PUSH1 0x0 KECCAK256 SWAP1 PUSH1 0x3 MUL ADD PUSH1 0x40 MLOAD DUP1 PUSH1 0x80 ADD PUSH1 0x40 MSTORE SWAP1 DUP2 PUSH1 0x0 DUP3 ADD PUSH1 0x0 SWAP1 SLOAD SWAP1 PUSH2 0x100 EXP SWAP1 DIV PUSH20 0xFFFFFFFFFFFFFFFFFFFFFFFFFFFFFFFFFFFFFFFF AND PUSH20 0xFFFFFFFFFFFFFFFFFFFFFFFFFFFFFFFFFFFFFFFF AND PUSH20 0xFFFFFFFFFFFFFFFFFFFFFFFFFFFFFFFFFFFFFFFF AND DUP2 MSTORE PUSH1 0x20 ADD PUSH1 0x0 DUP3 ADD PUSH1 0x14 SWAP1 SLOAD SWAP1 PUSH2 0x100 EXP SWAP1 DIV PUSH1 0xFF AND PUSH1 0x2 DUP2 GT ISZERO PUSH2 0x3CA JUMPI PUSH2 0x3C9 PUSH2 0x119A JUMP JUMPDEST JUMPDEST PUSH1 0x2 DUP2 GT ISZERO PUSH2 0x3DC JUMPI PUSH2 0x3DB PUSH2 0x119A JUMP JUMPDEST JUMPDEST DUP2 MSTORE PUSH1 0x20 ADD PUSH1 0x1 DUP3 ADD SLOAD DUP2 MSTORE PUSH1 0x20 ADD PUSH1 0x2 DUP3 ADD SLOAD DUP2 MSTORE POP POP DUP2 MSTORE PUSH1 0x20 ADD SWAP1 PUSH1 0x1 ADD SWAP1 PUSH2 0x32C JUMP JUMPDEST POP POP POP POP SWAP1 POP SWAP1 JUMP JUMPDEST PUSH1 0x0 DUP1 SLOAD SWAP1 PUSH2 0x100 EXP SWAP1 DIV PUSH20 0xFFFFFFFFFFFFFFFFFFFFFFFFFFFFFFFFFFFFFFFF AND PUSH20 0xFFFFFFFFFFFFFFFFFFFFFFFFFFFFFFFFFFFFFFFF AND CALLER PUSH20 0xFFFFFFFFFFFFFFFFFFFFFFFFFFFFFFFFFFFFFFFF AND EQ PUSH2 0x464 JUMPI PUSH1 0x0 DUP1 REVERT JUMPDEST PUSH1 0x0 PUSH1 0x14 SWAP1 SLOAD SWAP1 PUSH2 0x100 EXP SWAP1 DIV PUSH1 0xFF AND PUSH2 0x47D JUMPI PUSH1 0x0 DUP1 REVERT JUMPDEST PUSH1 0x0 DUP1 PUSH1 0x14 PUSH2 0x100 EXP DUP2 SLOAD DUP2 PUSH1 0xFF MUL NOT AND SWAP1 DUP4 ISZERO ISZERO MUL OR SWAP1 SSTORE POP PUSH1 0x0 PUSH2 0x4A3 PUSH1 0x25 PUSH2 0x6FC JUMP JUMPDEST SWAP1 POP PUSH2 0x4AE DUP2 PUSH2 0x26A JUMP JUMPDEST PUSH32 0x34CC19C6A5758956F8AEC81E3F501B1A3FE6C4B9879081781EC6BE0A438F3A54 DUP2 PUSH1 0x40 MLOAD PUSH2 0x4DD SWAP2 SWAP1 PUSH2 0xE90 JUMP JUMPDEST PUSH1 0x40 MLOAD DUP1 SWAP2 SUB SWAP1 LOG1 PUSH1 0x0 JUMPDEST PUSH1 0x1 DUP1 SLOAD SWAP1 POP DUP2 LT ISZERO PUSH2 0x67E JUMPI PUSH1 0x0 PUSH2 0x5D2 PUSH1 0x1 DUP4 DUP2 SLOAD DUP2 LT PUSH2 0x50E JUMPI PUSH2 0x50D PUSH2 0x11C9 JUMP JUMPDEST JUMPDEST SWAP1 PUSH1 0x0 MSTORE PUSH1 0x20 PUSH1 0x0 KECCAK256 SWAP1 PUSH1 0x3 MUL ADD PUSH1 0x40 MLOAD DUP1 PUSH1 0x80 ADD PUSH1 0x40 MSTORE SWAP1 DUP2 PUSH1 0x0 DUP3 ADD PUSH1 0x0 SWAP1 SLOAD SWAP1 PUSH2 0x100 EXP SWAP1 DIV PUSH20 0xFFFFFFFFFFFFFFFFFFFFFFFFFFFFFFFFFFFFFFFF AND PUSH20 0xFFFFFFFFFFFFFFFFFFFFFFFFFFFFFFFFFFFFFFFF AND PUSH20 0xFFFFFFFFFFFFFFFFFFFFFFFFFFFFFFFFFFFFFFFF AND DUP2 MSTORE PUSH1 0x20 ADD PUSH1 0x0 DUP3 ADD PUSH1 0x14 SWAP1 SLOAD SWAP1 PUSH2 0x100 EXP SWAP1 DIV PUSH1 0xFF AND PUSH1 0x2 DUP2 GT ISZERO PUSH2 0x5A2 JUMPI PUSH2 0x5A1 PUSH2 0x119A JUMP JUMPDEST JUMPDEST PUSH1 0x2 DUP2 GT ISZERO PUSH2 0x5B4 JUMPI PUSH2 0x5B3 PUSH2 0x119A JUMP JUMPDEST JUMPDEST DUP2 MSTORE PUSH1 0x20 ADD PUSH1 0x1 DUP3 ADD SLOAD DUP2 MSTORE PUSH1 0x20 ADD PUSH1 0x2 DUP3 ADD SLOAD DUP2 MSTORE POP POP DUP5 PUSH2 0x73C JUMP JUMPDEST SWAP1 POP PUSH1 0x0 DUP2 GT ISZERO PUSH2 0x66A JUMPI PUSH1 0x1 DUP3 DUP2 SLOAD DUP2 LT PUSH2 0x5F1 JUMPI PUSH2 0x5F0 PUSH2 0x11C9 JUMP JUMPDEST JUMPDEST SWAP1 PUSH1 0x0 MSTORE PUSH1 0x20 PUSH1 0x0 KECCAK256 SWAP1 PUSH1 0x3 MUL ADD PUSH1 0x0 ADD PUSH1 0x0 SWAP1 SLOAD SWAP1 PUSH2 0x100 EXP SWAP1 DIV PUSH20 0xFFFFFFFFFFFFFFFFFFFFFFFFFFFFFFFFFFFFFFFF AND PUSH20 0xFFFFFFFFFFFFFFFFFFFFFFFFFFFFFFFFFFFFFFFF AND PUSH2 0x8FC DUP3 SWAP1 DUP2 ISZERO MUL SWAP1 PUSH1 0x40 MLOAD PUSH1 0x0 PUSH1 0x40 MLOAD DUP1 DUP4 SUB DUP2 DUP6 DUP9 DUP9 CALL SWAP4 POP POP POP POP ISZERO DUP1 ISZERO PUSH2 0x668 JUMPI RETURNDATASIZE PUSH1 0x0 DUP1 RETURNDATACOPY RETURNDATASIZE PUSH1 0x0 REVERT JUMPDEST POP JUMPDEST POP DUP1 DUP1 PUSH2 0x676 SWAP1 PUSH2 0x10B8 JUMP JUMPDEST SWAP2 POP POP PUSH2 0x4E8 JUMP JUMPDEST POP PUSH1 0x1 PUSH1 0x0 PUSH2 0x68D SWAP2 SWAP1 PUSH2 0xA15 JUMP JUMPDEST PUSH1 0x1 PUSH1 0x0 PUSH1 0x14 PUSH2 0x100 EXP DUP2 SLOAD DUP2 PUSH1 0xFF MUL NOT AND SWAP1 DUP4 ISZERO ISZERO MUL OR SWAP1 SSTORE POP POP JUMP JUMPDEST PUSH1 0x0 PUSH1 0xB DUP3 LT DUP1 PUSH2 0x6C8 JUMPI POP PUSH1 0x12 DUP3 GT DUP1 ISZERO PUSH2 0x6C7 JUMPI POP PUSH1 0x1D DUP3 LT JUMPDEST JUMPDEST ISZERO PUSH2 0x6E4 JUMPI PUSH1 0x1 PUSH1 0x2 DUP4 PUSH2 0x6DC SWAP2 SWAP1 PUSH2 0x110B JUMP JUMPDEST EQ SWAP1 POP PUSH2 0x6F7 JUMP JUMPDEST PUSH1 0x0 PUSH1 0x2 DUP4 PUSH2 0x6F3 SWAP2 SWAP1 PUSH2 0x110B JUMP JUMPDEST EQ SWAP1 POP JUMPDEST SWAP2 SWAP1 POP JUMP JUMPDEST PUSH1 0x0 DUP2 DIFFICULTY TIMESTAMP PUSH1 0x40 MLOAD PUSH1 0x20 ADD PUSH2 0x712 SWAP3 SWAP2 SWAP1 PUSH2 0xDF0 JUMP JUMPDEST PUSH1 0x40 MLOAD PUSH1 0x20 DUP2 DUP4 SUB SUB DUP2 MSTORE SWAP1 PUSH1 0x40 MSTORE DUP1 MLOAD SWAP1 PUSH1 0x20 ADD KECCAK256 PUSH1 0x0 SHR PUSH2 0x735 SWAP2 SWAP1 PUSH2 0x110B JUMP JUMPDEST SWAP1 POP SWAP2 SWAP1 POP JUMP JUMPDEST PUSH1 0x0 DUP1 DUP3 EQ ISZERO PUSH2 0x74F JUMPI PUSH1 0x0 SWAP1 POP PUSH2 0x884 JUMP JUMPDEST PUSH1 0x0 PUSH1 0x2 DUP2 GT ISZERO PUSH2 0x763 JUMPI PUSH2 0x762 PUSH2 0x119A JUMP JUMPDEST JUMPDEST DUP4 PUSH1 0x20 ADD MLOAD PUSH1 0x2 DUP2 GT ISZERO PUSH2 0x77A JUMPI PUSH2 0x779 PUSH2 0x119A JUMP JUMPDEST JUMPDEST EQ ISZERO PUSH2 0x7C2 JUMPI PUSH2 0x789 DUP3 PUSH2 0x6AB JUMP JUMPDEST PUSH2 0x794 JUMPI PUSH1 0x1 PUSH2 0x797 JUMP JUMPDEST PUSH1 0x0 JUMPDEST PUSH1 0xFF AND DUP4 PUSH1 0x40 ADD MLOAD EQ ISZERO PUSH2 0x7BD JUMPI PUSH1 0x2 DUP4 PUSH1 0x60 ADD MLOAD PUSH2 0x7B6 SWAP2 SWAP1 PUSH2 0xF8C JUMP JUMPDEST SWAP1 POP PUSH2 0x884 JUMP JUMPDEST PUSH2 0x87F JUMP JUMPDEST PUSH1 0x1 PUSH1 0x2 DUP2 GT ISZERO PUSH2 0x7D6 JUMPI PUSH2 0x7D5 PUSH2 0x119A JUMP JUMPDEST JUMPDEST DUP4 PUSH1 0x20 ADD MLOAD PUSH1 0x2 DUP2 GT ISZERO PUSH2 0x7ED JUMPI PUSH2 0x7EC PUSH2 0x119A JUMP JUMPDEST JUMPDEST EQ ISZERO PUSH2 0x828 JUMPI PUSH1 0x2 DUP3 PUSH2 0x800 SWAP2 SWAP1 PUSH2 0x110B JUMP JUMPDEST DUP4 PUSH1 0x40 ADD MLOAD EQ ISZERO PUSH2 0x823 JUMPI PUSH1 0x2 DUP4 PUSH1 0x60 ADD MLOAD PUSH2 0x81C SWAP2 SWAP1 PUSH2 0xF8C JUMP JUMPDEST SWAP1 POP PUSH2 0x884 JUMP JUMPDEST PUSH2 0x87E JUMP JUMPDEST PUSH1 0x2 DUP1 DUP2 GT ISZERO PUSH2 0x83B JUMPI PUSH2 0x83A PUSH2 0x119A JUMP JUMPDEST JUMPDEST DUP4 PUSH1 0x20 ADD MLOAD PUSH1 0x2 DUP2 GT ISZERO PUSH2 0x852 JUMPI PUSH2 0x851 PUSH2 0x119A JUMP JUMPDEST JUMPDEST EQ ISZERO PUSH2 0x87D JUMPI DUP2 DUP4 PUSH1 0x40 ADD MLOAD EQ ISZERO PUSH2 0x87C JUMPI PUSH1 0x23 DUP4 PUSH1 0x60 ADD MLOAD PUSH2 0x875 SWAP2 SWAP1 PUSH2 0xF8C JUMP JUMPDEST SWAP1 POP PUSH2 0x884 JUMP JUMPDEST JUMPDEST JUMPDEST JUMPDEST PUSH1 0x0 SWAP1 POP JUMPDEST SWAP3 SWAP2 POP POP JUMP JUMPDEST PUSH1 0x0 PUSH1 0x14 SWAP1 SLOAD SWAP1 PUSH2 0x100 EXP SWAP1 DIV PUSH1 0xFF AND PUSH2 0x8A3 JUMPI PUSH1 0x0 DUP1 REVERT JUMPDEST PUSH1 0x0 CALLVALUE GT PUSH2 0x8B0 JUMPI PUSH1 0x0 DUP1 REVERT JUMPDEST PUSH1 0x0 PUSH1 0x40 MLOAD DUP1 PUSH1 0x80 ADD PUSH1 0x40 MSTORE DUP1 CALLER PUSH20 0xFFFFFFFFFFFFFFFFFFFFFFFFFFFFFFFFFFFFFFFF AND DUP2 MSTORE PUSH1 0x20 ADD DUP5 PUSH1 0x2 DUP2 GT ISZERO PUSH2 0x8EC JUMPI PUSH2 0x8EB PUSH2 0x119A JUMP JUMPDEST JUMPDEST DUP2 MSTORE PUSH1 0x20 ADD DUP4 DUP2 MSTORE PUSH1 0x20 ADD CALLVALUE DUP2 MSTORE POP SWAP1 POP PUSH1 0x1 DUP2 SWAP1 DUP1 PUSH1 0x1 DUP2 SLOAD ADD DUP1 DUP3 SSTORE DUP1 SWAP2 POP POP PUSH1 0x1 SWAP1 SUB SWAP1 PUSH1 0x0 MSTORE PUSH1 0x20 PUSH1 0x0 KECCAK256 SWAP1 PUSH1 0x3 MUL ADD PUSH1 0x0 SWAP1 SWAP2 SWAP1 SWAP2 SWAP1 SWAP2 POP PUSH1 0x0 DUP3 ADD MLOAD DUP2 PUSH1 0x0 ADD PUSH1 0x0 PUSH2 0x100 EXP DUP2 SLOAD DUP2 PUSH20 0xFFFFFFFFFFFFFFFFFFFFFFFFFFFFFFFFFFFFFFFF MUL NOT AND SWAP1 DUP4 PUSH20 0xFFFFFFFFFFFFFFFFFFFFFFFFFFFFFFFFFFFFFFFF AND MUL OR SWAP1 SSTORE POP PUSH1 0x20 DUP3 ADD MLOAD DUP2 PUSH1 0x0 ADD PUSH1 0x14 PUSH2 0x100 EXP DUP2 SLOAD DUP2 PUSH1 0xFF MUL NOT AND SWAP1 DUP4 PUSH1 0x2 DUP2 GT ISZERO PUSH2 0x99B JUMPI PUSH2 0x99A PUSH2 0x119A JUMP JUMPDEST JUMPDEST MUL OR SWAP1 SSTORE POP PUSH1 0x40 DUP3 ADD MLOAD DUP2 PUSH1 0x1 ADD SSTORE PUSH1 0x60 DUP3 ADD MLOAD DUP2 PUSH1 0x2 ADD SSTORE POP POP PUSH32 0xA57654D9DEA7A6159D461426E0CF53AEEC9ACB37E0BC98D127AAD3E8ED0E3566 DUP2 PUSH1 0x40 MLOAD PUSH2 0x9E5 SWAP2 SWAP1 PUSH2 0xE75 JUMP JUMPDEST PUSH1 0x40 MLOAD DUP1 SWAP2 SUB SWAP1 LOG1 POP POP POP JUMP JUMPDEST PUSH1 0x40 MLOAD DUP1 PUSH2 0xC80 ADD PUSH1 0x40 MSTORE DUP1 PUSH1 0x64 SWAP1 PUSH1 0x20 DUP3 MUL DUP1 CALLDATASIZE DUP4 CALLDATACOPY DUP1 DUP3 ADD SWAP2 POP POP SWAP1 POP POP SWAP1 JUMP JUMPDEST POP DUP1 SLOAD PUSH1 0x0 DUP3 SSTORE PUSH1 0x3 MUL SWAP1 PUSH1 0x0 MSTORE PUSH1 0x20 PUSH1 0x0 KECCAK256 SWAP1 DUP2 ADD SWAP1 PUSH2 0xA36 SWAP2 SWAP1 PUSH2 0xA39 JUMP JUMPDEST POP JUMP JUMPDEST JUMPDEST DUP1 DUP3 GT ISZERO PUSH2 0xA97 JUMPI PUSH1 0x0 DUP1 DUP3 ADD PUSH1 0x0 PUSH2 0x100 EXP DUP2 SLOAD SWAP1 PUSH20 0xFFFFFFFFFFFFFFFFFFFFFFFFFFFFFFFFFFFFFFFF MUL NOT AND SWAP1 SSTORE PUSH1 0x0 DUP3 ADD PUSH1 0x14 PUSH2 0x100 EXP DUP2 SLOAD SWAP1 PUSH1 0xFF MUL NOT AND SWAP1 SSTORE PUSH1 0x1 DUP3 ADD PUSH1 0x0 SWAP1 SSTORE PUSH1 0x2 DUP3 ADD PUSH1 0x0 SWAP1 SSTORE POP PUSH1 0x3 ADD PUSH2 0xA3A JUMP JUMPDEST POP SWAP1 JUMP JUMPDEST PUSH1 0x0 DUP2 CALLDATALOAD SWAP1 POP PUSH2 0xAAA DUP2 PUSH2 0x1256 JUMP JUMPDEST SWAP3 SWAP2 POP POP JUMP JUMPDEST PUSH1 0x0 DUP2 CALLDATALOAD SWAP1 POP PUSH2 0xABF DUP2 PUSH2 0x126D JUMP JUMPDEST SWAP3 SWAP2 POP POP JUMP JUMPDEST PUSH1 0x0 PUSH1 0x80 DUP3 DUP5 SUB SLT ISZERO PUSH2 0xADB JUMPI PUSH2 0xADA PUSH2 0x1227 JUMP JUMPDEST JUMPDEST PUSH2 0xAE5 PUSH1 0x80 PUSH2 0xEAB JUMP JUMPDEST SWAP1 POP PUSH1 0x0 PUSH2 0xAF5 DUP5 DUP3 DUP6 ADD PUSH2 0xA9B JUMP JUMPDEST PUSH1 0x0 DUP4 ADD MSTORE POP PUSH1 0x20 PUSH2 0xB09 DUP5 DUP3 DUP6 ADD PUSH2 0xAB0 JUMP JUMPDEST PUSH1 0x20 DUP4 ADD MSTORE POP PUSH1 0x40 PUSH2 0xB1D DUP5 DUP3 DUP6 ADD PUSH2 0xB3D JUMP JUMPDEST PUSH1 0x40 DUP4 ADD MSTORE POP PUSH1 0x60 PUSH2 0xB31 DUP5 DUP3 DUP6 ADD PUSH2 0xB3D JUMP JUMPDEST PUSH1 0x60 DUP4 ADD MSTORE POP SWAP3 SWAP2 POP POP JUMP JUMPDEST PUSH1 0x0 DUP2 CALLDATALOAD SWAP1 POP PUSH2 0xB4C DUP2 PUSH2 0x127D JUMP JUMPDEST SWAP3 SWAP2 POP POP JUMP JUMPDEST PUSH1 0x0 DUP1 PUSH1 0x40 DUP4 DUP6 SUB SLT ISZERO PUSH2 0xB69 JUMPI PUSH2 0xB68 PUSH2 0x122C JUMP JUMPDEST JUMPDEST PUSH1 0x0 PUSH2 0xB77 DUP6 DUP3 DUP7 ADD PUSH2 0xAB0 JUMP JUMPDEST SWAP3 POP POP PUSH1 0x20 PUSH2 0xB88 DUP6 DUP3 DUP7 ADD PUSH2 0xB3D JUMP JUMPDEST SWAP2 POP POP SWAP3 POP SWAP3 SWAP1 POP JUMP JUMPDEST PUSH1 0x0 DUP1 PUSH1 0xA0 DUP4 DUP6 SUB SLT ISZERO PUSH2 0xBA9 JUMPI PUSH2 0xBA8 PUSH2 0x122C JUMP JUMPDEST JUMPDEST PUSH1 0x0 PUSH2 0xBB7 DUP6 DUP3 DUP7 ADD PUSH2 0xAC5 JUMP JUMPDEST SWAP3 POP POP PUSH1 0x80 PUSH2 0xBC8 DUP6 DUP3 DUP7 ADD PUSH2 0xB3D JUMP JUMPDEST SWAP2 POP POP SWAP3 POP SWAP3 SWAP1 POP JUMP JUMPDEST PUSH1 0x0 PUSH1 0x20 DUP3 DUP5 SUB SLT ISZERO PUSH2 0xBE8 JUMPI PUSH2 0xBE7 PUSH2 0x122C JUMP JUMPDEST JUMPDEST PUSH1 0x0 PUSH2 0xBF6 DUP5 DUP3 DUP6 ADD PUSH2 0xB3D JUMP JUMPDEST SWAP2 POP POP SWAP3 SWAP2 POP POP JUMP JUMPDEST PUSH1 0x0 PUSH2 0xC0B DUP4 DUP4 PUSH2 0xD11 JUMP JUMPDEST PUSH1 0x80 DUP4 ADD SWAP1 POP SWAP3 SWAP2 POP POP JUMP JUMPDEST PUSH1 0x0 PUSH2 0xC23 DUP4 DUP4 PUSH2 0xDBB JUMP JUMPDEST PUSH1 0x20 DUP4 ADD SWAP1 POP SWAP3 SWAP2 POP POP JUMP JUMPDEST PUSH2 0xC38 DUP2 PUSH2 0x101A JUMP JUMPDEST DUP3 MSTORE POP POP JUMP JUMPDEST PUSH1 0x0 PUSH2 0xC49 DUP3 PUSH2 0xEEA JUMP JUMPDEST PUSH2 0xC53 DUP2 DUP6 PUSH2 0xF1A JUMP JUMPDEST SWAP4 POP PUSH2 0xC5E DUP4 PUSH2 0xED0 JUMP JUMPDEST DUP1 PUSH1 0x0 JUMPDEST DUP4 DUP2 LT ISZERO PUSH2 0xC8F JUMPI DUP2 MLOAD PUSH2 0xC76 DUP9 DUP3 PUSH2 0xBFF JUMP JUMPDEST SWAP8 POP PUSH2 0xC81 DUP4 PUSH2 0xF00 JUMP JUMPDEST SWAP3 POP POP PUSH1 0x1 DUP2 ADD SWAP1 POP PUSH2 0xC62 JUMP JUMPDEST POP DUP6 SWAP4 POP POP POP POP SWAP3 SWAP2 POP POP JUMP JUMPDEST PUSH2 0xCA5 DUP2 PUSH2 0xEF5 JUMP JUMPDEST PUSH2 0xCAF DUP2 DUP5 PUSH2 0xF2B JUMP JUMPDEST SWAP3 POP PUSH2 0xCBA DUP3 PUSH2 0xEE0 JUMP JUMPDEST DUP1 PUSH1 0x0 JUMPDEST DUP4 DUP2 LT ISZERO PUSH2 0xCEB JUMPI DUP2 MLOAD PUSH2 0xCD2 DUP8 DUP3 PUSH2 0xC17 JUMP JUMPDEST SWAP7 POP PUSH2 0xCDD DUP4 PUSH2 0xF0D JUMP JUMPDEST SWAP3 POP POP PUSH1 0x1 DUP2 ADD SWAP1 POP PUSH2 0xCBE JUMP JUMPDEST POP POP POP POP POP POP JUMP JUMPDEST PUSH2 0xCFC DUP2 PUSH2 0x102C JUMP JUMPDEST DUP3 MSTORE POP POP JUMP JUMPDEST PUSH2 0xD0B DUP2 PUSH2 0x1075 JUMP JUMPDEST DUP3 MSTORE POP POP JUMP JUMPDEST PUSH1 0x80 DUP3 ADD PUSH1 0x0 DUP3 ADD MLOAD PUSH2 0xD27 PUSH1 0x0 DUP6 ADD DUP3 PUSH2 0xC2F JUMP JUMPDEST POP PUSH1 0x20 DUP3 ADD MLOAD PUSH2 0xD3A PUSH1 0x20 DUP6 ADD DUP3 PUSH2 0xD02 JUMP JUMPDEST POP PUSH1 0x40 DUP3 ADD MLOAD PUSH2 0xD4D PUSH1 0x40 DUP6 ADD DUP3 PUSH2 0xDBB JUMP JUMPDEST POP PUSH1 0x60 DUP3 ADD MLOAD PUSH2 0xD60 PUSH1 0x60 DUP6 ADD DUP3 PUSH2 0xDBB JUMP JUMPDEST POP POP POP POP JUMP JUMPDEST PUSH1 0x80 DUP3 ADD PUSH1 0x0 DUP3 ADD MLOAD PUSH2 0xD7C PUSH1 0x0 DUP6 ADD DUP3 PUSH2 0xC2F JUMP JUMPDEST POP PUSH1 0x20 DUP3 ADD MLOAD PUSH2 0xD8F PUSH1 0x20 DUP6 ADD DUP3 PUSH2 0xD02 JUMP JUMPDEST POP PUSH1 0x40 DUP3 ADD MLOAD PUSH2 0xDA2 PUSH1 0x40 DUP6 ADD DUP3 PUSH2 0xDBB JUMP JUMPDEST POP PUSH1 0x60 DUP3 ADD MLOAD PUSH2 0xDB5 PUSH1 0x60 DUP6 ADD DUP3 PUSH2 0xDBB JUMP JUMPDEST POP POP POP POP JUMP JUMPDEST PUSH2 0xDC4 DUP2 PUSH2 0x106B JUMP JUMPDEST DUP3 MSTORE POP POP JUMP JUMPDEST PUSH2 0xDD3 DUP2 PUSH2 0x106B JUMP JUMPDEST DUP3 MSTORE POP POP JUMP JUMPDEST PUSH2 0xDEA PUSH2 0xDE5 DUP3 PUSH2 0x106B JUMP JUMPDEST PUSH2 0x1101 JUMP JUMPDEST DUP3 MSTORE POP POP JUMP JUMPDEST PUSH1 0x0 PUSH2 0xDFC DUP3 DUP6 PUSH2 0xDD9 JUMP JUMPDEST PUSH1 0x20 DUP3 ADD SWAP2 POP PUSH2 0xE0C DUP3 DUP5 PUSH2 0xDD9 JUMP JUMPDEST PUSH1 0x20 DUP3 ADD SWAP2 POP DUP2 SWAP1 POP SWAP4 SWAP3 POP POP POP JUMP JUMPDEST PUSH1 0x0 PUSH1 0x20 DUP3 ADD SWAP1 POP DUP2 DUP2 SUB PUSH1 0x0 DUP4 ADD MSTORE PUSH2 0xE36 DUP2 DUP5 PUSH2 0xC3E JUMP JUMPDEST SWAP1 POP SWAP3 SWAP2 POP POP JUMP JUMPDEST PUSH1 0x0 PUSH2 0xC80 DUP3 ADD SWAP1 POP PUSH2 0xE54 PUSH1 0x0 DUP4 ADD DUP5 PUSH2 0xC9C JUMP JUMPDEST SWAP3 SWAP2 POP POP JUMP JUMPDEST PUSH1 0x0 PUSH1 0x20 DUP3 ADD SWAP1 POP PUSH2 0xE6F PUSH1 0x0 DUP4 ADD DUP5 PUSH2 0xCF3 JUMP JUMPDEST SWAP3 SWAP2 POP POP JUMP JUMPDEST PUSH1 0x0 PUSH1 0x80 DUP3 ADD SWAP1 POP PUSH2 0xE8A PUSH1 0x0 DUP4 ADD DUP5 PUSH2 0xD66 JUMP JUMPDEST SWAP3 SWAP2 POP POP JUMP JUMPDEST PUSH1 0x0 PUSH1 0x20 DUP3 ADD SWAP1 POP PUSH2 0xEA5 PUSH1 0x0 DUP4 ADD DUP5 PUSH2 0xDCA JUMP JUMPDEST SWAP3 SWAP2 POP POP JUMP JUMPDEST PUSH1 0x0 PUSH2 0xEB5 PUSH2 0xEC6 JUMP JUMPDEST SWAP1 POP PUSH2 0xEC1 DUP3 DUP3 PUSH2 0x1087 JUMP JUMPDEST SWAP2 SWAP1 POP JUMP JUMPDEST PUSH1 0x0 PUSH1 0x40 MLOAD SWAP1 POP SWAP1 JUMP JUMPDEST PUSH1 0x0 DUP2 SWAP1 POP PUSH1 0x20 DUP3 ADD SWAP1 POP SWAP2 SWAP1 POP JUMP JUMPDEST PUSH1 0x0 DUP2 SWAP1 POP SWAP2 SWAP1 POP JUMP JUMPDEST PUSH1 0x0 DUP2 MLOAD SWAP1 POP SWAP2 SWAP1 POP JUMP JUMPDEST PUSH1 0x0 PUSH1 0x64 SWAP1 POP SWAP2 SWAP1 POP JUMP JUMPDEST PUSH1 0x0 PUSH1 0x20 DUP3 ADD SWAP1 POP SWAP2 SWAP1 POP JUMP JUMPDEST PUSH1 0x0 PUSH1 0x20 DUP3 ADD SWAP1 POP SWAP2 SWAP1 POP JUMP JUMPDEST PUSH1 0x0 DUP3 DUP3 MSTORE PUSH1 0x20 DUP3 ADD SWAP1 POP SWAP3 SWAP2 POP POP JUMP JUMPDEST PUSH1 0x0 DUP2 SWAP1 POP SWAP3 SWAP2 POP POP JUMP JUMPDEST PUSH1 0x0 PUSH2 0xF41 DUP3 PUSH2 0x106B JUMP JUMPDEST SWAP2 POP PUSH2 0xF4C DUP4 PUSH2 0x106B JUMP JUMPDEST SWAP3 POP DUP3 PUSH32 0xFFFFFFFFFFFFFFFFFFFFFFFFFFFFFFFFFFFFFFFFFFFFFFFFFFFFFFFFFFFFFFFF SUB DUP3 GT ISZERO PUSH2 0xF81 JUMPI PUSH2 0xF80 PUSH2 0x113C JUMP JUMPDEST JUMPDEST DUP3 DUP3 ADD SWAP1 POP SWAP3 SWAP2 POP POP JUMP JUMPDEST PUSH1 0x0 PUSH2 0xF97 DUP3 PUSH2 0x106B JUMP JUMPDEST SWAP2 POP PUSH2 0xFA2 DUP4 PUSH2 0x106B JUMP JUMPDEST SWAP3 POP DUP2 PUSH32 0xFFFFFFFFFFFFFFFFFFFFFFFFFFFFFFFFFFFFFFFFFFFFFFFFFFFFFFFFFFFFFFFF DIV DUP4 GT DUP3 ISZERO ISZERO AND ISZERO PUSH2 0xFDB JUMPI PUSH2 0xFDA PUSH2 0x113C JUMP JUMPDEST JUMPDEST DUP3 DUP3 MUL SWAP1 POP SWAP3 SWAP2 POP POP JUMP JUMPDEST PUSH1 0x0 PUSH2 0xFF1 DUP3 PUSH2 0x106B JUMP JUMPDEST SWAP2 POP PUSH2 0xFFC DUP4 PUSH2 0x106B JUMP JUMPDEST SWAP3 POP DUP3 DUP3 LT ISZERO PUSH2 0x100F JUMPI PUSH2 0x100E PUSH2 0x113C JUMP JUMPDEST JUMPDEST DUP3 DUP3 SUB SWAP1 POP SWAP3 SWAP2 POP POP JUMP JUMPDEST PUSH1 0x0 PUSH2 0x1025 DUP3 PUSH2 0x104B JUMP JUMPDEST SWAP1 POP SWAP2 SWAP1 POP JUMP JUMPDEST PUSH1 0x0 DUP2 ISZERO ISZERO SWAP1 POP SWAP2 SWAP1 POP JUMP JUMPDEST PUSH1 0x0 DUP2 SWAP1 POP PUSH2 0x1046 DUP3 PUSH2 0x1242 JUMP JUMPDEST SWAP2 SWAP1 POP JUMP JUMPDEST PUSH1 0x0 PUSH20 0xFFFFFFFFFFFFFFFFFFFFFFFFFFFFFFFFFFFFFFFF DUP3 AND SWAP1 POP SWAP2 SWAP1 POP JUMP JUMPDEST PUSH1 0x0 DUP2 SWAP1 POP SWAP2 SWAP1 POP JUMP JUMPDEST PUSH1 0x0 PUSH2 0x1080 DUP3 PUSH2 0x1038 JUMP JUMPDEST SWAP1 POP SWAP2 SWAP1 POP JUMP JUMPDEST PUSH2 0x1090 DUP3 PUSH2 0x1231 JUMP JUMPDEST DUP2 ADD DUP2 DUP2 LT PUSH8 0xFFFFFFFFFFFFFFFF DUP3 GT OR ISZERO PUSH2 0x10AF JUMPI PUSH2 0x10AE PUSH2 0x11F8 JUMP JUMPDEST JUMPDEST DUP1 PUSH1 0x40 MSTORE POP POP POP JUMP JUMPDEST PUSH1 0x0 PUSH2 0x10C3 DUP3 PUSH2 0x106B JUMP JUMPDEST SWAP2 POP PUSH32 0xFFFFFFFFFFFFFFFFFFFFFFFFFFFFFFFFFFFFFFFFFFFFFFFFFFFFFFFFFFFFFFFF DUP3 EQ ISZERO PUSH2 0x10F6 JUMPI PUSH2 0x10F5 PUSH2 0x113C JUMP JUMPDEST JUMPDEST PUSH1 0x1 DUP3 ADD SWAP1 POP SWAP2 SWAP1 POP JUMP JUMPDEST PUSH1 0x0 DUP2 SWAP1 POP SWAP2 SWAP1 POP JUMP JUMPDEST PUSH1 0x0 PUSH2 0x1116 DUP3 PUSH2 0x106B JUMP JUMPDEST SWAP2 POP PUSH2 0x1121 DUP4 PUSH2 0x106B JUMP JUMPDEST SWAP3 POP DUP3 PUSH2 0x1131 JUMPI PUSH2 0x1130 PUSH2 0x116B JUMP JUMPDEST JUMPDEST DUP3 DUP3 MOD SWAP1 POP SWAP3 SWAP2 POP POP JUMP JUMPDEST PUSH32 0x4E487B7100000000000000000000000000000000000000000000000000000000 PUSH1 0x0 MSTORE PUSH1 0x11 PUSH1 0x4 MSTORE PUSH1 0x24 PUSH1 0x0 REVERT JUMPDEST PUSH32 0x4E487B7100000000000000000000000000000000000000000000000000000000 PUSH1 0x0 MSTORE PUSH1 0x12 PUSH1 0x4 MSTORE PUSH1 0x24 PUSH1 0x0 REVERT JUMPDEST PUSH32 0x4E487B7100000000000000000000000000000000000000000000000000000000 PUSH1 0x0 MSTORE PUSH1 0x21 PUSH1 0x4 MSTORE PUSH1 0x24 PUSH1 0x0 REVERT JUMPDEST PUSH32 0x4E487B7100000000000000000000000000000000000000000000000000000000 PUSH1 0x0 MSTORE PUSH1 0x32 PUSH1 0x4 MSTORE PUSH1 0x24 PUSH1 0x0 REVERT JUMPDEST PUSH32 0x4E487B7100000000000000000000000000000000000000000000000000000000 PUSH1 0x0 MSTORE PUSH1 0x41 PUSH1 0x4 MSTORE PUSH1 0x24 PUSH1 0x0 REVERT JUMPDEST PUSH1 0x0 DUP1 REVERT JUMPDEST PUSH1 0x0 DUP1 REVERT JUMPDEST PUSH1 0x0 PUSH1 0x1F NOT PUSH1 0x1F DUP4 ADD AND SWAP1 POP SWAP2 SWAP1 POP JUMP JUMPDEST PUSH1 0x3 DUP2 LT PUSH2 0x1253 JUMPI PUSH2 0x1252 PUSH2 0x119A JUMP JUMPDEST JUMPDEST POP JUMP JUMPDEST PUSH2 0x125F DUP2 PUSH2 0x101A JUMP JUMPDEST DUP2 EQ PUSH2 0x126A JUMPI PUSH1 0x0 DUP1 REVERT JUMPDEST POP JUMP JUMPDEST PUSH1 0x3 DUP2 LT PUSH2 0x127A JUMPI PUSH1 0x0 DUP1 REVERT JUMPDEST POP JUMP JUMPDEST PUSH2 0x1286 DUP2 PUSH2 0x106B JUMP JUMPDEST DUP2 EQ PUSH2 0x1291 JUMPI PUSH1 0x0 DUP1 REVERT JUMPDEST POP JUMP INVALID LOG2 PUSH5 0x6970667358 0x22 SLT KECCAK256 PUSH30 0x5E8E8FC2B34F6AED89D524F3B6F7E058F15E28C2A8171F1000A1F7C75FD0 0xD8 PUSH5 0x736F6C6343 STOP ADDMOD SMOD STOP CALLER "
		},
		"gasEstimates": {
			"creation": {
				"codeDepositCost": "962000",
				"executionCost": "49584",
				"totalCost": "1011584"
			},
			"external": {
				"add_history(uint256)": "infinite",
				"deposit(uint8,uint256)": "infinite",
				"get_bets()": "infinite",
				"get_bets_length()": "2490",
				"get_history()": "infinite",
				"get_winnings((address,uint8,uint256,uint256),uint256)": "infinite",
				"is_red(uint256)": "infinite",
				"play()": "infinite",
				"random(uint256)": "infinite"
			}
		},
		"methodIdentifiers": {
			"add_history(uint256)": "66ec8dbf",
			"deposit(uint8,uint256)": "f4d4c9d7",
			"get_bets()": "7b275c88",
			"get_bets_length()": "797fae9d",
			"get_history()": "5fe36f0a",
			"get_winnings((address,uint8,uint256,uint256),uint256)": "f0780bd5",
			"is_red(uint256)": "b4b674cb",
			"play()": "93e84cd9",
			"random(uint256)": "b863bd37"
		}
	},
	"abi": [
		{
			"inputs": [],
			"stateMutability": "nonpayable",
			"type": "constructor"
		},
		{
			"anonymous": false,
			"inputs": [
				{
					"components": [
						{
							"internalType": "address payable",
							"name": "player",
							"type": "address"
						},
						{
							"internalType": "enum Roulette.BetType",
							"name": "bet_type",
							"type": "uint8"
						},
						{
							"internalType": "uint256",
							"name": "bet",
							"type": "uint256"
						},
						{
							"internalType": "uint256",
							"name": "bet_amount",
							"type": "uint256"
						}
					],
					"indexed": false,
					"internalType": "struct Roulette.Bet",
					"name": "bet",
					"type": "tuple"
				}
			],
			"name": "BetPlaced",
			"type": "event"
		},
		{
			"anonymous": false,
			"inputs": [
				{
					"indexed": false,
					"internalType": "uint256",
					"name": "roll",
					"type": "uint256"
				}
			],
			"name": "OutcomeDecided",
			"type": "event"
		},
		{
			"inputs": [
				{
					"internalType": "uint256",
					"name": "roll",
					"type": "uint256"
				}
			],
			"name": "add_history",
			"outputs": [],
			"stateMutability": "nonpayable",
			"type": "function"
		},
		{
			"inputs": [
				{
					"internalType": "enum Roulette.BetType",
					"name": "bet_type",
					"type": "uint8"
				},
				{
					"internalType": "uint256",
					"name": "bet",
					"type": "uint256"
				}
			],
			"name": "deposit",
			"outputs": [],
			"stateMutability": "payable",
			"type": "function"
		},
		{
			"inputs": [],
			"name": "get_bets",
			"outputs": [
				{
					"components": [
						{
							"internalType": "address payable",
							"name": "player",
							"type": "address"
						},
						{
							"internalType": "enum Roulette.BetType",
							"name": "bet_type",
							"type": "uint8"
						},
						{
							"internalType": "uint256",
							"name": "bet",
							"type": "uint256"
						},
						{
							"internalType": "uint256",
							"name": "bet_amount",
							"type": "uint256"
						}
					],
					"internalType": "struct Roulette.Bet[]",
					"name": "",
					"type": "tuple[]"
				}
			],
			"stateMutability": "view",
			"type": "function"
		},
		{
			"inputs": [],
			"name": "get_bets_length",
			"outputs": [
				{
					"internalType": "uint256",
					"name": "",
					"type": "uint256"
				}
			],
			"stateMutability": "view",
			"type": "function"
		},
		{
			"inputs": [],
			"name": "get_history",
			"outputs": [
				{
					"internalType": "uint256[100]",
					"name": "",
					"type": "uint256[100]"
				}
			],
			"stateMutability": "view",
			"type": "function"
		},
		{
			"inputs": [
				{
					"components": [
						{
							"internalType": "address payable",
							"name": "player",
							"type": "address"
						},
						{
							"internalType": "enum Roulette.BetType",
							"name": "bet_type",
							"type": "uint8"
						},
						{
							"internalType": "uint256",
							"name": "bet",
							"type": "uint256"
						},
						{
							"internalType": "uint256",
							"name": "bet_amount",
							"type": "uint256"
						}
					],
					"internalType": "struct Roulette.Bet",
					"name": "bet",
					"type": "tuple"
				},
				{
					"internalType": "uint256",
					"name": "roll",
					"type": "uint256"
				}
			],
			"name": "get_winnings",
			"outputs": [
				{
					"internalType": "uint256",
					"name": "",
					"type": "uint256"
				}
			],
			"stateMutability": "pure",
			"type": "function"
		},
		{
			"inputs": [
				{
					"internalType": "uint256",
					"name": "roll",
					"type": "uint256"
				}
			],
			"name": "is_red",
			"outputs": [
				{
					"internalType": "bool",
					"name": "",
					"type": "bool"
				}
			],
			"stateMutability": "pure",
			"type": "function"
		},
		{
			"inputs": [],
			"name": "play",
			"outputs": [],
			"stateMutability": "nonpayable",
			"type": "function"
		},
		{
			"inputs": [
				{
					"internalType": "uint256",
					"name": "mod",
					"type": "uint256"
				}
			],
			"name": "random",
			"outputs": [
				{
					"internalType": "uint256",
					"name": "",
					"type": "uint256"
				}
			],
			"stateMutability": "view",
			"type": "function"
		}
	]
}