{
	"data": {
		"bytecode": {
			"linkReferences": {},
			"object": "608060405234801561001057600080fd5b50336000806101000a81548173ffffffffffffffffffffffffffffffffffffffff021916908373ffffffffffffffffffffffffffffffffffffffff160217905550611663806100606000396000f3fe60806040526004361061009c5760003560e01c80638da5cb5b116100645780638da5cb5b1461018657806393e84cd9146101b1578063b4b674cb146101c8578063b69ef8a814610205578063b863bd3714610230578063d0e30db01461026d5761009c565b80632e1a7d4d146100a157806332e5b0bc146100ca57806342acafbc14610107578063797fae9d146101305780637b275c881461015b575b600080fd5b3480156100ad57600080fd5b506100c860048036038101906100c39190610ec6565b610277565b005b3480156100d657600080fd5b506100f160048036038101906100ec9190610e33565b61037d565b6040516100fe919061117c565b60405180910390f35b34801561011357600080fd5b5061012e60048036038101906101299190610e73565b610478565b005b34801561013c57600080fd5b506101456106d6565b604051610152919061117c565b60405180910390f35b34801561016757600080fd5b506101706106e3565b60405161017d9190611124565b60405180910390f35b34801561019257600080fd5b5061019b610814565b6040516101a89190611109565b60405180910390f35b3480156101bd57600080fd5b506101c6610838565b005b3480156101d457600080fd5b506101ef60048036038101906101ea9190610ec6565b610b67565b6040516101fc9190611146565b60405180910390f35b34801561021157600080fd5b5061021a610bb8565b604051610227919061117c565b60405180910390f35b34801561023c57600080fd5b5061025760048036038101906102529190610ec6565b610bff565b604051610264919061117c565b60405180910390f35b610275610c3f565b005b6000811161028457600080fd5b80600160003373ffffffffffffffffffffffffffffffffffffffff1673ffffffffffffffffffffffffffffffffffffffff1681526020019081526020016000205410156102d057600080fd5b804710156102dd57600080fd5b80600160003373ffffffffffffffffffffffffffffffffffffffff1673ffffffffffffffffffffffffffffffffffffffff168152602001908152602001600020600082825461032c91906112a5565b925050819055503373ffffffffffffffffffffffffffffffffffffffff166108fc829081150290604051600060405180830381858888f19350505050158015610379573d6000803e3d6000fd5b5050565b6000808214156103905760009050610472565b6000836000015161ffff1614156103e7576103aa82610b67565b6103b55760016103b8565b60005b60ff16836020015161ffff1614156103e257600283608001516103db919061124b565b9050610472565b61046d565b6001836000015161ffff161415610431576002826104059190611495565b836020015161ffff16141561042c5760028360800151610425919061124b565b9050610472565b61046c565b6002836000015161ffff16141561046b5781836020015161ffff16141561046a5760238360800151610463919061124b565b9050610472565b5b5b5b600090505b92915050565b6000821180156104c7575081600160003373ffffffffffffffffffffffffffffffffffffffff1673ffffffffffffffffffffffffffffffffffffffff1681526020019081526020016000205410155b6104d057600080fd5b81600160003373ffffffffffffffffffffffffffffffffffffffff1673ffffffffffffffffffffffffffffffffffffffff168152602001908152602001600020600082825461051f91906112a5565b9250508190555060026040518060a001604052808561ffff1681526020018361ffff1681526020014267ffffffffffffffff1681526020013373ffffffffffffffffffffffffffffffffffffffff16815260200184815250908060018154018082558091505060019003906000526020600020906002020160009091909190915060008201518160000160006101000a81548161ffff021916908361ffff16021790555060208201518160000160026101000a81548161ffff021916908361ffff16021790555060408201518160000160046101000a81548167ffffffffffffffff021916908367ffffffffffffffff160217905550606082015181600001600c6101000a81548173ffffffffffffffffffffffffffffffffffffffff021916908373ffffffffffffffffffffffffffffffffffffffff1602179055506080820151816001015550507f168ba5d36b75cd9e2c0d58cc82bada2c8502840a34b832d9f9f943252ae3db0d6002600160028054905061069d91906112a5565b815481106106ae576106ad611524565b5b90600052602060002090600202016040516106c99190611161565b60405180910390a1505050565b6000600280549050905090565b60606002805480602002602001604051908101604052809291908181526020016000905b8282101561080b57838290600052602060002090600202016040518060a00160405290816000820160009054906101000a900461ffff1661ffff1661ffff1681526020016000820160029054906101000a900461ffff1661ffff1661ffff1681526020016000820160049054906101000a900467ffffffffffffffff1667ffffffffffffffff1667ffffffffffffffff16815260200160008201600c9054906101000a900473ffffffffffffffffffffffffffffffffffffffff1673ffffffffffffffffffffffffffffffffffffffff1673ffffffffffffffffffffffffffffffffffffffff16815260200160018201548152505081526020019060010190610707565b50505050905090565b60008054906101000a900473ffffffffffffffffffffffffffffffffffffffff1681565b60008054906101000a900473ffffffffffffffffffffffffffffffffffffffff1673ffffffffffffffffffffffffffffffffffffffff163373ffffffffffffffffffffffffffffffffffffffff161461089057600080fd5b600061089c6025610bff565b90507f34cc19c6a5758956f8aec81e3f501b1a3fe6c4b9879081781ec6be0a438f3a54816040516108cd919061117c565b60405180910390a160005b600280549050811015610b5557600082141561098f576002818154811061090257610901611524565b5b906000526020600020906002020160010154600160008060009054906101000a900473ffffffffffffffffffffffffffffffffffffffff1673ffffffffffffffffffffffffffffffffffffffff1673ffffffffffffffffffffffffffffffffffffffff168152602001908152602001600020600082825461098391906111f5565b92505081905550610b42565b6000610a99600283815481106109a8576109a7611524565b5b90600052602060002090600202016040518060a00160405290816000820160009054906101000a900461ffff1661ffff1661ffff1681526020016000820160029054906101000a900461ffff1661ffff1661ffff1681526020016000820160049054906101000a900467ffffffffffffffff1667ffffffffffffffff1667ffffffffffffffff16815260200160008201600c9054906101000a900473ffffffffffffffffffffffffffffffffffffffff1673ffffffffffffffffffffffffffffffffffffffff1673ffffffffffffffffffffffffffffffffffffffff1681526020016001820154815250508461037d565b90506000811115610b4057806001600060028581548110610abd57610abc611524565b5b9060005260206000209060020201600001600c9054906101000a900473ffffffffffffffffffffffffffffffffffffffff1673ffffffffffffffffffffffffffffffffffffffff1673ffffffffffffffffffffffffffffffffffffffff1681526020019081526020016000206000828254610b3891906111f5565b925050819055505b505b8080610b4d90611442565b9150506108d8565b5060026000610b649190610ca4565b50565b6000600b821080610b845750601282118015610b835750601d82105b5b15610ba0576001600283610b989190611495565b149050610bb3565b6000600283610baf9190611495565b1490505b919050565b6000600160003373ffffffffffffffffffffffffffffffffffffffff1673ffffffffffffffffffffffffffffffffffffffff16815260200190815260200160002054905090565b6000814442604051602001610c159291906110dd565b6040516020818303038152906040528051906020012060001c610c389190611495565b9050919050565b60003411610c4c57600080fd5b34600160003373ffffffffffffffffffffffffffffffffffffffff1673ffffffffffffffffffffffffffffffffffffffff1681526020019081526020016000206000828254610c9b91906111f5565b92505081905550565b5080546000825560020290600052602060002090810190610cc59190610cc8565b50565b5b80821115610d4f57600080820160006101000a81549061ffff02191690556000820160026101000a81549061ffff02191690556000820160046101000a81549067ffffffffffffffff021916905560008201600c6101000a81549073ffffffffffffffffffffffffffffffffffffffff0219169055600182016000905550600201610cc9565b5090565b600081359050610d62816115d1565b92915050565b600060a08284031215610d7e57610d7d611582565b5b610d8860a0611197565b90506000610d9884828501610df4565b6000830152506020610dac84828501610df4565b6020830152506040610dc084828501610e1e565b6040830152506060610dd484828501610d53565b6060830152506080610de884828501610e09565b60808301525092915050565b600081359050610e03816115e8565b92915050565b600081359050610e18816115ff565b92915050565b600081359050610e2d81611616565b92915050565b60008060c08385031215610e4a57610e49611587565b5b6000610e5885828601610d68565b92505060a0610e6985828601610e09565b9150509250929050565b600080600060608486031215610e8c57610e8b611587565b5b6000610e9a86828701610df4565b9350506020610eab86828701610e09565b9250506040610ebc86828701610df4565b9150509250925092565b600060208284031215610edc57610edb611587565b5b6000610eea84828501610e09565b91505092915050565b6000610eff8383610f96565b60a08301905092915050565b610f1481611325565b82525050565b610f2381611325565b82525050565b6000610f34826111cc565b610f3e81856111e4565b9350610f49836111bc565b8060005b83811015610f7a578151610f618882610ef3565b9750610f6c836111d7565b925050600181019050610f4d565b5085935050505092915050565b610f9081611337565b82525050565b60a082016000820151610fac600085018261108a565b506020820151610fbf602085018261108a565b506040820151610fd260408501826110ce565b506060820151610fe56060850182610f0b565b506080820151610ff86080850182611099565b50505050565b60a0820160008083015490506110138161138f565b611020600086018261108a565b5061102a816113dd565b611037602086018261108a565b50611041816113f7565b61104e60408601826110ce565b50611058816113c3565b6110656060860182610f0b565b5060018301549050611076816113a9565b6110836080860182611099565b5050505050565b61109381611343565b82525050565b6110a281611371565b82525050565b6110b181611371565b82525050565b6110c86110c382611371565b61148b565b82525050565b6110d78161137b565b82525050565b60006110e982856110b7565b6020820191506110f982846110b7565b6020820191508190509392505050565b600060208201905061111e6000830184610f1a565b92915050565b6000602082019050818103600083015261113e8184610f29565b905092915050565b600060208201905061115b6000830184610f87565b92915050565b600060a0820190506111766000830184610ffe565b92915050565b600060208201905061119160008301846110a8565b92915050565b60006111a16111b2565b90506111ad8282611411565b919050565b6000604051905090565b6000819050602082019050919050565b600081519050919050565b6000602082019050919050565b600082825260208201905092915050565b600061120082611371565b915061120b83611371565b9250827fffffffffffffffffffffffffffffffffffffffffffffffffffffffffffffffff038211156112405761123f6114c6565b5b828201905092915050565b600061125682611371565b915061126183611371565b9250817fffffffffffffffffffffffffffffffffffffffffffffffffffffffffffffffff048311821515161561129a576112996114c6565b5b828202905092915050565b60006112b082611371565b91506112bb83611371565b9250828210156112ce576112cd6114c6565b5b828203905092915050565b600073ffffffffffffffffffffffffffffffffffffffff82169050919050565b600061ffff82169050919050565b6000819050919050565b600067ffffffffffffffff82169050919050565b600061133082611351565b9050919050565b60008115159050919050565b600061ffff82169050919050565b600073ffffffffffffffffffffffffffffffffffffffff82169050919050565b6000819050919050565b600067ffffffffffffffff82169050919050565b60006113a261139d8361159d565b6112f9565b9050919050565b60006113bc6113b78361159d565b611307565b9050919050565b60006113d66113d1836115c4565b6112d9565b9050919050565b60006113f06113eb836115aa565b6112f9565b9050919050565b600061140a611405836115b7565b611311565b9050919050565b61141a8261158c565b810181811067ffffffffffffffff8211171561143957611438611553565b5b80604052505050565b600061144d82611371565b91507fffffffffffffffffffffffffffffffffffffffffffffffffffffffffffffffff8214156114805761147f6114c6565b5b600182019050919050565b6000819050919050565b60006114a082611371565b91506114ab83611371565b9250826114bb576114ba6114f5565b5b828206905092915050565b7f4e487b7100000000000000000000000000000000000000000000000000000000600052601160045260246000fd5b7f4e487b7100000000000000000000000000000000000000000000000000000000600052601260045260246000fd5b7f4e487b7100000000000000000000000000000000000000000000000000000000600052603260045260246000fd5b7f4e487b7100000000000000000000000000000000000000000000000000000000600052604160045260246000fd5b600080fd5b600080fd5b6000601f19601f8301169050919050565b60008160001c9050919050565b60008160101c9050919050565b60008160201c9050919050565b60008160601c9050919050565b6115da81611325565b81146115e557600080fd5b50565b6115f181611343565b81146115fc57600080fd5b50565b61160881611371565b811461161357600080fd5b50565b61161f8161137b565b811461162a57600080fd5b5056fea264697066735822122047c70e53f899a355b5a9b66effa795d6394e94c5d431f8c23b63b6603122269264736f6c63430008070033",
			"opcodes": "PUSH1 0x80 PUSH1 0x40 MSTORE CALLVALUE DUP1 ISZERO PUSH2 0x10 JUMPI PUSH1 0x0 DUP1 REVERT JUMPDEST POP CALLER PUSH1 0x0 DUP1 PUSH2 0x100 EXP DUP2 SLOAD DUP2 PUSH20 0xFFFFFFFFFFFFFFFFFFFFFFFFFFFFFFFFFFFFFFFF MUL NOT AND SWAP1 DUP4 PUSH20 0xFFFFFFFFFFFFFFFFFFFFFFFFFFFFFFFFFFFFFFFF AND MUL OR SWAP1 SSTORE POP PUSH2 0x1663 DUP1 PUSH2 0x60 PUSH1 0x0 CODECOPY PUSH1 0x0 RETURN INVALID PUSH1 0x80 PUSH1 0x40 MSTORE PUSH1 0x4 CALLDATASIZE LT PUSH2 0x9C JUMPI PUSH1 0x0 CALLDATALOAD PUSH1 0xE0 SHR DUP1 PUSH4 0x8DA5CB5B GT PUSH2 0x64 JUMPI DUP1 PUSH4 0x8DA5CB5B EQ PUSH2 0x186 JUMPI DUP1 PUSH4 0x93E84CD9 EQ PUSH2 0x1B1 JUMPI DUP1 PUSH4 0xB4B674CB EQ PUSH2 0x1C8 JUMPI DUP1 PUSH4 0xB69EF8A8 EQ PUSH2 0x205 JUMPI DUP1 PUSH4 0xB863BD37 EQ PUSH2 0x230 JUMPI DUP1 PUSH4 0xD0E30DB0 EQ PUSH2 0x26D JUMPI PUSH2 0x9C JUMP JUMPDEST DUP1 PUSH4 0x2E1A7D4D EQ PUSH2 0xA1 JUMPI DUP1 PUSH4 0x32E5B0BC EQ PUSH2 0xCA JUMPI DUP1 PUSH4 0x42ACAFBC EQ PUSH2 0x107 JUMPI DUP1 PUSH4 0x797FAE9D EQ PUSH2 0x130 JUMPI DUP1 PUSH4 0x7B275C88 EQ PUSH2 0x15B JUMPI JUMPDEST PUSH1 0x0 DUP1 REVERT JUMPDEST CALLVALUE DUP1 ISZERO PUSH2 0xAD JUMPI PUSH1 0x0 DUP1 REVERT JUMPDEST POP PUSH2 0xC8 PUSH1 0x4 DUP1 CALLDATASIZE SUB DUP2 ADD SWAP1 PUSH2 0xC3 SWAP2 SWAP1 PUSH2 0xEC6 JUMP JUMPDEST PUSH2 0x277 JUMP JUMPDEST STOP JUMPDEST CALLVALUE DUP1 ISZERO PUSH2 0xD6 JUMPI PUSH1 0x0 DUP1 REVERT JUMPDEST POP PUSH2 0xF1 PUSH1 0x4 DUP1 CALLDATASIZE SUB DUP2 ADD SWAP1 PUSH2 0xEC SWAP2 SWAP1 PUSH2 0xE33 JUMP JUMPDEST PUSH2 0x37D JUMP JUMPDEST PUSH1 0x40 MLOAD PUSH2 0xFE SWAP2 SWAP1 PUSH2 0x117C JUMP JUMPDEST PUSH1 0x40 MLOAD DUP1 SWAP2 SUB SWAP1 RETURN JUMPDEST CALLVALUE DUP1 ISZERO PUSH2 0x113 JUMPI PUSH1 0x0 DUP1 REVERT JUMPDEST POP PUSH2 0x12E PUSH1 0x4 DUP1 CALLDATASIZE SUB DUP2 ADD SWAP1 PUSH2 0x129 SWAP2 SWAP1 PUSH2 0xE73 JUMP JUMPDEST PUSH2 0x478 JUMP JUMPDEST STOP JUMPDEST CALLVALUE DUP1 ISZERO PUSH2 0x13C JUMPI PUSH1 0x0 DUP1 REVERT JUMPDEST POP PUSH2 0x145 PUSH2 0x6D6 JUMP JUMPDEST PUSH1 0x40 MLOAD PUSH2 0x152 SWAP2 SWAP1 PUSH2 0x117C JUMP JUMPDEST PUSH1 0x40 MLOAD DUP1 SWAP2 SUB SWAP1 RETURN JUMPDEST CALLVALUE DUP1 ISZERO PUSH2 0x167 JUMPI PUSH1 0x0 DUP1 REVERT JUMPDEST POP PUSH2 0x170 PUSH2 0x6E3 JUMP JUMPDEST PUSH1 0x40 MLOAD PUSH2 0x17D SWAP2 SWAP1 PUSH2 0x1124 JUMP JUMPDEST PUSH1 0x40 MLOAD DUP1 SWAP2 SUB SWAP1 RETURN JUMPDEST CALLVALUE DUP1 ISZERO PUSH2 0x192 JUMPI PUSH1 0x0 DUP1 REVERT JUMPDEST POP PUSH2 0x19B PUSH2 0x814 JUMP JUMPDEST PUSH1 0x40 MLOAD PUSH2 0x1A8 SWAP2 SWAP1 PUSH2 0x1109 JUMP JUMPDEST PUSH1 0x40 MLOAD DUP1 SWAP2 SUB SWAP1 RETURN JUMPDEST CALLVALUE DUP1 ISZERO PUSH2 0x1BD JUMPI PUSH1 0x0 DUP1 REVERT JUMPDEST POP PUSH2 0x1C6 PUSH2 0x838 JUMP JUMPDEST STOP JUMPDEST CALLVALUE DUP1 ISZERO PUSH2 0x1D4 JUMPI PUSH1 0x0 DUP1 REVERT JUMPDEST POP PUSH2 0x1EF PUSH1 0x4 DUP1 CALLDATASIZE SUB DUP2 ADD SWAP1 PUSH2 0x1EA SWAP2 SWAP1 PUSH2 0xEC6 JUMP JUMPDEST PUSH2 0xB67 JUMP JUMPDEST PUSH1 0x40 MLOAD PUSH2 0x1FC SWAP2 SWAP1 PUSH2 0x1146 JUMP JUMPDEST PUSH1 0x40 MLOAD DUP1 SWAP2 SUB SWAP1 RETURN JUMPDEST CALLVALUE DUP1 ISZERO PUSH2 0x211 JUMPI PUSH1 0x0 DUP1 REVERT JUMPDEST POP PUSH2 0x21A PUSH2 0xBB8 JUMP JUMPDEST PUSH1 0x40 MLOAD PUSH2 0x227 SWAP2 SWAP1 PUSH2 0x117C JUMP JUMPDEST PUSH1 0x40 MLOAD DUP1 SWAP2 SUB SWAP1 RETURN JUMPDEST CALLVALUE DUP1 ISZERO PUSH2 0x23C JUMPI PUSH1 0x0 DUP1 REVERT JUMPDEST POP PUSH2 0x257 PUSH1 0x4 DUP1 CALLDATASIZE SUB DUP2 ADD SWAP1 PUSH2 0x252 SWAP2 SWAP1 PUSH2 0xEC6 JUMP JUMPDEST PUSH2 0xBFF JUMP JUMPDEST PUSH1 0x40 MLOAD PUSH2 0x264 SWAP2 SWAP1 PUSH2 0x117C JUMP JUMPDEST PUSH1 0x40 MLOAD DUP1 SWAP2 SUB SWAP1 RETURN JUMPDEST PUSH2 0x275 PUSH2 0xC3F JUMP JUMPDEST STOP JUMPDEST PUSH1 0x0 DUP2 GT PUSH2 0x284 JUMPI PUSH1 0x0 DUP1 REVERT JUMPDEST DUP1 PUSH1 0x1 PUSH1 0x0 CALLER PUSH20 0xFFFFFFFFFFFFFFFFFFFFFFFFFFFFFFFFFFFFFFFF AND PUSH20 0xFFFFFFFFFFFFFFFFFFFFFFFFFFFFFFFFFFFFFFFF AND DUP2 MSTORE PUSH1 0x20 ADD SWAP1 DUP2 MSTORE PUSH1 0x20 ADD PUSH1 0x0 KECCAK256 SLOAD LT ISZERO PUSH2 0x2D0 JUMPI PUSH1 0x0 DUP1 REVERT JUMPDEST DUP1 SELFBALANCE LT ISZERO PUSH2 0x2DD JUMPI PUSH1 0x0 DUP1 REVERT JUMPDEST DUP1 PUSH1 0x1 PUSH1 0x0 CALLER PUSH20 0xFFFFFFFFFFFFFFFFFFFFFFFFFFFFFFFFFFFFFFFF AND PUSH20 0xFFFFFFFFFFFFFFFFFFFFFFFFFFFFFFFFFFFFFFFF AND DUP2 MSTORE PUSH1 0x20 ADD SWAP1 DUP2 MSTORE PUSH1 0x20 ADD PUSH1 0x0 KECCAK256 PUSH1 0x0 DUP3 DUP3 SLOAD PUSH2 0x32C SWAP2 SWAP1 PUSH2 0x12A5 JUMP JUMPDEST SWAP3 POP POP DUP2 SWAP1 SSTORE POP CALLER PUSH20 0xFFFFFFFFFFFFFFFFFFFFFFFFFFFFFFFFFFFFFFFF AND PUSH2 0x8FC DUP3 SWAP1 DUP2 ISZERO MUL SWAP1 PUSH1 0x40 MLOAD PUSH1 0x0 PUSH1 0x40 MLOAD DUP1 DUP4 SUB DUP2 DUP6 DUP9 DUP9 CALL SWAP4 POP POP POP POP ISZERO DUP1 ISZERO PUSH2 0x379 JUMPI RETURNDATASIZE PUSH1 0x0 DUP1 RETURNDATACOPY RETURNDATASIZE PUSH1 0x0 REVERT JUMPDEST POP POP JUMP JUMPDEST PUSH1 0x0 DUP1 DUP3 EQ ISZERO PUSH2 0x390 JUMPI PUSH1 0x0 SWAP1 POP PUSH2 0x472 JUMP JUMPDEST PUSH1 0x0 DUP4 PUSH1 0x0 ADD MLOAD PUSH2 0xFFFF AND EQ ISZERO PUSH2 0x3E7 JUMPI PUSH2 0x3AA DUP3 PUSH2 0xB67 JUMP JUMPDEST PUSH2 0x3B5 JUMPI PUSH1 0x1 PUSH2 0x3B8 JUMP JUMPDEST PUSH1 0x0 JUMPDEST PUSH1 0xFF AND DUP4 PUSH1 0x20 ADD MLOAD PUSH2 0xFFFF AND EQ ISZERO PUSH2 0x3E2 JUMPI PUSH1 0x2 DUP4 PUSH1 0x80 ADD MLOAD PUSH2 0x3DB SWAP2 SWAP1 PUSH2 0x124B JUMP JUMPDEST SWAP1 POP PUSH2 0x472 JUMP JUMPDEST PUSH2 0x46D JUMP JUMPDEST PUSH1 0x1 DUP4 PUSH1 0x0 ADD MLOAD PUSH2 0xFFFF AND EQ ISZERO PUSH2 0x431 JUMPI PUSH1 0x2 DUP3 PUSH2 0x405 SWAP2 SWAP1 PUSH2 0x1495 JUMP JUMPDEST DUP4 PUSH1 0x20 ADD MLOAD PUSH2 0xFFFF AND EQ ISZERO PUSH2 0x42C JUMPI PUSH1 0x2 DUP4 PUSH1 0x80 ADD MLOAD PUSH2 0x425 SWAP2 SWAP1 PUSH2 0x124B JUMP JUMPDEST SWAP1 POP PUSH2 0x472 JUMP JUMPDEST PUSH2 0x46C JUMP JUMPDEST PUSH1 0x2 DUP4 PUSH1 0x0 ADD MLOAD PUSH2 0xFFFF AND EQ ISZERO PUSH2 0x46B JUMPI DUP2 DUP4 PUSH1 0x20 ADD MLOAD PUSH2 0xFFFF AND EQ ISZERO PUSH2 0x46A JUMPI PUSH1 0x23 DUP4 PUSH1 0x80 ADD MLOAD PUSH2 0x463 SWAP2 SWAP1 PUSH2 0x124B JUMP JUMPDEST SWAP1 POP PUSH2 0x472 JUMP JUMPDEST JUMPDEST JUMPDEST JUMPDEST PUSH1 0x0 SWAP1 POP JUMPDEST SWAP3 SWAP2 POP POP JUMP JUMPDEST PUSH1 0x0 DUP3 GT DUP1 ISZERO PUSH2 0x4C7 JUMPI POP DUP2 PUSH1 0x1 PUSH1 0x0 CALLER PUSH20 0xFFFFFFFFFFFFFFFFFFFFFFFFFFFFFFFFFFFFFFFF AND PUSH20 0xFFFFFFFFFFFFFFFFFFFFFFFFFFFFFFFFFFFFFFFF AND DUP2 MSTORE PUSH1 0x20 ADD SWAP1 DUP2 MSTORE PUSH1 0x20 ADD PUSH1 0x0 KECCAK256 SLOAD LT ISZERO JUMPDEST PUSH2 0x4D0 JUMPI PUSH1 0x0 DUP1 REVERT JUMPDEST DUP2 PUSH1 0x1 PUSH1 0x0 CALLER PUSH20 0xFFFFFFFFFFFFFFFFFFFFFFFFFFFFFFFFFFFFFFFF AND PUSH20 0xFFFFFFFFFFFFFFFFFFFFFFFFFFFFFFFFFFFFFFFF AND DUP2 MSTORE PUSH1 0x20 ADD SWAP1 DUP2 MSTORE PUSH1 0x20 ADD PUSH1 0x0 KECCAK256 PUSH1 0x0 DUP3 DUP3 SLOAD PUSH2 0x51F SWAP2 SWAP1 PUSH2 0x12A5 JUMP JUMPDEST SWAP3 POP POP DUP2 SWAP1 SSTORE POP PUSH1 0x2 PUSH1 0x40 MLOAD DUP1 PUSH1 0xA0 ADD PUSH1 0x40 MSTORE DUP1 DUP6 PUSH2 0xFFFF AND DUP2 MSTORE PUSH1 0x20 ADD DUP4 PUSH2 0xFFFF AND DUP2 MSTORE PUSH1 0x20 ADD TIMESTAMP PUSH8 0xFFFFFFFFFFFFFFFF AND DUP2 MSTORE PUSH1 0x20 ADD CALLER PUSH20 0xFFFFFFFFFFFFFFFFFFFFFFFFFFFFFFFFFFFFFFFF AND DUP2 MSTORE PUSH1 0x20 ADD DUP5 DUP2 MSTORE POP SWAP1 DUP1 PUSH1 0x1 DUP2 SLOAD ADD DUP1 DUP3 SSTORE DUP1 SWAP2 POP POP PUSH1 0x1 SWAP1 SUB SWAP1 PUSH1 0x0 MSTORE PUSH1 0x20 PUSH1 0x0 KECCAK256 SWAP1 PUSH1 0x2 MUL ADD PUSH1 0x0 SWAP1 SWAP2 SWAP1 SWAP2 SWAP1 SWAP2 POP PUSH1 0x0 DUP3 ADD MLOAD DUP2 PUSH1 0x0 ADD PUSH1 0x0 PUSH2 0x100 EXP DUP2 SLOAD DUP2 PUSH2 0xFFFF MUL NOT AND SWAP1 DUP4 PUSH2 0xFFFF AND MUL OR SWAP1 SSTORE POP PUSH1 0x20 DUP3 ADD MLOAD DUP2 PUSH1 0x0 ADD PUSH1 0x2 PUSH2 0x100 EXP DUP2 SLOAD DUP2 PUSH2 0xFFFF MUL NOT AND SWAP1 DUP4 PUSH2 0xFFFF AND MUL OR SWAP1 SSTORE POP PUSH1 0x40 DUP3 ADD MLOAD DUP2 PUSH1 0x0 ADD PUSH1 0x4 PUSH2 0x100 EXP DUP2 SLOAD DUP2 PUSH8 0xFFFFFFFFFFFFFFFF MUL NOT AND SWAP1 DUP4 PUSH8 0xFFFFFFFFFFFFFFFF AND MUL OR SWAP1 SSTORE POP PUSH1 0x60 DUP3 ADD MLOAD DUP2 PUSH1 0x0 ADD PUSH1 0xC PUSH2 0x100 EXP DUP2 SLOAD DUP2 PUSH20 0xFFFFFFFFFFFFFFFFFFFFFFFFFFFFFFFFFFFFFFFF MUL NOT AND SWAP1 DUP4 PUSH20 0xFFFFFFFFFFFFFFFFFFFFFFFFFFFFFFFFFFFFFFFF AND MUL OR SWAP1 SSTORE POP PUSH1 0x80 DUP3 ADD MLOAD DUP2 PUSH1 0x1 ADD SSTORE POP POP PUSH32 0x168BA5D36B75CD9E2C0D58CC82BADA2C8502840A34B832D9F9F943252AE3DB0D PUSH1 0x2 PUSH1 0x1 PUSH1 0x2 DUP1 SLOAD SWAP1 POP PUSH2 0x69D SWAP2 SWAP1 PUSH2 0x12A5 JUMP JUMPDEST DUP2 SLOAD DUP2 LT PUSH2 0x6AE JUMPI PUSH2 0x6AD PUSH2 0x1524 JUMP JUMPDEST JUMPDEST SWAP1 PUSH1 0x0 MSTORE PUSH1 0x20 PUSH1 0x0 KECCAK256 SWAP1 PUSH1 0x2 MUL ADD PUSH1 0x40 MLOAD PUSH2 0x6C9 SWAP2 SWAP1 PUSH2 0x1161 JUMP JUMPDEST PUSH1 0x40 MLOAD DUP1 SWAP2 SUB SWAP1 LOG1 POP POP POP JUMP JUMPDEST PUSH1 0x0 PUSH1 0x2 DUP1 SLOAD SWAP1 POP SWAP1 POP SWAP1 JUMP JUMPDEST PUSH1 0x60 PUSH1 0x2 DUP1 SLOAD DUP1 PUSH1 0x20 MUL PUSH1 0x20 ADD PUSH1 0x40 MLOAD SWAP1 DUP2 ADD PUSH1 0x40 MSTORE DUP1 SWAP3 SWAP2 SWAP1 DUP2 DUP2 MSTORE PUSH1 0x20 ADD PUSH1 0x0 SWAP1 JUMPDEST DUP3 DUP3 LT ISZERO PUSH2 0x80B JUMPI DUP4 DUP3 SWAP1 PUSH1 0x0 MSTORE PUSH1 0x20 PUSH1 0x0 KECCAK256 SWAP1 PUSH1 0x2 MUL ADD PUSH1 0x40 MLOAD DUP1 PUSH1 0xA0 ADD PUSH1 0x40 MSTORE SWAP1 DUP2 PUSH1 0x0 DUP3 ADD PUSH1 0x0 SWAP1 SLOAD SWAP1 PUSH2 0x100 EXP SWAP1 DIV PUSH2 0xFFFF AND PUSH2 0xFFFF AND PUSH2 0xFFFF AND DUP2 MSTORE PUSH1 0x20 ADD PUSH1 0x0 DUP3 ADD PUSH1 0x2 SWAP1 SLOAD SWAP1 PUSH2 0x100 EXP SWAP1 DIV PUSH2 0xFFFF AND PUSH2 0xFFFF AND PUSH2 0xFFFF AND DUP2 MSTORE PUSH1 0x20 ADD PUSH1 0x0 DUP3 ADD PUSH1 0x4 SWAP1 SLOAD SWAP1 PUSH2 0x100 EXP SWAP1 DIV PUSH8 0xFFFFFFFFFFFFFFFF AND PUSH8 0xFFFFFFFFFFFFFFFF AND PUSH8 0xFFFFFFFFFFFFFFFF AND DUP2 MSTORE PUSH1 0x20 ADD PUSH1 0x0 DUP3 ADD PUSH1 0xC SWAP1 SLOAD SWAP1 PUSH2 0x100 EXP SWAP1 DIV PUSH20 0xFFFFFFFFFFFFFFFFFFFFFFFFFFFFFFFFFFFFFFFF AND PUSH20 0xFFFFFFFFFFFFFFFFFFFFFFFFFFFFFFFFFFFFFFFF AND PUSH20 0xFFFFFFFFFFFFFFFFFFFFFFFFFFFFFFFFFFFFFFFF AND DUP2 MSTORE PUSH1 0x20 ADD PUSH1 0x1 DUP3 ADD SLOAD DUP2 MSTORE POP POP DUP2 MSTORE PUSH1 0x20 ADD SWAP1 PUSH1 0x1 ADD SWAP1 PUSH2 0x707 JUMP JUMPDEST POP POP POP POP SWAP1 POP SWAP1 JUMP JUMPDEST PUSH1 0x0 DUP1 SLOAD SWAP1 PUSH2 0x100 EXP SWAP1 DIV PUSH20 0xFFFFFFFFFFFFFFFFFFFFFFFFFFFFFFFFFFFFFFFF AND DUP2 JUMP JUMPDEST PUSH1 0x0 DUP1 SLOAD SWAP1 PUSH2 0x100 EXP SWAP1 DIV PUSH20 0xFFFFFFFFFFFFFFFFFFFFFFFFFFFFFFFFFFFFFFFF AND PUSH20 0xFFFFFFFFFFFFFFFFFFFFFFFFFFFFFFFFFFFFFFFF AND CALLER PUSH20 0xFFFFFFFFFFFFFFFFFFFFFFFFFFFFFFFFFFFFFFFF AND EQ PUSH2 0x890 JUMPI PUSH1 0x0 DUP1 REVERT JUMPDEST PUSH1 0x0 PUSH2 0x89C PUSH1 0x25 PUSH2 0xBFF JUMP JUMPDEST SWAP1 POP PUSH32 0x34CC19C6A5758956F8AEC81E3F501B1A3FE6C4B9879081781EC6BE0A438F3A54 DUP2 PUSH1 0x40 MLOAD PUSH2 0x8CD SWAP2 SWAP1 PUSH2 0x117C JUMP JUMPDEST PUSH1 0x40 MLOAD DUP1 SWAP2 SUB SWAP1 LOG1 PUSH1 0x0 JUMPDEST PUSH1 0x2 DUP1 SLOAD SWAP1 POP DUP2 LT ISZERO PUSH2 0xB55 JUMPI PUSH1 0x0 DUP3 EQ ISZERO PUSH2 0x98F JUMPI PUSH1 0x2 DUP2 DUP2 SLOAD DUP2 LT PUSH2 0x902 JUMPI PUSH2 0x901 PUSH2 0x1524 JUMP JUMPDEST JUMPDEST SWAP1 PUSH1 0x0 MSTORE PUSH1 0x20 PUSH1 0x0 KECCAK256 SWAP1 PUSH1 0x2 MUL ADD PUSH1 0x1 ADD SLOAD PUSH1 0x1 PUSH1 0x0 DUP1 PUSH1 0x0 SWAP1 SLOAD SWAP1 PUSH2 0x100 EXP SWAP1 DIV PUSH20 0xFFFFFFFFFFFFFFFFFFFFFFFFFFFFFFFFFFFFFFFF AND PUSH20 0xFFFFFFFFFFFFFFFFFFFFFFFFFFFFFFFFFFFFFFFF AND PUSH20 0xFFFFFFFFFFFFFFFFFFFFFFFFFFFFFFFFFFFFFFFF AND DUP2 MSTORE PUSH1 0x20 ADD SWAP1 DUP2 MSTORE PUSH1 0x20 ADD PUSH1 0x0 KECCAK256 PUSH1 0x0 DUP3 DUP3 SLOAD PUSH2 0x983 SWAP2 SWAP1 PUSH2 0x11F5 JUMP JUMPDEST SWAP3 POP POP DUP2 SWAP1 SSTORE POP PUSH2 0xB42 JUMP JUMPDEST PUSH1 0x0 PUSH2 0xA99 PUSH1 0x2 DUP4 DUP2 SLOAD DUP2 LT PUSH2 0x9A8 JUMPI PUSH2 0x9A7 PUSH2 0x1524 JUMP JUMPDEST JUMPDEST SWAP1 PUSH1 0x0 MSTORE PUSH1 0x20 PUSH1 0x0 KECCAK256 SWAP1 PUSH1 0x2 MUL ADD PUSH1 0x40 MLOAD DUP1 PUSH1 0xA0 ADD PUSH1 0x40 MSTORE SWAP1 DUP2 PUSH1 0x0 DUP3 ADD PUSH1 0x0 SWAP1 SLOAD SWAP1 PUSH2 0x100 EXP SWAP1 DIV PUSH2 0xFFFF AND PUSH2 0xFFFF AND PUSH2 0xFFFF AND DUP2 MSTORE PUSH1 0x20 ADD PUSH1 0x0 DUP3 ADD PUSH1 0x2 SWAP1 SLOAD SWAP1 PUSH2 0x100 EXP SWAP1 DIV PUSH2 0xFFFF AND PUSH2 0xFFFF AND PUSH2 0xFFFF AND DUP2 MSTORE PUSH1 0x20 ADD PUSH1 0x0 DUP3 ADD PUSH1 0x4 SWAP1 SLOAD SWAP1 PUSH2 0x100 EXP SWAP1 DIV PUSH8 0xFFFFFFFFFFFFFFFF AND PUSH8 0xFFFFFFFFFFFFFFFF AND PUSH8 0xFFFFFFFFFFFFFFFF AND DUP2 MSTORE PUSH1 0x20 ADD PUSH1 0x0 DUP3 ADD PUSH1 0xC SWAP1 SLOAD SWAP1 PUSH2 0x100 EXP SWAP1 DIV PUSH20 0xFFFFFFFFFFFFFFFFFFFFFFFFFFFFFFFFFFFFFFFF AND PUSH20 0xFFFFFFFFFFFFFFFFFFFFFFFFFFFFFFFFFFFFFFFF AND PUSH20 0xFFFFFFFFFFFFFFFFFFFFFFFFFFFFFFFFFFFFFFFF AND DUP2 MSTORE PUSH1 0x20 ADD PUSH1 0x1 DUP3 ADD SLOAD DUP2 MSTORE POP POP DUP5 PUSH2 0x37D JUMP JUMPDEST SWAP1 POP PUSH1 0x0 DUP2 GT ISZERO PUSH2 0xB40 JUMPI DUP1 PUSH1 0x1 PUSH1 0x0 PUSH1 0x2 DUP6 DUP2 SLOAD DUP2 LT PUSH2 0xABD JUMPI PUSH2 0xABC PUSH2 0x1524 JUMP JUMPDEST JUMPDEST SWAP1 PUSH1 0x0 MSTORE PUSH1 0x20 PUSH1 0x0 KECCAK256 SWAP1 PUSH1 0x2 MUL ADD PUSH1 0x0 ADD PUSH1 0xC SWAP1 SLOAD SWAP1 PUSH2 0x100 EXP SWAP1 DIV PUSH20 0xFFFFFFFFFFFFFFFFFFFFFFFFFFFFFFFFFFFFFFFF AND PUSH20 0xFFFFFFFFFFFFFFFFFFFFFFFFFFFFFFFFFFFFFFFF AND PUSH20 0xFFFFFFFFFFFFFFFFFFFFFFFFFFFFFFFFFFFFFFFF AND DUP2 MSTORE PUSH1 0x20 ADD SWAP1 DUP2 MSTORE PUSH1 0x20 ADD PUSH1 0x0 KECCAK256 PUSH1 0x0 DUP3 DUP3 SLOAD PUSH2 0xB38 SWAP2 SWAP1 PUSH2 0x11F5 JUMP JUMPDEST SWAP3 POP POP DUP2 SWAP1 SSTORE POP JUMPDEST POP JUMPDEST DUP1 DUP1 PUSH2 0xB4D SWAP1 PUSH2 0x1442 JUMP JUMPDEST SWAP2 POP POP PUSH2 0x8D8 JUMP JUMPDEST POP PUSH1 0x2 PUSH1 0x0 PUSH2 0xB64 SWAP2 SWAP1 PUSH2 0xCA4 JUMP JUMPDEST POP JUMP JUMPDEST PUSH1 0x0 PUSH1 0xB DUP3 LT DUP1 PUSH2 0xB84 JUMPI POP PUSH1 0x12 DUP3 GT DUP1 ISZERO PUSH2 0xB83 JUMPI POP PUSH1 0x1D DUP3 LT JUMPDEST JUMPDEST ISZERO PUSH2 0xBA0 JUMPI PUSH1 0x1 PUSH1 0x2 DUP4 PUSH2 0xB98 SWAP2 SWAP1 PUSH2 0x1495 JUMP JUMPDEST EQ SWAP1 POP PUSH2 0xBB3 JUMP JUMPDEST PUSH1 0x0 PUSH1 0x2 DUP4 PUSH2 0xBAF SWAP2 SWAP1 PUSH2 0x1495 JUMP JUMPDEST EQ SWAP1 POP JUMPDEST SWAP2 SWAP1 POP JUMP JUMPDEST PUSH1 0x0 PUSH1 0x1 PUSH1 0x0 CALLER PUSH20 0xFFFFFFFFFFFFFFFFFFFFFFFFFFFFFFFFFFFFFFFF AND PUSH20 0xFFFFFFFFFFFFFFFFFFFFFFFFFFFFFFFFFFFFFFFF AND DUP2 MSTORE PUSH1 0x20 ADD SWAP1 DUP2 MSTORE PUSH1 0x20 ADD PUSH1 0x0 KECCAK256 SLOAD SWAP1 POP SWAP1 JUMP JUMPDEST PUSH1 0x0 DUP2 DIFFICULTY TIMESTAMP PUSH1 0x40 MLOAD PUSH1 0x20 ADD PUSH2 0xC15 SWAP3 SWAP2 SWAP1 PUSH2 0x10DD JUMP JUMPDEST PUSH1 0x40 MLOAD PUSH1 0x20 DUP2 DUP4 SUB SUB DUP2 MSTORE SWAP1 PUSH1 0x40 MSTORE DUP1 MLOAD SWAP1 PUSH1 0x20 ADD KECCAK256 PUSH1 0x0 SHR PUSH2 0xC38 SWAP2 SWAP1 PUSH2 0x1495 JUMP JUMPDEST SWAP1 POP SWAP2 SWAP1 POP JUMP JUMPDEST PUSH1 0x0 CALLVALUE GT PUSH2 0xC4C JUMPI PUSH1 0x0 DUP1 REVERT JUMPDEST CALLVALUE PUSH1 0x1 PUSH1 0x0 CALLER PUSH20 0xFFFFFFFFFFFFFFFFFFFFFFFFFFFFFFFFFFFFFFFF AND PUSH20 0xFFFFFFFFFFFFFFFFFFFFFFFFFFFFFFFFFFFFFFFF AND DUP2 MSTORE PUSH1 0x20 ADD SWAP1 DUP2 MSTORE PUSH1 0x20 ADD PUSH1 0x0 KECCAK256 PUSH1 0x0 DUP3 DUP3 SLOAD PUSH2 0xC9B SWAP2 SWAP1 PUSH2 0x11F5 JUMP JUMPDEST SWAP3 POP POP DUP2 SWAP1 SSTORE POP JUMP JUMPDEST POP DUP1 SLOAD PUSH1 0x0 DUP3 SSTORE PUSH1 0x2 MUL SWAP1 PUSH1 0x0 MSTORE PUSH1 0x20 PUSH1 0x0 KECCAK256 SWAP1 DUP2 ADD SWAP1 PUSH2 0xCC5 SWAP2 SWAP1 PUSH2 0xCC8 JUMP JUMPDEST POP JUMP JUMPDEST JUMPDEST DUP1 DUP3 GT ISZERO PUSH2 0xD4F JUMPI PUSH1 0x0 DUP1 DUP3 ADD PUSH1 0x0 PUSH2 0x100 EXP DUP2 SLOAD SWAP1 PUSH2 0xFFFF MUL NOT AND SWAP1 SSTORE PUSH1 0x0 DUP3 ADD PUSH1 0x2 PUSH2 0x100 EXP DUP2 SLOAD SWAP1 PUSH2 0xFFFF MUL NOT AND SWAP1 SSTORE PUSH1 0x0 DUP3 ADD PUSH1 0x4 PUSH2 0x100 EXP DUP2 SLOAD SWAP1 PUSH8 0xFFFFFFFFFFFFFFFF MUL NOT AND SWAP1 SSTORE PUSH1 0x0 DUP3 ADD PUSH1 0xC PUSH2 0x100 EXP DUP2 SLOAD SWAP1 PUSH20 0xFFFFFFFFFFFFFFFFFFFFFFFFFFFFFFFFFFFFFFFF MUL NOT AND SWAP1 SSTORE PUSH1 0x1 DUP3 ADD PUSH1 0x0 SWAP1 SSTORE POP PUSH1 0x2 ADD PUSH2 0xCC9 JUMP JUMPDEST POP SWAP1 JUMP JUMPDEST PUSH1 0x0 DUP2 CALLDATALOAD SWAP1 POP PUSH2 0xD62 DUP2 PUSH2 0x15D1 JUMP JUMPDEST SWAP3 SWAP2 POP POP JUMP JUMPDEST PUSH1 0x0 PUSH1 0xA0 DUP3 DUP5 SUB SLT ISZERO PUSH2 0xD7E JUMPI PUSH2 0xD7D PUSH2 0x1582 JUMP JUMPDEST JUMPDEST PUSH2 0xD88 PUSH1 0xA0 PUSH2 0x1197 JUMP JUMPDEST SWAP1 POP PUSH1 0x0 PUSH2 0xD98 DUP5 DUP3 DUP6 ADD PUSH2 0xDF4 JUMP JUMPDEST PUSH1 0x0 DUP4 ADD MSTORE POP PUSH1 0x20 PUSH2 0xDAC DUP5 DUP3 DUP6 ADD PUSH2 0xDF4 JUMP JUMPDEST PUSH1 0x20 DUP4 ADD MSTORE POP PUSH1 0x40 PUSH2 0xDC0 DUP5 DUP3 DUP6 ADD PUSH2 0xE1E JUMP JUMPDEST PUSH1 0x40 DUP4 ADD MSTORE POP PUSH1 0x60 PUSH2 0xDD4 DUP5 DUP3 DUP6 ADD PUSH2 0xD53 JUMP JUMPDEST PUSH1 0x60 DUP4 ADD MSTORE POP PUSH1 0x80 PUSH2 0xDE8 DUP5 DUP3 DUP6 ADD PUSH2 0xE09 JUMP JUMPDEST PUSH1 0x80 DUP4 ADD MSTORE POP SWAP3 SWAP2 POP POP JUMP JUMPDEST PUSH1 0x0 DUP2 CALLDATALOAD SWAP1 POP PUSH2 0xE03 DUP2 PUSH2 0x15E8 JUMP JUMPDEST SWAP3 SWAP2 POP POP JUMP JUMPDEST PUSH1 0x0 DUP2 CALLDATALOAD SWAP1 POP PUSH2 0xE18 DUP2 PUSH2 0x15FF JUMP JUMPDEST SWAP3 SWAP2 POP POP JUMP JUMPDEST PUSH1 0x0 DUP2 CALLDATALOAD SWAP1 POP PUSH2 0xE2D DUP2 PUSH2 0x1616 JUMP JUMPDEST SWAP3 SWAP2 POP POP JUMP JUMPDEST PUSH1 0x0 DUP1 PUSH1 0xC0 DUP4 DUP6 SUB SLT ISZERO PUSH2 0xE4A JUMPI PUSH2 0xE49 PUSH2 0x1587 JUMP JUMPDEST JUMPDEST PUSH1 0x0 PUSH2 0xE58 DUP6 DUP3 DUP7 ADD PUSH2 0xD68 JUMP JUMPDEST SWAP3 POP POP PUSH1 0xA0 PUSH2 0xE69 DUP6 DUP3 DUP7 ADD PUSH2 0xE09 JUMP JUMPDEST SWAP2 POP POP SWAP3 POP SWAP3 SWAP1 POP JUMP JUMPDEST PUSH1 0x0 DUP1 PUSH1 0x0 PUSH1 0x60 DUP5 DUP7 SUB SLT ISZERO PUSH2 0xE8C JUMPI PUSH2 0xE8B PUSH2 0x1587 JUMP JUMPDEST JUMPDEST PUSH1 0x0 PUSH2 0xE9A DUP7 DUP3 DUP8 ADD PUSH2 0xDF4 JUMP JUMPDEST SWAP4 POP POP PUSH1 0x20 PUSH2 0xEAB DUP7 DUP3 DUP8 ADD PUSH2 0xE09 JUMP JUMPDEST SWAP3 POP POP PUSH1 0x40 PUSH2 0xEBC DUP7 DUP3 DUP8 ADD PUSH2 0xDF4 JUMP JUMPDEST SWAP2 POP POP SWAP3 POP SWAP3 POP SWAP3 JUMP JUMPDEST PUSH1 0x0 PUSH1 0x20 DUP3 DUP5 SUB SLT ISZERO PUSH2 0xEDC JUMPI PUSH2 0xEDB PUSH2 0x1587 JUMP JUMPDEST JUMPDEST PUSH1 0x0 PUSH2 0xEEA DUP5 DUP3 DUP6 ADD PUSH2 0xE09 JUMP JUMPDEST SWAP2 POP POP SWAP3 SWAP2 POP POP JUMP JUMPDEST PUSH1 0x0 PUSH2 0xEFF DUP4 DUP4 PUSH2 0xF96 JUMP JUMPDEST PUSH1 0xA0 DUP4 ADD SWAP1 POP SWAP3 SWAP2 POP POP JUMP JUMPDEST PUSH2 0xF14 DUP2 PUSH2 0x1325 JUMP JUMPDEST DUP3 MSTORE POP POP JUMP JUMPDEST PUSH2 0xF23 DUP2 PUSH2 0x1325 JUMP JUMPDEST DUP3 MSTORE POP POP JUMP JUMPDEST PUSH1 0x0 PUSH2 0xF34 DUP3 PUSH2 0x11CC JUMP JUMPDEST PUSH2 0xF3E DUP2 DUP6 PUSH2 0x11E4 JUMP JUMPDEST SWAP4 POP PUSH2 0xF49 DUP4 PUSH2 0x11BC JUMP JUMPDEST DUP1 PUSH1 0x0 JUMPDEST DUP4 DUP2 LT ISZERO PUSH2 0xF7A JUMPI DUP2 MLOAD PUSH2 0xF61 DUP9 DUP3 PUSH2 0xEF3 JUMP JUMPDEST SWAP8 POP PUSH2 0xF6C DUP4 PUSH2 0x11D7 JUMP JUMPDEST SWAP3 POP POP PUSH1 0x1 DUP2 ADD SWAP1 POP PUSH2 0xF4D JUMP JUMPDEST POP DUP6 SWAP4 POP POP POP POP SWAP3 SWAP2 POP POP JUMP JUMPDEST PUSH2 0xF90 DUP2 PUSH2 0x1337 JUMP JUMPDEST DUP3 MSTORE POP POP JUMP JUMPDEST PUSH1 0xA0 DUP3 ADD PUSH1 0x0 DUP3 ADD MLOAD PUSH2 0xFAC PUSH1 0x0 DUP6 ADD DUP3 PUSH2 0x108A JUMP JUMPDEST POP PUSH1 0x20 DUP3 ADD MLOAD PUSH2 0xFBF PUSH1 0x20 DUP6 ADD DUP3 PUSH2 0x108A JUMP JUMPDEST POP PUSH1 0x40 DUP3 ADD MLOAD PUSH2 0xFD2 PUSH1 0x40 DUP6 ADD DUP3 PUSH2 0x10CE JUMP JUMPDEST POP PUSH1 0x60 DUP3 ADD MLOAD PUSH2 0xFE5 PUSH1 0x60 DUP6 ADD DUP3 PUSH2 0xF0B JUMP JUMPDEST POP PUSH1 0x80 DUP3 ADD MLOAD PUSH2 0xFF8 PUSH1 0x80 DUP6 ADD DUP3 PUSH2 0x1099 JUMP JUMPDEST POP POP POP POP JUMP JUMPDEST PUSH1 0xA0 DUP3 ADD PUSH1 0x0 DUP1 DUP4 ADD SLOAD SWAP1 POP PUSH2 0x1013 DUP2 PUSH2 0x138F JUMP JUMPDEST PUSH2 0x1020 PUSH1 0x0 DUP7 ADD DUP3 PUSH2 0x108A JUMP JUMPDEST POP PUSH2 0x102A DUP2 PUSH2 0x13DD JUMP JUMPDEST PUSH2 0x1037 PUSH1 0x20 DUP7 ADD DUP3 PUSH2 0x108A JUMP JUMPDEST POP PUSH2 0x1041 DUP2 PUSH2 0x13F7 JUMP JUMPDEST PUSH2 0x104E PUSH1 0x40 DUP7 ADD DUP3 PUSH2 0x10CE JUMP JUMPDEST POP PUSH2 0x1058 DUP2 PUSH2 0x13C3 JUMP JUMPDEST PUSH2 0x1065 PUSH1 0x60 DUP7 ADD DUP3 PUSH2 0xF0B JUMP JUMPDEST POP PUSH1 0x1 DUP4 ADD SLOAD SWAP1 POP PUSH2 0x1076 DUP2 PUSH2 0x13A9 JUMP JUMPDEST PUSH2 0x1083 PUSH1 0x80 DUP7 ADD DUP3 PUSH2 0x1099 JUMP JUMPDEST POP POP POP POP POP JUMP JUMPDEST PUSH2 0x1093 DUP2 PUSH2 0x1343 JUMP JUMPDEST DUP3 MSTORE POP POP JUMP JUMPDEST PUSH2 0x10A2 DUP2 PUSH2 0x1371 JUMP JUMPDEST DUP3 MSTORE POP POP JUMP JUMPDEST PUSH2 0x10B1 DUP2 PUSH2 0x1371 JUMP JUMPDEST DUP3 MSTORE POP POP JUMP JUMPDEST PUSH2 0x10C8 PUSH2 0x10C3 DUP3 PUSH2 0x1371 JUMP JUMPDEST PUSH2 0x148B JUMP JUMPDEST DUP3 MSTORE POP POP JUMP JUMPDEST PUSH2 0x10D7 DUP2 PUSH2 0x137B JUMP JUMPDEST DUP3 MSTORE POP POP JUMP JUMPDEST PUSH1 0x0 PUSH2 0x10E9 DUP3 DUP6 PUSH2 0x10B7 JUMP JUMPDEST PUSH1 0x20 DUP3 ADD SWAP2 POP PUSH2 0x10F9 DUP3 DUP5 PUSH2 0x10B7 JUMP JUMPDEST PUSH1 0x20 DUP3 ADD SWAP2 POP DUP2 SWAP1 POP SWAP4 SWAP3 POP POP POP JUMP JUMPDEST PUSH1 0x0 PUSH1 0x20 DUP3 ADD SWAP1 POP PUSH2 0x111E PUSH1 0x0 DUP4 ADD DUP5 PUSH2 0xF1A JUMP JUMPDEST SWAP3 SWAP2 POP POP JUMP JUMPDEST PUSH1 0x0 PUSH1 0x20 DUP3 ADD SWAP1 POP DUP2 DUP2 SUB PUSH1 0x0 DUP4 ADD MSTORE PUSH2 0x113E DUP2 DUP5 PUSH2 0xF29 JUMP JUMPDEST SWAP1 POP SWAP3 SWAP2 POP POP JUMP JUMPDEST PUSH1 0x0 PUSH1 0x20 DUP3 ADD SWAP1 POP PUSH2 0x115B PUSH1 0x0 DUP4 ADD DUP5 PUSH2 0xF87 JUMP JUMPDEST SWAP3 SWAP2 POP POP JUMP JUMPDEST PUSH1 0x0 PUSH1 0xA0 DUP3 ADD SWAP1 POP PUSH2 0x1176 PUSH1 0x0 DUP4 ADD DUP5 PUSH2 0xFFE JUMP JUMPDEST SWAP3 SWAP2 POP POP JUMP JUMPDEST PUSH1 0x0 PUSH1 0x20 DUP3 ADD SWAP1 POP PUSH2 0x1191 PUSH1 0x0 DUP4 ADD DUP5 PUSH2 0x10A8 JUMP JUMPDEST SWAP3 SWAP2 POP POP JUMP JUMPDEST PUSH1 0x0 PUSH2 0x11A1 PUSH2 0x11B2 JUMP JUMPDEST SWAP1 POP PUSH2 0x11AD DUP3 DUP3 PUSH2 0x1411 JUMP JUMPDEST SWAP2 SWAP1 POP JUMP JUMPDEST PUSH1 0x0 PUSH1 0x40 MLOAD SWAP1 POP SWAP1 JUMP JUMPDEST PUSH1 0x0 DUP2 SWAP1 POP PUSH1 0x20 DUP3 ADD SWAP1 POP SWAP2 SWAP1 POP JUMP JUMPDEST PUSH1 0x0 DUP2 MLOAD SWAP1 POP SWAP2 SWAP1 POP JUMP JUMPDEST PUSH1 0x0 PUSH1 0x20 DUP3 ADD SWAP1 POP SWAP2 SWAP1 POP JUMP JUMPDEST PUSH1 0x0 DUP3 DUP3 MSTORE PUSH1 0x20 DUP3 ADD SWAP1 POP SWAP3 SWAP2 POP POP JUMP JUMPDEST PUSH1 0x0 PUSH2 0x1200 DUP3 PUSH2 0x1371 JUMP JUMPDEST SWAP2 POP PUSH2 0x120B DUP4 PUSH2 0x1371 JUMP JUMPDEST SWAP3 POP DUP3 PUSH32 0xFFFFFFFFFFFFFFFFFFFFFFFFFFFFFFFFFFFFFFFFFFFFFFFFFFFFFFFFFFFFFFFF SUB DUP3 GT ISZERO PUSH2 0x1240 JUMPI PUSH2 0x123F PUSH2 0x14C6 JUMP JUMPDEST JUMPDEST DUP3 DUP3 ADD SWAP1 POP SWAP3 SWAP2 POP POP JUMP JUMPDEST PUSH1 0x0 PUSH2 0x1256 DUP3 PUSH2 0x1371 JUMP JUMPDEST SWAP2 POP PUSH2 0x1261 DUP4 PUSH2 0x1371 JUMP JUMPDEST SWAP3 POP DUP2 PUSH32 0xFFFFFFFFFFFFFFFFFFFFFFFFFFFFFFFFFFFFFFFFFFFFFFFFFFFFFFFFFFFFFFFF DIV DUP4 GT DUP3 ISZERO ISZERO AND ISZERO PUSH2 0x129A JUMPI PUSH2 0x1299 PUSH2 0x14C6 JUMP JUMPDEST JUMPDEST DUP3 DUP3 MUL SWAP1 POP SWAP3 SWAP2 POP POP JUMP JUMPDEST PUSH1 0x0 PUSH2 0x12B0 DUP3 PUSH2 0x1371 JUMP JUMPDEST SWAP2 POP PUSH2 0x12BB DUP4 PUSH2 0x1371 JUMP JUMPDEST SWAP3 POP DUP3 DUP3 LT ISZERO PUSH2 0x12CE JUMPI PUSH2 0x12CD PUSH2 0x14C6 JUMP JUMPDEST JUMPDEST DUP3 DUP3 SUB SWAP1 POP SWAP3 SWAP2 POP POP JUMP JUMPDEST PUSH1 0x0 PUSH20 0xFFFFFFFFFFFFFFFFFFFFFFFFFFFFFFFFFFFFFFFF DUP3 AND SWAP1 POP SWAP2 SWAP1 POP JUMP JUMPDEST PUSH1 0x0 PUSH2 0xFFFF DUP3 AND SWAP1 POP SWAP2 SWAP1 POP JUMP JUMPDEST PUSH1 0x0 DUP2 SWAP1 POP SWAP2 SWAP1 POP JUMP JUMPDEST PUSH1 0x0 PUSH8 0xFFFFFFFFFFFFFFFF DUP3 AND SWAP1 POP SWAP2 SWAP1 POP JUMP JUMPDEST PUSH1 0x0 PUSH2 0x1330 DUP3 PUSH2 0x1351 JUMP JUMPDEST SWAP1 POP SWAP2 SWAP1 POP JUMP JUMPDEST PUSH1 0x0 DUP2 ISZERO ISZERO SWAP1 POP SWAP2 SWAP1 POP JUMP JUMPDEST PUSH1 0x0 PUSH2 0xFFFF DUP3 AND SWAP1 POP SWAP2 SWAP1 POP JUMP JUMPDEST PUSH1 0x0 PUSH20 0xFFFFFFFFFFFFFFFFFFFFFFFFFFFFFFFFFFFFFFFF DUP3 AND SWAP1 POP SWAP2 SWAP1 POP JUMP JUMPDEST PUSH1 0x0 DUP2 SWAP1 POP SWAP2 SWAP1 POP JUMP JUMPDEST PUSH1 0x0 PUSH8 0xFFFFFFFFFFFFFFFF DUP3 AND SWAP1 POP SWAP2 SWAP1 POP JUMP JUMPDEST PUSH1 0x0 PUSH2 0x13A2 PUSH2 0x139D DUP4 PUSH2 0x159D JUMP JUMPDEST PUSH2 0x12F9 JUMP JUMPDEST SWAP1 POP SWAP2 SWAP1 POP JUMP JUMPDEST PUSH1 0x0 PUSH2 0x13BC PUSH2 0x13B7 DUP4 PUSH2 0x159D JUMP JUMPDEST PUSH2 0x1307 JUMP JUMPDEST SWAP1 POP SWAP2 SWAP1 POP JUMP JUMPDEST PUSH1 0x0 PUSH2 0x13D6 PUSH2 0x13D1 DUP4 PUSH2 0x15C4 JUMP JUMPDEST PUSH2 0x12D9 JUMP JUMPDEST SWAP1 POP SWAP2 SWAP1 POP JUMP JUMPDEST PUSH1 0x0 PUSH2 0x13F0 PUSH2 0x13EB DUP4 PUSH2 0x15AA JUMP JUMPDEST PUSH2 0x12F9 JUMP JUMPDEST SWAP1 POP SWAP2 SWAP1 POP JUMP JUMPDEST PUSH1 0x0 PUSH2 0x140A PUSH2 0x1405 DUP4 PUSH2 0x15B7 JUMP JUMPDEST PUSH2 0x1311 JUMP JUMPDEST SWAP1 POP SWAP2 SWAP1 POP JUMP JUMPDEST PUSH2 0x141A DUP3 PUSH2 0x158C JUMP JUMPDEST DUP2 ADD DUP2 DUP2 LT PUSH8 0xFFFFFFFFFFFFFFFF DUP3 GT OR ISZERO PUSH2 0x1439 JUMPI PUSH2 0x1438 PUSH2 0x1553 JUMP JUMPDEST JUMPDEST DUP1 PUSH1 0x40 MSTORE POP POP POP JUMP JUMPDEST PUSH1 0x0 PUSH2 0x144D DUP3 PUSH2 0x1371 JUMP JUMPDEST SWAP2 POP PUSH32 0xFFFFFFFFFFFFFFFFFFFFFFFFFFFFFFFFFFFFFFFFFFFFFFFFFFFFFFFFFFFFFFFF DUP3 EQ ISZERO PUSH2 0x1480 JUMPI PUSH2 0x147F PUSH2 0x14C6 JUMP JUMPDEST JUMPDEST PUSH1 0x1 DUP3 ADD SWAP1 POP SWAP2 SWAP1 POP JUMP JUMPDEST PUSH1 0x0 DUP2 SWAP1 POP SWAP2 SWAP1 POP JUMP JUMPDEST PUSH1 0x0 PUSH2 0x14A0 DUP3 PUSH2 0x1371 JUMP JUMPDEST SWAP2 POP PUSH2 0x14AB DUP4 PUSH2 0x1371 JUMP JUMPDEST SWAP3 POP DUP3 PUSH2 0x14BB JUMPI PUSH2 0x14BA PUSH2 0x14F5 JUMP JUMPDEST JUMPDEST DUP3 DUP3 MOD SWAP1 POP SWAP3 SWAP2 POP POP JUMP JUMPDEST PUSH32 0x4E487B7100000000000000000000000000000000000000000000000000000000 PUSH1 0x0 MSTORE PUSH1 0x11 PUSH1 0x4 MSTORE PUSH1 0x24 PUSH1 0x0 REVERT JUMPDEST PUSH32 0x4E487B7100000000000000000000000000000000000000000000000000000000 PUSH1 0x0 MSTORE PUSH1 0x12 PUSH1 0x4 MSTORE PUSH1 0x24 PUSH1 0x0 REVERT JUMPDEST PUSH32 0x4E487B7100000000000000000000000000000000000000000000000000000000 PUSH1 0x0 MSTORE PUSH1 0x32 PUSH1 0x4 MSTORE PUSH1 0x24 PUSH1 0x0 REVERT JUMPDEST PUSH32 0x4E487B7100000000000000000000000000000000000000000000000000000000 PUSH1 0x0 MSTORE PUSH1 0x41 PUSH1 0x4 MSTORE PUSH1 0x24 PUSH1 0x0 REVERT JUMPDEST PUSH1 0x0 DUP1 REVERT JUMPDEST PUSH1 0x0 DUP1 REVERT JUMPDEST PUSH1 0x0 PUSH1 0x1F NOT PUSH1 0x1F DUP4 ADD AND SWAP1 POP SWAP2 SWAP1 POP JUMP JUMPDEST PUSH1 0x0 DUP2 PUSH1 0x0 SHR SWAP1 POP SWAP2 SWAP1 POP JUMP JUMPDEST PUSH1 0x0 DUP2 PUSH1 0x10 SHR SWAP1 POP SWAP2 SWAP1 POP JUMP JUMPDEST PUSH1 0x0 DUP2 PUSH1 0x20 SHR SWAP1 POP SWAP2 SWAP1 POP JUMP JUMPDEST PUSH1 0x0 DUP2 PUSH1 0x60 SHR SWAP1 POP SWAP2 SWAP1 POP JUMP JUMPDEST PUSH2 0x15DA DUP2 PUSH2 0x1325 JUMP JUMPDEST DUP2 EQ PUSH2 0x15E5 JUMPI PUSH1 0x0 DUP1 REVERT JUMPDEST POP JUMP JUMPDEST PUSH2 0x15F1 DUP2 PUSH2 0x1343 JUMP JUMPDEST DUP2 EQ PUSH2 0x15FC JUMPI PUSH1 0x0 DUP1 REVERT JUMPDEST POP JUMP JUMPDEST PUSH2 0x1608 DUP2 PUSH2 0x1371 JUMP JUMPDEST DUP2 EQ PUSH2 0x1613 JUMPI PUSH1 0x0 DUP1 REVERT JUMPDEST POP JUMP JUMPDEST PUSH2 0x161F DUP2 PUSH2 0x137B JUMP JUMPDEST DUP2 EQ PUSH2 0x162A JUMPI PUSH1 0x0 DUP1 REVERT JUMPDEST POP JUMP INVALID LOG2 PUSH5 0x6970667358 0x22 SLT KECCAK256 SELFBALANCE 0xC7 0xE MSTORE8 0xF8 SWAP10 LOG3 SSTORE 0xB5 0xA9 0xB6 PUSH15 0xFFA795D6394E94C5D431F8C23B63B6 PUSH1 0x31 0x22 0x26 SWAP3 PUSH5 0x736F6C6343 STOP ADDMOD SMOD STOP CALLER "
		},
		"gasEstimates": {
			"creation": {
				"codeDepositCost": "1146200",
				"executionCost": "25460",
				"totalCost": "1171660"
			},
			"external": {
				"balance()": "2592",
				"calculate_winnings((uint16,uint16,uint64,address,uint256),uint256)": "infinite",
				"deposit()": "infinite",
				"get_bets()": "infinite",
				"get_bets_length()": "2512",
				"is_red(uint256)": "infinite",
				"owner()": "2511",
				"place_bet(uint16,uint256,uint16)": "infinite",
				"play()": "infinite",
				"random(uint256)": "infinite",
				"withdraw(uint256)": "infinite"
			}
		},
		"methodIdentifiers": {
			"balance()": "b69ef8a8",
			"calculate_winnings((uint16,uint16,uint64,address,uint256),uint256)": "32e5b0bc",
			"deposit()": "d0e30db0",
			"get_bets()": "7b275c88",
			"get_bets_length()": "797fae9d",
			"is_red(uint256)": "b4b674cb",
			"owner()": "8da5cb5b",
			"place_bet(uint16,uint256,uint16)": "42acafbc",
			"play()": "93e84cd9",
			"random(uint256)": "b863bd37",
			"withdraw(uint256)": "2e1a7d4d"
		}
	},
	"abi": [
		{
			"anonymous": false,
			"inputs": [
				{
					"components": [
						{
							"internalType": "uint16",
							"name": "bet_type",
							"type": "uint16"
						},
						{
							"internalType": "uint16",
							"name": "bet",
							"type": "uint16"
						},
						{
							"internalType": "uint64",
							"name": "timestamp",
							"type": "uint64"
						},
						{
							"internalType": "address",
							"name": "player",
							"type": "address"
						},
						{
							"internalType": "uint256",
							"name": "bet_amount",
							"type": "uint256"
						}
					],
					"indexed": false,
					"internalType": "struct Roulette.Bet",
					"name": "bet",
					"type": "tuple"
				}
			],
			"name": "BetPlaced",
			"type": "event"
		},
		{
			"anonymous": false,
			"inputs": [
				{
					"indexed": false,
					"internalType": "uint256",
					"name": "roll",
					"type": "uint256"
				}
			],
			"name": "OutcomeDecided",
			"type": "event"
		},
		{
			"inputs": [],
			"name": "balance",
			"outputs": [
				{
					"internalType": "uint256",
					"name": "",
					"type": "uint256"
				}
			],
			"stateMutability": "view",
			"type": "function"
		},
		{
			"inputs": [
				{
					"components": [
						{
							"internalType": "uint16",
							"name": "bet_type",
							"type": "uint16"
						},
						{
							"internalType": "uint16",
							"name": "bet",
							"type": "uint16"
						},
						{
							"internalType": "uint64",
							"name": "timestamp",
							"type": "uint64"
						},
						{
							"internalType": "address",
							"name": "player",
							"type": "address"
						},
						{
							"internalType": "uint256",
							"name": "bet_amount",
							"type": "uint256"
						}
					],
					"internalType": "struct Roulette.Bet",
					"name": "bet",
					"type": "tuple"
				},
				{
					"internalType": "uint256",
					"name": "roll",
					"type": "uint256"
				}
			],
			"name": "calculate_winnings",
			"outputs": [
				{
					"internalType": "uint256",
					"name": "",
					"type": "uint256"
				}
			],
			"stateMutability": "pure",
			"type": "function"
		},
		{
			"inputs": [],
			"name": "deposit",
			"outputs": [],
			"stateMutability": "payable",
			"type": "function"
		},
		{
			"inputs": [],
			"name": "get_bets",
			"outputs": [
				{
					"components": [
						{
							"internalType": "uint16",
							"name": "bet_type",
							"type": "uint16"
						},
						{
							"internalType": "uint16",
							"name": "bet",
							"type": "uint16"
						},
						{
							"internalType": "uint64",
							"name": "timestamp",
							"type": "uint64"
						},
						{
							"internalType": "address",
							"name": "player",
							"type": "address"
						},
						{
							"internalType": "uint256",
							"name": "bet_amount",
							"type": "uint256"
						}
					],
					"internalType": "struct Roulette.Bet[]",
					"name": "",
					"type": "tuple[]"
				}
			],
			"stateMutability": "view",
			"type": "function"
		},
		{
			"inputs": [],
			"name": "get_bets_length",
			"outputs": [
				{
					"internalType": "uint256",
					"name": "",
					"type": "uint256"
				}
			],
			"stateMutability": "view",
			"type": "function"
		},
		{
			"inputs": [
				{
					"internalType": "uint256",
					"name": "roll",
					"type": "uint256"
				}
			],
			"name": "is_red",
			"outputs": [
				{
					"internalType": "bool",
					"name": "",
					"type": "bool"
				}
			],
			"stateMutability": "pure",
			"type": "function"
		},
		{
			"inputs": [],
			"name": "owner",
			"outputs": [
				{
					"internalType": "address",
					"name": "",
					"type": "address"
				}
			],
			"stateMutability": "view",
			"type": "function"
		},
		{
			"inputs": [
				{
					"internalType": "uint16",
					"name": "bet_type",
					"type": "uint16"
				},
				{
					"internalType": "uint256",
					"name": "bet_amount",
					"type": "uint256"
				},
				{
					"internalType": "uint16",
					"name": "bet",
					"type": "uint16"
				}
			],
			"name": "place_bet",
			"outputs": [],
			"stateMutability": "nonpayable",
			"type": "function"
		},
		{
			"inputs": [],
			"name": "play",
			"outputs": [],
			"stateMutability": "nonpayable",
			"type": "function"
		},
		{
			"inputs": [
				{
					"internalType": "uint256",
					"name": "mod",
					"type": "uint256"
				}
			],
			"name": "random",
			"outputs": [
				{
					"internalType": "uint256",
					"name": "",
					"type": "uint256"
				}
			],
			"stateMutability": "view",
			"type": "function"
		},
		{
			"inputs": [
				{
					"internalType": "uint256",
					"name": "amount",
					"type": "uint256"
				}
			],
			"name": "withdraw",
			"outputs": [],
			"stateMutability": "nonpayable",
			"type": "function"
		}
	]
}