{
	"data": {
		"bytecode": {
			"linkReferences": {},
			"object": "608060405234801561001057600080fd5b50600080546001600160a01b03191633179055610ba5806100326000396000f3fe60806040526004361061009c5760003560e01c80638da5cb5b116100645780638da5cb5b1461014d57806393e84cd914610185578063b4b674cb1461019a578063b69ef8a8146101ca578063b863bd37146101ec578063d0e30db01461020c57600080fd5b80632e1a7d4d146100a157806332e5b0bc146100c357806342acafbc146100f6578063797fae9d146101165780637b275c881461012b575b600080fd5b3480156100ad57600080fd5b506100c16100bc366004610a17565b610214565b005b3480156100cf57600080fd5b506100e36100de36600461092f565b61029f565b6040519081526020015b60405180910390f35b34801561010257600080fd5b506100c16101113660046109db565b610373565b34801561012257600080fd5b506002546100e3565b34801561013757600080fd5b50610140610564565b6040516100ed9190610a30565b34801561015957600080fd5b5060005461016d906001600160a01b031681565b6040516001600160a01b0390911681526020016100ed565b34801561019157600080fd5b506100c1610611565b3480156101a657600080fd5b506101ba6101b5366004610a17565b6107f2565b60405190151581526020016100ed565b3480156101d657600080fd5b50336000908152600160205260409020546100e3565b3480156101f857600080fd5b506100e3610207366004610a17565b61083e565b6100c1610880565b6000811161022157600080fd5b3360009081526001602052604090205481111561023d57600080fd5b8047101561024a57600080fd5b3360009081526001602052604081208054839290610269908490610aef565b9091555050604051339082156108fc029083906000818181858888f1935050505015801561029b573d6000803e3d6000fd5b5050565b6000816102ae5750600061036d565b825161ffff166102fd576102c1826107f2565b6102cc5760016102cf565b60005b60ff16836020015161ffff1614156102f85760808301516102f1906002610ad0565b905061036d565b610369565b826000015161ffff166001141561033857610319600283610b21565b836020015161ffff1614156102f85760808301516102f1906002610ad0565b826000015161ffff16600214156103695781836020015161ffff1614156103695760808301516102f1906023610ad0565b5060005b92915050565b6000821180156103925750336000908152600160205260409020548211155b61039b57600080fd5b33600090815260016020526040812080548492906103ba908490610aef565b90915550506040805160a08101825261ffff80861682528381166020830190815267ffffffffffffffff4281169484019485523360608501908152608085018881526002805460018181018355600083905297519082027f405787fa12a823e0f2b7631cc41b3ba8828b3321ca811111fa75cd3aa3bb5ace8101805497519a5195516001600160a01b0316600160601b026bffffffffffffffffffffffff96909716640100000000029590951663ffffffff9a8916620100000263ffffffff19909816929098169190911795909517979097169490941791909117905590517f405787fa12a823e0f2b7631cc41b3ba8828b3321ca811111fa75cd3aa3bb5acf9091015581547f168ba5d36b75cd9e2c0d58cc82bada2c8502840a34b832d9f9f943252ae3db0d92916104ec91610aef565b815481106104fc576104fc610b59565b90600052602060002090600202016040516105579190815461ffff8082168352601082901c1660208084019190915281901c67ffffffffffffffff166040830152606090811c90820152600190910154608082015260a00190565b60405180910390a1505050565b60606002805480602002602001604051908101604052809291908181526020016000905b828210156106085760008481526020908190206040805160a08101825260028602909201805461ffff80821685526201000082041684860152640100000000810467ffffffffffffffff1692840192909252600160601b9091046001600160a01b0316606083015260019081015460808301529083529092019101610588565b50505050905090565b6000546001600160a01b0316331461062857600080fd5b6000610634602561083e565b90507f34cc19c6a5758956f8aec81e3f501b1a3fe6c4b9879081781ec6be0a438f3a548160405161066791815260200190565b60405180910390a160005b6002548110156107e257816106d9576002818154811061069457610694610b59565b60009182526020808320600160029093020182015483546001600160a01b03168452919052604082208054919290916106ce908490610ab8565b909155506107d09050565b6000610767600283815481106106f1576106f1610b59565b60009182526020918290206040805160a081018252600293909302909101805461ffff80821685526201000082041694840194909452640100000000840467ffffffffffffffff1691830191909152600160601b9092046001600160a01b0316606082015260019091015460808201528461029f565b905080156107ce5780600160006002858154811061078757610787610b59565b600091825260208083206002909202909101546001600160a01b03600160601b909104168352820192909252604001812080549091906107c8908490610ab8565b90915550505b505b806107da81610b06565b915050610672565b506107ef600260006108b3565b50565b6000600b82108061080e575060128211801561080e5750601d82105b156108275761081e600283610b21565b60011492915050565b610832600283610b21565b1592915050565b919050565b600081444260405160200161085d929190918252602082015260400190565b6040516020818303038152906040528051906020012060001c61036d9190610b21565b6000341161088d57600080fd5b33600090815260016020526040812080543492906108ac908490610ab8565b9091555050565b50805460008255600202906000526020600020908101906107ef91905b808211156108ea57600080825560018201556002016108d0565b5090565b80356001600160a01b038116811461083957600080fd5b803561ffff8116811461083957600080fd5b803567ffffffffffffffff8116811461083957600080fd5b60008082840360c081121561094357600080fd5b60a081121561095157600080fd5b5060405160a0810181811067ffffffffffffffff8211171561098357634e487b7160e01b600052604160045260246000fd5b60405261098f84610905565b815261099d60208501610905565b60208201526109ae60408501610917565b60408201526109bf606085016108ee565b6060820152608084810135908201529460a09093013593505050565b6000806000606084860312156109f057600080fd5b6109f984610905565b925060208401359150610a0e60408501610905565b90509250925092565b600060208284031215610a2957600080fd5b5035919050565b602080825282518282018190526000919060409081850190868401855b82811015610aab578151805161ffff90811686528782015116878601528581015167ffffffffffffffff16868601526060808201516001600160a01b0316908601526080908101519085015260a09093019290850190600101610a4d565b5091979650505050505050565b60008219821115610acb57610acb610b43565b500190565b6000816000190483118215151615610aea57610aea610b43565b500290565b600082821015610b0157610b01610b43565b500390565b6000600019821415610b1a57610b1a610b43565b5060010190565b600082610b3e57634e487b7160e01b600052601260045260246000fd5b500690565b634e487b7160e01b600052601160045260246000fd5b634e487b7160e01b600052603260045260246000fdfea264697066735822122035a91e2c695d57981c2cfbac1819110b121fb9d3537144be82133458afc580a364736f6c63430008070033",
			"opcodes": "PUSH1 0x80 PUSH1 0x40 MSTORE CALLVALUE DUP1 ISZERO PUSH2 0x10 JUMPI PUSH1 0x0 DUP1 REVERT JUMPDEST POP PUSH1 0x0 DUP1 SLOAD PUSH1 0x1 PUSH1 0x1 PUSH1 0xA0 SHL SUB NOT AND CALLER OR SWAP1 SSTORE PUSH2 0xBA5 DUP1 PUSH2 0x32 PUSH1 0x0 CODECOPY PUSH1 0x0 RETURN INVALID PUSH1 0x80 PUSH1 0x40 MSTORE PUSH1 0x4 CALLDATASIZE LT PUSH2 0x9C JUMPI PUSH1 0x0 CALLDATALOAD PUSH1 0xE0 SHR DUP1 PUSH4 0x8DA5CB5B GT PUSH2 0x64 JUMPI DUP1 PUSH4 0x8DA5CB5B EQ PUSH2 0x14D JUMPI DUP1 PUSH4 0x93E84CD9 EQ PUSH2 0x185 JUMPI DUP1 PUSH4 0xB4B674CB EQ PUSH2 0x19A JUMPI DUP1 PUSH4 0xB69EF8A8 EQ PUSH2 0x1CA JUMPI DUP1 PUSH4 0xB863BD37 EQ PUSH2 0x1EC JUMPI DUP1 PUSH4 0xD0E30DB0 EQ PUSH2 0x20C JUMPI PUSH1 0x0 DUP1 REVERT JUMPDEST DUP1 PUSH4 0x2E1A7D4D EQ PUSH2 0xA1 JUMPI DUP1 PUSH4 0x32E5B0BC EQ PUSH2 0xC3 JUMPI DUP1 PUSH4 0x42ACAFBC EQ PUSH2 0xF6 JUMPI DUP1 PUSH4 0x797FAE9D EQ PUSH2 0x116 JUMPI DUP1 PUSH4 0x7B275C88 EQ PUSH2 0x12B JUMPI JUMPDEST PUSH1 0x0 DUP1 REVERT JUMPDEST CALLVALUE DUP1 ISZERO PUSH2 0xAD JUMPI PUSH1 0x0 DUP1 REVERT JUMPDEST POP PUSH2 0xC1 PUSH2 0xBC CALLDATASIZE PUSH1 0x4 PUSH2 0xA17 JUMP JUMPDEST PUSH2 0x214 JUMP JUMPDEST STOP JUMPDEST CALLVALUE DUP1 ISZERO PUSH2 0xCF JUMPI PUSH1 0x0 DUP1 REVERT JUMPDEST POP PUSH2 0xE3 PUSH2 0xDE CALLDATASIZE PUSH1 0x4 PUSH2 0x92F JUMP JUMPDEST PUSH2 0x29F JUMP JUMPDEST PUSH1 0x40 MLOAD SWAP1 DUP2 MSTORE PUSH1 0x20 ADD JUMPDEST PUSH1 0x40 MLOAD DUP1 SWAP2 SUB SWAP1 RETURN JUMPDEST CALLVALUE DUP1 ISZERO PUSH2 0x102 JUMPI PUSH1 0x0 DUP1 REVERT JUMPDEST POP PUSH2 0xC1 PUSH2 0x111 CALLDATASIZE PUSH1 0x4 PUSH2 0x9DB JUMP JUMPDEST PUSH2 0x373 JUMP JUMPDEST CALLVALUE DUP1 ISZERO PUSH2 0x122 JUMPI PUSH1 0x0 DUP1 REVERT JUMPDEST POP PUSH1 0x2 SLOAD PUSH2 0xE3 JUMP JUMPDEST CALLVALUE DUP1 ISZERO PUSH2 0x137 JUMPI PUSH1 0x0 DUP1 REVERT JUMPDEST POP PUSH2 0x140 PUSH2 0x564 JUMP JUMPDEST PUSH1 0x40 MLOAD PUSH2 0xED SWAP2 SWAP1 PUSH2 0xA30 JUMP JUMPDEST CALLVALUE DUP1 ISZERO PUSH2 0x159 JUMPI PUSH1 0x0 DUP1 REVERT JUMPDEST POP PUSH1 0x0 SLOAD PUSH2 0x16D SWAP1 PUSH1 0x1 PUSH1 0x1 PUSH1 0xA0 SHL SUB AND DUP2 JUMP JUMPDEST PUSH1 0x40 MLOAD PUSH1 0x1 PUSH1 0x1 PUSH1 0xA0 SHL SUB SWAP1 SWAP2 AND DUP2 MSTORE PUSH1 0x20 ADD PUSH2 0xED JUMP JUMPDEST CALLVALUE DUP1 ISZERO PUSH2 0x191 JUMPI PUSH1 0x0 DUP1 REVERT JUMPDEST POP PUSH2 0xC1 PUSH2 0x611 JUMP JUMPDEST CALLVALUE DUP1 ISZERO PUSH2 0x1A6 JUMPI PUSH1 0x0 DUP1 REVERT JUMPDEST POP PUSH2 0x1BA PUSH2 0x1B5 CALLDATASIZE PUSH1 0x4 PUSH2 0xA17 JUMP JUMPDEST PUSH2 0x7F2 JUMP JUMPDEST PUSH1 0x40 MLOAD SWAP1 ISZERO ISZERO DUP2 MSTORE PUSH1 0x20 ADD PUSH2 0xED JUMP JUMPDEST CALLVALUE DUP1 ISZERO PUSH2 0x1D6 JUMPI PUSH1 0x0 DUP1 REVERT JUMPDEST POP CALLER PUSH1 0x0 SWAP1 DUP2 MSTORE PUSH1 0x1 PUSH1 0x20 MSTORE PUSH1 0x40 SWAP1 KECCAK256 SLOAD PUSH2 0xE3 JUMP JUMPDEST CALLVALUE DUP1 ISZERO PUSH2 0x1F8 JUMPI PUSH1 0x0 DUP1 REVERT JUMPDEST POP PUSH2 0xE3 PUSH2 0x207 CALLDATASIZE PUSH1 0x4 PUSH2 0xA17 JUMP JUMPDEST PUSH2 0x83E JUMP JUMPDEST PUSH2 0xC1 PUSH2 0x880 JUMP JUMPDEST PUSH1 0x0 DUP2 GT PUSH2 0x221 JUMPI PUSH1 0x0 DUP1 REVERT JUMPDEST CALLER PUSH1 0x0 SWAP1 DUP2 MSTORE PUSH1 0x1 PUSH1 0x20 MSTORE PUSH1 0x40 SWAP1 KECCAK256 SLOAD DUP2 GT ISZERO PUSH2 0x23D JUMPI PUSH1 0x0 DUP1 REVERT JUMPDEST DUP1 SELFBALANCE LT ISZERO PUSH2 0x24A JUMPI PUSH1 0x0 DUP1 REVERT JUMPDEST CALLER PUSH1 0x0 SWAP1 DUP2 MSTORE PUSH1 0x1 PUSH1 0x20 MSTORE PUSH1 0x40 DUP2 KECCAK256 DUP1 SLOAD DUP4 SWAP3 SWAP1 PUSH2 0x269 SWAP1 DUP5 SWAP1 PUSH2 0xAEF JUMP JUMPDEST SWAP1 SWAP2 SSTORE POP POP PUSH1 0x40 MLOAD CALLER SWAP1 DUP3 ISZERO PUSH2 0x8FC MUL SWAP1 DUP4 SWAP1 PUSH1 0x0 DUP2 DUP2 DUP2 DUP6 DUP9 DUP9 CALL SWAP4 POP POP POP POP ISZERO DUP1 ISZERO PUSH2 0x29B JUMPI RETURNDATASIZE PUSH1 0x0 DUP1 RETURNDATACOPY RETURNDATASIZE PUSH1 0x0 REVERT JUMPDEST POP POP JUMP JUMPDEST PUSH1 0x0 DUP2 PUSH2 0x2AE JUMPI POP PUSH1 0x0 PUSH2 0x36D JUMP JUMPDEST DUP3 MLOAD PUSH2 0xFFFF AND PUSH2 0x2FD JUMPI PUSH2 0x2C1 DUP3 PUSH2 0x7F2 JUMP JUMPDEST PUSH2 0x2CC JUMPI PUSH1 0x1 PUSH2 0x2CF JUMP JUMPDEST PUSH1 0x0 JUMPDEST PUSH1 0xFF AND DUP4 PUSH1 0x20 ADD MLOAD PUSH2 0xFFFF AND EQ ISZERO PUSH2 0x2F8 JUMPI PUSH1 0x80 DUP4 ADD MLOAD PUSH2 0x2F1 SWAP1 PUSH1 0x2 PUSH2 0xAD0 JUMP JUMPDEST SWAP1 POP PUSH2 0x36D JUMP JUMPDEST PUSH2 0x369 JUMP JUMPDEST DUP3 PUSH1 0x0 ADD MLOAD PUSH2 0xFFFF AND PUSH1 0x1 EQ ISZERO PUSH2 0x338 JUMPI PUSH2 0x319 PUSH1 0x2 DUP4 PUSH2 0xB21 JUMP JUMPDEST DUP4 PUSH1 0x20 ADD MLOAD PUSH2 0xFFFF AND EQ ISZERO PUSH2 0x2F8 JUMPI PUSH1 0x80 DUP4 ADD MLOAD PUSH2 0x2F1 SWAP1 PUSH1 0x2 PUSH2 0xAD0 JUMP JUMPDEST DUP3 PUSH1 0x0 ADD MLOAD PUSH2 0xFFFF AND PUSH1 0x2 EQ ISZERO PUSH2 0x369 JUMPI DUP2 DUP4 PUSH1 0x20 ADD MLOAD PUSH2 0xFFFF AND EQ ISZERO PUSH2 0x369 JUMPI PUSH1 0x80 DUP4 ADD MLOAD PUSH2 0x2F1 SWAP1 PUSH1 0x23 PUSH2 0xAD0 JUMP JUMPDEST POP PUSH1 0x0 JUMPDEST SWAP3 SWAP2 POP POP JUMP JUMPDEST PUSH1 0x0 DUP3 GT DUP1 ISZERO PUSH2 0x392 JUMPI POP CALLER PUSH1 0x0 SWAP1 DUP2 MSTORE PUSH1 0x1 PUSH1 0x20 MSTORE PUSH1 0x40 SWAP1 KECCAK256 SLOAD DUP3 GT ISZERO JUMPDEST PUSH2 0x39B JUMPI PUSH1 0x0 DUP1 REVERT JUMPDEST CALLER PUSH1 0x0 SWAP1 DUP2 MSTORE PUSH1 0x1 PUSH1 0x20 MSTORE PUSH1 0x40 DUP2 KECCAK256 DUP1 SLOAD DUP5 SWAP3 SWAP1 PUSH2 0x3BA SWAP1 DUP5 SWAP1 PUSH2 0xAEF JUMP JUMPDEST SWAP1 SWAP2 SSTORE POP POP PUSH1 0x40 DUP1 MLOAD PUSH1 0xA0 DUP2 ADD DUP3 MSTORE PUSH2 0xFFFF DUP1 DUP7 AND DUP3 MSTORE DUP4 DUP2 AND PUSH1 0x20 DUP4 ADD SWAP1 DUP2 MSTORE PUSH8 0xFFFFFFFFFFFFFFFF TIMESTAMP DUP2 AND SWAP5 DUP5 ADD SWAP5 DUP6 MSTORE CALLER PUSH1 0x60 DUP6 ADD SWAP1 DUP2 MSTORE PUSH1 0x80 DUP6 ADD DUP9 DUP2 MSTORE PUSH1 0x2 DUP1 SLOAD PUSH1 0x1 DUP2 DUP2 ADD DUP4 SSTORE PUSH1 0x0 DUP4 SWAP1 MSTORE SWAP8 MLOAD SWAP1 DUP3 MUL PUSH32 0x405787FA12A823E0F2B7631CC41B3BA8828B3321CA811111FA75CD3AA3BB5ACE DUP2 ADD DUP1 SLOAD SWAP8 MLOAD SWAP11 MLOAD SWAP6 MLOAD PUSH1 0x1 PUSH1 0x1 PUSH1 0xA0 SHL SUB AND PUSH1 0x1 PUSH1 0x60 SHL MUL PUSH12 0xFFFFFFFFFFFFFFFFFFFFFFFF SWAP7 SWAP1 SWAP8 AND PUSH5 0x100000000 MUL SWAP6 SWAP1 SWAP6 AND PUSH4 0xFFFFFFFF SWAP11 DUP10 AND PUSH3 0x10000 MUL PUSH4 0xFFFFFFFF NOT SWAP1 SWAP9 AND SWAP3 SWAP1 SWAP9 AND SWAP2 SWAP1 SWAP2 OR SWAP6 SWAP1 SWAP6 OR SWAP8 SWAP1 SWAP8 AND SWAP5 SWAP1 SWAP5 OR SWAP2 SWAP1 SWAP2 OR SWAP1 SSTORE SWAP1 MLOAD PUSH32 0x405787FA12A823E0F2B7631CC41B3BA8828B3321CA811111FA75CD3AA3BB5ACF SWAP1 SWAP2 ADD SSTORE DUP2 SLOAD PUSH32 0x168BA5D36B75CD9E2C0D58CC82BADA2C8502840A34B832D9F9F943252AE3DB0D SWAP3 SWAP2 PUSH2 0x4EC SWAP2 PUSH2 0xAEF JUMP JUMPDEST DUP2 SLOAD DUP2 LT PUSH2 0x4FC JUMPI PUSH2 0x4FC PUSH2 0xB59 JUMP JUMPDEST SWAP1 PUSH1 0x0 MSTORE PUSH1 0x20 PUSH1 0x0 KECCAK256 SWAP1 PUSH1 0x2 MUL ADD PUSH1 0x40 MLOAD PUSH2 0x557 SWAP2 SWAP1 DUP2 SLOAD PUSH2 0xFFFF DUP1 DUP3 AND DUP4 MSTORE PUSH1 0x10 DUP3 SWAP1 SHR AND PUSH1 0x20 DUP1 DUP5 ADD SWAP2 SWAP1 SWAP2 MSTORE DUP2 SWAP1 SHR PUSH8 0xFFFFFFFFFFFFFFFF AND PUSH1 0x40 DUP4 ADD MSTORE PUSH1 0x60 SWAP1 DUP2 SHR SWAP1 DUP3 ADD MSTORE PUSH1 0x1 SWAP1 SWAP2 ADD SLOAD PUSH1 0x80 DUP3 ADD MSTORE PUSH1 0xA0 ADD SWAP1 JUMP JUMPDEST PUSH1 0x40 MLOAD DUP1 SWAP2 SUB SWAP1 LOG1 POP POP POP JUMP JUMPDEST PUSH1 0x60 PUSH1 0x2 DUP1 SLOAD DUP1 PUSH1 0x20 MUL PUSH1 0x20 ADD PUSH1 0x40 MLOAD SWAP1 DUP2 ADD PUSH1 0x40 MSTORE DUP1 SWAP3 SWAP2 SWAP1 DUP2 DUP2 MSTORE PUSH1 0x20 ADD PUSH1 0x0 SWAP1 JUMPDEST DUP3 DUP3 LT ISZERO PUSH2 0x608 JUMPI PUSH1 0x0 DUP5 DUP2 MSTORE PUSH1 0x20 SWAP1 DUP2 SWAP1 KECCAK256 PUSH1 0x40 DUP1 MLOAD PUSH1 0xA0 DUP2 ADD DUP3 MSTORE PUSH1 0x2 DUP7 MUL SWAP1 SWAP3 ADD DUP1 SLOAD PUSH2 0xFFFF DUP1 DUP3 AND DUP6 MSTORE PUSH3 0x10000 DUP3 DIV AND DUP5 DUP7 ADD MSTORE PUSH5 0x100000000 DUP2 DIV PUSH8 0xFFFFFFFFFFFFFFFF AND SWAP3 DUP5 ADD SWAP3 SWAP1 SWAP3 MSTORE PUSH1 0x1 PUSH1 0x60 SHL SWAP1 SWAP2 DIV PUSH1 0x1 PUSH1 0x1 PUSH1 0xA0 SHL SUB AND PUSH1 0x60 DUP4 ADD MSTORE PUSH1 0x1 SWAP1 DUP2 ADD SLOAD PUSH1 0x80 DUP4 ADD MSTORE SWAP1 DUP4 MSTORE SWAP1 SWAP3 ADD SWAP2 ADD PUSH2 0x588 JUMP JUMPDEST POP POP POP POP SWAP1 POP SWAP1 JUMP JUMPDEST PUSH1 0x0 SLOAD PUSH1 0x1 PUSH1 0x1 PUSH1 0xA0 SHL SUB AND CALLER EQ PUSH2 0x628 JUMPI PUSH1 0x0 DUP1 REVERT JUMPDEST PUSH1 0x0 PUSH2 0x634 PUSH1 0x25 PUSH2 0x83E JUMP JUMPDEST SWAP1 POP PUSH32 0x34CC19C6A5758956F8AEC81E3F501B1A3FE6C4B9879081781EC6BE0A438F3A54 DUP2 PUSH1 0x40 MLOAD PUSH2 0x667 SWAP2 DUP2 MSTORE PUSH1 0x20 ADD SWAP1 JUMP JUMPDEST PUSH1 0x40 MLOAD DUP1 SWAP2 SUB SWAP1 LOG1 PUSH1 0x0 JUMPDEST PUSH1 0x2 SLOAD DUP2 LT ISZERO PUSH2 0x7E2 JUMPI DUP2 PUSH2 0x6D9 JUMPI PUSH1 0x2 DUP2 DUP2 SLOAD DUP2 LT PUSH2 0x694 JUMPI PUSH2 0x694 PUSH2 0xB59 JUMP JUMPDEST PUSH1 0x0 SWAP2 DUP3 MSTORE PUSH1 0x20 DUP1 DUP4 KECCAK256 PUSH1 0x1 PUSH1 0x2 SWAP1 SWAP4 MUL ADD DUP3 ADD SLOAD DUP4 SLOAD PUSH1 0x1 PUSH1 0x1 PUSH1 0xA0 SHL SUB AND DUP5 MSTORE SWAP2 SWAP1 MSTORE PUSH1 0x40 DUP3 KECCAK256 DUP1 SLOAD SWAP2 SWAP3 SWAP1 SWAP2 PUSH2 0x6CE SWAP1 DUP5 SWAP1 PUSH2 0xAB8 JUMP JUMPDEST SWAP1 SWAP2 SSTORE POP PUSH2 0x7D0 SWAP1 POP JUMP JUMPDEST PUSH1 0x0 PUSH2 0x767 PUSH1 0x2 DUP4 DUP2 SLOAD DUP2 LT PUSH2 0x6F1 JUMPI PUSH2 0x6F1 PUSH2 0xB59 JUMP JUMPDEST PUSH1 0x0 SWAP2 DUP3 MSTORE PUSH1 0x20 SWAP2 DUP3 SWAP1 KECCAK256 PUSH1 0x40 DUP1 MLOAD PUSH1 0xA0 DUP2 ADD DUP3 MSTORE PUSH1 0x2 SWAP4 SWAP1 SWAP4 MUL SWAP1 SWAP2 ADD DUP1 SLOAD PUSH2 0xFFFF DUP1 DUP3 AND DUP6 MSTORE PUSH3 0x10000 DUP3 DIV AND SWAP5 DUP5 ADD SWAP5 SWAP1 SWAP5 MSTORE PUSH5 0x100000000 DUP5 DIV PUSH8 0xFFFFFFFFFFFFFFFF AND SWAP2 DUP4 ADD SWAP2 SWAP1 SWAP2 MSTORE PUSH1 0x1 PUSH1 0x60 SHL SWAP1 SWAP3 DIV PUSH1 0x1 PUSH1 0x1 PUSH1 0xA0 SHL SUB AND PUSH1 0x60 DUP3 ADD MSTORE PUSH1 0x1 SWAP1 SWAP2 ADD SLOAD PUSH1 0x80 DUP3 ADD MSTORE DUP5 PUSH2 0x29F JUMP JUMPDEST SWAP1 POP DUP1 ISZERO PUSH2 0x7CE JUMPI DUP1 PUSH1 0x1 PUSH1 0x0 PUSH1 0x2 DUP6 DUP2 SLOAD DUP2 LT PUSH2 0x787 JUMPI PUSH2 0x787 PUSH2 0xB59 JUMP JUMPDEST PUSH1 0x0 SWAP2 DUP3 MSTORE PUSH1 0x20 DUP1 DUP4 KECCAK256 PUSH1 0x2 SWAP1 SWAP3 MUL SWAP1 SWAP2 ADD SLOAD PUSH1 0x1 PUSH1 0x1 PUSH1 0xA0 SHL SUB PUSH1 0x1 PUSH1 0x60 SHL SWAP1 SWAP2 DIV AND DUP4 MSTORE DUP3 ADD SWAP3 SWAP1 SWAP3 MSTORE PUSH1 0x40 ADD DUP2 KECCAK256 DUP1 SLOAD SWAP1 SWAP2 SWAP1 PUSH2 0x7C8 SWAP1 DUP5 SWAP1 PUSH2 0xAB8 JUMP JUMPDEST SWAP1 SWAP2 SSTORE POP POP JUMPDEST POP JUMPDEST DUP1 PUSH2 0x7DA DUP2 PUSH2 0xB06 JUMP JUMPDEST SWAP2 POP POP PUSH2 0x672 JUMP JUMPDEST POP PUSH2 0x7EF PUSH1 0x2 PUSH1 0x0 PUSH2 0x8B3 JUMP JUMPDEST POP JUMP JUMPDEST PUSH1 0x0 PUSH1 0xB DUP3 LT DUP1 PUSH2 0x80E JUMPI POP PUSH1 0x12 DUP3 GT DUP1 ISZERO PUSH2 0x80E JUMPI POP PUSH1 0x1D DUP3 LT JUMPDEST ISZERO PUSH2 0x827 JUMPI PUSH2 0x81E PUSH1 0x2 DUP4 PUSH2 0xB21 JUMP JUMPDEST PUSH1 0x1 EQ SWAP3 SWAP2 POP POP JUMP JUMPDEST PUSH2 0x832 PUSH1 0x2 DUP4 PUSH2 0xB21 JUMP JUMPDEST ISZERO SWAP3 SWAP2 POP POP JUMP JUMPDEST SWAP2 SWAP1 POP JUMP JUMPDEST PUSH1 0x0 DUP2 DIFFICULTY TIMESTAMP PUSH1 0x40 MLOAD PUSH1 0x20 ADD PUSH2 0x85D SWAP3 SWAP2 SWAP1 SWAP2 DUP3 MSTORE PUSH1 0x20 DUP3 ADD MSTORE PUSH1 0x40 ADD SWAP1 JUMP JUMPDEST PUSH1 0x40 MLOAD PUSH1 0x20 DUP2 DUP4 SUB SUB DUP2 MSTORE SWAP1 PUSH1 0x40 MSTORE DUP1 MLOAD SWAP1 PUSH1 0x20 ADD KECCAK256 PUSH1 0x0 SHR PUSH2 0x36D SWAP2 SWAP1 PUSH2 0xB21 JUMP JUMPDEST PUSH1 0x0 CALLVALUE GT PUSH2 0x88D JUMPI PUSH1 0x0 DUP1 REVERT JUMPDEST CALLER PUSH1 0x0 SWAP1 DUP2 MSTORE PUSH1 0x1 PUSH1 0x20 MSTORE PUSH1 0x40 DUP2 KECCAK256 DUP1 SLOAD CALLVALUE SWAP3 SWAP1 PUSH2 0x8AC SWAP1 DUP5 SWAP1 PUSH2 0xAB8 JUMP JUMPDEST SWAP1 SWAP2 SSTORE POP POP JUMP JUMPDEST POP DUP1 SLOAD PUSH1 0x0 DUP3 SSTORE PUSH1 0x2 MUL SWAP1 PUSH1 0x0 MSTORE PUSH1 0x20 PUSH1 0x0 KECCAK256 SWAP1 DUP2 ADD SWAP1 PUSH2 0x7EF SWAP2 SWAP1 JUMPDEST DUP1 DUP3 GT ISZERO PUSH2 0x8EA JUMPI PUSH1 0x0 DUP1 DUP3 SSTORE PUSH1 0x1 DUP3 ADD SSTORE PUSH1 0x2 ADD PUSH2 0x8D0 JUMP JUMPDEST POP SWAP1 JUMP JUMPDEST DUP1 CALLDATALOAD PUSH1 0x1 PUSH1 0x1 PUSH1 0xA0 SHL SUB DUP2 AND DUP2 EQ PUSH2 0x839 JUMPI PUSH1 0x0 DUP1 REVERT JUMPDEST DUP1 CALLDATALOAD PUSH2 0xFFFF DUP2 AND DUP2 EQ PUSH2 0x839 JUMPI PUSH1 0x0 DUP1 REVERT JUMPDEST DUP1 CALLDATALOAD PUSH8 0xFFFFFFFFFFFFFFFF DUP2 AND DUP2 EQ PUSH2 0x839 JUMPI PUSH1 0x0 DUP1 REVERT JUMPDEST PUSH1 0x0 DUP1 DUP3 DUP5 SUB PUSH1 0xC0 DUP2 SLT ISZERO PUSH2 0x943 JUMPI PUSH1 0x0 DUP1 REVERT JUMPDEST PUSH1 0xA0 DUP2 SLT ISZERO PUSH2 0x951 JUMPI PUSH1 0x0 DUP1 REVERT JUMPDEST POP PUSH1 0x40 MLOAD PUSH1 0xA0 DUP2 ADD DUP2 DUP2 LT PUSH8 0xFFFFFFFFFFFFFFFF DUP3 GT OR ISZERO PUSH2 0x983 JUMPI PUSH4 0x4E487B71 PUSH1 0xE0 SHL PUSH1 0x0 MSTORE PUSH1 0x41 PUSH1 0x4 MSTORE PUSH1 0x24 PUSH1 0x0 REVERT JUMPDEST PUSH1 0x40 MSTORE PUSH2 0x98F DUP5 PUSH2 0x905 JUMP JUMPDEST DUP2 MSTORE PUSH2 0x99D PUSH1 0x20 DUP6 ADD PUSH2 0x905 JUMP JUMPDEST PUSH1 0x20 DUP3 ADD MSTORE PUSH2 0x9AE PUSH1 0x40 DUP6 ADD PUSH2 0x917 JUMP JUMPDEST PUSH1 0x40 DUP3 ADD MSTORE PUSH2 0x9BF PUSH1 0x60 DUP6 ADD PUSH2 0x8EE JUMP JUMPDEST PUSH1 0x60 DUP3 ADD MSTORE PUSH1 0x80 DUP5 DUP2 ADD CALLDATALOAD SWAP1 DUP3 ADD MSTORE SWAP5 PUSH1 0xA0 SWAP1 SWAP4 ADD CALLDATALOAD SWAP4 POP POP POP JUMP JUMPDEST PUSH1 0x0 DUP1 PUSH1 0x0 PUSH1 0x60 DUP5 DUP7 SUB SLT ISZERO PUSH2 0x9F0 JUMPI PUSH1 0x0 DUP1 REVERT JUMPDEST PUSH2 0x9F9 DUP5 PUSH2 0x905 JUMP JUMPDEST SWAP3 POP PUSH1 0x20 DUP5 ADD CALLDATALOAD SWAP2 POP PUSH2 0xA0E PUSH1 0x40 DUP6 ADD PUSH2 0x905 JUMP JUMPDEST SWAP1 POP SWAP3 POP SWAP3 POP SWAP3 JUMP JUMPDEST PUSH1 0x0 PUSH1 0x20 DUP3 DUP5 SUB SLT ISZERO PUSH2 0xA29 JUMPI PUSH1 0x0 DUP1 REVERT JUMPDEST POP CALLDATALOAD SWAP2 SWAP1 POP JUMP JUMPDEST PUSH1 0x20 DUP1 DUP3 MSTORE DUP3 MLOAD DUP3 DUP3 ADD DUP2 SWAP1 MSTORE PUSH1 0x0 SWAP2 SWAP1 PUSH1 0x40 SWAP1 DUP2 DUP6 ADD SWAP1 DUP7 DUP5 ADD DUP6 JUMPDEST DUP3 DUP2 LT ISZERO PUSH2 0xAAB JUMPI DUP2 MLOAD DUP1 MLOAD PUSH2 0xFFFF SWAP1 DUP2 AND DUP7 MSTORE DUP8 DUP3 ADD MLOAD AND DUP8 DUP7 ADD MSTORE DUP6 DUP2 ADD MLOAD PUSH8 0xFFFFFFFFFFFFFFFF AND DUP7 DUP7 ADD MSTORE PUSH1 0x60 DUP1 DUP3 ADD MLOAD PUSH1 0x1 PUSH1 0x1 PUSH1 0xA0 SHL SUB AND SWAP1 DUP7 ADD MSTORE PUSH1 0x80 SWAP1 DUP2 ADD MLOAD SWAP1 DUP6 ADD MSTORE PUSH1 0xA0 SWAP1 SWAP4 ADD SWAP3 SWAP1 DUP6 ADD SWAP1 PUSH1 0x1 ADD PUSH2 0xA4D JUMP JUMPDEST POP SWAP2 SWAP8 SWAP7 POP POP POP POP POP POP POP JUMP JUMPDEST PUSH1 0x0 DUP3 NOT DUP3 GT ISZERO PUSH2 0xACB JUMPI PUSH2 0xACB PUSH2 0xB43 JUMP JUMPDEST POP ADD SWAP1 JUMP JUMPDEST PUSH1 0x0 DUP2 PUSH1 0x0 NOT DIV DUP4 GT DUP3 ISZERO ISZERO AND ISZERO PUSH2 0xAEA JUMPI PUSH2 0xAEA PUSH2 0xB43 JUMP JUMPDEST POP MUL SWAP1 JUMP JUMPDEST PUSH1 0x0 DUP3 DUP3 LT ISZERO PUSH2 0xB01 JUMPI PUSH2 0xB01 PUSH2 0xB43 JUMP JUMPDEST POP SUB SWAP1 JUMP JUMPDEST PUSH1 0x0 PUSH1 0x0 NOT DUP3 EQ ISZERO PUSH2 0xB1A JUMPI PUSH2 0xB1A PUSH2 0xB43 JUMP JUMPDEST POP PUSH1 0x1 ADD SWAP1 JUMP JUMPDEST PUSH1 0x0 DUP3 PUSH2 0xB3E JUMPI PUSH4 0x4E487B71 PUSH1 0xE0 SHL PUSH1 0x0 MSTORE PUSH1 0x12 PUSH1 0x4 MSTORE PUSH1 0x24 PUSH1 0x0 REVERT JUMPDEST POP MOD SWAP1 JUMP JUMPDEST PUSH4 0x4E487B71 PUSH1 0xE0 SHL PUSH1 0x0 MSTORE PUSH1 0x11 PUSH1 0x4 MSTORE PUSH1 0x24 PUSH1 0x0 REVERT JUMPDEST PUSH4 0x4E487B71 PUSH1 0xE0 SHL PUSH1 0x0 MSTORE PUSH1 0x32 PUSH1 0x4 MSTORE PUSH1 0x24 PUSH1 0x0 REVERT INVALID LOG2 PUSH5 0x6970667358 0x22 SLT KECCAK256 CALLDATALOAD 0xA9 0x1E 0x2C PUSH10 0x5D57981C2CFBAC181911 SIGNEXTEND SLT 0x1F 0xB9 0xD3 MSTORE8 PUSH18 0x44BE82133458AFC580A364736F6C63430008 SMOD STOP CALLER "
		},
		"gasEstimates": {
			"creation": {
				"codeDepositCost": "596200",
				"executionCost": "24867",
				"totalCost": "621067"
			},
			"external": {
				"balance()": "2415",
				"calculate_winnings((uint16,uint16,uint64,address,uint256),uint256)": "infinite",
				"deposit()": "24617",
				"get_bets()": "infinite",
				"get_bets_length()": "2348",
				"is_red(uint256)": "490",
				"owner()": "2337",
				"place_bet(uint16,uint256,uint16)": "infinite",
				"play()": "infinite",
				"random(uint256)": "606",
				"withdraw(uint256)": "infinite"
			}
		},
		"methodIdentifiers": {
			"balance()": "b69ef8a8",
			"calculate_winnings((uint16,uint16,uint64,address,uint256),uint256)": "32e5b0bc",
			"deposit()": "d0e30db0",
			"get_bets()": "7b275c88",
			"get_bets_length()": "797fae9d",
			"is_red(uint256)": "b4b674cb",
			"owner()": "8da5cb5b",
			"place_bet(uint16,uint256,uint16)": "42acafbc",
			"play()": "93e84cd9",
			"random(uint256)": "b863bd37",
			"withdraw(uint256)": "2e1a7d4d"
		}
	},
	"abi": [
		{
			"anonymous": false,
			"inputs": [
				{
					"components": [
						{
							"internalType": "uint16",
							"name": "bet_type",
							"type": "uint16"
						},
						{
							"internalType": "uint16",
							"name": "bet",
							"type": "uint16"
						},
						{
							"internalType": "uint64",
							"name": "timestamp",
							"type": "uint64"
						},
						{
							"internalType": "address",
							"name": "player",
							"type": "address"
						},
						{
							"internalType": "uint256",
							"name": "bet_amount",
							"type": "uint256"
						}
					],
					"indexed": false,
					"internalType": "struct Roulette.Bet",
					"name": "bet",
					"type": "tuple"
				}
			],
			"name": "BetPlaced",
			"type": "event"
		},
		{
			"anonymous": false,
			"inputs": [
				{
					"indexed": false,
					"internalType": "uint256",
					"name": "roll",
					"type": "uint256"
				}
			],
			"name": "OutcomeDecided",
			"type": "event"
		},
		{
			"inputs": [],
			"name": "balance",
			"outputs": [
				{
					"internalType": "uint256",
					"name": "",
					"type": "uint256"
				}
			],
			"stateMutability": "view",
			"type": "function"
		},
		{
			"inputs": [
				{
					"components": [
						{
							"internalType": "uint16",
							"name": "bet_type",
							"type": "uint16"
						},
						{
							"internalType": "uint16",
							"name": "bet",
							"type": "uint16"
						},
						{
							"internalType": "uint64",
							"name": "timestamp",
							"type": "uint64"
						},
						{
							"internalType": "address",
							"name": "player",
							"type": "address"
						},
						{
							"internalType": "uint256",
							"name": "bet_amount",
							"type": "uint256"
						}
					],
					"internalType": "struct Roulette.Bet",
					"name": "bet",
					"type": "tuple"
				},
				{
					"internalType": "uint256",
					"name": "roll",
					"type": "uint256"
				}
			],
			"name": "calculate_winnings",
			"outputs": [
				{
					"internalType": "uint256",
					"name": "",
					"type": "uint256"
				}
			],
			"stateMutability": "pure",
			"type": "function"
		},
		{
			"inputs": [],
			"name": "deposit",
			"outputs": [],
			"stateMutability": "payable",
			"type": "function"
		},
		{
			"inputs": [],
			"name": "get_bets",
			"outputs": [
				{
					"components": [
						{
							"internalType": "uint16",
							"name": "bet_type",
							"type": "uint16"
						},
						{
							"internalType": "uint16",
							"name": "bet",
							"type": "uint16"
						},
						{
							"internalType": "uint64",
							"name": "timestamp",
							"type": "uint64"
						},
						{
							"internalType": "address",
							"name": "player",
							"type": "address"
						},
						{
							"internalType": "uint256",
							"name": "bet_amount",
							"type": "uint256"
						}
					],
					"internalType": "struct Roulette.Bet[]",
					"name": "",
					"type": "tuple[]"
				}
			],
			"stateMutability": "view",
			"type": "function"
		},
		{
			"inputs": [],
			"name": "get_bets_length",
			"outputs": [
				{
					"internalType": "uint256",
					"name": "",
					"type": "uint256"
				}
			],
			"stateMutability": "view",
			"type": "function"
		},
		{
			"inputs": [
				{
					"internalType": "uint256",
					"name": "roll",
					"type": "uint256"
				}
			],
			"name": "is_red",
			"outputs": [
				{
					"internalType": "bool",
					"name": "",
					"type": "bool"
				}
			],
			"stateMutability": "pure",
			"type": "function"
		},
		{
			"inputs": [],
			"name": "owner",
			"outputs": [
				{
					"internalType": "address",
					"name": "",
					"type": "address"
				}
			],
			"stateMutability": "view",
			"type": "function"
		},
		{
			"inputs": [
				{
					"internalType": "uint16",
					"name": "bet_type",
					"type": "uint16"
				},
				{
					"internalType": "uint256",
					"name": "bet_amount",
					"type": "uint256"
				},
				{
					"internalType": "uint16",
					"name": "bet",
					"type": "uint16"
				}
			],
			"name": "place_bet",
			"outputs": [],
			"stateMutability": "nonpayable",
			"type": "function"
		},
		{
			"inputs": [],
			"name": "play",
			"outputs": [],
			"stateMutability": "nonpayable",
			"type": "function"
		},
		{
			"inputs": [
				{
					"internalType": "uint256",
					"name": "mod",
					"type": "uint256"
				}
			],
			"name": "random",
			"outputs": [
				{
					"internalType": "uint256",
					"name": "",
					"type": "uint256"
				}
			],
			"stateMutability": "view",
			"type": "function"
		},
		{
			"inputs": [
				{
					"internalType": "uint256",
					"name": "amount",
					"type": "uint256"
				}
			],
			"name": "withdraw",
			"outputs": [],
			"stateMutability": "nonpayable",
			"type": "function"
		}
	]
}