{
  "contractName": "Bank",
  "abi": [
    {
      "inputs": [
        {
          "internalType": "uint256",
          "name": "amount",
          "type": "uint256"
        }
      ],
      "name": "withdraw",
      "outputs": [],
      "stateMutability": "nonpayable",
      "type": "function"
    },
    {
      "inputs": [],
      "name": "deposit",
      "outputs": [],
      "stateMutability": "payable",
      "type": "function"
    },
    {
      "inputs": [
        {
          "internalType": "address",
          "name": "add",
          "type": "address"
        }
      ],
      "name": "balanceOf",
      "outputs": [
        {
          "internalType": "uint256",
          "name": "",
          "type": "uint256"
        }
      ],
      "stateMutability": "view",
      "type": "function"
    }
  ],
  "bytecode": "0x608060405234801561001057600080fd5b50610390806100206000396000f3fe6080604052600436106100345760003560e01c80632e1a7d4d1461003957806370a082311461005b578063d0e30db0146100a3575b600080fd5b34801561004557600080fd5b506100596100543660046102fc565b6100ab565b005b34801561006757600080fd5b506100916100763660046102cc565b6001600160a01b031660009081526020819052604090205490565b60405190815260200160405180910390f35b610059610256565b6000811161010c5760405162461bcd60e51b8152602060048201526024808201527f496e76616c6964207769746864726177616c20616d6f756e74207265717565736044820152633a32b21760e11b60648201526084015b60405180910390fd5b3360009081526020819052604090205481111561017d5760405162461bcd60e51b815260206004820152602960248201527f496e73756666696369656e742066756e647320746f2070726f636573732077696044820152683a34323930bbb0b61760b91b6064820152608401610103565b804710156102015760405162461bcd60e51b8152602060048201526044602482018190527f42616e6b2068617320696e73756666696369656e742066756e647320746f2070908201527f726f63657373207769746864726177616c202d2074727920616761696e206c616064820152633a32b91760e11b608482015260a401610103565b336000908152602081905260408120805483929061022090849061032d565b9091555050604051339082156108fc029083906000818181858888f19350505050158015610252573d6000803e3d6000fd5b5050565b600034116102a65760405162461bcd60e51b815260206004820152601760248201527f496e76616c6964206465706f73697420616d6f756e742e0000000000000000006044820152606401610103565b33600090815260208190526040812080543492906102c5908490610315565b9091555050565b6000602082840312156102de57600080fd5b81356001600160a01b03811681146102f557600080fd5b9392505050565b60006020828403121561030e57600080fd5b5035919050565b6000821982111561032857610328610344565b500190565b60008282101561033f5761033f610344565b500390565b634e487b7160e01b600052601160045260246000fdfea264697066735822122011ee8fc2f5da55f579b8ef49db7c1b115e1b257d69e9229a8bc64a41dae1f8c264736f6c63430008070033",
  "immutableReferences": {},
  "source": "/// @title Bank 0.2.0\r\n/// @author awphi (https://github.com/awphi)\r\n\r\n// SPDX-License-Identifier: MIT\r\npragma solidity >=0.4.22 <0.9.0;\r\n\r\ncontract Bank {\r\n    mapping(address => uint) funds;\r\n\r\n    function withdraw(uint amount) public {\r\n        require(amount > 0, \"Invalid withdrawal amount requested.\");\r\n        require(funds[msg.sender] >= amount, \"Insufficient funds to process withdrawal.\");\r\n        require(address(this).balance >= amount, \"Bank has insufficient funds to process withdrawal - try again later.\");\r\n\r\n        funds[msg.sender] -= amount;\r\n        payable(msg.sender).transfer(amount);\r\n    }\r\n\r\n    function deposit() public payable {\r\n        require(msg.value > 0, \"Invalid deposit amount.\");\r\n        funds[msg.sender] += msg.value;\r\n    }\r\n\r\n    function balanceOf(address add) public view returns (uint) {\r\n        return funds[add];\r\n    }\r\n}",
  "sourcePath": "F:\\1Repo\\glass-casino\\contracts\\Bank.sol",
  "compiler": {
    "name": "solc",
    "version": "0.8.7+commit.e28d00a7.Emscripten.clang"
  },
  "schemaVersion": "3.4.3",
  "updatedAt": "2022-02-21T23:22:07.408Z",
  "devdoc": {
    "kind": "dev",
    "methods": {},
    "version": 1
  },
  "userdoc": {
    "kind": "user",
    "methods": {},
    "version": 1
  }
}