{
  "contractName": "Bank",
  "abi": [
    {
      "inputs": [
        {
          "internalType": "uint256",
          "name": "amount",
          "type": "uint256"
        }
      ],
      "name": "withdraw",
      "outputs": [],
      "stateMutability": "nonpayable",
      "type": "function"
    },
    {
      "inputs": [],
      "name": "deposit",
      "outputs": [],
      "stateMutability": "payable",
      "type": "function"
    },
    {
      "inputs": [],
      "name": "balance",
      "outputs": [
        {
          "internalType": "uint256",
          "name": "",
          "type": "uint256"
        }
      ],
      "stateMutability": "view",
      "type": "function"
    }
  ],
  "bytecode": "0x608060405234801561001057600080fd5b506101e4806100206000396000f3fe6080604052600436106100345760003560e01c80632e1a7d4d14610039578063b69ef8a81461005b578063d0e30db01461008a575b600080fd5b34801561004557600080fd5b50610059610054366004610150565b610092565b005b34801561006757600080fd5b503360009081526020819052604090205460405190815260200160405180910390f35b61005961011d565b6000811161009f57600080fd5b336000908152602081905260409020548111156100bb57600080fd5b804710156100c857600080fd5b33600090815260208190526040812080548392906100e7908490610181565b9091555050604051339082156108fc029083906000818181858888f19350505050158015610119573d6000803e3d6000fd5b5050565b6000341161012a57600080fd5b3360009081526020819052604081208054349290610149908490610169565b9091555050565b60006020828403121561016257600080fd5b5035919050565b6000821982111561017c5761017c610198565b500190565b60008282101561019357610193610198565b500390565b634e487b7160e01b600052601160045260246000fdfea26469706673582212202e0f50f73fd2bb6b758bbcc274e01e284358383b393e744a9e2f8f0f68e8f4fd64736f6c63430008070033",
  "immutableReferences": {},
  "source": "/// @title Bank 0.1.0\r\n/// @author awphi (https://github.com/awphi)\r\n/// @notice Bank from GlassCasino - L3 BSc ComSci Project @ Durham University\r\n/// @dev -\r\n\r\n// SPDX-License-Identifier: MIT\r\npragma solidity >=0.4.22 <0.9.0;\r\n\r\ncontract Bank {\r\n    mapping(address => uint) funds;\r\n\r\n    function withdraw(uint amount) public {\r\n        require(amount > 0);\r\n        require(funds[msg.sender] >= amount);\r\n        require(address(this).balance >= amount);\r\n\r\n        funds[msg.sender] -= amount;\r\n        payable(msg.sender).transfer(amount);\r\n    }\r\n\r\n    function deposit() public payable {\r\n        require(msg.value > 0);\r\n        funds[msg.sender] += msg.value;\r\n    }\r\n\r\n    function balance() public view returns (uint) {\r\n        return funds[msg.sender];\r\n    }\r\n}",
  "sourcePath": "F:\\1Repo\\glass-casino\\contracts\\Bank.sol",
  "compiler": {
    "name": "solc",
    "version": "0.8.7+commit.e28d00a7.Emscripten.clang"
  },
  "schemaVersion": "3.4.3",
  "updatedAt": "2022-02-20T22:35:54.723Z",
  "devdoc": {
    "kind": "dev",
    "methods": {},
    "version": 1
  },
  "userdoc": {
    "kind": "user",
    "methods": {},
    "version": 1
  }
}