{
  "contractName": "CentralBank",
  "abi": [
    {
      "inputs": [],
      "stateMutability": "nonpayable",
      "type": "constructor"
    },
    {
      "anonymous": false,
      "inputs": [
        {
          "indexed": true,
          "internalType": "address",
          "name": "addr",
          "type": "address"
        },
        {
          "indexed": false,
          "internalType": "uint256",
          "name": "amount",
          "type": "uint256"
        },
        {
          "indexed": false,
          "internalType": "uint256",
          "name": "oldBalance",
          "type": "uint256"
        }
      ],
      "name": "Deposit",
      "type": "event"
    },
    {
      "anonymous": false,
      "inputs": [
        {
          "indexed": true,
          "internalType": "bytes32",
          "name": "role",
          "type": "bytes32"
        },
        {
          "indexed": true,
          "internalType": "bytes32",
          "name": "previousAdminRole",
          "type": "bytes32"
        },
        {
          "indexed": true,
          "internalType": "bytes32",
          "name": "newAdminRole",
          "type": "bytes32"
        }
      ],
      "name": "RoleAdminChanged",
      "type": "event"
    },
    {
      "anonymous": false,
      "inputs": [
        {
          "indexed": true,
          "internalType": "bytes32",
          "name": "role",
          "type": "bytes32"
        },
        {
          "indexed": true,
          "internalType": "address",
          "name": "account",
          "type": "address"
        },
        {
          "indexed": true,
          "internalType": "address",
          "name": "sender",
          "type": "address"
        }
      ],
      "name": "RoleGranted",
      "type": "event"
    },
    {
      "anonymous": false,
      "inputs": [
        {
          "indexed": true,
          "internalType": "bytes32",
          "name": "role",
          "type": "bytes32"
        },
        {
          "indexed": true,
          "internalType": "address",
          "name": "account",
          "type": "address"
        },
        {
          "indexed": true,
          "internalType": "address",
          "name": "sender",
          "type": "address"
        }
      ],
      "name": "RoleRevoked",
      "type": "event"
    },
    {
      "anonymous": false,
      "inputs": [
        {
          "indexed": true,
          "internalType": "address",
          "name": "addr",
          "type": "address"
        },
        {
          "indexed": false,
          "internalType": "uint256",
          "name": "amount",
          "type": "uint256"
        },
        {
          "indexed": false,
          "internalType": "uint256",
          "name": "remaining",
          "type": "uint256"
        }
      ],
      "name": "Withdraw",
      "type": "event"
    },
    {
      "inputs": [],
      "name": "ADMIN",
      "outputs": [
        {
          "internalType": "bytes32",
          "name": "",
          "type": "bytes32"
        }
      ],
      "stateMutability": "view",
      "type": "function",
      "constant": true
    },
    {
      "inputs": [],
      "name": "DEFAULT_ADMIN_ROLE",
      "outputs": [
        {
          "internalType": "bytes32",
          "name": "",
          "type": "bytes32"
        }
      ],
      "stateMutability": "view",
      "type": "function",
      "constant": true
    },
    {
      "inputs": [],
      "name": "OPERATOR",
      "outputs": [
        {
          "internalType": "bytes32",
          "name": "",
          "type": "bytes32"
        }
      ],
      "stateMutability": "view",
      "type": "function",
      "constant": true
    },
    {
      "inputs": [
        {
          "internalType": "bytes32",
          "name": "role",
          "type": "bytes32"
        }
      ],
      "name": "getRoleAdmin",
      "outputs": [
        {
          "internalType": "bytes32",
          "name": "",
          "type": "bytes32"
        }
      ],
      "stateMutability": "view",
      "type": "function",
      "constant": true
    },
    {
      "inputs": [
        {
          "internalType": "bytes32",
          "name": "role",
          "type": "bytes32"
        },
        {
          "internalType": "uint256",
          "name": "index",
          "type": "uint256"
        }
      ],
      "name": "getRoleMember",
      "outputs": [
        {
          "internalType": "address",
          "name": "",
          "type": "address"
        }
      ],
      "stateMutability": "view",
      "type": "function",
      "constant": true
    },
    {
      "inputs": [
        {
          "internalType": "bytes32",
          "name": "role",
          "type": "bytes32"
        }
      ],
      "name": "getRoleMemberCount",
      "outputs": [
        {
          "internalType": "uint256",
          "name": "",
          "type": "uint256"
        }
      ],
      "stateMutability": "view",
      "type": "function",
      "constant": true
    },
    {
      "inputs": [
        {
          "internalType": "bytes32",
          "name": "role",
          "type": "bytes32"
        },
        {
          "internalType": "address",
          "name": "account",
          "type": "address"
        }
      ],
      "name": "grantRole",
      "outputs": [],
      "stateMutability": "nonpayable",
      "type": "function"
    },
    {
      "inputs": [
        {
          "internalType": "bytes32",
          "name": "role",
          "type": "bytes32"
        },
        {
          "internalType": "address",
          "name": "account",
          "type": "address"
        }
      ],
      "name": "hasRole",
      "outputs": [
        {
          "internalType": "bool",
          "name": "",
          "type": "bool"
        }
      ],
      "stateMutability": "view",
      "type": "function",
      "constant": true
    },
    {
      "inputs": [
        {
          "internalType": "bytes32",
          "name": "role",
          "type": "bytes32"
        },
        {
          "internalType": "address",
          "name": "account",
          "type": "address"
        }
      ],
      "name": "renounceRole",
      "outputs": [],
      "stateMutability": "nonpayable",
      "type": "function"
    },
    {
      "inputs": [
        {
          "internalType": "bytes32",
          "name": "role",
          "type": "bytes32"
        },
        {
          "internalType": "address",
          "name": "account",
          "type": "address"
        }
      ],
      "name": "revokeRole",
      "outputs": [],
      "stateMutability": "nonpayable",
      "type": "function"
    },
    {
      "inputs": [
        {
          "internalType": "bytes4",
          "name": "interfaceId",
          "type": "bytes4"
        }
      ],
      "name": "supportsInterface",
      "outputs": [
        {
          "internalType": "bool",
          "name": "",
          "type": "bool"
        }
      ],
      "stateMutability": "view",
      "type": "function",
      "constant": true
    },
    {
      "inputs": [
        {
          "internalType": "uint256",
          "name": "amount",
          "type": "uint256"
        }
      ],
      "name": "withdraw",
      "outputs": [],
      "stateMutability": "nonpayable",
      "type": "function"
    },
    {
      "inputs": [
        {
          "internalType": "address",
          "name": "addr",
          "type": "address"
        },
        {
          "internalType": "uint256",
          "name": "amount",
          "type": "uint256"
        }
      ],
      "name": "addFunds",
      "outputs": [],
      "stateMutability": "nonpayable",
      "type": "function"
    },
    {
      "inputs": [
        {
          "internalType": "address",
          "name": "addr",
          "type": "address"
        },
        {
          "internalType": "uint256",
          "name": "amount",
          "type": "uint256"
        }
      ],
      "name": "subtractFunds",
      "outputs": [],
      "stateMutability": "nonpayable",
      "type": "function"
    },
    {
      "inputs": [],
      "name": "deposit",
      "outputs": [],
      "stateMutability": "payable",
      "type": "function",
      "payable": true
    },
    {
      "inputs": [
        {
          "internalType": "address",
          "name": "add",
          "type": "address"
        }
      ],
      "name": "balanceOf",
      "outputs": [
        {
          "internalType": "uint256",
          "name": "",
          "type": "uint256"
        }
      ],
      "stateMutability": "view",
      "type": "function",
      "constant": true
    }
  ],
  "bytecode": "0x60806040523480156200001157600080fd5b506200004d7f523a704056dcd17bcf83bed8b68c59416dac1119be77755efe3bde0a64e46e0c600080516020620012038339815191526200006e565b620000686000805160206200120383398151915233620000b9565b6200021e565b600082815260208190526040808220600101805490849055905190918391839186917fbd79b86ffe0ab8e8776151514217cd7cacd52c909f66475c3af44e129f0b00ff9190a4505050565b620000c58282620000c9565b5050565b620000e082826200010c60201b6200080a1760201c565b6000828152600160209081526040909120620001079183906200088e620001ac821b17901c565b505050565b6000828152602081815260408083206001600160a01b038516845290915290205460ff16620000c5576000828152602081815260408083206001600160a01b03851684529091529020805460ff19166001179055620001683390565b6001600160a01b0316816001600160a01b0316837f2f8788117e7eff1d82e926ec794901d17c78024a50270940304540a733656f0d60405160405180910390a45050565b6000620001c3836001600160a01b038416620001cc565b90505b92915050565b60008181526001830160205260408120546200021557508154600181810184556000848152602080822090930184905584548482528286019093526040902091909155620001c6565b506000620001c6565b610fd5806200022e6000396000f3fe6080604052600436106100f35760003560e01c80639010d07c1161008a578063bc4b336511610059578063bc4b3365146102f8578063ca15c87314610318578063d0e30db014610338578063d547741f1461034057600080fd5b80639010d07c1461025757806391d148541461028f578063983d2737146102af578063a217fddf146102e357600080fd5b80632e1a7d4d116100c65780632e1a7d4d146101c15780632f2ff15d146101e157806336568abe1461020157806370a082311461022157600080fd5b806301ffc9a7146100f85780630c61411f1461012d578063248a9ca31461014f5780632a0acc6a1461018d575b600080fd5b34801561010457600080fd5b50610118610113366004610de0565b610360565b60405190151581526020015b60405180910390f35b34801561013957600080fd5b5061014d610148366004610d4f565b61038b565b005b34801561015b57600080fd5b5061017f61016a366004610d79565b60009081526020819052604090206001015490565b604051908152602001610124565b34801561019957600080fd5b5061017f7fdf8b4c520ffe197c5343c6f5aec59570151ef9a492f2c624fd45ddde6135ec4281565b3480156101cd57600080fd5b5061014d6101dc366004610d79565b6103e8565b3480156101ed57600080fd5b5061014d6101fc366004610d92565b6105db565b34801561020d57600080fd5b5061014d61021c366004610d92565b610606565b34801561022d57600080fd5b5061017f61023c366004610d34565b6001600160a01b031660009081526002602052604090205490565b34801561026357600080fd5b50610277610272366004610dbe565b610680565b6040516001600160a01b039091168152602001610124565b34801561029b57600080fd5b506101186102aa366004610d92565b61069f565b3480156102bb57600080fd5b5061017f7f523a704056dcd17bcf83bed8b68c59416dac1119be77755efe3bde0a64e46e0c81565b3480156102ef57600080fd5b5061017f600081565b34801561030457600080fd5b5061014d610313366004610d4f565b6106c8565b34801561032457600080fd5b5061017f610333366004610d79565b61071b565b61014d610732565b34801561034c57600080fd5b5061014d61035b366004610d92565b6107e4565b60006001600160e01b03198216635a05180f60e01b14806103855750610385826108a3565b92915050565b7f523a704056dcd17bcf83bed8b68c59416dac1119be77755efe3bde0a64e46e0c6103b681336108d8565b6001600160a01b038316600090815260026020526040812080548492906103de908490610ee9565b9091555050505050565b600081116104495760405162461bcd60e51b8152602060048201526024808201527f496e76616c6964207769746864726177616c20616d6f756e74207265717565736044820152633a32b21760e11b60648201526084015b60405180910390fd5b336000908152600260205260409020548111156104ba5760405162461bcd60e51b815260206004820152602960248201527f496e73756666696369656e742066756e647320746f2070726f636573732077696044820152683a34323930bbb0b61760b91b6064820152608401610440565b8047101561053e5760405162461bcd60e51b8152602060048201526044602482018190527f42616e6b2068617320696e73756666696369656e742066756e647320746f2070908201527f726f63657373207769746864726177616c202d2074727920616761696e206c616064820152633a32b91760e11b608482015260a401610440565b336000908152600260205260408120805483929061055d908490610ee9565b909155505033600081815260026020908152604091829020548251858152918201527ff279e6a1f5e320cca91135676d9cb6e44ca8a08c0b88342bcdb1144f6511b568910160405180910390a2604051339082156108fc029083906000818181858888f193505050501580156105d7573d6000803e3d6000fd5b5050565b6000828152602081905260409020600101546105f781336108d8565b610601838361093c565b505050565b6001600160a01b03811633146106765760405162461bcd60e51b815260206004820152602f60248201527f416363657373436f6e74726f6c3a2063616e206f6e6c792072656e6f756e636560448201526e103937b632b9903337b91039b2b63360891b6064820152608401610440565b6105d7828261095e565b60008281526001602052604081206106989083610980565b9392505050565b6000918252602082815260408084206001600160a01b0393909316845291905290205460ff1690565b7f523a704056dcd17bcf83bed8b68c59416dac1119be77755efe3bde0a64e46e0c6106f381336108d8565b6001600160a01b038316600090815260026020526040812080548492906103de908490610eb2565b60008181526001602052604081206103859061098c565b600034116107825760405162461bcd60e51b815260206004820152601760248201527f496e76616c6964206465706f73697420616d6f756e742e0000000000000000006044820152606401610440565b3360009081526002602052604081208054913491906107a18385610eb2565b9091555050604080513481526020810183905233917f90890809c654f11d6e72a28fa60149770a0d11ec6c92319d6ceb2bb0a4ea1a15910160405180910390a250565b60008281526020819052604090206001015461080081336108d8565b610601838361095e565b610814828261069f565b6105d7576000828152602081815260408083206001600160a01b03851684529091529020805460ff1916600117905561084a3390565b6001600160a01b0316816001600160a01b0316837f2f8788117e7eff1d82e926ec794901d17c78024a50270940304540a733656f0d60405160405180910390a45050565b6000610698836001600160a01b038416610996565b60006001600160e01b03198216637965db0b60e01b148061038557506301ffc9a760e01b6001600160e01b0319831614610385565b6108e2828261069f565b6105d7576108fa816001600160a01b031660146109e5565b6109058360206109e5565b604051602001610916929190610e0a565b60408051601f198184030181529082905262461bcd60e51b825261044091600401610e7f565b610946828261080a565b6000828152600160205260409020610601908261088e565b6109688282610b81565b60008281526001602052604090206106019082610be6565b60006106988383610bfb565b6000610385825490565b60008181526001830160205260408120546109dd57508154600181810184556000848152602080822090930184905584548482528286019093526040902091909155610385565b506000610385565b606060006109f4836002610eca565b6109ff906002610eb2565b67ffffffffffffffff811115610a1757610a17610f89565b6040519080825280601f01601f191660200182016040528015610a41576020820181803683370190505b509050600360fc1b81600081518110610a5c57610a5c610f73565b60200101906001600160f81b031916908160001a905350600f60fb1b81600181518110610a8b57610a8b610f73565b60200101906001600160f81b031916908160001a9053506000610aaf846002610eca565b610aba906001610eb2565b90505b6001811115610b32576f181899199a1a9b1b9c1cb0b131b232b360811b85600f1660108110610aee57610aee610f73565b1a60f81b828281518110610b0457610b04610f73565b60200101906001600160f81b031916908160001a90535060049490941c93610b2b81610f30565b9050610abd565b5083156106985760405162461bcd60e51b815260206004820181905260248201527f537472696e67733a20686578206c656e67746820696e73756666696369656e746044820152606401610440565b610b8b828261069f565b156105d7576000828152602081815260408083206001600160a01b0385168085529252808320805460ff1916905551339285917ff6391f5c32d9c69d2a47ea670b442974b53935d1edc7fd64eb21e047a839171b9190a45050565b6000610698836001600160a01b038416610c25565b6000826000018281548110610c1257610c12610f73565b9060005260206000200154905092915050565b60008181526001830160205260408120548015610d0e576000610c49600183610ee9565b8554909150600090610c5d90600190610ee9565b9050818114610cc2576000866000018281548110610c7d57610c7d610f73565b9060005260206000200154905080876000018481548110610ca057610ca0610f73565b6000918252602080832090910192909255918252600188019052604090208390555b8554869080610cd357610cd3610f5d565b600190038181906000526020600020016000905590558560010160008681526020019081526020016000206000905560019350505050610385565b6000915050610385565b80356001600160a01b0381168114610d2f57600080fd5b919050565b600060208284031215610d4657600080fd5b61069882610d18565b60008060408385031215610d6257600080fd5b610d6b83610d18565b946020939093013593505050565b600060208284031215610d8b57600080fd5b5035919050565b60008060408385031215610da557600080fd5b82359150610db560208401610d18565b90509250929050565b60008060408385031215610dd157600080fd5b50508035926020909101359150565b600060208284031215610df257600080fd5b81356001600160e01b03198116811461069857600080fd5b7f416363657373436f6e74726f6c3a206163636f756e7420000000000000000000815260008351610e42816017850160208801610f00565b7001034b99036b4b9b9b4b733903937b6329607d1b6017918401918201528351610e73816028840160208801610f00565b01602801949350505050565b6020815260008251806020840152610e9e816040850160208701610f00565b601f01601f19169190910160400192915050565b60008219821115610ec557610ec5610f47565b500190565b6000816000190483118215151615610ee457610ee4610f47565b500290565b600082821015610efb57610efb610f47565b500390565b60005b83811015610f1b578181015183820152602001610f03565b83811115610f2a576000848401525b50505050565b600081610f3f57610f3f610f47565b506000190190565b634e487b7160e01b600052601160045260246000fd5b634e487b7160e01b600052603160045260246000fd5b634e487b7160e01b600052603260045260246000fd5b634e487b7160e01b600052604160045260246000fdfea2646970667358221220e6c3f44823392e61de6a5a07fa8dc0123626d00f540ac9864483ac0b535c60f264736f6c63430008070033df8b4c520ffe197c5343c6f5aec59570151ef9a492f2c624fd45ddde6135ec42",
  "immutableReferences": {},
  "source": "/// @title CentralBank 0.1.0\n/// @author awphi (https://github.com/awphi)\n\n// SPDX-License-Identifier: MIT\npragma solidity >=0.4.22 <0.9.0;\n\n// Use AccessControlEnumerable to allow on-chain visibility of current ADMINS and OPERATORS\nimport \"@openzeppelin/contracts/access/AccessControlEnumerable.sol\";\nimport \"@openzeppelin/contracts/access/Ownable.sol\";\nimport \"./ICentralBank.sol\";\n\ncontract CentralBank is AccessControlEnumerable, ICentralBank {\n    bytes32 public constant ADMIN = keccak256(\"ADMIN\");\n    bytes32 public constant OPERATOR = keccak256(\"OPERATOR\");\n\n    mapping(address => uint256) private funds;\n\n    event Withdraw(address indexed addr, uint256 amount, uint256 remaining);\n    event Deposit(address indexed addr, uint256 amount, uint256 oldBalance);\n\n    constructor() {\n        _setRoleAdmin(OPERATOR, ADMIN);\n\n        // Initially grant contract creator the admin role so they can add fund operators\n        _setupRole(ADMIN, msg.sender);\n    }\n\n    function withdraw(uint256 amount) override public {\n        require(amount > 0, \"Invalid withdrawal amount requested.\");\n        require(funds[msg.sender] >= amount, \"Insufficient funds to process withdrawal.\");\n        require(address(this).balance >= amount, \"Bank has insufficient funds to process withdrawal - try again later.\");\n\n        funds[msg.sender] -= amount;\n        emit Withdraw(msg.sender, amount, funds[msg.sender]);\n        payable(msg.sender).transfer(amount);\n    }\n\n    function addFunds(address addr, uint256 amount) override public onlyRole(OPERATOR) {\n        // Solidity deals with reversion on overflow\n        funds[addr] += amount;\n    }\n\n    function subtractFunds(address addr, uint256 amount) override public onlyRole(OPERATOR) {\n        // Solidity deals with reversion on underflow\n        funds[addr] -= amount;\n    }\n\n    function deposit() override public payable {\n        require(msg.value > 0, \"Invalid deposit amount.\");\n        uint256 bal = funds[msg.sender];\n        funds[msg.sender] += msg.value;\n        emit Deposit(msg.sender, msg.value, bal);\n    }\n\n    function balanceOf(address add) override public view returns (uint) {\n        return funds[add];\n    }\n}",
  "sourcePath": "F:\\1Repo\\glass-casino\\contracts\\CentralBank.sol",
  "compiler": {
    "name": "solc",
    "version": "0.8.7+commit.e28d00a7.Emscripten.clang"
  },
  "schemaVersion": "3.4.3",
  "updatedAt": "2022-04-16T23:12:42.725Z",
  "networkType": "ethereum",
  "devdoc": {
    "kind": "dev",
    "methods": {
      "getRoleAdmin(bytes32)": {
        "details": "Returns the admin role that controls `role`. See {grantRole} and {revokeRole}. To change a role's admin, use {_setRoleAdmin}."
      },
      "getRoleMember(bytes32,uint256)": {
        "details": "Returns one of the accounts that have `role`. `index` must be a value between 0 and {getRoleMemberCount}, non-inclusive. Role bearers are not sorted in any particular way, and their ordering may change at any point. WARNING: When using {getRoleMember} and {getRoleMemberCount}, make sure you perform all queries on the same block. See the following https://forum.openzeppelin.com/t/iterating-over-elements-on-enumerableset-in-openzeppelin-contracts/2296[forum post] for more information."
      },
      "getRoleMemberCount(bytes32)": {
        "details": "Returns the number of accounts that have `role`. Can be used together with {getRoleMember} to enumerate all bearers of a role."
      },
      "grantRole(bytes32,address)": {
        "details": "Grants `role` to `account`. If `account` had not been already granted `role`, emits a {RoleGranted} event. Requirements: - the caller must have ``role``'s admin role."
      },
      "hasRole(bytes32,address)": {
        "details": "Returns `true` if `account` has been granted `role`."
      },
      "renounceRole(bytes32,address)": {
        "details": "Revokes `role` from the calling account. Roles are often managed via {grantRole} and {revokeRole}: this function's purpose is to provide a mechanism for accounts to lose their privileges if they are compromised (such as when a trusted device is misplaced). If the calling account had been revoked `role`, emits a {RoleRevoked} event. Requirements: - the caller must be `account`."
      },
      "revokeRole(bytes32,address)": {
        "details": "Revokes `role` from `account`. If `account` had been granted `role`, emits a {RoleRevoked} event. Requirements: - the caller must have ``role``'s admin role."
      },
      "supportsInterface(bytes4)": {
        "details": "See {IERC165-supportsInterface}."
      }
    },
    "version": 1
  },
  "userdoc": {
    "kind": "user",
    "methods": {},
    "version": 1
  }
}