{
  "contractName": "CentralBank",
  "abi": [
    {
      "inputs": [],
      "stateMutability": "nonpayable",
      "type": "constructor"
    },
    {
      "anonymous": false,
      "inputs": [
        {
          "indexed": false,
          "internalType": "address",
          "name": "addr",
          "type": "address"
        },
        {
          "indexed": false,
          "internalType": "uint256",
          "name": "amount",
          "type": "uint256"
        },
        {
          "indexed": false,
          "internalType": "uint256",
          "name": "oldBalance",
          "type": "uint256"
        }
      ],
      "name": "Deposit",
      "type": "event"
    },
    {
      "anonymous": false,
      "inputs": [
        {
          "indexed": true,
          "internalType": "bytes32",
          "name": "role",
          "type": "bytes32"
        },
        {
          "indexed": true,
          "internalType": "bytes32",
          "name": "previousAdminRole",
          "type": "bytes32"
        },
        {
          "indexed": true,
          "internalType": "bytes32",
          "name": "newAdminRole",
          "type": "bytes32"
        }
      ],
      "name": "RoleAdminChanged",
      "type": "event"
    },
    {
      "anonymous": false,
      "inputs": [
        {
          "indexed": true,
          "internalType": "bytes32",
          "name": "role",
          "type": "bytes32"
        },
        {
          "indexed": true,
          "internalType": "address",
          "name": "account",
          "type": "address"
        },
        {
          "indexed": true,
          "internalType": "address",
          "name": "sender",
          "type": "address"
        }
      ],
      "name": "RoleGranted",
      "type": "event"
    },
    {
      "anonymous": false,
      "inputs": [
        {
          "indexed": true,
          "internalType": "bytes32",
          "name": "role",
          "type": "bytes32"
        },
        {
          "indexed": true,
          "internalType": "address",
          "name": "account",
          "type": "address"
        },
        {
          "indexed": true,
          "internalType": "address",
          "name": "sender",
          "type": "address"
        }
      ],
      "name": "RoleRevoked",
      "type": "event"
    },
    {
      "anonymous": false,
      "inputs": [
        {
          "indexed": false,
          "internalType": "address",
          "name": "addr",
          "type": "address"
        },
        {
          "indexed": false,
          "internalType": "uint256",
          "name": "amount",
          "type": "uint256"
        },
        {
          "indexed": false,
          "internalType": "uint256",
          "name": "remaining",
          "type": "uint256"
        }
      ],
      "name": "Withdraw",
      "type": "event"
    },
    {
      "inputs": [],
      "name": "ADMIN",
      "outputs": [
        {
          "internalType": "bytes32",
          "name": "",
          "type": "bytes32"
        }
      ],
      "stateMutability": "view",
      "type": "function",
      "constant": true
    },
    {
      "inputs": [],
      "name": "DEFAULT_ADMIN_ROLE",
      "outputs": [
        {
          "internalType": "bytes32",
          "name": "",
          "type": "bytes32"
        }
      ],
      "stateMutability": "view",
      "type": "function",
      "constant": true
    },
    {
      "inputs": [],
      "name": "OPERATOR",
      "outputs": [
        {
          "internalType": "bytes32",
          "name": "",
          "type": "bytes32"
        }
      ],
      "stateMutability": "view",
      "type": "function",
      "constant": true
    },
    {
      "inputs": [
        {
          "internalType": "bytes32",
          "name": "role",
          "type": "bytes32"
        }
      ],
      "name": "getRoleAdmin",
      "outputs": [
        {
          "internalType": "bytes32",
          "name": "",
          "type": "bytes32"
        }
      ],
      "stateMutability": "view",
      "type": "function",
      "constant": true
    },
    {
      "inputs": [
        {
          "internalType": "bytes32",
          "name": "role",
          "type": "bytes32"
        },
        {
          "internalType": "uint256",
          "name": "index",
          "type": "uint256"
        }
      ],
      "name": "getRoleMember",
      "outputs": [
        {
          "internalType": "address",
          "name": "",
          "type": "address"
        }
      ],
      "stateMutability": "view",
      "type": "function",
      "constant": true
    },
    {
      "inputs": [
        {
          "internalType": "bytes32",
          "name": "role",
          "type": "bytes32"
        }
      ],
      "name": "getRoleMemberCount",
      "outputs": [
        {
          "internalType": "uint256",
          "name": "",
          "type": "uint256"
        }
      ],
      "stateMutability": "view",
      "type": "function",
      "constant": true
    },
    {
      "inputs": [
        {
          "internalType": "bytes32",
          "name": "role",
          "type": "bytes32"
        },
        {
          "internalType": "address",
          "name": "account",
          "type": "address"
        }
      ],
      "name": "grantRole",
      "outputs": [],
      "stateMutability": "nonpayable",
      "type": "function"
    },
    {
      "inputs": [
        {
          "internalType": "bytes32",
          "name": "role",
          "type": "bytes32"
        },
        {
          "internalType": "address",
          "name": "account",
          "type": "address"
        }
      ],
      "name": "hasRole",
      "outputs": [
        {
          "internalType": "bool",
          "name": "",
          "type": "bool"
        }
      ],
      "stateMutability": "view",
      "type": "function",
      "constant": true
    },
    {
      "inputs": [
        {
          "internalType": "bytes32",
          "name": "role",
          "type": "bytes32"
        },
        {
          "internalType": "address",
          "name": "account",
          "type": "address"
        }
      ],
      "name": "renounceRole",
      "outputs": [],
      "stateMutability": "nonpayable",
      "type": "function"
    },
    {
      "inputs": [
        {
          "internalType": "bytes32",
          "name": "role",
          "type": "bytes32"
        },
        {
          "internalType": "address",
          "name": "account",
          "type": "address"
        }
      ],
      "name": "revokeRole",
      "outputs": [],
      "stateMutability": "nonpayable",
      "type": "function"
    },
    {
      "inputs": [
        {
          "internalType": "bytes4",
          "name": "interfaceId",
          "type": "bytes4"
        }
      ],
      "name": "supportsInterface",
      "outputs": [
        {
          "internalType": "bool",
          "name": "",
          "type": "bool"
        }
      ],
      "stateMutability": "view",
      "type": "function",
      "constant": true
    },
    {
      "inputs": [
        {
          "internalType": "uint256",
          "name": "amount",
          "type": "uint256"
        }
      ],
      "name": "withdraw",
      "outputs": [],
      "stateMutability": "nonpayable",
      "type": "function"
    },
    {
      "inputs": [
        {
          "internalType": "address",
          "name": "addr",
          "type": "address"
        },
        {
          "internalType": "uint256",
          "name": "amount",
          "type": "uint256"
        }
      ],
      "name": "addFunds",
      "outputs": [],
      "stateMutability": "nonpayable",
      "type": "function"
    },
    {
      "inputs": [
        {
          "internalType": "address",
          "name": "addr",
          "type": "address"
        },
        {
          "internalType": "uint256",
          "name": "amount",
          "type": "uint256"
        }
      ],
      "name": "subtractFunds",
      "outputs": [],
      "stateMutability": "nonpayable",
      "type": "function"
    },
    {
      "inputs": [],
      "name": "deposit",
      "outputs": [],
      "stateMutability": "payable",
      "type": "function",
      "payable": true
    },
    {
      "inputs": [
        {
          "internalType": "address",
          "name": "add",
          "type": "address"
        }
      ],
      "name": "balanceOf",
      "outputs": [
        {
          "internalType": "uint256",
          "name": "",
          "type": "uint256"
        }
      ],
      "stateMutability": "view",
      "type": "function",
      "constant": true
    }
  ],
  "bytecode": "0x60806040523480156200001157600080fd5b506200004d7f523a704056dcd17bcf83bed8b68c59416dac1119be77755efe3bde0a64e46e0c6000805160206200120e8339815191526200006e565b620000686000805160206200120e83398151915233620000b9565b6200021e565b600082815260208190526040808220600101805490849055905190918391839186917fbd79b86ffe0ab8e8776151514217cd7cacd52c909f66475c3af44e129f0b00ff9190a4505050565b620000c58282620000c9565b5050565b620000e082826200010c60201b620008151760201c565b60008281526001602090815260409091206200010791839062000899620001ac821b17901c565b505050565b6000828152602081815260408083206001600160a01b038516845290915290205460ff16620000c5576000828152602081815260408083206001600160a01b03851684529091529020805460ff19166001179055620001683390565b6001600160a01b0316816001600160a01b0316837f2f8788117e7eff1d82e926ec794901d17c78024a50270940304540a733656f0d60405160405180910390a45050565b6000620001c3836001600160a01b038416620001cc565b90505b92915050565b60008181526001830160205260408120546200021557508154600181810184556000848152602080822090930184905584548482528286019093526040902091909155620001c6565b506000620001c6565b610fe0806200022e6000396000f3fe6080604052600436106100f35760003560e01c80639010d07c1161008a578063bc4b336511610059578063bc4b3365146102f8578063ca15c87314610318578063d0e30db014610338578063d547741f1461034057600080fd5b80639010d07c1461025757806391d148541461028f578063983d2737146102af578063a217fddf146102e357600080fd5b80632e1a7d4d116100c65780632e1a7d4d146101c15780632f2ff15d146101e157806336568abe1461020157806370a082311461022157600080fd5b806301ffc9a7146100f85780630c61411f1461012d578063248a9ca31461014f5780632a0acc6a1461018d575b600080fd5b34801561010457600080fd5b50610118610113366004610deb565b610360565b60405190151581526020015b60405180910390f35b34801561013957600080fd5b5061014d610148366004610d5a565b61038b565b005b34801561015b57600080fd5b5061017f61016a366004610d84565b60009081526020819052604090206001015490565b604051908152602001610124565b34801561019957600080fd5b5061017f7fdf8b4c520ffe197c5343c6f5aec59570151ef9a492f2c624fd45ddde6135ec4281565b3480156101cd57600080fd5b5061014d6101dc366004610d84565b6103e8565b3480156101ed57600080fd5b5061014d6101fc366004610d9d565b6105e1565b34801561020d57600080fd5b5061014d61021c366004610d9d565b61060c565b34801561022d57600080fd5b5061017f61023c366004610d3f565b6001600160a01b031660009081526002602052604090205490565b34801561026357600080fd5b50610277610272366004610dc9565b610686565b6040516001600160a01b039091168152602001610124565b34801561029b57600080fd5b506101186102aa366004610d9d565b6106a5565b3480156102bb57600080fd5b5061017f7f523a704056dcd17bcf83bed8b68c59416dac1119be77755efe3bde0a64e46e0c81565b3480156102ef57600080fd5b5061017f600081565b34801561030457600080fd5b5061014d610313366004610d5a565b6106ce565b34801561032457600080fd5b5061017f610333366004610d84565b610721565b61014d610738565b34801561034c57600080fd5b5061014d61035b366004610d9d565b6107ef565b60006001600160e01b03198216635a05180f60e01b14806103855750610385826108ae565b92915050565b7f523a704056dcd17bcf83bed8b68c59416dac1119be77755efe3bde0a64e46e0c6103b681336108e3565b6001600160a01b038316600090815260026020526040812080548492906103de908490610ef4565b9091555050505050565b600081116104495760405162461bcd60e51b8152602060048201526024808201527f496e76616c6964207769746864726177616c20616d6f756e74207265717565736044820152633a32b21760e11b60648201526084015b60405180910390fd5b336000908152600260205260409020548111156104ba5760405162461bcd60e51b815260206004820152602960248201527f496e73756666696369656e742066756e647320746f2070726f636573732077696044820152683a34323930bbb0b61760b91b6064820152608401610440565b8047101561053e5760405162461bcd60e51b8152602060048201526044602482018190527f42616e6b2068617320696e73756666696369656e742066756e647320746f2070908201527f726f63657373207769746864726177616c202d2074727920616761696e206c616064820152633a32b91760e11b608482015260a401610440565b336000908152600260205260408120805483929061055d908490610ef4565b90915550503360008181526002602090815260409182902054825193845290830184905282820152517ff279e6a1f5e320cca91135676d9cb6e44ca8a08c0b88342bcdb1144f6511b5689181900360600190a1604051339082156108fc029083906000818181858888f193505050501580156105dd573d6000803e3d6000fd5b5050565b6000828152602081905260409020600101546105fd81336108e3565b6106078383610947565b505050565b6001600160a01b038116331461067c5760405162461bcd60e51b815260206004820152602f60248201527f416363657373436f6e74726f6c3a2063616e206f6e6c792072656e6f756e636560448201526e103937b632b9903337b91039b2b63360891b6064820152608401610440565b6105dd8282610969565b600082815260016020526040812061069e908361098b565b9392505050565b6000918252602082815260408084206001600160a01b0393909316845291905290205460ff1690565b7f523a704056dcd17bcf83bed8b68c59416dac1119be77755efe3bde0a64e46e0c6106f981336108e3565b6001600160a01b038316600090815260026020526040812080548492906103de908490610ebd565b600081815260016020526040812061038590610997565b600034116107885760405162461bcd60e51b815260206004820152601760248201527f496e76616c6964206465706f73697420616d6f756e742e0000000000000000006044820152606401610440565b3360009081526002602052604081208054913491906107a78385610ebd565b9091555050604080513381523460208201529081018290527f90890809c654f11d6e72a28fa60149770a0d11ec6c92319d6ceb2bb0a4ea1a159060600160405180910390a150565b60008281526020819052604090206001015461080b81336108e3565b6106078383610969565b61081f82826106a5565b6105dd576000828152602081815260408083206001600160a01b03851684529091529020805460ff191660011790556108553390565b6001600160a01b0316816001600160a01b0316837f2f8788117e7eff1d82e926ec794901d17c78024a50270940304540a733656f0d60405160405180910390a45050565b600061069e836001600160a01b0384166109a1565b60006001600160e01b03198216637965db0b60e01b148061038557506301ffc9a760e01b6001600160e01b0319831614610385565b6108ed82826106a5565b6105dd57610905816001600160a01b031660146109f0565b6109108360206109f0565b604051602001610921929190610e15565b60408051601f198184030181529082905262461bcd60e51b825261044091600401610e8a565b6109518282610815565b60008281526001602052604090206106079082610899565b6109738282610b8c565b60008281526001602052604090206106079082610bf1565b600061069e8383610c06565b6000610385825490565b60008181526001830160205260408120546109e857508154600181810184556000848152602080822090930184905584548482528286019093526040902091909155610385565b506000610385565b606060006109ff836002610ed5565b610a0a906002610ebd565b67ffffffffffffffff811115610a2257610a22610f94565b6040519080825280601f01601f191660200182016040528015610a4c576020820181803683370190505b509050600360fc1b81600081518110610a6757610a67610f7e565b60200101906001600160f81b031916908160001a905350600f60fb1b81600181518110610a9657610a96610f7e565b60200101906001600160f81b031916908160001a9053506000610aba846002610ed5565b610ac5906001610ebd565b90505b6001811115610b3d576f181899199a1a9b1b9c1cb0b131b232b360811b85600f1660108110610af957610af9610f7e565b1a60f81b828281518110610b0f57610b0f610f7e565b60200101906001600160f81b031916908160001a90535060049490941c93610b3681610f3b565b9050610ac8565b50831561069e5760405162461bcd60e51b815260206004820181905260248201527f537472696e67733a20686578206c656e67746820696e73756666696369656e746044820152606401610440565b610b9682826106a5565b156105dd576000828152602081815260408083206001600160a01b0385168085529252808320805460ff1916905551339285917ff6391f5c32d9c69d2a47ea670b442974b53935d1edc7fd64eb21e047a839171b9190a45050565b600061069e836001600160a01b038416610c30565b6000826000018281548110610c1d57610c1d610f7e565b9060005260206000200154905092915050565b60008181526001830160205260408120548015610d19576000610c54600183610ef4565b8554909150600090610c6890600190610ef4565b9050818114610ccd576000866000018281548110610c8857610c88610f7e565b9060005260206000200154905080876000018481548110610cab57610cab610f7e565b6000918252602080832090910192909255918252600188019052604090208390555b8554869080610cde57610cde610f68565b600190038181906000526020600020016000905590558560010160008681526020019081526020016000206000905560019350505050610385565b6000915050610385565b80356001600160a01b0381168114610d3a57600080fd5b919050565b600060208284031215610d5157600080fd5b61069e82610d23565b60008060408385031215610d6d57600080fd5b610d7683610d23565b946020939093013593505050565b600060208284031215610d9657600080fd5b5035919050565b60008060408385031215610db057600080fd5b82359150610dc060208401610d23565b90509250929050565b60008060408385031215610ddc57600080fd5b50508035926020909101359150565b600060208284031215610dfd57600080fd5b81356001600160e01b03198116811461069e57600080fd5b7f416363657373436f6e74726f6c3a206163636f756e7420000000000000000000815260008351610e4d816017850160208801610f0b565b7001034b99036b4b9b9b4b733903937b6329607d1b6017918401918201528351610e7e816028840160208801610f0b565b01602801949350505050565b6020815260008251806020840152610ea9816040850160208701610f0b565b601f01601f19169190910160400192915050565b60008219821115610ed057610ed0610f52565b500190565b6000816000190483118215151615610eef57610eef610f52565b500290565b600082821015610f0657610f06610f52565b500390565b60005b83811015610f26578181015183820152602001610f0e565b83811115610f35576000848401525b50505050565b600081610f4a57610f4a610f52565b506000190190565b634e487b7160e01b600052601160045260246000fd5b634e487b7160e01b600052603160045260246000fd5b634e487b7160e01b600052603260045260246000fd5b634e487b7160e01b600052604160045260246000fdfea2646970667358221220ebe64681ef844c578d832e4409f28c3bfd053df4f79471d65dd2ec2c71d8d6f364736f6c63430008070033df8b4c520ffe197c5343c6f5aec59570151ef9a492f2c624fd45ddde6135ec42",
  "immutableReferences": {},
  "source": "/// @title CentralBank 0.1.0\n/// @author awphi (https://github.com/awphi)\n\n// SPDX-License-Identifier: MIT\npragma solidity >=0.4.22 <0.9.0;\n\n// Use AccessControlEnumerable to allow on-chain visibility of current ADMINS and OPERATORS\nimport \"@openzeppelin/contracts/access/AccessControlEnumerable.sol\";\nimport \"@openzeppelin/contracts/access/Ownable.sol\";\nimport \"./ICentralBank.sol\";\n\ncontract CentralBank is AccessControlEnumerable, ICentralBank {\n    bytes32 public constant ADMIN = keccak256(\"ADMIN\");\n    bytes32 public constant OPERATOR = keccak256(\"OPERATOR\");\n\n    mapping(address => uint256) private funds;\n\n    event Withdraw(address addr, uint256 amount, uint256 remaining);\n    event Deposit(address addr, uint256 amount, uint256 oldBalance);\n\n    constructor() {\n        _setRoleAdmin(OPERATOR, ADMIN);\n\n        // Initially grant contract creator the admin role so they can add fund operators\n        _setupRole(ADMIN, msg.sender);\n    }\n\n    function withdraw(uint256 amount) override public {\n        require(amount > 0, \"Invalid withdrawal amount requested.\");\n        require(funds[msg.sender] >= amount, \"Insufficient funds to process withdrawal.\");\n        require(address(this).balance >= amount, \"Bank has insufficient funds to process withdrawal - try again later.\");\n\n        funds[msg.sender] -= amount;\n        emit Withdraw(msg.sender, amount, funds[msg.sender]);\n        payable(msg.sender).transfer(amount);\n    }\n\n    function addFunds(address addr, uint256 amount) override public onlyRole(OPERATOR) {\n        // Solidity deals with reversion on overflow\n        funds[addr] += amount;\n    }\n\n    function subtractFunds(address addr, uint256 amount) override public onlyRole(OPERATOR) {\n        // Solidity deals with reversion on underflow\n        funds[addr] -= amount;\n    }\n\n    function deposit() override public payable {\n        require(msg.value > 0, \"Invalid deposit amount.\");\n        uint256 bal = funds[msg.sender];\n        funds[msg.sender] += msg.value;\n        emit Deposit(msg.sender, msg.value, bal);\n    }\n\n    function balanceOf(address add) override public view returns (uint) {\n        return funds[add];\n    }\n}",
  "sourcePath": "F:\\1Repo\\glass-casino\\contracts\\CentralBank.sol",
  "compiler": {
    "name": "solc",
    "version": "0.8.7+commit.e28d00a7.Emscripten.clang"
  },
  "schemaVersion": "3.4.3",
  "updatedAt": "2022-03-01T17:38:53.847Z",
  "networkType": "ethereum",
  "devdoc": {
    "kind": "dev",
    "methods": {
      "getRoleAdmin(bytes32)": {
        "details": "Returns the admin role that controls `role`. See {grantRole} and {revokeRole}. To change a role's admin, use {_setRoleAdmin}."
      },
      "getRoleMember(bytes32,uint256)": {
        "details": "Returns one of the accounts that have `role`. `index` must be a value between 0 and {getRoleMemberCount}, non-inclusive. Role bearers are not sorted in any particular way, and their ordering may change at any point. WARNING: When using {getRoleMember} and {getRoleMemberCount}, make sure you perform all queries on the same block. See the following https://forum.openzeppelin.com/t/iterating-over-elements-on-enumerableset-in-openzeppelin-contracts/2296[forum post] for more information."
      },
      "getRoleMemberCount(bytes32)": {
        "details": "Returns the number of accounts that have `role`. Can be used together with {getRoleMember} to enumerate all bearers of a role."
      },
      "grantRole(bytes32,address)": {
        "details": "Grants `role` to `account`. If `account` had not been already granted `role`, emits a {RoleGranted} event. Requirements: - the caller must have ``role``'s admin role."
      },
      "hasRole(bytes32,address)": {
        "details": "Returns `true` if `account` has been granted `role`."
      },
      "renounceRole(bytes32,address)": {
        "details": "Revokes `role` from the calling account. Roles are often managed via {grantRole} and {revokeRole}: this function's purpose is to provide a mechanism for accounts to lose their privileges if they are compromised (such as when a trusted device is misplaced). If the calling account had been revoked `role`, emits a {RoleRevoked} event. Requirements: - the caller must be `account`."
      },
      "revokeRole(bytes32,address)": {
        "details": "Revokes `role` from `account`. If `account` had been granted `role`, emits a {RoleRevoked} event. Requirements: - the caller must have ``role``'s admin role."
      },
      "supportsInterface(bytes4)": {
        "details": "See {IERC165-supportsInterface}."
      }
    },
    "version": 1
  },
  "userdoc": {
    "kind": "user",
    "methods": {},
    "version": 1
  }
}