{
  "contractName": "CentralBank",
  "abi": [
    {
      "inputs": [],
      "stateMutability": "nonpayable",
      "type": "constructor"
    },
    {
      "anonymous": false,
      "inputs": [
        {
          "indexed": false,
          "internalType": "address",
          "name": "addr",
          "type": "address"
        },
        {
          "indexed": false,
          "internalType": "uint256",
          "name": "amount",
          "type": "uint256"
        },
        {
          "indexed": false,
          "internalType": "uint256",
          "name": "oldBalance",
          "type": "uint256"
        }
      ],
      "name": "Deposit",
      "type": "event"
    },
    {
      "anonymous": false,
      "inputs": [
        {
          "indexed": true,
          "internalType": "bytes32",
          "name": "role",
          "type": "bytes32"
        },
        {
          "indexed": true,
          "internalType": "bytes32",
          "name": "previousAdminRole",
          "type": "bytes32"
        },
        {
          "indexed": true,
          "internalType": "bytes32",
          "name": "newAdminRole",
          "type": "bytes32"
        }
      ],
      "name": "RoleAdminChanged",
      "type": "event"
    },
    {
      "anonymous": false,
      "inputs": [
        {
          "indexed": true,
          "internalType": "bytes32",
          "name": "role",
          "type": "bytes32"
        },
        {
          "indexed": true,
          "internalType": "address",
          "name": "account",
          "type": "address"
        },
        {
          "indexed": true,
          "internalType": "address",
          "name": "sender",
          "type": "address"
        }
      ],
      "name": "RoleGranted",
      "type": "event"
    },
    {
      "anonymous": false,
      "inputs": [
        {
          "indexed": true,
          "internalType": "bytes32",
          "name": "role",
          "type": "bytes32"
        },
        {
          "indexed": true,
          "internalType": "address",
          "name": "account",
          "type": "address"
        },
        {
          "indexed": true,
          "internalType": "address",
          "name": "sender",
          "type": "address"
        }
      ],
      "name": "RoleRevoked",
      "type": "event"
    },
    {
      "anonymous": false,
      "inputs": [
        {
          "indexed": false,
          "internalType": "address",
          "name": "addr",
          "type": "address"
        },
        {
          "indexed": false,
          "internalType": "uint256",
          "name": "amount",
          "type": "uint256"
        },
        {
          "indexed": false,
          "internalType": "uint256",
          "name": "remaining",
          "type": "uint256"
        }
      ],
      "name": "Withdraw",
      "type": "event"
    },
    {
      "inputs": [],
      "name": "ADMIN",
      "outputs": [
        {
          "internalType": "bytes32",
          "name": "",
          "type": "bytes32"
        }
      ],
      "stateMutability": "view",
      "type": "function",
      "constant": true
    },
    {
      "inputs": [],
      "name": "DEFAULT_ADMIN_ROLE",
      "outputs": [
        {
          "internalType": "bytes32",
          "name": "",
          "type": "bytes32"
        }
      ],
      "stateMutability": "view",
      "type": "function",
      "constant": true
    },
    {
      "inputs": [],
      "name": "OPERATOR",
      "outputs": [
        {
          "internalType": "bytes32",
          "name": "",
          "type": "bytes32"
        }
      ],
      "stateMutability": "view",
      "type": "function",
      "constant": true
    },
    {
      "inputs": [
        {
          "internalType": "bytes32",
          "name": "role",
          "type": "bytes32"
        }
      ],
      "name": "getRoleAdmin",
      "outputs": [
        {
          "internalType": "bytes32",
          "name": "",
          "type": "bytes32"
        }
      ],
      "stateMutability": "view",
      "type": "function",
      "constant": true
    },
    {
      "inputs": [
        {
          "internalType": "bytes32",
          "name": "role",
          "type": "bytes32"
        },
        {
          "internalType": "uint256",
          "name": "index",
          "type": "uint256"
        }
      ],
      "name": "getRoleMember",
      "outputs": [
        {
          "internalType": "address",
          "name": "",
          "type": "address"
        }
      ],
      "stateMutability": "view",
      "type": "function",
      "constant": true
    },
    {
      "inputs": [
        {
          "internalType": "bytes32",
          "name": "role",
          "type": "bytes32"
        }
      ],
      "name": "getRoleMemberCount",
      "outputs": [
        {
          "internalType": "uint256",
          "name": "",
          "type": "uint256"
        }
      ],
      "stateMutability": "view",
      "type": "function",
      "constant": true
    },
    {
      "inputs": [
        {
          "internalType": "bytes32",
          "name": "role",
          "type": "bytes32"
        },
        {
          "internalType": "address",
          "name": "account",
          "type": "address"
        }
      ],
      "name": "grantRole",
      "outputs": [],
      "stateMutability": "nonpayable",
      "type": "function"
    },
    {
      "inputs": [
        {
          "internalType": "bytes32",
          "name": "role",
          "type": "bytes32"
        },
        {
          "internalType": "address",
          "name": "account",
          "type": "address"
        }
      ],
      "name": "hasRole",
      "outputs": [
        {
          "internalType": "bool",
          "name": "",
          "type": "bool"
        }
      ],
      "stateMutability": "view",
      "type": "function",
      "constant": true
    },
    {
      "inputs": [
        {
          "internalType": "bytes32",
          "name": "role",
          "type": "bytes32"
        },
        {
          "internalType": "address",
          "name": "account",
          "type": "address"
        }
      ],
      "name": "renounceRole",
      "outputs": [],
      "stateMutability": "nonpayable",
      "type": "function"
    },
    {
      "inputs": [
        {
          "internalType": "bytes32",
          "name": "role",
          "type": "bytes32"
        },
        {
          "internalType": "address",
          "name": "account",
          "type": "address"
        }
      ],
      "name": "revokeRole",
      "outputs": [],
      "stateMutability": "nonpayable",
      "type": "function"
    },
    {
      "inputs": [
        {
          "internalType": "bytes4",
          "name": "interfaceId",
          "type": "bytes4"
        }
      ],
      "name": "supportsInterface",
      "outputs": [
        {
          "internalType": "bool",
          "name": "",
          "type": "bool"
        }
      ],
      "stateMutability": "view",
      "type": "function",
      "constant": true
    },
    {
      "inputs": [
        {
          "internalType": "bytes32",
          "name": "role",
          "type": "bytes32"
        }
      ],
      "name": "revokeRoleAll",
      "outputs": [],
      "stateMutability": "nonpayable",
      "type": "function"
    },
    {
      "inputs": [
        {
          "internalType": "uint256",
          "name": "amount",
          "type": "uint256"
        }
      ],
      "name": "withdraw",
      "outputs": [],
      "stateMutability": "nonpayable",
      "type": "function"
    },
    {
      "inputs": [
        {
          "internalType": "address",
          "name": "addr",
          "type": "address"
        },
        {
          "internalType": "uint256",
          "name": "amount",
          "type": "uint256"
        }
      ],
      "name": "addFunds",
      "outputs": [],
      "stateMutability": "nonpayable",
      "type": "function"
    },
    {
      "inputs": [
        {
          "internalType": "address",
          "name": "addr",
          "type": "address"
        },
        {
          "internalType": "uint256",
          "name": "amount",
          "type": "uint256"
        }
      ],
      "name": "subtractFunds",
      "outputs": [],
      "stateMutability": "nonpayable",
      "type": "function"
    },
    {
      "inputs": [],
      "name": "deposit",
      "outputs": [],
      "stateMutability": "payable",
      "type": "function",
      "payable": true
    },
    {
      "inputs": [
        {
          "internalType": "address",
          "name": "add",
          "type": "address"
        }
      ],
      "name": "balanceOf",
      "outputs": [
        {
          "internalType": "uint256",
          "name": "",
          "type": "uint256"
        }
      ],
      "stateMutability": "view",
      "type": "function",
      "constant": true
    }
  ],
  "bytecode": "0x60806040523480156200001157600080fd5b506200004d7f523a704056dcd17bcf83bed8b68c59416dac1119be77755efe3bde0a64e46e0c600080516020620012ca83398151915262000089565b62000068600080516020620012ca83398151915233620000d4565b62000083600080516020620012ca83398151915230620000d4565b62000239565b600082815260208190526040808220600101805490849055905190918391839186917fbd79b86ffe0ab8e8776151514217cd7cacd52c909f66475c3af44e129f0b00ff9190a4505050565b620000e08282620000e4565b5050565b620000fb82826200012760201b6200089f1760201c565b60008281526001602090815260409091206200012291839062000923620001c7821b17901c565b505050565b6000828152602081815260408083206001600160a01b038516845290915290205460ff16620000e0576000828152602081815260408083206001600160a01b03851684529091529020805460ff19166001179055620001833390565b6001600160a01b0316816001600160a01b0316837f2f8788117e7eff1d82e926ec794901d17c78024a50270940304540a733656f0d60405160405180910390a45050565b6000620001de836001600160a01b038416620001e7565b90505b92915050565b60008181526001830160205260408120546200023057508154600181810184556000848152602080822090930184905584548482528286019093526040902091909155620001e1565b506000620001e1565b61108180620002496000396000f3fe6080604052600436106100fe5760003560e01c80639010d07c11610095578063bc4b336511610064578063bc4b336514610303578063ca15c87314610323578063d0e30db014610343578063d547741f1461034b578063ff2137fb1461036b57600080fd5b80639010d07c1461026257806391d148541461029a578063983d2737146102ba578063a217fddf146102ee57600080fd5b80632e1a7d4d116100d15780632e1a7d4d146101cc5780632f2ff15d146101ec57806336568abe1461020c57806370a082311461022c57600080fd5b806301ffc9a7146101035780630c61411f14610138578063248a9ca31461015a5780632a0acc6a14610198575b600080fd5b34801561010f57600080fd5b5061012361011e366004610e75565b61038b565b60405190151581526020015b60405180910390f35b34801561014457600080fd5b50610158610153366004610de4565b6103b6565b005b34801561016657600080fd5b5061018a610175366004610e0e565b60009081526020819052604090206001015490565b60405190815260200161012f565b3480156101a457600080fd5b5061018a7fdf8b4c520ffe197c5343c6f5aec59570151ef9a492f2c624fd45ddde6135ec4281565b3480156101d857600080fd5b506101586101e7366004610e0e565b610413565b3480156101f857600080fd5b50610158610207366004610e27565b61060c565b34801561021857600080fd5b50610158610227366004610e27565b610637565b34801561023857600080fd5b5061018a610247366004610dc9565b6001600160a01b031660009081526002602052604090205490565b34801561026e57600080fd5b5061028261027d366004610e53565b6106b1565b6040516001600160a01b03909116815260200161012f565b3480156102a657600080fd5b506101236102b5366004610e27565b6106d0565b3480156102c657600080fd5b5061018a7f523a704056dcd17bcf83bed8b68c59416dac1119be77755efe3bde0a64e46e0c81565b3480156102fa57600080fd5b5061018a600081565b34801561030f57600080fd5b5061015861031e366004610de4565b6106f9565b34801561032f57600080fd5b5061018a61033e366004610e0e565b61074c565b610158610763565b34801561035757600080fd5b50610158610366366004610e27565b61081a565b34801561037757600080fd5b50610158610386366004610e0e565b610840565b60006001600160e01b03198216635a05180f60e01b14806103b057506103b082610938565b92915050565b7f523a704056dcd17bcf83bed8b68c59416dac1119be77755efe3bde0a64e46e0c6103e1813361096d565b6001600160a01b03831660009081526002602052604081208054849290610409908490610f7e565b9091555050505050565b600081116104745760405162461bcd60e51b8152602060048201526024808201527f496e76616c6964207769746864726177616c20616d6f756e74207265717565736044820152633a32b21760e11b60648201526084015b60405180910390fd5b336000908152600260205260409020548111156104e55760405162461bcd60e51b815260206004820152602960248201527f496e73756666696369656e742066756e647320746f2070726f636573732077696044820152683a34323930bbb0b61760b91b606482015260840161046b565b804710156105695760405162461bcd60e51b8152602060048201526044602482018190527f42616e6b2068617320696e73756666696369656e742066756e647320746f2070908201527f726f63657373207769746864726177616c202d2074727920616761696e206c616064820152633a32b91760e11b608482015260a40161046b565b3360009081526002602052604081208054839290610588908490610f7e565b90915550503360008181526002602090815260409182902054825193845290830184905282820152517ff279e6a1f5e320cca91135676d9cb6e44ca8a08c0b88342bcdb1144f6511b5689181900360600190a1604051339082156108fc029083906000818181858888f19350505050158015610608573d6000803e3d6000fd5b5050565b600082815260208190526040902060010154610628813361096d565b61063283836109d1565b505050565b6001600160a01b03811633146106a75760405162461bcd60e51b815260206004820152602f60248201527f416363657373436f6e74726f6c3a2063616e206f6e6c792072656e6f756e636560448201526e103937b632b9903337b91039b2b63360891b606482015260840161046b565b61060882826109f3565b60008281526001602052604081206106c99083610a15565b9392505050565b6000918252602082815260408084206001600160a01b0393909316845291905290205460ff1690565b7f523a704056dcd17bcf83bed8b68c59416dac1119be77755efe3bde0a64e46e0c610724813361096d565b6001600160a01b03831660009081526002602052604081208054849290610409908490610f47565b60008181526001602052604081206103b090610a21565b600034116107b35760405162461bcd60e51b815260206004820152601760248201527f496e76616c6964206465706f73697420616d6f756e742e000000000000000000604482015260640161046b565b3360009081526002602052604081208054913491906107d28385610f47565b9091555050604080513381523460208201529081018290527f90890809c654f11d6e72a28fa60149770a0d11ec6c92319d6ceb2bb0a4ea1a159060600160405180910390a150565b600082815260208190526040902060010154610836813361096d565b61063283836109f3565b60008181526020819052604090206001015461085c813361096d565b60006108678361074c565b905060005b81811015610899576108878461088286846106b1565b6109f3565b8061089181610fd8565b91505061086c565b50505050565b6108a982826106d0565b610608576000828152602081815260408083206001600160a01b03851684529091529020805460ff191660011790556108df3390565b6001600160a01b0316816001600160a01b0316837f2f8788117e7eff1d82e926ec794901d17c78024a50270940304540a733656f0d60405160405180910390a45050565b60006106c9836001600160a01b038416610a2b565b60006001600160e01b03198216637965db0b60e01b14806103b057506301ffc9a760e01b6001600160e01b03198316146103b0565b61097782826106d0565b6106085761098f816001600160a01b03166014610a7a565b61099a836020610a7a565b6040516020016109ab929190610e9f565b60408051601f198184030181529082905262461bcd60e51b825261046b91600401610f14565b6109db828261089f565b60008281526001602052604090206106329082610923565b6109fd8282610c16565b60008281526001602052604090206106329082610c7b565b60006106c98383610c90565b60006103b0825490565b6000818152600183016020526040812054610a72575081546001818101845560008481526020808220909301849055845484825282860190935260409020919091556103b0565b5060006103b0565b60606000610a89836002610f5f565b610a94906002610f47565b67ffffffffffffffff811115610aac57610aac611035565b6040519080825280601f01601f191660200182016040528015610ad6576020820181803683370190505b509050600360fc1b81600081518110610af157610af161101f565b60200101906001600160f81b031916908160001a905350600f60fb1b81600181518110610b2057610b2061101f565b60200101906001600160f81b031916908160001a9053506000610b44846002610f5f565b610b4f906001610f47565b90505b6001811115610bc7576f181899199a1a9b1b9c1cb0b131b232b360811b85600f1660108110610b8357610b8361101f565b1a60f81b828281518110610b9957610b9961101f565b60200101906001600160f81b031916908160001a90535060049490941c93610bc081610fc1565b9050610b52565b5083156106c95760405162461bcd60e51b815260206004820181905260248201527f537472696e67733a20686578206c656e67746820696e73756666696369656e74604482015260640161046b565b610c2082826106d0565b15610608576000828152602081815260408083206001600160a01b0385168085529252808320805460ff1916905551339285917ff6391f5c32d9c69d2a47ea670b442974b53935d1edc7fd64eb21e047a839171b9190a45050565b60006106c9836001600160a01b038416610cba565b6000826000018281548110610ca757610ca761101f565b9060005260206000200154905092915050565b60008181526001830160205260408120548015610da3576000610cde600183610f7e565b8554909150600090610cf290600190610f7e565b9050818114610d57576000866000018281548110610d1257610d1261101f565b9060005260206000200154905080876000018481548110610d3557610d3561101f565b6000918252602080832090910192909255918252600188019052604090208390555b8554869080610d6857610d68611009565b6001900381819060005260206000200160009055905585600101600086815260200190815260200160002060009055600193505050506103b0565b60009150506103b0565b80356001600160a01b0381168114610dc457600080fd5b919050565b600060208284031215610ddb57600080fd5b6106c982610dad565b60008060408385031215610df757600080fd5b610e0083610dad565b946020939093013593505050565b600060208284031215610e2057600080fd5b5035919050565b60008060408385031215610e3a57600080fd5b82359150610e4a60208401610dad565b90509250929050565b60008060408385031215610e6657600080fd5b50508035926020909101359150565b600060208284031215610e8757600080fd5b81356001600160e01b0319811681146106c957600080fd5b7f416363657373436f6e74726f6c3a206163636f756e7420000000000000000000815260008351610ed7816017850160208801610f95565b7001034b99036b4b9b9b4b733903937b6329607d1b6017918401918201528351610f08816028840160208801610f95565b01602801949350505050565b6020815260008251806020840152610f33816040850160208701610f95565b601f01601f19169190910160400192915050565b60008219821115610f5a57610f5a610ff3565b500190565b6000816000190483118215151615610f7957610f79610ff3565b500290565b600082821015610f9057610f90610ff3565b500390565b60005b83811015610fb0578181015183820152602001610f98565b838111156108995750506000910152565b600081610fd057610fd0610ff3565b506000190190565b6000600019821415610fec57610fec610ff3565b5060010190565b634e487b7160e01b600052601160045260246000fd5b634e487b7160e01b600052603160045260246000fd5b634e487b7160e01b600052603260045260246000fd5b634e487b7160e01b600052604160045260246000fdfea264697066735822122045079d655fbe6779189f625dc750b5e924aec2c652fc504d126b0a8fad0c114064736f6c63430008070033df8b4c520ffe197c5343c6f5aec59570151ef9a492f2c624fd45ddde6135ec42",
  "immutableReferences": {},
  "source": "/// @title CentralBank 0.1.0\n/// @author awphi (https://github.com/awphi)\n\n// SPDX-License-Identifier: MIT\npragma solidity >=0.4.22 <0.9.0;\n\n// Use AccessControlEnumerable to allow on-chain visibility of current ADMINS and OPERATORS\nimport \"@openzeppelin/contracts/access/AccessControlEnumerable.sol\";\nimport \"@openzeppelin/contracts/access/Ownable.sol\";\nimport \"./ICentralBank.sol\";\n\ncontract CentralBank is AccessControlEnumerable, ICentralBank {\n    bytes32 public constant ADMIN = keccak256(\"ADMIN\");\n    bytes32 public constant OPERATOR = keccak256(\"OPERATOR\");\n\n    mapping(address => uint256) private funds;\n\n    event Withdraw(address addr, uint256 amount, uint256 remaining);\n    event Deposit(address addr, uint256 amount, uint256 oldBalance);\n\n    constructor() {\n        _setRoleAdmin(OPERATOR, ADMIN);\n\n        // Initially grant contract creator the admin role so they can add fund operators\n        _setupRole(ADMIN, msg.sender);\n        _setupRole(ADMIN, address(this));\n    }\n\n    function revokeRoleAll(bytes32 role) public {\n        // Verify caller is admin of given role\n        bytes32 admin = getRoleAdmin(role);\n        _checkRole(admin, msg.sender);\n        \n        // Revoke all\n        uint256 count = getRoleMemberCount(role);\n        for(uint256 i = 0; i < count; i ++) {\n            _revokeRole(role, getRoleMember(role, i));\n        }\n    }\n\n    function withdraw(uint256 amount) override public {\n        require(amount > 0, \"Invalid withdrawal amount requested.\");\n        require(funds[msg.sender] >= amount, \"Insufficient funds to process withdrawal.\");\n        require(address(this).balance >= amount, \"Bank has insufficient funds to process withdrawal - try again later.\");\n\n        funds[msg.sender] -= amount;\n        emit Withdraw(msg.sender, amount, funds[msg.sender]);\n        payable(msg.sender).transfer(amount);\n    }\n\n    function addFunds(address addr, uint256 amount) override public onlyRole(OPERATOR) {\n        // Solidity deals with reversion on overflow\n        funds[addr] += amount;\n    }\n\n    function subtractFunds(address addr, uint256 amount) override public onlyRole(OPERATOR) {\n        // Solidity deals with reversion on underflow\n        funds[addr] -= amount;\n    }\n\n    function deposit() override public payable {\n        require(msg.value > 0, \"Invalid deposit amount.\");\n        uint256 bal = funds[msg.sender];\n        funds[msg.sender] += msg.value;\n        emit Deposit(msg.sender, msg.value, bal);\n    }\n\n    function balanceOf(address add) override public view returns (uint) {\n        return funds[add];\n    }\n}",
  "sourcePath": "F:\\1Repo\\glass-casino\\contracts\\CentralBank.sol",
  "compiler": {
    "name": "solc",
    "version": "0.8.7+commit.e28d00a7.Emscripten.clang"
  },
  "schemaVersion": "3.4.3",
  "updatedAt": "2022-02-22T19:05:53.486Z",
  "networkType": "ethereum",
  "devdoc": {
    "kind": "dev",
    "methods": {
      "getRoleAdmin(bytes32)": {
        "details": "Returns the admin role that controls `role`. See {grantRole} and {revokeRole}. To change a role's admin, use {_setRoleAdmin}."
      },
      "getRoleMember(bytes32,uint256)": {
        "details": "Returns one of the accounts that have `role`. `index` must be a value between 0 and {getRoleMemberCount}, non-inclusive. Role bearers are not sorted in any particular way, and their ordering may change at any point. WARNING: When using {getRoleMember} and {getRoleMemberCount}, make sure you perform all queries on the same block. See the following https://forum.openzeppelin.com/t/iterating-over-elements-on-enumerableset-in-openzeppelin-contracts/2296[forum post] for more information."
      },
      "getRoleMemberCount(bytes32)": {
        "details": "Returns the number of accounts that have `role`. Can be used together with {getRoleMember} to enumerate all bearers of a role."
      },
      "grantRole(bytes32,address)": {
        "details": "Grants `role` to `account`. If `account` had not been already granted `role`, emits a {RoleGranted} event. Requirements: - the caller must have ``role``'s admin role."
      },
      "hasRole(bytes32,address)": {
        "details": "Returns `true` if `account` has been granted `role`."
      },
      "renounceRole(bytes32,address)": {
        "details": "Revokes `role` from the calling account. Roles are often managed via {grantRole} and {revokeRole}: this function's purpose is to provide a mechanism for accounts to lose their privileges if they are compromised (such as when a trusted device is misplaced). If the calling account had been revoked `role`, emits a {RoleRevoked} event. Requirements: - the caller must be `account`."
      },
      "revokeRole(bytes32,address)": {
        "details": "Revokes `role` from `account`. If `account` had been granted `role`, emits a {RoleRevoked} event. Requirements: - the caller must have ``role``'s admin role."
      },
      "supportsInterface(bytes4)": {
        "details": "See {IERC165-supportsInterface}."
      }
    },
    "version": 1
  },
  "userdoc": {
    "kind": "user",
    "methods": {},
    "version": 1
  }
}