{
  "contractName": "ChuckALuck",
  "abi": [
    {
      "inputs": [],
      "stateMutability": "nonpayable",
      "type": "constructor"
    },
    {
      "anonymous": false,
      "inputs": [
        {
          "components": [
            {
              "internalType": "uint8",
              "name": "bet",
              "type": "uint8"
            },
            {
              "internalType": "uint248",
              "name": "bet_amount",
              "type": "uint248"
            }
          ],
          "indexed": false,
          "internalType": "struct ChuckALuck.Bet",
          "name": "bet",
          "type": "tuple"
        },
        {
          "indexed": false,
          "internalType": "uint256[]",
          "name": "rolls",
          "type": "uint256[]"
        },
        {
          "indexed": false,
          "internalType": "uint256",
          "name": "winnings",
          "type": "uint256"
        }
      ],
      "name": "GameComplete",
      "type": "event"
    },
    {
      "anonymous": false,
      "inputs": [
        {
          "indexed": false,
          "internalType": "bytes32",
          "name": "request",
          "type": "bytes32"
        }
      ],
      "name": "RandomnessFulfilled",
      "type": "event"
    },
    {
      "inputs": [],
      "name": "balance",
      "outputs": [
        {
          "internalType": "uint256",
          "name": "",
          "type": "uint256"
        }
      ],
      "stateMutability": "view",
      "type": "function",
      "constant": true
    },
    {
      "inputs": [],
      "name": "deposit",
      "outputs": [],
      "stateMutability": "payable",
      "type": "function",
      "payable": true
    },
    {
      "inputs": [],
      "name": "owner",
      "outputs": [
        {
          "internalType": "address",
          "name": "",
          "type": "address"
        }
      ],
      "stateMutability": "view",
      "type": "function",
      "constant": true
    },
    {
      "inputs": [
        {
          "internalType": "bytes32",
          "name": "requestId",
          "type": "bytes32"
        },
        {
          "internalType": "uint256",
          "name": "randomness",
          "type": "uint256"
        }
      ],
      "name": "rawFulfillRandomness",
      "outputs": [],
      "stateMutability": "nonpayable",
      "type": "function"
    },
    {
      "inputs": [
        {
          "internalType": "uint256",
          "name": "amount",
          "type": "uint256"
        }
      ],
      "name": "withdraw",
      "outputs": [],
      "stateMutability": "nonpayable",
      "type": "function"
    },
    {
      "inputs": [
        {
          "components": [
            {
              "internalType": "uint8",
              "name": "bet",
              "type": "uint8"
            },
            {
              "internalType": "uint248",
              "name": "bet_amount",
              "type": "uint248"
            }
          ],
          "internalType": "struct ChuckALuck.Bet",
          "name": "bet",
          "type": "tuple"
        },
        {
          "internalType": "uint256[]",
          "name": "rolls",
          "type": "uint256[]"
        }
      ],
      "name": "calculate_winnings",
      "outputs": [
        {
          "internalType": "uint256",
          "name": "",
          "type": "uint256"
        }
      ],
      "stateMutability": "pure",
      "type": "function",
      "constant": true
    },
    {
      "inputs": [
        {
          "internalType": "uint8",
          "name": "bet",
          "type": "uint8"
        },
        {
          "internalType": "uint248",
          "name": "bet_amount",
          "type": "uint248"
        }
      ],
      "name": "play",
      "outputs": [
        {
          "internalType": "bytes32",
          "name": "",
          "type": "bytes32"
        }
      ],
      "stateMutability": "nonpayable",
      "type": "function"
    },
    {
      "inputs": [
        {
          "internalType": "uint256",
          "name": "randomValue",
          "type": "uint256"
        },
        {
          "internalType": "uint256",
          "name": "n",
          "type": "uint256"
        },
        {
          "internalType": "uint256",
          "name": "mod",
          "type": "uint256"
        },
        {
          "internalType": "uint256",
          "name": "add",
          "type": "uint256"
        }
      ],
      "name": "expand",
      "outputs": [
        {
          "internalType": "uint256[]",
          "name": "expandedValues",
          "type": "uint256[]"
        }
      ],
      "stateMutability": "pure",
      "type": "function",
      "constant": true
    },
    {
      "inputs": [],
      "name": "claim",
      "outputs": [
        {
          "components": [
            {
              "internalType": "uint8",
              "name": "bet",
              "type": "uint8"
            },
            {
              "internalType": "uint248",
              "name": "bet_amount",
              "type": "uint248"
            }
          ],
          "internalType": "struct ChuckALuck.Bet",
          "name": "bet",
          "type": "tuple"
        },
        {
          "internalType": "uint256[]",
          "name": "rolls",
          "type": "uint256[]"
        },
        {
          "internalType": "uint256",
          "name": "winnings",
          "type": "uint256"
        }
      ],
      "stateMutability": "nonpayable",
      "type": "function"
    },
    {
      "inputs": [],
      "name": "withdrawLink",
      "outputs": [],
      "stateMutability": "nonpayable",
      "type": "function"
    }
  ],
  "bytecode": "0x60c060405234801561001057600080fd5b507f8c7382f9d8f56b33781fe506e897a4f1e2d1725500000000000000000000000060a0527f326c977e6efc84e512bb9c30f76e30c160ed06fb000000000000000000000000608052600180546001600160a01b031916331790557f6e75b569a01ef56d18cab6a8e71e6600d6ce853834d4a5748b720d06f878b3a4600355655af3107a400060045573326c977e6efc84e512bb9c30f76e30c160ed06fb738c7382f9d8f56b33781fe506e897a4f1e2d172556110a06100f7600039600081816108d70152610a8901526000818161054f015281816107c50152610a5a01526110a06000f3fe6080604052600436106100915760003560e01c80638dc654a2116100595780638dc654a21461016b57806394985ddd14610180578063b69ef8a8146101a0578063b74a4645146101c2578063d0e30db0146101ef57600080fd5b80632e1a7d4d146100965780634e71d92d146100b857806351d805c7146100e55780638c72e4f1146101135780638da5cb5b14610133575b600080fd5b3480156100a257600080fd5b506100b66100b1366004610da3565b6101f7565b005b3480156100c457600080fd5b506100cd610282565b6040516100dc93929190610ef4565b60405180910390f35b3480156100f157600080fd5b50610105610100366004610cb7565b610472565b6040519081526020016100dc565b34801561011f57600080fd5b5061010561012e366004610e07565b610531565b34801561013f57600080fd5b50600154610153906001600160a01b031681565b6040516001600160a01b0390911681526020016100dc565b34801561017757600080fd5b506100b66107a5565b34801561018c57600080fd5b506100b661019b366004610c95565b6108cc565b3480156101ac57600080fd5b5033600090815260026020526040902054610105565b3480156101ce57600080fd5b506101e26101dd366004610dd5565b61094e565b6040516100dc9190610ee1565b6100b6610a23565b6000811161020457600080fd5b3360009081526002602052604090205481111561022057600080fd5b8047101561022d57600080fd5b336000908152600260205260408120805483929061024c908490610fd4565b9091555050604051339082156108fc029083906000818181858888f1935050505015801561027e573d6000803e3d6000fd5b5050565b604080518082019091526000808252602082015233600090815260056020526040812054606091906103115760405162461bcd60e51b815260206004820152602d60248201527f4e6f206163746976652062657420666f756e64202d20706c6561736520706c6160448201526c31b29037b732903334b939ba1760991b60648201526084015b60405180910390fd5b33600090815260056020908152604080832054808452600690925290912054806103965760405162461bcd60e51b815260206004820152603060248201527f52616e646f6d6e657373207374696c6c2070656e64696e67202d20706c65617360448201526f32903bb0b4ba10309036b7b6b2b73a1760811b6064820152608401610308565b60008281526007602090815260409182902082518084019093525460ff8116835261010090046001600160f81b03169082015294506103da8160036006600161094e565b93506103e68585610472565b9250821561041857336000908152600260205260408120805485929061040d908490610f8d565b909155506104599050565b6020808601516001546001600160a01b0316600090815260029092526040822080546001600160f81b03909216929091610453908490610f8d565b90915550505b5050336000908152600560205260408120559192909190565b600080805b83518110156104c857846000015160ff1684828151811061049a5761049a61103e565b602002602001015114156104b6576104b3600183610f8d565b91505b806104c081610feb565b915050610477565b5080600114156104f35760208401516104e2906002610fa5565b6001600160f81b031691505061052b565b806002141561050c5760208401516104e2906002610fa5565b80600314156105255760208401516104e290600a610fa5565b60009150505b92915050565b600480546040516370a0823160e01b815230928101929092526000917f00000000000000000000000000000000000000000000000000000000000000006001600160a01b0316906370a082319060240160206040518083038186803b15801561059957600080fd5b505afa1580156105ad573d6000803e3d6000fd5b505050506040513d601f19601f820116820180604052508101906105d19190610dbc565b101561063d5760405162461bcd60e51b815260206004820152603560248201527f4e6f7420656e6f756768204c494e4b202d20686f757365206e6565647320746f60448201527420726566696c6c2074686520636f6e74726163742160581b6064820152608401610308565b33600090815260056020526040902054156106ad5760405162461bcd60e51b815260206004820152602a60248201527f53656e646572206861732067616d652070656e64696e67202d2074727920616760448201526930b4b7103630ba32b91760b11b6064820152608401610308565b6000826001600160f81b0316116106fc5760405162461bcd60e51b815260206004820152601360248201527224b73b30b634b2103132ba1030b6b7bab73a1760691b6044820152606401610308565b600061070c600354600454610a56565b336000818152600560209081526040808320859055848352600682528083208390559282526002905290812080549293506001600160f81b03861692909190610756908490610fd4565b909155505060408051808201825260ff80871682526001600160f81b03808716602080850191825260008781526007909152949094209251935116610100029216919091179055905092915050565b6001546040516370a0823160e01b81523060048201526001600160a01b037f000000000000000000000000000000000000000000000000000000000000000081169263a9059cbb9291169083906370a082319060240160206040518083038186803b15801561081357600080fd5b505afa158015610827573d6000803e3d6000fd5b505050506040513d601f19601f8201168201806040525081019061084b9190610dbc565b6040516001600160e01b031960e085901b1681526001600160a01b0390921660048301526024820152604401602060405180830381600087803b15801561089157600080fd5b505af11580156108a5573d6000803e3d6000fd5b505050506040513d601f19601f820116820180604052508101906108c99190610c6c565b50565b336001600160a01b037f000000000000000000000000000000000000000000000000000000000000000016146109445760405162461bcd60e51b815260206004820152601f60248201527f4f6e6c7920565246436f6f7264696e61746f722063616e2066756c66696c6c006044820152606401610308565b61027e8282610bdf565b60608367ffffffffffffffff81111561096957610969611054565b604051908082528060200260200182016040528015610992578160200160208202803683370190505b50905060005b84811015610a1a57828487836040516020016109be929190918252602082015260400190565b6040516020818303038152906040528051906020012060001c6109e19190611006565b6109eb9190610f8d565b8282815181106109fd576109fd61103e565b602090810291909101015280610a1281610feb565b915050610998565b50949350505050565b60003411610a3057600080fd5b3360009081526002602052604081208054349290610a4f908490610f8d565b9091555050565b60007f00000000000000000000000000000000000000000000000000000000000000006001600160a01b0316634000aea07f000000000000000000000000000000000000000000000000000000000000000084866000604051602001610ac6929190918252602082015260400190565b6040516020818303038152906040526040518463ffffffff1660e01b8152600401610af393929190610e75565b602060405180830381600087803b158015610b0d57600080fd5b505af1158015610b21573d6000803e3d6000fd5b505050506040513d601f19601f82011682018060405250810190610b459190610c6c565b5060008381526020818152604080832054815180840188905280830185905230606082015260808082018390528351808303909101815260a090910190925281519183019190912086845292909152610b9f906001610f8d565b6000858152602081815260409182902092909255805180830187905280820184905281518082038301815260609091019091528051910120949350505050565b610beb60001982611006565b610bf6906001610f8d565b60008381526006602090815260409182902092909255518381527fa312c4217fec2a5d353039350081a0149ed918efd6ec43d7f0e8a425f0715f15910160405180910390a15050565b80356001600160f81b0381168114610c5657600080fd5b919050565b803560ff81168114610c5657600080fd5b600060208284031215610c7e57600080fd5b81518015158114610c8e57600080fd5b9392505050565b60008060408385031215610ca857600080fd5b50508035926020909101359150565b6000808284036060811215610ccb57600080fd5b6040811215610cd957600080fd5b50610ce2610f33565b610ceb84610c5b565b81526020610cfa818601610c3f565b8282015290925060408401359067ffffffffffffffff80831115610d1d57600080fd5b828601925086601f840112610d3157600080fd5b823581811115610d4357610d43611054565b8060051b9150610d54838301610f5c565b8181528381019085850184870186018b1015610d6f57600080fd5b600096505b83871015610d92578035835260019690960195918501918501610d74565b508096505050505050509250929050565b600060208284031215610db557600080fd5b5035919050565b600060208284031215610dce57600080fd5b5051919050565b60008060008060808587031215610deb57600080fd5b5050823594602084013594506040840135936060013592509050565b60008060408385031215610e1a57600080fd5b610e2383610c5b565b9150610e3160208401610c3f565b90509250929050565b600081518084526020808501945080840160005b83811015610e6a57815187529582019590820190600101610e4e565b509495945050505050565b60018060a01b038416815260006020848184015260606040840152835180606085015260005b81811015610eb757858101830151858201608001528201610e9b565b81811115610ec9576000608083870101525b50601f01601f19169290920160800195945050505050565b602081526000610c8e6020830184610e3a565b60ff845116815260018060f81b036020850151166020820152608060408201526000610f236080830185610e3a565b9050826060830152949350505050565b6040805190810167ffffffffffffffff81118282101715610f5657610f56611054565b60405290565b604051601f8201601f1916810167ffffffffffffffff81118282101715610f8557610f85611054565b604052919050565b60008219821115610fa057610fa0611028565b500190565b60006001600160f81b0382811684821681151582840482111615610fcb57610fcb611028565b02949350505050565b600082821015610fe657610fe6611028565b500390565b6000600019821415610fff57610fff611028565b5060010190565b60008261102357634e487b7160e01b600052601260045260246000fd5b500690565b634e487b7160e01b600052601160045260246000fd5b634e487b7160e01b600052603260045260246000fd5b634e487b7160e01b600052604160045260246000fdfea26469706673582212203b22d905698cabd570fd6fd8f9c34cbe88dcc362a2c108bcc775f5e8a587e1e464736f6c63430008070033",
  "immutableReferences": {
    "73": [
      {
        "length": 32,
        "start": 1359
      },
      {
        "length": 32,
        "start": 1989
      },
      {
        "length": 32,
        "start": 2650
      }
    ],
    "75": [
      {
        "length": 32,
        "start": 2263
      },
      {
        "length": 32,
        "start": 2697
      }
    ]
  },
  "source": "// SPDX-License-Identifier: MIT\r\npragma solidity ^0.8.7;\r\n\r\nimport \"@chainlink/contracts/src/v0.8/VRFConsumerBase.sol\";\r\nimport \"./Bank.sol\";\r\nimport \"./Owned.sol\";\r\n\r\ncontract ChuckALuck is VRFConsumerBase, Owned, Bank {\r\n    bytes32 internal keyHash;\r\n    uint internal fee;\r\n\r\n    struct Bet {\r\n        uint8 bet;\r\n        uint248 bet_amount;\r\n    }\r\n    \r\n    mapping (address => bytes32) requests;\r\n    mapping(bytes32 => uint256) results;\r\n    mapping (bytes32 => Bet) bets;\r\n\r\n    event GameComplete(Bet bet, uint[] rolls, uint winnings);\r\n    event RandomnessFulfilled(bytes32 request);\r\n\r\n    constructor() VRFConsumerBase(\r\n        0x8C7382F9D8f56b33781fE506E897a4F1e2d17255, // VRF Coordinator\r\n        0x326C977E6efc84E512bB9C30f76E30c160eD06FB  // LINK Token\r\n    ) {\r\n        keyHash = 0x6e75b569a01ef56d18cab6a8e71e6600d6ce853834d4a5748b720d06f878b3a4;\r\n        fee = 0.0001 ether;\r\n    }\r\n\r\n    function calculate_winnings(Bet memory bet, uint[] memory rolls) public pure returns (uint) {\r\n        // Count up matching dice rolls\r\n        uint c = 0;\r\n        for(uint i = 0; i < rolls.length; i ++) {\r\n            if(rolls[i] == bet.bet) {\r\n                c += 1;\r\n            }\r\n        }\r\n\r\n        if(c == 1) {\r\n            // 1:1 for 1 match\r\n            return bet.bet_amount * 2;\r\n        } else if(c == 2) {\r\n            // 2:1 for 2 matches\r\n            return bet.bet_amount * 2;\r\n        } else if(c == 3) {\r\n            // 10:1 for 3 matches\r\n            return bet.bet_amount * 10;\r\n        }\r\n        return 0;\r\n    }\r\n    \r\n    function play(uint8 bet, uint248 bet_amount) public returns (bytes32) {\r\n        require(LINK.balanceOf(address(this)) >= fee, \"Not enough LINK - house needs to refill the contract!\");\r\n        require(requests[msg.sender] == 0, \"Sender has game pending - try again later.\");\r\n        require(bet_amount > 0, \"Invalid bet amount.\");\r\n\r\n\r\n        bytes32 req = requestRandomness(keyHash, fee);\r\n        requests[msg.sender] = req;\r\n\r\n        // Clear out previous randomness\r\n        delete results[req];\r\n\r\n        funds[msg.sender] -= bet_amount;\r\n        bets[req] = Bet(bet, bet_amount);\r\n        return req;\r\n    }\r\n\r\n    function expand(uint randomValue, uint n, uint mod, uint add) public pure returns (uint[] memory expandedValues) {\r\n        expandedValues = new uint[](n);\r\n        for (uint i = 0; i < n; i++) {\r\n            expandedValues[i] = (uint(keccak256(abi.encode(randomValue, i))) % mod) + add;\r\n        }\r\n        return expandedValues;\r\n    }\r\n\r\n    // Just store the result as to avoid transaction reversion\r\n    function fulfillRandomness(bytes32 requestId, uint randomness) internal override {\r\n        // Bound between [1, max(uint256)] to keep 0 as a reserved value (indicating result is pending!)\r\n        results[requestId] = (randomness % type(uint256).max) + 1;\r\n        emit RandomnessFulfilled(requestId);\r\n    }\r\n\r\n    function claim() public returns (Bet memory bet, uint[] memory rolls, uint winnings) {\r\n        require(requests[msg.sender] != 0, \"No active bet found - please place one first.\");\r\n        bytes32 requestId = requests[msg.sender];\r\n        uint randomness = results[requestId];\r\n        require(randomness != 0, \"Randomness still pending - please wait a moment.\");\r\n\r\n        bet = bets[requestId];\r\n        // Expand rolls to 3 values bounded [1, 6]\r\n        rolls = expand(randomness, 3, 6, 1);\r\n        winnings = calculate_winnings(bet, rolls);\r\n\r\n        if(winnings > 0) {\r\n            funds[msg.sender] += winnings;\r\n        } else {\r\n            funds[owner] += bet.bet_amount;\r\n        }\r\n\r\n        delete requests[msg.sender];\r\n        return (bet, rolls, winnings);\r\n    }\r\n\r\n    function withdrawLink() public {\r\n        LINK.transfer(payable(owner), LINK.balanceOf(address(this)));\r\n    }\r\n\r\n    // function withdrawLink() external {} - Implement a withdraw function to avoid locking your LINK in the contract\r\n}\r\n",
  "sourcePath": "F:\\1Repo\\glass-casino\\contracts\\ChuckALuck.sol",
  "compiler": {
    "name": "solc",
    "version": "0.8.7+commit.e28d00a7.Emscripten.clang"
  },
  "schemaVersion": "3.4.3",
  "updatedAt": "2022-02-13T14:37:12.826Z",
  "networkType": "ethereum",
  "devdoc": {
    "kind": "dev",
    "methods": {},
    "version": 1
  },
  "userdoc": {
    "kind": "user",
    "methods": {},
    "version": 1
  }
}