{
  "contractName": "ChuckALuck",
  "abi": [
    {
      "inputs": [
        {
          "internalType": "address",
          "name": "vrfCoordinator",
          "type": "address"
        },
        {
          "internalType": "address",
          "name": "linkToken",
          "type": "address"
        },
        {
          "internalType": "bytes32",
          "name": "keyHash",
          "type": "bytes32"
        },
        {
          "internalType": "uint256",
          "name": "fee",
          "type": "uint256"
        },
        {
          "internalType": "address",
          "name": "bankAddr",
          "type": "address"
        }
      ],
      "stateMutability": "nonpayable",
      "type": "constructor"
    },
    {
      "anonymous": false,
      "inputs": [
        {
          "indexed": false,
          "internalType": "uint256[]",
          "name": "rolls",
          "type": "uint256[]"
        },
        {
          "components": [
            {
              "internalType": "address",
              "name": "player",
              "type": "address"
            },
            {
              "internalType": "uint64",
              "name": "timestamp",
              "type": "uint64"
            },
            {
              "internalType": "uint32",
              "name": "bet",
              "type": "uint32"
            },
            {
              "internalType": "uint256",
              "name": "bet_amount",
              "type": "uint256"
            }
          ],
          "indexed": false,
          "internalType": "struct ChuckALuck.Bet",
          "name": "bet",
          "type": "tuple"
        },
        {
          "indexed": false,
          "internalType": "uint256",
          "name": "winnings",
          "type": "uint256"
        }
      ],
      "name": "GameComplete",
      "type": "event"
    },
    {
      "anonymous": false,
      "inputs": [
        {
          "components": [
            {
              "internalType": "address",
              "name": "player",
              "type": "address"
            },
            {
              "internalType": "uint64",
              "name": "timestamp",
              "type": "uint64"
            },
            {
              "internalType": "uint32",
              "name": "bet",
              "type": "uint32"
            },
            {
              "internalType": "uint256",
              "name": "bet_amount",
              "type": "uint256"
            }
          ],
          "indexed": false,
          "internalType": "struct ChuckALuck.Bet",
          "name": "bet",
          "type": "tuple"
        }
      ],
      "name": "GameStart",
      "type": "event"
    },
    {
      "anonymous": false,
      "inputs": [
        {
          "indexed": true,
          "internalType": "address",
          "name": "previousOwner",
          "type": "address"
        },
        {
          "indexed": true,
          "internalType": "address",
          "name": "newOwner",
          "type": "address"
        }
      ],
      "name": "OwnershipTransferred",
      "type": "event"
    },
    {
      "inputs": [],
      "name": "owner",
      "outputs": [
        {
          "internalType": "address",
          "name": "",
          "type": "address"
        }
      ],
      "stateMutability": "view",
      "type": "function",
      "constant": true
    },
    {
      "inputs": [
        {
          "internalType": "bytes32",
          "name": "requestId",
          "type": "bytes32"
        },
        {
          "internalType": "uint256",
          "name": "randomness",
          "type": "uint256"
        }
      ],
      "name": "rawFulfillRandomness",
      "outputs": [],
      "stateMutability": "nonpayable",
      "type": "function"
    },
    {
      "inputs": [],
      "name": "renounceOwnership",
      "outputs": [],
      "stateMutability": "nonpayable",
      "type": "function"
    },
    {
      "inputs": [
        {
          "internalType": "address",
          "name": "newOwner",
          "type": "address"
        }
      ],
      "name": "transferOwnership",
      "outputs": [],
      "stateMutability": "nonpayable",
      "type": "function"
    },
    {
      "inputs": [
        {
          "internalType": "uint8",
          "name": "bet",
          "type": "uint8"
        },
        {
          "internalType": "uint248",
          "name": "bet_amount",
          "type": "uint248"
        }
      ],
      "name": "play",
      "outputs": [],
      "stateMutability": "nonpayable",
      "type": "function"
    },
    {
      "inputs": [],
      "name": "withdrawAllLink",
      "outputs": [],
      "stateMutability": "nonpayable",
      "type": "function"
    }
  ],
  "bytecode": "0x60c060405234801561001057600080fd5b506040516200113938038062001139833981016040819052610031916100fb565b6001600160601b0319606086811b821660a05285901b166080528061005b6100563390565b61008d565b600280546001600160a01b0319166001600160a01b039290921691909117905550600391909155600455506101529050565b600180546001600160a01b038381166001600160a01b0319831681179093556040519116919082907f8be0079c531659141344cd1fd0a4f28419497f9722a3daafe3b4186f6b6457e090600090a35050565b80516001600160a01b03811681146100f657600080fd5b919050565b600080600080600060a0868803121561011357600080fd5b61011c866100df565b945061012a602087016100df565b93506040860151925060608601519150610146608087016100df565b90509295509295909350565b60805160601c60a05160601c610f9f6200019a600039600081816104d901526107f001526000818161025b01528181610580015281816105d401526107c10152610f9f6000f3fe608060405234801561001057600080fd5b50600436106100625760003560e01c8063715018a6146100675780638c72e4f1146100715780638da5cb5b1461008457806394985ddd146100a3578063ccf03f3a146100b6578063f2fde38b146100be575b600080fd5b61006f6100d1565b005b61006f61007f366004610d24565b610110565b600154604080516001600160a01b039092168252519081900360200190f35b61006f6100b1366004610ce9565b6104ce565b61006f610554565b61006f6100cc366004610c97565b6106d7565b6001546001600160a01b031633146101045760405162461bcd60e51b81526004016100fb90610e62565b60405180910390fd5b61010e600061076b565b565b806001600160f81b031660008082116101615760405162461bcd60e51b815260206004820152601360248201527224b73b30b634b2103132ba1030b6b7bab73a1760691b60448201526064016100fb565b6002546040516370a0823160e01b81523360048201526001600160f81b0385169182916001600160a01b03909116906370a082319060240160206040518083038186803b1580156101b157600080fd5b505afa1580156101c5573d6000803e3d6000fd5b505050506040513d601f19601f820116820180604052508101906101e99190610d0b565b10156102375760405162461bcd60e51b815260206004820181905260248201527f496e73756666696369656e742066756e647320746f20636f766572206265742e60448201526064016100fb565b600480546040516370a0823160e01b81523092810192909252906001600160a01b037f000000000000000000000000000000000000000000000000000000000000000016906370a082319060240160206040518083038186803b15801561029d57600080fd5b505afa1580156102b1573d6000803e3d6000fd5b505050506040513d601f19601f820116820180604052508101906102d59190610d0b565b10156103415760405162461bcd60e51b815260206004820152603560248201527f4e6f7420656e6f756768204c494e4b202d20686f757365206e6565647320746f60448201527420726566696c6c2074686520636f6e74726163742160581b60648201526084016100fb565b60006103516003546004546107bd565b600254604051630c61411f60e01b81523360048201526001600160f81b03881660248201529192506001600160a01b031690630c61411f90604401600060405180830381600087803b1580156103a657600080fd5b505af11580156103ba573d6000803e3d6000fd5b50506040805160808101825233815267ffffffffffffffff428116602080840191825260ff8d168486019081526001600160f81b038d166060860190815260008a8152600590935291869020945185549351915163ffffffff16600160e01b026001600160e01b0392909516600160a01b026001600160e01b03199094166001600160a01b039190911617929092179190911691909117825551600182015590517f4c4f3717e3a8d55a3cb640d1ec4d64d7b44440487151b33eeef87af44984f74d93506104be925081546001600160a01b038116825260a081901c67ffffffffffffffff16602083015260e01c6040820152600190910154606082015260800190565b60405180910390a1505050505050565b336001600160a01b037f000000000000000000000000000000000000000000000000000000000000000016146105465760405162461bcd60e51b815260206004820152601f60248201527f4f6e6c7920565246436f6f7264696e61746f722063616e2066756c66696c6c0060448201526064016100fb565b6105508282610947565b5050565b6001546001600160a01b0316331461057e5760405162461bcd60e51b81526004016100fb90610e62565b7f00000000000000000000000000000000000000000000000000000000000000006001600160a01b031663a9059cbb6105bf6001546001600160a01b031690565b6040516370a0823160e01b81523060048201527f00000000000000000000000000000000000000000000000000000000000000006001600160a01b0316906370a082319060240160206040518083038186803b15801561061e57600080fd5b505afa158015610632573d6000803e3d6000fd5b505050506040513d601f19601f820116820180604052508101906106569190610d0b565b6040516001600160e01b031960e085901b1681526001600160a01b0390921660048301526024820152604401602060405180830381600087803b15801561069c57600080fd5b505af11580156106b0573d6000803e3d6000fd5b505050506040513d601f19601f820116820180604052508101906106d49190610cc7565b50565b6001546001600160a01b031633146107015760405162461bcd60e51b81526004016100fb90610e62565b6001600160a01b0381166107665760405162461bcd60e51b815260206004820152602660248201527f4f776e61626c653a206e6577206f776e657220697320746865207a65726f206160448201526564647265737360d01b60648201526084016100fb565b6106d4815b600180546001600160a01b038381166001600160a01b0319831681179093556040519116919082907f8be0079c531659141344cd1fd0a4f28419497f9722a3daafe3b4186f6b6457e090600090a35050565b60007f00000000000000000000000000000000000000000000000000000000000000006001600160a01b0316634000aea07f00000000000000000000000000000000000000000000000000000000000000008486600060405160200161082d929190918252602082015260400190565b6040516020818303038152906040526040518463ffffffff1660e01b815260040161085a93929190610d6f565b602060405180830381600087803b15801561087457600080fd5b505af1158015610888573d6000803e3d6000fd5b505050506040513d601f19601f820116820180604052508101906108ac9190610cc7565b5060008381526020818152604080832054815180840188905280830185905230606082015260808082018390528351808303909101815260a090910190925281519183019190912086845292909152610906906001610e97565b600085815260208181526040918290209290925580518083018790528082019390935280518084038201815260609093019052815191012090505b92915050565b600061095882600360066001610b0b565b6000848152600560209081526040808320815160808101835281546001600160a01b0381168252600160a01b810467ffffffffffffffff1694820194909452600160e01b90930463ffffffff16918301919091526001015460608201529192506109c28284610be0565b90508015610a3657600254825160405163bc4b336560e01b81526001600160a01b0391821660048201526024810184905291169063bc4b336590604401600060405180830381600087803b158015610a1957600080fd5b505af1158015610a2d573d6000803e3d6000fd5b50505050610ac9565b6002546001600160a01b031663bc4b3365610a596001546001600160a01b031690565b60148560600151610a6a9190610eaf565b6040516001600160e01b031960e085901b1681526001600160a01b0390921660048301526024820152604401600060405180830381600087803b158015610ab057600080fd5b505af1158015610ac4573d6000803e3d6000fd5b505050505b7fa689fef7034e737b434045d5a58741b70a319cf54c2dbe6cf498428815701be2838383604051610afc93929190610ddb565b60405180910390a15050505050565b60608367ffffffffffffffff811115610b2657610b26610f53565b604051908082528060200260200182016040528015610b4f578160200160208202803683370190505b50905060005b84811015610bd75782848783604051602001610b7b929190918252602082015260400190565b6040516020818303038152906040528051906020012060001c610b9e9190610efd565b610ba89190610e97565b828281518110610bba57610bba610f3d565b602090810291909101015280610bcf81610ee2565b915050610b55565b50949350505050565b600080805b8351811015610c3957846040015163ffffffff16848281518110610c0b57610c0b610f3d565b60200260200101511415610c2757610c24600183610e97565b91505b80610c3181610ee2565b915050610be5565b508060011415610c5b576060840151610c53906002610ec3565b915050610941565b8060021415610c74576060840151610c53906002610ec3565b8060031415610c8d576060840151610c5390600a610ec3565b5060009392505050565b600060208284031215610ca957600080fd5b81356001600160a01b0381168114610cc057600080fd5b9392505050565b600060208284031215610cd957600080fd5b81518015158114610cc057600080fd5b60008060408385031215610cfc57600080fd5b50508035926020909101359150565b600060208284031215610d1d57600080fd5b5051919050565b60008060408385031215610d3757600080fd5b823560ff81168114610d4857600080fd5b915060208301356001600160f81b0381168114610d6457600080fd5b809150509250929050565b60018060a01b038416815260006020848184015260606040840152835180606085015260005b81811015610db157858101830151858201608001528201610d95565b81811115610dc3576000608083870101525b50601f01601f19169290920160800195945050505050565b60c0808252845190820181905260009060209060e0840190828801845b82811015610e1457815184529284019290840190600101610df8565b505086516001600160a01b031685840152509085015167ffffffffffffffff1660408085019190915285015163ffffffff166060808501919091529094015160808301525060a00152919050565b6020808252818101527f4f776e61626c653a2063616c6c6572206973206e6f7420746865206f776e6572604082015260600190565b60008219821115610eaa57610eaa610f11565b500190565b600082610ebe57610ebe610f27565b500490565b6000816000190483118215151615610edd57610edd610f11565b500290565b6000600019821415610ef657610ef6610f11565b5060010190565b600082610f0c57610f0c610f27565b500690565b634e487b7160e01b600052601160045260246000fd5b634e487b7160e01b600052601260045260246000fd5b634e487b7160e01b600052603260045260246000fd5b634e487b7160e01b600052604160045260246000fdfea2646970667358221220211659353324fb22bd1ad8a0f3644373e222e70f848f4049e2073ba055a7150d64736f6c63430008070033",
  "immutableReferences": {
    "73": [
      {
        "length": 32,
        "start": 603
      },
      {
        "length": 32,
        "start": 1408
      },
      {
        "length": 32,
        "start": 1492
      },
      {
        "length": 32,
        "start": 1985
      }
    ],
    "75": [
      {
        "length": 32,
        "start": 1241
      },
      {
        "length": 32,
        "start": 2032
      }
    ]
  },
  "source": "/// @title ChuckALuck 0.2.0\r\n/// @author awphi (https://github.com/awphi)\r\n\r\n// SPDX-License-Identifier: MIT\r\npragma solidity ^0.8.7;\r\n\r\nimport \"@chainlink/contracts/src/v0.8/VRFConsumerBase.sol\";\r\nimport \"@openzeppelin/contracts/access/Ownable.sol\";\r\nimport \"./ICentralBank.sol\";\r\nimport \"./Game.sol\";\r\n\r\ncontract ChuckALuck is VRFConsumerBase, Game {\r\n    bytes32 internal _keyHash;\r\n    uint internal _fee;\r\n\r\n    struct Bet {\r\n        address player;\r\n        uint64 timestamp;\r\n        uint32 bet;\r\n\r\n        uint bet_amount;\r\n    }\r\n    \r\n    mapping (bytes32 => Bet) internal bets;\r\n\r\n    event GameComplete(uint[] rolls, Bet bet, uint winnings);\r\n    event GameStart(Bet bet);\r\n\r\n    constructor(address vrfCoordinator, address linkToken, bytes32 keyHash, uint fee, address bankAddr) VRFConsumerBase(vrfCoordinator, linkToken) Game(bankAddr) {\r\n        _keyHash = keyHash;\r\n        _fee = fee;\r\n    }\r\n\r\n    function _calculate_winnings(Bet memory bet, uint[] memory rolls) internal pure returns (uint) {\r\n        // Count up matching dice rolls\r\n        uint c = 0;\r\n        for(uint i = 0; i < rolls.length; i ++) {\r\n            if(rolls[i] == bet.bet) {\r\n                c += 1;\r\n            }\r\n        }\r\n\r\n        if(c == 1) {\r\n            // 1:1 for 1 match\r\n            return bet.bet_amount * 2;\r\n        } else if(c == 2) {\r\n            // 2:1 for 2 matches\r\n            return bet.bet_amount * 2;\r\n        } else if(c == 3) {\r\n            // 10:1 for 3 matches\r\n            return bet.bet_amount * 10;\r\n        }\r\n        return 0;\r\n    }\r\n    \r\n    function play(uint8 bet, uint248 bet_amount) public minimumBet(bet_amount, 0) requireFunds(bet_amount) {\r\n        require(LINK.balanceOf(address(this)) >= _fee, \"Not enough LINK - house needs to refill the contract!\");\r\n\r\n        bytes32 req = requestRandomness(_keyHash, _fee);\r\n\r\n        _bank.subtractFunds(msg.sender, bet_amount);\r\n        bets[req] = Bet(msg.sender, uint64(block.timestamp), bet, bet_amount);\r\n        emit GameStart(bets[req]);\r\n    }\r\n\r\n    function _expand(uint randomValue, uint n, uint mod, uint add) internal pure returns (uint[] memory expandedValues) {\r\n        expandedValues = new uint[](n);\r\n        for (uint i = 0; i < n; i++) {\r\n            expandedValues[i] = (uint(keccak256(abi.encode(randomValue, i))) % mod) + add;\r\n        }\r\n        return expandedValues;\r\n    }\r\n\r\n    function fulfillRandomness(bytes32 requestId, uint randomness) internal override {\r\n        // Expand rolls to 3 values bounded [1, 6]\r\n        uint[] memory rolls = _expand(randomness, 3, 6, 1);\r\n        Bet memory bet = bets[requestId];\r\n        uint winnings = _calculate_winnings(bet, rolls);\r\n\r\n        if(winnings > 0) {\r\n            _bank.addFunds(bet.player, winnings);\r\n        } else {\r\n            /** @dev When user loses, house will skim 5% - (the rough average expected loss of each bet with the odds of 2:1, 3:1, 10:1)\r\n                This can be used to pay for more LINK, hosting fees or just treated as profit - it up to the owner. The rest of the loss remains\r\n                in the contract to pay off future winners. In the long-term, with enough initial capital this is a stable system.\r\n            **/\r\n            _bank.addFunds(owner(), bet.bet_amount / 20);\r\n        }\r\n        \r\n        emit GameComplete(rolls, bet, winnings);\r\n    }\r\n\r\n    function withdrawAllLink() public onlyOwner {\r\n        LINK.transfer(payable(owner()), LINK.balanceOf(address(this)));\r\n    }\r\n}\r\n",
  "sourcePath": "F:\\1Repo\\glass-casino\\contracts\\ChuckALuck.sol",
  "compiler": {
    "name": "solc",
    "version": "0.8.7+commit.e28d00a7.Emscripten.clang"
  },
  "schemaVersion": "3.4.3",
  "updatedAt": "2022-03-08T14:27:24.143Z",
  "networkType": "ethereum",
  "devdoc": {
    "kind": "dev",
    "methods": {
      "owner()": {
        "details": "Returns the address of the current owner."
      },
      "renounceOwnership()": {
        "details": "Leaves the contract without owner. It will not be possible to call `onlyOwner` functions anymore. Can only be called by the current owner. NOTE: Renouncing ownership will leave the contract without an owner, thereby removing any functionality that is only available to the owner."
      },
      "transferOwnership(address)": {
        "details": "Transfers ownership of the contract to a new account (`newOwner`). Can only be called by the current owner."
      }
    },
    "version": 1
  },
  "userdoc": {
    "kind": "user",
    "methods": {},
    "version": 1
  }
}