{
  "contractName": "ChuckALuck",
  "abi": [
    {
      "inputs": [
        {
          "internalType": "address",
          "name": "vrfCoordinator",
          "type": "address"
        },
        {
          "internalType": "address",
          "name": "linkToken",
          "type": "address"
        },
        {
          "internalType": "bytes32",
          "name": "keyHash",
          "type": "bytes32"
        },
        {
          "internalType": "uint256",
          "name": "fee",
          "type": "uint256"
        },
        {
          "internalType": "address",
          "name": "bankAddr",
          "type": "address"
        }
      ],
      "stateMutability": "nonpayable",
      "type": "constructor"
    },
    {
      "anonymous": false,
      "inputs": [
        {
          "indexed": false,
          "internalType": "uint256[]",
          "name": "rolls",
          "type": "uint256[]"
        },
        {
          "components": [
            {
              "internalType": "address",
              "name": "player",
              "type": "address"
            },
            {
              "internalType": "uint64",
              "name": "timestamp",
              "type": "uint64"
            },
            {
              "internalType": "uint32",
              "name": "bet",
              "type": "uint32"
            },
            {
              "internalType": "uint256",
              "name": "bet_amount",
              "type": "uint256"
            }
          ],
          "indexed": false,
          "internalType": "struct ChuckALuck.Bet",
          "name": "bet",
          "type": "tuple"
        }
      ],
      "name": "GameComplete",
      "type": "event"
    },
    {
      "anonymous": false,
      "inputs": [
        {
          "components": [
            {
              "internalType": "address",
              "name": "player",
              "type": "address"
            },
            {
              "internalType": "uint64",
              "name": "timestamp",
              "type": "uint64"
            },
            {
              "internalType": "uint32",
              "name": "bet",
              "type": "uint32"
            },
            {
              "internalType": "uint256",
              "name": "bet_amount",
              "type": "uint256"
            }
          ],
          "indexed": false,
          "internalType": "struct ChuckALuck.Bet",
          "name": "bet",
          "type": "tuple"
        }
      ],
      "name": "GameStart",
      "type": "event"
    },
    {
      "anonymous": false,
      "inputs": [
        {
          "indexed": true,
          "internalType": "address",
          "name": "previousOwner",
          "type": "address"
        },
        {
          "indexed": true,
          "internalType": "address",
          "name": "newOwner",
          "type": "address"
        }
      ],
      "name": "OwnershipTransferred",
      "type": "event"
    },
    {
      "inputs": [],
      "name": "owner",
      "outputs": [
        {
          "internalType": "address",
          "name": "",
          "type": "address"
        }
      ],
      "stateMutability": "view",
      "type": "function",
      "constant": true
    },
    {
      "inputs": [
        {
          "internalType": "bytes32",
          "name": "requestId",
          "type": "bytes32"
        },
        {
          "internalType": "uint256",
          "name": "randomness",
          "type": "uint256"
        }
      ],
      "name": "rawFulfillRandomness",
      "outputs": [],
      "stateMutability": "nonpayable",
      "type": "function"
    },
    {
      "inputs": [],
      "name": "renounceOwnership",
      "outputs": [],
      "stateMutability": "nonpayable",
      "type": "function"
    },
    {
      "inputs": [
        {
          "internalType": "address",
          "name": "newOwner",
          "type": "address"
        }
      ],
      "name": "transferOwnership",
      "outputs": [],
      "stateMutability": "nonpayable",
      "type": "function"
    },
    {
      "inputs": [
        {
          "components": [
            {
              "internalType": "address",
              "name": "player",
              "type": "address"
            },
            {
              "internalType": "uint64",
              "name": "timestamp",
              "type": "uint64"
            },
            {
              "internalType": "uint32",
              "name": "bet",
              "type": "uint32"
            },
            {
              "internalType": "uint256",
              "name": "bet_amount",
              "type": "uint256"
            }
          ],
          "internalType": "struct ChuckALuck.Bet",
          "name": "bet",
          "type": "tuple"
        },
        {
          "internalType": "uint256[]",
          "name": "rolls",
          "type": "uint256[]"
        }
      ],
      "name": "calculate_winnings",
      "outputs": [
        {
          "internalType": "uint256",
          "name": "",
          "type": "uint256"
        }
      ],
      "stateMutability": "pure",
      "type": "function",
      "constant": true
    },
    {
      "inputs": [
        {
          "internalType": "uint8",
          "name": "bet",
          "type": "uint8"
        },
        {
          "internalType": "uint248",
          "name": "bet_amount",
          "type": "uint248"
        }
      ],
      "name": "play",
      "outputs": [
        {
          "internalType": "bytes32",
          "name": "",
          "type": "bytes32"
        }
      ],
      "stateMutability": "nonpayable",
      "type": "function"
    },
    {
      "inputs": [
        {
          "internalType": "uint256",
          "name": "randomValue",
          "type": "uint256"
        },
        {
          "internalType": "uint256",
          "name": "n",
          "type": "uint256"
        },
        {
          "internalType": "uint256",
          "name": "mod",
          "type": "uint256"
        },
        {
          "internalType": "uint256",
          "name": "add",
          "type": "uint256"
        }
      ],
      "name": "expand",
      "outputs": [
        {
          "internalType": "uint256[]",
          "name": "expandedValues",
          "type": "uint256[]"
        }
      ],
      "stateMutability": "pure",
      "type": "function",
      "constant": true
    },
    {
      "inputs": [],
      "name": "withdrawAllLink",
      "outputs": [],
      "stateMutability": "nonpayable",
      "type": "function"
    }
  ],
  "bytecode": "0x60c06040523480156200001157600080fd5b506040516200138d3803806200138d833981016040819052620000349162000103565b6001600160601b0319606086811b821660a05285901b1660805280620000616200005b3390565b62000094565b600280546001600160a01b0319166001600160a01b03929092169190911790555060039190915560045550620001619050565b600180546001600160a01b038381166001600160a01b0319831681179093556040519116919082907f8be0079c531659141344cd1fd0a4f28419497f9722a3daafe3b4186f6b6457e090600090a35050565b80516001600160a01b0381168114620000fe57600080fd5b919050565b600080600080600060a086880312156200011c57600080fd5b6200012786620000e6565b94506200013760208701620000e6565b935060408601519250606086015191506200015560808701620000e6565b90509295509295909350565b60805160601c60a05160601c6111e4620001a9600039600081816105fe01526109ea01526000818161037e0152818161077a015281816107ce01526109bb01526111e46000f3fe608060405234801561001057600080fd5b50600436106100885760003560e01c806394985ddd1161005b57806394985ddd146100eb578063b74a4645146100fe578063ccf03f3a1461011e578063f2fde38b1461012657600080fd5b80633f72f45b1461008d578063715018a6146100b35780638c72e4f1146100bd5780638da5cb5b146100d0575b600080fd5b6100a061009b366004610e25565b610139565b6040519081526020015b60405180910390f35b6100bb6101f2565b005b6100a06100cb366004610f20565b610231565b6001546040516001600160a01b0390911681526020016100aa565b6100bb6100f9366004610e03565b6105f3565b61011161010c366004610eee565b610679565b6040516100aa9190611012565b6100bb61074e565b6100bb610134366004610dbf565b6108d1565b600080805b835181101561019257846040015163ffffffff1684828151811061016457610164611182565b602002602001015114156101805761017d6001836110dc565b91505b8061018a81611127565b91505061013e565b5080600114156101b45760608401516101ac906002611108565b9150506101ec565b80600214156101cd5760608401516101ac906002611108565b80600314156101e65760608401516101ac90600a611108565b60009150505b92915050565b6001546001600160a01b031633146102255760405162461bcd60e51b815260040161021c9061107e565b60405180910390fd5b61022f6000610965565b565b6000816001600160f81b031660008082116102845760405162461bcd60e51b815260206004820152601360248201527224b73b30b634b2103132ba1030b6b7bab73a1760691b604482015260640161021c565b6002546040516370a0823160e01b81523360048201526001600160f81b0386169182916001600160a01b03909116906370a082319060240160206040518083038186803b1580156102d457600080fd5b505afa1580156102e8573d6000803e3d6000fd5b505050506040513d601f19601f8201168201806040525081019061030c9190610ed5565b101561035a5760405162461bcd60e51b815260206004820181905260248201527f496e73756666696369656e742066756e647320746f20636f766572206265742e604482015260640161021c565b600480546040516370a0823160e01b81523092810192909252906001600160a01b037f000000000000000000000000000000000000000000000000000000000000000016906370a082319060240160206040518083038186803b1580156103c057600080fd5b505afa1580156103d4573d6000803e3d6000fd5b505050506040513d601f19601f820116820180604052508101906103f89190610ed5565b10156104645760405162461bcd60e51b815260206004820152603560248201527f4e6f7420656e6f756768204c494e4b202d20686f757365206e6565647320746f60448201527420726566696c6c2074686520636f6e74726163742160581b606482015260840161021c565b60006104746003546004546109b7565b600254604051630c61411f60e01b81523360048201526001600160f81b03891660248201529192506001600160a01b031690630c61411f90604401600060405180830381600087803b1580156104c957600080fd5b505af11580156104dd573d6000803e3d6000fd5b50506040805160808101825233815267ffffffffffffffff428116602080840191825260ff8e168486019081526001600160f81b038e166060860190815260008a8152600590935291869020945185549351915163ffffffff16600160e01b026001600160e01b0392909516600160a01b026001600160e01b03199094166001600160a01b039190911617929092179190911691909117825551600182015590517f4c4f3717e3a8d55a3cb640d1ec4d64d7b44440487151b33eeef87af44984f74d93506105e1925081546001600160a01b038116825260a081901c67ffffffffffffffff16602083015260e01c6040820152600190910154606082015260800190565b60405180910390a19695505050505050565b336001600160a01b037f0000000000000000000000000000000000000000000000000000000000000000161461066b5760405162461bcd60e51b815260206004820152601f60248201527f4f6e6c7920565246436f6f7264696e61746f722063616e2066756c66696c6c00604482015260640161021c565b6106758282610b40565b5050565b60608367ffffffffffffffff81111561069457610694611198565b6040519080825280602002602001820160405280156106bd578160200160208202803683370190505b50905060005b8481101561074557828487836040516020016106e9929190918252602082015260400190565b6040516020818303038152906040528051906020012060001c61070c9190611142565b61071691906110dc565b82828151811061072857610728611182565b60209081029190910101528061073d81611127565b9150506106c3565b50949350505050565b6001546001600160a01b031633146107785760405162461bcd60e51b815260040161021c9061107e565b7f00000000000000000000000000000000000000000000000000000000000000006001600160a01b031663a9059cbb6107b96001546001600160a01b031690565b6040516370a0823160e01b81523060048201527f00000000000000000000000000000000000000000000000000000000000000006001600160a01b0316906370a082319060240160206040518083038186803b15801561081857600080fd5b505afa15801561082c573d6000803e3d6000fd5b505050506040513d601f19601f820116820180604052508101906108509190610ed5565b6040516001600160e01b031960e085901b1681526001600160a01b0390921660048301526024820152604401602060405180830381600087803b15801561089657600080fd5b505af11580156108aa573d6000803e3d6000fd5b505050506040513d601f19601f820116820180604052508101906108ce9190610de1565b50565b6001546001600160a01b031633146108fb5760405162461bcd60e51b815260040161021c9061107e565b6001600160a01b0381166109605760405162461bcd60e51b815260206004820152602660248201527f4f776e61626c653a206e6577206f776e657220697320746865207a65726f206160448201526564647265737360d01b606482015260840161021c565b6108ce815b600180546001600160a01b038381166001600160a01b0319831681179093556040519116919082907f8be0079c531659141344cd1fd0a4f28419497f9722a3daafe3b4186f6b6457e090600090a35050565b60007f00000000000000000000000000000000000000000000000000000000000000006001600160a01b0316634000aea07f000000000000000000000000000000000000000000000000000000000000000084866000604051602001610a27929190918252602082015260400190565b6040516020818303038152906040526040518463ffffffff1660e01b8152600401610a5493929190610fa6565b602060405180830381600087803b158015610a6e57600080fd5b505af1158015610a82573d6000803e3d6000fd5b505050506040513d601f19601f82011682018060405250810190610aa69190610de1565b5060008381526020818152604080832054815180840188905280830185905230606082015260808082018390528351808303909101815260a090910190925281519183019190912086845292909152610b009060016110dc565b6000858152602081815260409182902092909255805180830187905280820184905281518082038301815260609091019091528051910120949350505050565b6000610b5182600360066001610679565b6000848152600560209081526040808320815160808101835281546001600160a01b0381168252600160a01b810467ffffffffffffffff1694820194909452600160e01b90930463ffffffff1691830191909152600101546060820152919250610bbb8284610139565b90508015610c2f57600254825160405163bc4b336560e01b81526001600160a01b0391821660048201526024810184905291169063bc4b336590604401600060405180830381600087803b158015610c1257600080fd5b505af1158015610c26573d6000803e3d6000fd5b50505050610cc2565b6002546001600160a01b031663bc4b3365610c526001546001600160a01b031690565b60148560600151610c6391906110f4565b6040516001600160e01b031960e085901b1681526001600160a01b0390921660048301526024820152604401600060405180830381600087803b158015610ca957600080fd5b505af1158015610cbd573d6000803e3d6000fd5b505050505b7f3697052803ff044b6db001dfddd950c73fb7a2ea595339cc1ead028bfdf710f78383604051610cf3929190611025565b60405180910390a15050505050565b80356001600160a01b0381168114610d1957600080fd5b919050565b600082601f830112610d2f57600080fd5b8135602067ffffffffffffffff80831115610d4c57610d4c611198565b8260051b604051601f19603f83011681018181108482111715610d7157610d71611198565b60405284815283810192508684018288018501891015610d9057600080fd5b600092505b85831015610db3578035845292840192600192909201918401610d95565b50979650505050505050565b600060208284031215610dd157600080fd5b610dda82610d02565b9392505050565b600060208284031215610df357600080fd5b81518015158114610dda57600080fd5b60008060408385031215610e1657600080fd5b50508035926020909101359150565b60008082840360a0811215610e3957600080fd5b6080811215610e4757600080fd5b50610e506110b3565b610e5984610d02565b8152602084013567ffffffffffffffff8082168214610e7757600080fd5b8160208401526040860135915063ffffffff82168214610e9657600080fd5b816040840152606086013560608401528294506080860135925080831115610ebd57600080fd5b5050610ecb85828601610d1e565b9150509250929050565b600060208284031215610ee757600080fd5b5051919050565b60008060008060808587031215610f0457600080fd5b5050823594602084013594506040840135936060013592509050565b60008060408385031215610f3357600080fd5b823560ff81168114610f4457600080fd5b915060208301356001600160f81b0381168114610f6057600080fd5b809150509250929050565b600081518084526020808501945080840160005b83811015610f9b57815187529582019590820190600101610f7f565b509495945050505050565b60018060a01b038416815260006020848184015260606040840152835180606085015260005b81811015610fe857858101830151858201608001528201610fcc565b81811115610ffa576000608083870101525b50601f01601f19169290920160800195945050505050565b602081526000610dda6020830184610f6b565b60a08152600061103860a0830185610f6b565b905060018060a01b03835116602083015267ffffffffffffffff602084015116604083015263ffffffff6040840151166060830152606083015160808301529392505050565b6020808252818101527f4f776e61626c653a2063616c6c6572206973206e6f7420746865206f776e6572604082015260600190565b6040516080810167ffffffffffffffff811182821017156110d6576110d6611198565b60405290565b600082198211156110ef576110ef611156565b500190565b6000826111035761110361116c565b500490565b600081600019048311821515161561112257611122611156565b500290565b600060001982141561113b5761113b611156565b5060010190565b6000826111515761115161116c565b500690565b634e487b7160e01b600052601160045260246000fd5b634e487b7160e01b600052601260045260246000fd5b634e487b7160e01b600052603260045260246000fd5b634e487b7160e01b600052604160045260246000fdfea26469706673582212203c85cf9c019c1567c727aea1ed4c23a8ee2f01c849d4c5b520f64e003cdd133764736f6c63430008070033",
  "immutableReferences": {
    "73": [
      {
        "length": 32,
        "start": 894
      },
      {
        "length": 32,
        "start": 1914
      },
      {
        "length": 32,
        "start": 1998
      },
      {
        "length": 32,
        "start": 2491
      }
    ],
    "75": [
      {
        "length": 32,
        "start": 1534
      },
      {
        "length": 32,
        "start": 2538
      }
    ]
  },
  "source": "/// @title ChuckALuck 0.2.0\r\n/// @author awphi (https://github.com/awphi)\r\n\r\n// SPDX-License-Identifier: MIT\r\npragma solidity ^0.8.7;\r\n\r\nimport \"@chainlink/contracts/src/v0.8/VRFConsumerBase.sol\";\r\nimport \"@openzeppelin/contracts/access/Ownable.sol\";\r\nimport \"./ICentralBank.sol\";\r\nimport \"./Game.sol\";\r\n\r\ncontract ChuckALuck is VRFConsumerBase, Game {\r\n    bytes32 internal _keyHash;\r\n    uint internal _fee;\r\n\r\n    struct Bet {\r\n        address player;\r\n        uint64 timestamp;\r\n        uint32 bet;\r\n\r\n        uint bet_amount;\r\n    }\r\n    \r\n    mapping (bytes32 => Bet) internal bets;\r\n\r\n    event GameComplete(uint[] rolls, Bet bet);\r\n    event GameStart(Bet bet);\r\n\r\n    constructor(address vrfCoordinator, address linkToken, bytes32 keyHash, uint fee, address bankAddr) VRFConsumerBase(vrfCoordinator, linkToken) Game(bankAddr) {\r\n        _keyHash = keyHash;\r\n        _fee = fee;\r\n    }\r\n\r\n    function calculate_winnings(Bet memory bet, uint[] memory rolls) public pure returns (uint) {\r\n        // Count up matching dice rolls\r\n        uint c = 0;\r\n        for(uint i = 0; i < rolls.length; i ++) {\r\n            if(rolls[i] == bet.bet) {\r\n                c += 1;\r\n            }\r\n        }\r\n\r\n        if(c == 1) {\r\n            // 1:1 for 1 match\r\n            return bet.bet_amount * 2;\r\n        } else if(c == 2) {\r\n            // 2:1 for 2 matches\r\n            return bet.bet_amount * 2;\r\n        } else if(c == 3) {\r\n            // 10:1 for 3 matches\r\n            return bet.bet_amount * 10;\r\n        }\r\n        return 0;\r\n    }\r\n    \r\n    function play(uint8 bet, uint248 bet_amount) public minimumBet(bet_amount, 0) requireFunds(bet_amount) returns (bytes32) {\r\n        require(LINK.balanceOf(address(this)) >= _fee, \"Not enough LINK - house needs to refill the contract!\");\r\n\r\n        bytes32 req = requestRandomness(_keyHash, _fee);\r\n\r\n        _bank.subtractFunds(msg.sender, bet_amount);\r\n        bets[req] = Bet(msg.sender, uint64(block.timestamp), bet, bet_amount);\r\n        emit GameStart(bets[req]);\r\n        return req;\r\n    }\r\n\r\n    function expand(uint randomValue, uint n, uint mod, uint add) public pure returns (uint[] memory expandedValues) {\r\n        expandedValues = new uint[](n);\r\n        for (uint i = 0; i < n; i++) {\r\n            expandedValues[i] = (uint(keccak256(abi.encode(randomValue, i))) % mod) + add;\r\n        }\r\n        return expandedValues;\r\n    }\r\n\r\n    function fulfillRandomness(bytes32 requestId, uint randomness) internal override {\r\n        // Expand rolls to 3 values bounded [1, 6]\r\n        uint[] memory rolls = expand(randomness, 3, 6, 1);\r\n        Bet memory bet = bets[requestId];\r\n        uint winnings = calculate_winnings(bet, rolls);\r\n\r\n        if(winnings > 0) {\r\n            _bank.addFunds(bet.player, winnings);\r\n        } else {\r\n            /** @dev When user loses, house will skim 5% - (the rough average expected loss of each bet with the odds of 2:1, 3:1, 10:1)\r\n                This can be used to pay for more LINK, hosting fees or just treated as profit - it up to the owner. The rest of the loss remains\r\n                in the contract to pay off future winners. In the long-term, with enough initial capital this is a stable system.\r\n            **/\r\n            _bank.addFunds(owner(), bet.bet_amount / 20);\r\n        }\r\n        \r\n        emit GameComplete(rolls, bet);\r\n    }\r\n\r\n    function withdrawAllLink() public onlyOwner {\r\n        LINK.transfer(payable(owner()), LINK.balanceOf(address(this)));\r\n    }\r\n}\r\n",
  "sourcePath": "F:\\1Repo\\glass-casino\\contracts\\ChuckALuck.sol",
  "compiler": {
    "name": "solc",
    "version": "0.8.7+commit.e28d00a7.Emscripten.clang"
  },
  "schemaVersion": "3.4.3",
  "updatedAt": "2022-02-22T19:05:34.296Z",
  "networkType": "ethereum",
  "devdoc": {
    "kind": "dev",
    "methods": {
      "owner()": {
        "details": "Returns the address of the current owner."
      },
      "renounceOwnership()": {
        "details": "Leaves the contract without owner. It will not be possible to call `onlyOwner` functions anymore. Can only be called by the current owner. NOTE: Renouncing ownership will leave the contract without an owner, thereby removing any functionality that is only available to the owner."
      },
      "transferOwnership(address)": {
        "details": "Transfers ownership of the contract to a new account (`newOwner`). Can only be called by the current owner."
      }
    },
    "version": 1
  },
  "userdoc": {
    "kind": "user",
    "methods": {},
    "version": 1
  }
}