{
  "contractName": "ChuckALuck",
  "abi": [
    {
      "inputs": [
        {
          "internalType": "address",
          "name": "vrfCoordinator",
          "type": "address"
        },
        {
          "internalType": "address",
          "name": "linkToken",
          "type": "address"
        },
        {
          "internalType": "bytes32",
          "name": "keyHash",
          "type": "bytes32"
        },
        {
          "internalType": "uint256",
          "name": "fee",
          "type": "uint256"
        }
      ],
      "stateMutability": "nonpayable",
      "type": "constructor"
    },
    {
      "anonymous": false,
      "inputs": [
        {
          "indexed": false,
          "internalType": "uint256[]",
          "name": "rolls",
          "type": "uint256[]"
        },
        {
          "components": [
            {
              "internalType": "address",
              "name": "player",
              "type": "address"
            },
            {
              "internalType": "uint64",
              "name": "timestamp",
              "type": "uint64"
            },
            {
              "internalType": "uint32",
              "name": "bet",
              "type": "uint32"
            },
            {
              "internalType": "uint256",
              "name": "bet_amount",
              "type": "uint256"
            }
          ],
          "indexed": false,
          "internalType": "struct ChuckALuck.Bet",
          "name": "bet",
          "type": "tuple"
        }
      ],
      "name": "GameComplete",
      "type": "event"
    },
    {
      "anonymous": false,
      "inputs": [
        {
          "components": [
            {
              "internalType": "address",
              "name": "player",
              "type": "address"
            },
            {
              "internalType": "uint64",
              "name": "timestamp",
              "type": "uint64"
            },
            {
              "internalType": "uint32",
              "name": "bet",
              "type": "uint32"
            },
            {
              "internalType": "uint256",
              "name": "bet_amount",
              "type": "uint256"
            }
          ],
          "indexed": false,
          "internalType": "struct ChuckALuck.Bet",
          "name": "bet",
          "type": "tuple"
        }
      ],
      "name": "GameStart",
      "type": "event"
    },
    {
      "anonymous": false,
      "inputs": [
        {
          "indexed": true,
          "internalType": "address",
          "name": "previousOwner",
          "type": "address"
        },
        {
          "indexed": true,
          "internalType": "address",
          "name": "newOwner",
          "type": "address"
        }
      ],
      "name": "OwnershipTransferred",
      "type": "event"
    },
    {
      "inputs": [
        {
          "internalType": "address",
          "name": "add",
          "type": "address"
        }
      ],
      "name": "balanceOf",
      "outputs": [
        {
          "internalType": "uint256",
          "name": "",
          "type": "uint256"
        }
      ],
      "stateMutability": "view",
      "type": "function",
      "constant": true
    },
    {
      "inputs": [],
      "name": "deposit",
      "outputs": [],
      "stateMutability": "payable",
      "type": "function",
      "payable": true
    },
    {
      "inputs": [],
      "name": "owner",
      "outputs": [
        {
          "internalType": "address",
          "name": "",
          "type": "address"
        }
      ],
      "stateMutability": "view",
      "type": "function",
      "constant": true
    },
    {
      "inputs": [
        {
          "internalType": "bytes32",
          "name": "requestId",
          "type": "bytes32"
        },
        {
          "internalType": "uint256",
          "name": "randomness",
          "type": "uint256"
        }
      ],
      "name": "rawFulfillRandomness",
      "outputs": [],
      "stateMutability": "nonpayable",
      "type": "function"
    },
    {
      "inputs": [],
      "name": "renounceOwnership",
      "outputs": [],
      "stateMutability": "nonpayable",
      "type": "function"
    },
    {
      "inputs": [
        {
          "internalType": "address",
          "name": "newOwner",
          "type": "address"
        }
      ],
      "name": "transferOwnership",
      "outputs": [],
      "stateMutability": "nonpayable",
      "type": "function"
    },
    {
      "inputs": [
        {
          "internalType": "uint256",
          "name": "amount",
          "type": "uint256"
        }
      ],
      "name": "withdraw",
      "outputs": [],
      "stateMutability": "nonpayable",
      "type": "function"
    },
    {
      "inputs": [
        {
          "components": [
            {
              "internalType": "address",
              "name": "player",
              "type": "address"
            },
            {
              "internalType": "uint64",
              "name": "timestamp",
              "type": "uint64"
            },
            {
              "internalType": "uint32",
              "name": "bet",
              "type": "uint32"
            },
            {
              "internalType": "uint256",
              "name": "bet_amount",
              "type": "uint256"
            }
          ],
          "internalType": "struct ChuckALuck.Bet",
          "name": "bet",
          "type": "tuple"
        },
        {
          "internalType": "uint256[]",
          "name": "rolls",
          "type": "uint256[]"
        }
      ],
      "name": "calculate_winnings",
      "outputs": [
        {
          "internalType": "uint256",
          "name": "",
          "type": "uint256"
        }
      ],
      "stateMutability": "pure",
      "type": "function",
      "constant": true
    },
    {
      "inputs": [
        {
          "internalType": "uint8",
          "name": "bet",
          "type": "uint8"
        },
        {
          "internalType": "uint248",
          "name": "bet_amount",
          "type": "uint248"
        }
      ],
      "name": "play",
      "outputs": [
        {
          "internalType": "bytes32",
          "name": "",
          "type": "bytes32"
        }
      ],
      "stateMutability": "nonpayable",
      "type": "function"
    },
    {
      "inputs": [
        {
          "internalType": "uint256",
          "name": "randomValue",
          "type": "uint256"
        },
        {
          "internalType": "uint256",
          "name": "n",
          "type": "uint256"
        },
        {
          "internalType": "uint256",
          "name": "mod",
          "type": "uint256"
        },
        {
          "internalType": "uint256",
          "name": "add",
          "type": "uint256"
        }
      ],
      "name": "expand",
      "outputs": [
        {
          "internalType": "uint256[]",
          "name": "expandedValues",
          "type": "uint256[]"
        }
      ],
      "stateMutability": "pure",
      "type": "function",
      "constant": true
    },
    {
      "inputs": [],
      "name": "withdrawAllLink",
      "outputs": [],
      "stateMutability": "nonpayable",
      "type": "function"
    }
  ],
  "bytecode": "0x60c06040523480156200001157600080fd5b50604051620014ee380380620014ee8339810160408190526200003491620000e1565b6001600160601b0319606085811b821660a05284901b16608052620000606200005a3390565b62000072565b60039190915560045550620001299050565b600180546001600160a01b038381166001600160a01b0319831681179093556040519116919082907f8be0079c531659141344cd1fd0a4f28419497f9722a3daafe3b4186f6b6457e090600090a35050565b80516001600160a01b0381168114620000dc57600080fd5b919050565b60008060008060808587031215620000f857600080fd5b6200010385620000c4565b93506200011360208601620000c4565b6040860151606090960151949790965092505050565b60805160601c60a05160601c61137d62000171600039600081816107640152610bc20152600081816104cb015281816108dc015281816109300152610b93015261137d6000f3fe60806040526004361061009c5760003560e01c80638da5cb5b116100645780638da5cb5b1461016157806394985ddd14610189578063b74a4645146101a9578063ccf03f3a146101d6578063d0e30db0146101eb578063f2fde38b146101f357600080fd5b80632e1a7d4d146100a15780633f72f45b146100c357806370a08231146100f6578063715018a61461012c5780638c72e4f114610141575b600080fd5b3480156100ad57600080fd5b506100c16100bc36600461103e565b610213565b005b3480156100cf57600080fd5b506100e36100de366004610f8e565b6103be565b6040519081526020015b60405180910390f35b34801561010257600080fd5b506100e3610111366004610f28565b6001600160a01b031660009081526002602052604090205490565b34801561013857600080fd5b506100c1610477565b34801561014d57600080fd5b506100e361015c3660046110a2565b6104ad565b34801561016d57600080fd5b506001546040516001600160a01b0390911681526020016100ed565b34801561019557600080fd5b506100c16101a4366004610f6c565b610759565b3480156101b557600080fd5b506101c96101c4366004611070565b6107db565b6040516100ed9190611194565b3480156101e257600080fd5b506100c16108b0565b6100c1610a33565b3480156101ff57600080fd5b506100c161020e366004610f28565b610aa9565b600081116102745760405162461bcd60e51b8152602060048201526024808201527f496e76616c6964207769746864726177616c20616d6f756e74207265717565736044820152633a32b21760e11b60648201526084015b60405180910390fd5b336000908152600260205260409020548111156102e55760405162461bcd60e51b815260206004820152602960248201527f496e73756666696369656e742066756e647320746f2070726f636573732077696044820152683a34323930bbb0b61760b91b606482015260840161026b565b804710156103695760405162461bcd60e51b8152602060048201526044602482018190527f42616e6b2068617320696e73756666696369656e742066756e647320746f2070908201527f726f63657373207769746864726177616c202d2074727920616761696e206c616064820152633a32b91760e11b608482015260a40161026b565b33600090815260026020526040812080548392906103889084906112a9565b9091555050604051339082156108fc029083906000818181858888f193505050501580156103ba573d6000803e3d6000fd5b5050565b600080805b835181101561041757846040015163ffffffff168482815181106103e9576103e961131b565b602002602001015114156104055761040260018361125e565b91505b8061040f816112c0565b9150506103c3565b50806001141561043957606084015161043190600261128a565b915050610471565b806002141561045257606084015161043190600261128a565b806003141561046b57606084015161043190600a61128a565b60009150505b92915050565b6001546001600160a01b031633146104a15760405162461bcd60e51b815260040161026b90611200565b6104ab6000610b3d565b565b600480546040516370a0823160e01b815230928101929092526000917f00000000000000000000000000000000000000000000000000000000000000006001600160a01b0316906370a082319060240160206040518083038186803b15801561051557600080fd5b505afa158015610529573d6000803e3d6000fd5b505050506040513d601f19601f8201168201806040525081019061054d9190611057565b10156105b95760405162461bcd60e51b815260206004820152603560248201527f4e6f7420656e6f756768204c494e4b202d20686f757365206e6565647320746f60448201527420726566696c6c2074686520636f6e74726163742160581b606482015260840161026b565b6000826001600160f81b0316116106085760405162461bcd60e51b815260206004820152601360248201527224b73b30b634b2103132ba1030b6b7bab73a1760691b604482015260640161026b565b6000610618600354600454610b8f565b33600090815260026020526040812080549293506001600160f81b038616929091906106459084906112a9565b90915550506040805160808101825233815267ffffffffffffffff428116602080840191825260ff89168486019081526001600160f81b038916606086019081526000888152600590935291869020945185549351915163ffffffff16600160e01b026001600160e01b0392909516600160a01b026001600160e01b03199094166001600160a01b039190911617929092179190911691909117825551600182015590517f4c4f3717e3a8d55a3cb640d1ec4d64d7b44440487151b33eeef87af44984f74d9161074a9181546001600160a01b038116825260a081901c67ffffffffffffffff16602083015260e01c6040820152600190910154606082015260800190565b60405180910390a19392505050565b336001600160a01b037f000000000000000000000000000000000000000000000000000000000000000016146107d15760405162461bcd60e51b815260206004820152601f60248201527f4f6e6c7920565246436f6f7264696e61746f722063616e2066756c66696c6c00604482015260640161026b565b6103ba8282610d18565b60608367ffffffffffffffff8111156107f6576107f6611331565b60405190808252806020026020018201604052801561081f578160200160208202803683370190505b50905060005b848110156108a7578284878360405160200161084b929190918252602082015260400190565b6040516020818303038152906040528051906020012060001c61086e91906112db565b610878919061125e565b82828151811061088a5761088a61131b565b60209081029190910101528061089f816112c0565b915050610825565b50949350505050565b6001546001600160a01b031633146108da5760405162461bcd60e51b815260040161026b90611200565b7f00000000000000000000000000000000000000000000000000000000000000006001600160a01b031663a9059cbb61091b6001546001600160a01b031690565b6040516370a0823160e01b81523060048201527f00000000000000000000000000000000000000000000000000000000000000006001600160a01b0316906370a082319060240160206040518083038186803b15801561097a57600080fd5b505afa15801561098e573d6000803e3d6000fd5b505050506040513d601f19601f820116820180604052508101906109b29190611057565b6040516001600160e01b031960e085901b1681526001600160a01b0390921660048301526024820152604401602060405180830381600087803b1580156109f857600080fd5b505af1158015610a0c573d6000803e3d6000fd5b505050506040513d601f19601f82011682018060405250810190610a309190610f4a565b50565b60003411610a835760405162461bcd60e51b815260206004820152601760248201527f496e76616c6964206465706f73697420616d6f756e742e000000000000000000604482015260640161026b565b3360009081526002602052604081208054349290610aa290849061125e565b9091555050565b6001546001600160a01b03163314610ad35760405162461bcd60e51b815260040161026b90611200565b6001600160a01b038116610b385760405162461bcd60e51b815260206004820152602660248201527f4f776e61626c653a206e6577206f776e657220697320746865207a65726f206160448201526564647265737360d01b606482015260840161026b565b610a30815b600180546001600160a01b038381166001600160a01b0319831681179093556040519116919082907f8be0079c531659141344cd1fd0a4f28419497f9722a3daafe3b4186f6b6457e090600090a35050565b60007f00000000000000000000000000000000000000000000000000000000000000006001600160a01b0316634000aea07f000000000000000000000000000000000000000000000000000000000000000084866000604051602001610bff929190918252602082015260400190565b6040516020818303038152906040526040518463ffffffff1660e01b8152600401610c2c93929190611128565b602060405180830381600087803b158015610c4657600080fd5b505af1158015610c5a573d6000803e3d6000fd5b505050506040513d601f19601f82011682018060405250810190610c7e9190610f4a565b5060008381526020818152604080832054815180840188905280830185905230606082015260808082018390528351808303909101815260a090910190925281519183019190912086845292909152610cd890600161125e565b6000858152602081815260409182902092909255805180830187905280820184905281518082038301815260609091019091528051910120949350505050565b6000610d29826003600660016107db565b6000848152600560209081526040808320815160808101835281546001600160a01b0381168252600160a01b810467ffffffffffffffff1694820194909452600160e01b90930463ffffffff1691830191909152600101546060820152919250610d9382846103be565b90508015610dcf5781516001600160a01b031660009081526002602052604081208054839290610dc490849061125e565b90915550610e2b9050565b60148260600151610de09190611276565b60026000610df66001546001600160a01b031690565b6001600160a01b03166001600160a01b031681526020019081526020016000206000828254610e25919061125e565b90915550505b7f3697052803ff044b6db001dfddd950c73fb7a2ea595339cc1ead028bfdf710f78383604051610e5c9291906111a7565b60405180910390a15050505050565b80356001600160a01b0381168114610e8257600080fd5b919050565b600082601f830112610e9857600080fd5b8135602067ffffffffffffffff80831115610eb557610eb5611331565b8260051b604051601f19603f83011681018181108482111715610eda57610eda611331565b60405284815283810192508684018288018501891015610ef957600080fd5b600092505b85831015610f1c578035845292840192600192909201918401610efe565b50979650505050505050565b600060208284031215610f3a57600080fd5b610f4382610e6b565b9392505050565b600060208284031215610f5c57600080fd5b81518015158114610f4357600080fd5b60008060408385031215610f7f57600080fd5b50508035926020909101359150565b60008082840360a0811215610fa257600080fd5b6080811215610fb057600080fd5b50610fb9611235565b610fc284610e6b565b8152602084013567ffffffffffffffff8082168214610fe057600080fd5b8160208401526040860135915063ffffffff82168214610fff57600080fd5b81604084015260608601356060840152829450608086013592508083111561102657600080fd5b505061103485828601610e87565b9150509250929050565b60006020828403121561105057600080fd5b5035919050565b60006020828403121561106957600080fd5b5051919050565b6000806000806080858703121561108657600080fd5b5050823594602084013594506040840135936060013592509050565b600080604083850312156110b557600080fd5b823560ff811681146110c657600080fd5b915060208301356001600160f81b03811681146110e257600080fd5b809150509250929050565b600081518084526020808501945080840160005b8381101561111d57815187529582019590820190600101611101565b509495945050505050565b60018060a01b038416815260006020848184015260606040840152835180606085015260005b8181101561116a5785810183015185820160800152820161114e565b8181111561117c576000608083870101525b50601f01601f19169290920160800195945050505050565b602081526000610f4360208301846110ed565b60a0815260006111ba60a08301856110ed565b905060018060a01b03835116602083015267ffffffffffffffff602084015116604083015263ffffffff6040840151166060830152606083015160808301529392505050565b6020808252818101527f4f776e61626c653a2063616c6c6572206973206e6f7420746865206f776e6572604082015260600190565b6040516080810167ffffffffffffffff8111828210171561125857611258611331565b60405290565b60008219821115611271576112716112ef565b500190565b60008261128557611285611305565b500490565b60008160001904831182151516156112a4576112a46112ef565b500290565b6000828210156112bb576112bb6112ef565b500390565b60006000198214156112d4576112d46112ef565b5060010190565b6000826112ea576112ea611305565b500690565b634e487b7160e01b600052601160045260246000fd5b634e487b7160e01b600052601260045260246000fd5b634e487b7160e01b600052603260045260246000fd5b634e487b7160e01b600052604160045260246000fdfea2646970667358221220f012afce8fda97616d15e033076c3f5a0a3eda2dcc199a696b469a0f180632ab64736f6c63430008070033",
  "immutableReferences": {
    "73": [
      {
        "length": 32,
        "start": 1227
      },
      {
        "length": 32,
        "start": 2268
      },
      {
        "length": 32,
        "start": 2352
      },
      {
        "length": 32,
        "start": 2963
      }
    ],
    "75": [
      {
        "length": 32,
        "start": 1892
      },
      {
        "length": 32,
        "start": 3010
      }
    ]
  },
  "source": "/// @title ChuckALuck 0.1.1\r\n/// @author awphi (https://github.com/awphi)\r\n\r\n// SPDX-License-Identifier: MIT\r\npragma solidity ^0.8.7;\r\n\r\nimport \"@chainlink/contracts/src/v0.8/VRFConsumerBase.sol\";\r\nimport \"./Bank.sol\";\r\nimport \"@openzeppelin/contracts/access/Ownable.sol\";\r\n\r\ncontract ChuckALuck is VRFConsumerBase, Ownable, Bank {\r\n    bytes32 internal _keyHash;\r\n    uint internal _fee;\r\n\r\n    struct Bet {\r\n        address player;\r\n        uint64 timestamp;\r\n        uint32 bet;\r\n\r\n        uint bet_amount;\r\n    }\r\n    \r\n    mapping (bytes32 => Bet) internal bets;\r\n\r\n    event GameComplete(uint[] rolls, Bet bet);\r\n    event GameStart(Bet bet);\r\n\r\n    constructor(address vrfCoordinator, address linkToken, bytes32 keyHash, uint fee) VRFConsumerBase(vrfCoordinator, linkToken) {\r\n        _keyHash = keyHash;\r\n        _fee = fee;\r\n    }\r\n\r\n    function calculate_winnings(Bet memory bet, uint[] memory rolls) public pure returns (uint) {\r\n        // Count up matching dice rolls\r\n        uint c = 0;\r\n        for(uint i = 0; i < rolls.length; i ++) {\r\n            if(rolls[i] == bet.bet) {\r\n                c += 1;\r\n            }\r\n        }\r\n\r\n        if(c == 1) {\r\n            // 1:1 for 1 match\r\n            return bet.bet_amount * 2;\r\n        } else if(c == 2) {\r\n            // 2:1 for 2 matches\r\n            return bet.bet_amount * 2;\r\n        } else if(c == 3) {\r\n            // 10:1 for 3 matches\r\n            return bet.bet_amount * 10;\r\n        }\r\n        return 0;\r\n    }\r\n    \r\n    function play(uint8 bet, uint248 bet_amount) public returns (bytes32) {\r\n        require(LINK.balanceOf(address(this)) >= _fee, \"Not enough LINK - house needs to refill the contract!\");\r\n        require(bet_amount > 0, \"Invalid bet amount.\");\r\n\r\n\r\n        bytes32 req = requestRandomness(_keyHash, _fee);\r\n\r\n        funds[msg.sender] -= bet_amount;\r\n        bets[req] = Bet(msg.sender, uint64(block.timestamp), bet, bet_amount);\r\n        emit GameStart(bets[req]);\r\n        return req;\r\n    }\r\n\r\n    function expand(uint randomValue, uint n, uint mod, uint add) public pure returns (uint[] memory expandedValues) {\r\n        expandedValues = new uint[](n);\r\n        for (uint i = 0; i < n; i++) {\r\n            expandedValues[i] = (uint(keccak256(abi.encode(randomValue, i))) % mod) + add;\r\n        }\r\n        return expandedValues;\r\n    }\r\n\r\n    function fulfillRandomness(bytes32 requestId, uint randomness) internal override {\r\n        // Expand rolls to 3 values bounded [1, 6]\r\n        uint[] memory rolls = expand(randomness, 3, 6, 1);\r\n        Bet memory bet = bets[requestId];\r\n        uint winnings = calculate_winnings(bet, rolls);\r\n\r\n        if(winnings > 0) {\r\n            funds[bet.player] += winnings;\r\n        } else {\r\n            /** @dev When user loses, house will skim 5% - (the rough average expected loss of each bet with the odds of 2:1, 3:1, 10:1)\r\n                This can be used to pay for more LINK, hosting fees or just treated as profit - it up to the owner. The rest of the loss remains\r\n                in the contract to pay off future winners. In the long-term, with enough initial capital this is a stable system.\r\n            **/\r\n            funds[owner()] += bet.bet_amount / 20;\r\n        }\r\n        \r\n        emit GameComplete(rolls, bet);\r\n    }\r\n\r\n    function withdrawAllLink() public onlyOwner {\r\n        LINK.transfer(payable(owner()), LINK.balanceOf(address(this)));\r\n    }\r\n\r\n    // function withdrawLink() external {} - Implement a withdraw function to avoid locking your LINK in the contract\r\n}\r\n",
  "sourcePath": "F:\\1Repo\\glass-casino\\contracts\\ChuckALuck.sol",
  "compiler": {
    "name": "solc",
    "version": "0.8.7+commit.e28d00a7.Emscripten.clang"
  },
  "schemaVersion": "3.4.3",
  "updatedAt": "2022-02-21T23:23:11.789Z",
  "networkType": "ethereum",
  "devdoc": {
    "kind": "dev",
    "methods": {
      "owner()": {
        "details": "Returns the address of the current owner."
      },
      "renounceOwnership()": {
        "details": "Leaves the contract without owner. It will not be possible to call `onlyOwner` functions anymore. Can only be called by the current owner. NOTE: Renouncing ownership will leave the contract without an owner, thereby removing any functionality that is only available to the owner."
      },
      "transferOwnership(address)": {
        "details": "Transfers ownership of the contract to a new account (`newOwner`). Can only be called by the current owner."
      }
    },
    "version": 1
  },
  "userdoc": {
    "kind": "user",
    "methods": {},
    "version": 1
  }
}