{
  "contractName": "ChuckALuck",
  "abi": [
    {
      "inputs": [],
      "stateMutability": "nonpayable",
      "type": "constructor"
    },
    {
      "anonymous": false,
      "inputs": [
        {
          "indexed": false,
          "internalType": "uint256[]",
          "name": "rolls",
          "type": "uint256[]"
        },
        {
          "components": [
            {
              "internalType": "address",
              "name": "player",
              "type": "address"
            },
            {
              "internalType": "uint64",
              "name": "timestamp",
              "type": "uint64"
            },
            {
              "internalType": "uint32",
              "name": "bet",
              "type": "uint32"
            },
            {
              "internalType": "uint256",
              "name": "bet_amount",
              "type": "uint256"
            }
          ],
          "indexed": false,
          "internalType": "struct ChuckALuck.Bet",
          "name": "bet",
          "type": "tuple"
        }
      ],
      "name": "GameComplete",
      "type": "event"
    },
    {
      "inputs": [],
      "name": "balance",
      "outputs": [
        {
          "internalType": "uint256",
          "name": "",
          "type": "uint256"
        }
      ],
      "stateMutability": "view",
      "type": "function",
      "constant": true
    },
    {
      "inputs": [],
      "name": "deposit",
      "outputs": [],
      "stateMutability": "payable",
      "type": "function",
      "payable": true
    },
    {
      "inputs": [],
      "name": "owner",
      "outputs": [
        {
          "internalType": "address",
          "name": "",
          "type": "address"
        }
      ],
      "stateMutability": "view",
      "type": "function",
      "constant": true
    },
    {
      "inputs": [
        {
          "internalType": "bytes32",
          "name": "requestId",
          "type": "bytes32"
        },
        {
          "internalType": "uint256",
          "name": "randomness",
          "type": "uint256"
        }
      ],
      "name": "rawFulfillRandomness",
      "outputs": [],
      "stateMutability": "nonpayable",
      "type": "function"
    },
    {
      "inputs": [
        {
          "internalType": "uint256",
          "name": "amount",
          "type": "uint256"
        }
      ],
      "name": "withdraw",
      "outputs": [],
      "stateMutability": "nonpayable",
      "type": "function"
    },
    {
      "inputs": [
        {
          "components": [
            {
              "internalType": "address",
              "name": "player",
              "type": "address"
            },
            {
              "internalType": "uint64",
              "name": "timestamp",
              "type": "uint64"
            },
            {
              "internalType": "uint32",
              "name": "bet",
              "type": "uint32"
            },
            {
              "internalType": "uint256",
              "name": "bet_amount",
              "type": "uint256"
            }
          ],
          "internalType": "struct ChuckALuck.Bet",
          "name": "bet",
          "type": "tuple"
        },
        {
          "internalType": "uint256[]",
          "name": "rolls",
          "type": "uint256[]"
        }
      ],
      "name": "calculate_winnings",
      "outputs": [
        {
          "internalType": "uint256",
          "name": "",
          "type": "uint256"
        }
      ],
      "stateMutability": "pure",
      "type": "function",
      "constant": true
    },
    {
      "inputs": [
        {
          "internalType": "uint8",
          "name": "bet",
          "type": "uint8"
        },
        {
          "internalType": "uint248",
          "name": "bet_amount",
          "type": "uint248"
        }
      ],
      "name": "play",
      "outputs": [
        {
          "internalType": "bytes32",
          "name": "",
          "type": "bytes32"
        }
      ],
      "stateMutability": "nonpayable",
      "type": "function"
    },
    {
      "inputs": [
        {
          "internalType": "uint256",
          "name": "randomValue",
          "type": "uint256"
        },
        {
          "internalType": "uint256",
          "name": "n",
          "type": "uint256"
        },
        {
          "internalType": "uint256",
          "name": "mod",
          "type": "uint256"
        },
        {
          "internalType": "uint256",
          "name": "add",
          "type": "uint256"
        }
      ],
      "name": "expand",
      "outputs": [
        {
          "internalType": "uint256[]",
          "name": "expandedValues",
          "type": "uint256[]"
        }
      ],
      "stateMutability": "pure",
      "type": "function",
      "constant": true
    },
    {
      "inputs": [],
      "name": "withdrawAllLink",
      "outputs": [],
      "stateMutability": "nonpayable",
      "type": "function"
    },
    {
      "inputs": [],
      "name": "getBalanceLink",
      "outputs": [
        {
          "internalType": "uint256",
          "name": "",
          "type": "uint256"
        }
      ],
      "stateMutability": "view",
      "type": "function",
      "constant": true
    }
  ],
  "bytecode": "0x60c060405234801561001057600080fd5b507f8c7382f9d8f56b33781fe506e897a4f1e2d1725500000000000000000000000060a0527f326c977e6efc84e512bb9c30f76e30c160ed06fb000000000000000000000000608052600180546001600160a01b031916331790557f6e75b569a01ef56d18cab6a8e71e6600d6ce853834d4a5748b720d06f878b3a4600355655af3107a400060045573326c977e6efc84e512bb9c30f76e30c160ed06fb738c7382f9d8f56b33781fe506e897a4f1e2d17255610ffe6100fe6000396000818161061501526108ee0152600081816101fc015281816103e50152818161078101526108bf0152610ffe6000f3fe6080604052600436106100915760003560e01c806394985ddd1161005957806394985ddd14610158578063b69ef8a814610178578063b74a46451461019a578063ccf03f3a146101c7578063d0e30db0146101dc57600080fd5b8063136d6ea5146100965780632e1a7d4d146100be5780633f72f45b146100e05780638c72e4f1146101005780638da5cb5b14610120575b600080fd5b3480156100a257600080fd5b506100ab6101e4565b6040519081526020015b60405180910390f35b3480156100ca57600080fd5b506100de6100d9366004610d10565b610283565b005b3480156100ec57600080fd5b506100ab6100fb366004610c52565b61030e565b34801561010c57600080fd5b506100ab61011b366004610d74565b6103c7565b34801561012c57600080fd5b50600154610140906001600160a01b031681565b6040516001600160a01b0390911681526020016100b5565b34801561016457600080fd5b506100de610173366004610c30565b61060a565b34801561018457600080fd5b50336000908152600260205260409020546100ab565b3480156101a657600080fd5b506101ba6101b5366004610d42565b61068c565b6040516100b59190610e66565b3480156101d357600080fd5b506100de610761565b6100de610888565b6040516370a0823160e01b81523060048201526000907f00000000000000000000000000000000000000000000000000000000000000006001600160a01b0316906370a082319060240160206040518083038186803b15801561024657600080fd5b505afa15801561025a573d6000803e3d6000fd5b505050506040513d601f19601f8201168201806040525081019061027e9190610d29565b905090565b6000811161029057600080fd5b336000908152600260205260409020548111156102ac57600080fd5b804710156102b957600080fd5b33600090815260026020526040812080548392906102d8908490610f32565b9091555050604051339082156108fc029083906000818181858888f1935050505015801561030a573d6000803e3d6000fd5b5050565b600080805b835181101561036757846040015163ffffffff1684828151811061033957610339610f9c565b6020026020010151141561035557610352600183610efb565b91505b8061035f81610f49565b915050610313565b508060011415610389576060840151610381906002610f13565b9150506103c1565b80600214156103a2576060840151610381906002610f13565b80600314156103bb57606084015161038190600a610f13565b60009150505b92915050565b600480546040516370a0823160e01b815230928101929092526000917f00000000000000000000000000000000000000000000000000000000000000006001600160a01b0316906370a082319060240160206040518083038186803b15801561042f57600080fd5b505afa158015610443573d6000803e3d6000fd5b505050506040513d601f19601f820116820180604052508101906104679190610d29565b10156104d85760405162461bcd60e51b815260206004820152603560248201527f4e6f7420656e6f756768204c494e4b202d20686f757365206e6565647320746f60448201527420726566696c6c2074686520636f6e74726163742160581b60648201526084015b60405180910390fd5b6000826001600160f81b0316116105275760405162461bcd60e51b815260206004820152601360248201527224b73b30b634b2103132ba1030b6b7bab73a1760691b60448201526064016104cf565b60006105376003546004546108bb565b33600090815260026020526040812080549293506001600160f81b03861692909190610564908490610f32565b90915550506040805160808101825233815267ffffffffffffffff428116602080840191825260ff89168486019081526001600160f81b038916606086019081526000888152600590935295909120935184549251915163ffffffff16600160e01b026001600160e01b0392909416600160a01b026001600160e01b03199093166001600160a01b03919091161791909117161781559051600190910155905092915050565b336001600160a01b037f000000000000000000000000000000000000000000000000000000000000000016146106825760405162461bcd60e51b815260206004820152601f60248201527f4f6e6c7920565246436f6f7264696e61746f722063616e2066756c66696c6c0060448201526064016104cf565b61030a8282610a44565b60608367ffffffffffffffff8111156106a7576106a7610fb2565b6040519080825280602002602001820160405280156106d0578160200160208202803683370190505b50905060005b8481101561075857828487836040516020016106fc929190918252602082015260400190565b6040516020818303038152906040528051906020012060001c61071f9190610f64565b6107299190610efb565b82828151811061073b5761073b610f9c565b60209081029190910101528061075081610f49565b9150506106d6565b50949350505050565b6001546040516370a0823160e01b81523060048201526001600160a01b037f000000000000000000000000000000000000000000000000000000000000000081169263a9059cbb9291169083906370a082319060240160206040518083038186803b1580156107cf57600080fd5b505afa1580156107e3573d6000803e3d6000fd5b505050506040513d601f19601f820116820180604052508101906108079190610d29565b6040516001600160e01b031960e085901b1681526001600160a01b0390921660048301526024820152604401602060405180830381600087803b15801561084d57600080fd5b505af1158015610861573d6000803e3d6000fd5b505050506040513d601f19601f820116820180604052508101906108859190610c07565b50565b6000341161089557600080fd5b33600090815260026020526040812080543492906108b4908490610efb565b9091555050565b60007f00000000000000000000000000000000000000000000000000000000000000006001600160a01b0316634000aea07f00000000000000000000000000000000000000000000000000000000000000008486600060405160200161092b929190918252602082015260400190565b6040516020818303038152906040526040518463ffffffff1660e01b815260040161095893929190610dfa565b602060405180830381600087803b15801561097257600080fd5b505af1158015610986573d6000803e3d6000fd5b505050506040513d601f19601f820116820180604052508101906109aa9190610c07565b5060008381526020818152604080832054815180840188905280830185905230606082015260808082018390528351808303909101815260a090910190925281519183019190912086845292909152610a04906001610efb565b6000858152602081815260409182902092909255805180830187905280820184905281518082038301815260609091019091528051910120949350505050565b6000610a558260036006600161068c565b6000848152600560209081526040808320815160808101835281546001600160a01b0381168252600160a01b810467ffffffffffffffff1694820194909452600160e01b90930463ffffffff1691830191909152600101546060820152919250610abf828461030e565b90508015610af1573360009081526002602052604081208054839290610ae6908490610efb565b90915550610b269050565b60608201516001546001600160a01b031660009081526002602052604081208054909190610b20908490610efb565b90915550505b7f3697052803ff044b6db001dfddd950c73fb7a2ea595339cc1ead028bfdf710f78383604051610b57929190610e79565b60405180910390a15050505050565b600082601f830112610b7757600080fd5b8135602067ffffffffffffffff80831115610b9457610b94610fb2565b8260051b604051601f19603f83011681018181108482111715610bb957610bb9610fb2565b60405284815283810192508684018288018501891015610bd857600080fd5b600092505b85831015610bfb578035845292840192600192909201918401610bdd565b50979650505050505050565b600060208284031215610c1957600080fd5b81518015158114610c2957600080fd5b9392505050565b60008060408385031215610c4357600080fd5b50508035926020909101359150565b60008082840360a0811215610c6657600080fd5b6080811215610c7457600080fd5b50610c7d610ed2565b83356001600160a01b0381168114610c9457600080fd5b8152602084013567ffffffffffffffff8082168214610cb257600080fd5b8160208401526040860135915063ffffffff82168214610cd157600080fd5b816040840152606086013560608401528294506080860135925080831115610cf857600080fd5b5050610d0685828601610b66565b9150509250929050565b600060208284031215610d2257600080fd5b5035919050565b600060208284031215610d3b57600080fd5b5051919050565b60008060008060808587031215610d5857600080fd5b5050823594602084013594506040840135936060013592509050565b60008060408385031215610d8757600080fd5b823560ff81168114610d9857600080fd5b915060208301356001600160f81b0381168114610db457600080fd5b809150509250929050565b600081518084526020808501945080840160005b83811015610def57815187529582019590820190600101610dd3565b509495945050505050565b60018060a01b038416815260006020848184015260606040840152835180606085015260005b81811015610e3c57858101830151858201608001528201610e20565b81811115610e4e576000608083870101525b50601f01601f19169290920160800195945050505050565b602081526000610c296020830184610dbf565b60a081526000610e8c60a0830185610dbf565b905060018060a01b03835116602083015267ffffffffffffffff602084015116604083015263ffffffff6040840151166060830152606083015160808301529392505050565b6040516080810167ffffffffffffffff81118282101715610ef557610ef5610fb2565b60405290565b60008219821115610f0e57610f0e610f86565b500190565b6000816000190483118215151615610f2d57610f2d610f86565b500290565b600082821015610f4457610f44610f86565b500390565b6000600019821415610f5d57610f5d610f86565b5060010190565b600082610f8157634e487b7160e01b600052601260045260246000fd5b500690565b634e487b7160e01b600052601160045260246000fd5b634e487b7160e01b600052603260045260246000fd5b634e487b7160e01b600052604160045260246000fdfea26469706673582212202f74398a9e76c7f7ff95bb7d7d4a8d4f0ff7089f057e79f1c7e5c63a298ce66064736f6c63430008070033",
  "immutableReferences": {
    "73": [
      {
        "length": 32,
        "start": 508
      },
      {
        "length": 32,
        "start": 997
      },
      {
        "length": 32,
        "start": 1921
      },
      {
        "length": 32,
        "start": 2239
      }
    ],
    "75": [
      {
        "length": 32,
        "start": 1557
      },
      {
        "length": 32,
        "start": 2286
      }
    ]
  },
  "source": "// SPDX-License-Identifier: MIT\r\npragma solidity ^0.8.7;\r\n\r\nimport \"@chainlink/contracts/src/v0.8/VRFConsumerBase.sol\";\r\nimport \"./Bank.sol\";\r\nimport \"./Owned.sol\";\r\n\r\ncontract ChuckALuck is VRFConsumerBase, Owned, Bank {\r\n    bytes32 internal keyHash;\r\n    uint internal fee;\r\n\r\n    struct Bet {\r\n        address player;\r\n        uint64 timestamp;\r\n        uint32 bet;\r\n\r\n        uint bet_amount;\r\n    }\r\n    \r\n    mapping (bytes32 => Bet) bets;\r\n\r\n    event GameComplete(uint[] rolls, Bet bet);\r\n\r\n    constructor() VRFConsumerBase(\r\n        0x8C7382F9D8f56b33781fE506E897a4F1e2d17255, // VRF Coordinator\r\n        0x326C977E6efc84E512bB9C30f76E30c160eD06FB  // LINK Token\r\n    ) {\r\n        keyHash = 0x6e75b569a01ef56d18cab6a8e71e6600d6ce853834d4a5748b720d06f878b3a4;\r\n        fee = 0.0001 ether;\r\n    }\r\n\r\n    function calculate_winnings(Bet memory bet, uint[] memory rolls) public pure returns (uint) {\r\n        // Count up matching dice rolls\r\n        uint c = 0;\r\n        for(uint i = 0; i < rolls.length; i ++) {\r\n            if(rolls[i] == bet.bet) {\r\n                c += 1;\r\n            }\r\n        }\r\n\r\n        if(c == 1) {\r\n            // 1:1 for 1 match\r\n            return bet.bet_amount * 2;\r\n        } else if(c == 2) {\r\n            // 2:1 for 2 matches\r\n            return bet.bet_amount * 2;\r\n        } else if(c == 3) {\r\n            // 10:1 for 3 matches\r\n            return bet.bet_amount * 10;\r\n        }\r\n        return 0;\r\n    }\r\n    \r\n    function play(uint8 bet, uint248 bet_amount) public returns (bytes32) {\r\n        require(LINK.balanceOf(address(this)) >= fee, \"Not enough LINK - house needs to refill the contract!\");\r\n        require(bet_amount > 0, \"Invalid bet amount.\");\r\n\r\n\r\n        bytes32 req = requestRandomness(keyHash, fee);\r\n\r\n        funds[msg.sender] -= bet_amount;\r\n        bets[req] = Bet(msg.sender, uint64(block.timestamp), bet, bet_amount);\r\n        return req;\r\n    }\r\n\r\n    function expand(uint randomValue, uint n, uint mod, uint add) public pure returns (uint[] memory expandedValues) {\r\n        expandedValues = new uint[](n);\r\n        for (uint i = 0; i < n; i++) {\r\n            expandedValues[i] = (uint(keccak256(abi.encode(randomValue, i))) % mod) + add;\r\n        }\r\n        return expandedValues;\r\n    }\r\n\r\n    function fulfillRandomness(bytes32 requestId, uint randomness) internal override {\r\n        // Expand rolls to 3 values bounded [1, 6]\r\n        uint[] memory rolls = expand(randomness, 3, 6, 1);\r\n        Bet memory bet = bets[requestId];\r\n        uint winnings = calculate_winnings(bet, rolls);\r\n\r\n        if(winnings > 0) {\r\n            funds[msg.sender] += winnings;\r\n        } else {\r\n            funds[owner] += bet.bet_amount;\r\n        }\r\n        \r\n        emit GameComplete(rolls, bet);\r\n    }\r\n\r\n    function withdrawAllLink() public {\r\n        LINK.transfer(payable(owner), LINK.balanceOf(address(this)));\r\n    }\r\n\r\n    function getBalanceLink() public view returns (uint256) {\r\n        return LINK.balanceOf(address(this));\r\n    }\r\n\r\n    // function withdrawLink() external {} - Implement a withdraw function to avoid locking your LINK in the contract\r\n}\r\n",
  "sourcePath": "F:\\1Repo\\glass-casino\\contracts\\ChuckALuck.sol",
  "compiler": {
    "name": "solc",
    "version": "0.8.7+commit.e28d00a7.Emscripten.clang"
  },
  "schemaVersion": "3.4.3",
  "updatedAt": "2022-02-20T22:36:50.292Z",
  "networkType": "ethereum",
  "devdoc": {
    "kind": "dev",
    "methods": {},
    "version": 1
  },
  "userdoc": {
    "kind": "user",
    "methods": {},
    "version": 1
  }
}