{
  "contractName": "Owned",
  "abi": [
    {
      "inputs": [],
      "stateMutability": "nonpayable",
      "type": "constructor"
    },
    {
      "inputs": [],
      "name": "owner",
      "outputs": [
        {
          "internalType": "address",
          "name": "",
          "type": "address"
        }
      ],
      "stateMutability": "view",
      "type": "function"
    }
  ],
  "bytecode": "0x6080604052348015600f57600080fd5b50600080546001600160a01b031916331790556091806100306000396000f3fe6080604052348015600f57600080fd5b506004361060285760003560e01c80638da5cb5b14602d575b600080fd5b600054603f906001600160a01b031681565b6040516001600160a01b03909116815260200160405180910390f3fea264697066735822122033aa6bc652fe331cdc982e35fb827db591b687f582de2d21331b566bcbc943bf64736f6c63430008070033",
  "immutableReferences": {},
  "source": "/// @title Owmed 0.1.0\r\n/// @author awphi (https://github.com/awphi)\r\n/// @notice Owned from GlassCasino - L3 BSc ComSci Project @ Durham University\r\n/// @dev -\r\n\r\n// SPDX-License-Identifier: MIT\r\npragma solidity >=0.4.22 <0.9.0;\r\n\r\ncontract Owned {\r\n    address public owner;\r\n\r\n    constructor() {\r\n        owner = msg.sender;\r\n    }\r\n\r\n    modifier onlyHouse {\r\n        require(msg.sender == owner, \"Transaction sender is not contract owner.\");\r\n        _;\r\n    }\r\n}",
  "sourcePath": "F:\\1Repo\\glass-casino\\contracts\\Owned.sol",
  "compiler": {
    "name": "solc",
    "version": "0.8.7+commit.e28d00a7.Emscripten.clang"
  },
  "schemaVersion": "3.4.3",
  "updatedAt": "2022-02-20T22:35:54.742Z",
  "devdoc": {
    "kind": "dev",
    "methods": {},
    "version": 1
  },
  "userdoc": {
    "kind": "user",
    "methods": {},
    "version": 1
  }
}