{
  "contractName": "Roulette",
  "abi": [
    {
      "inputs": [],
      "stateMutability": "nonpayable",
      "type": "constructor"
    },
    {
      "anonymous": false,
      "inputs": [
        {
          "components": [
            {
              "internalType": "address payable",
              "name": "player",
              "type": "address"
            },
            {
              "internalType": "enum Roulette.BetType",
              "name": "bet_type",
              "type": "uint8"
            },
            {
              "internalType": "uint256",
              "name": "bet",
              "type": "uint256"
            },
            {
              "internalType": "uint256",
              "name": "bet_amount",
              "type": "uint256"
            }
          ],
          "indexed": false,
          "internalType": "struct Roulette.Bet",
          "name": "bet",
          "type": "tuple"
        }
      ],
      "name": "BetPlaced",
      "type": "event"
    },
    {
      "anonymous": false,
      "inputs": [
        {
          "indexed": false,
          "internalType": "uint256",
          "name": "roll",
          "type": "uint256"
        }
      ],
      "name": "OutcomeDecided",
      "type": "event"
    },
    {
      "inputs": [],
      "name": "get_bets",
      "outputs": [
        {
          "components": [
            {
              "internalType": "address payable",
              "name": "player",
              "type": "address"
            },
            {
              "internalType": "enum Roulette.BetType",
              "name": "bet_type",
              "type": "uint8"
            },
            {
              "internalType": "uint256",
              "name": "bet",
              "type": "uint256"
            },
            {
              "internalType": "uint256",
              "name": "bet_amount",
              "type": "uint256"
            }
          ],
          "internalType": "struct Roulette.Bet[]",
          "name": "",
          "type": "tuple[]"
        }
      ],
      "stateMutability": "view",
      "type": "function",
      "constant": true
    },
    {
      "inputs": [],
      "name": "get_bets_length",
      "outputs": [
        {
          "internalType": "uint256",
          "name": "",
          "type": "uint256"
        }
      ],
      "stateMutability": "view",
      "type": "function",
      "constant": true
    },
    {
      "inputs": [],
      "name": "get_history",
      "outputs": [
        {
          "internalType": "uint256[100]",
          "name": "",
          "type": "uint256[100]"
        }
      ],
      "stateMutability": "view",
      "type": "function",
      "constant": true
    },
    {
      "inputs": [
        {
          "internalType": "enum Roulette.BetType",
          "name": "bet_type",
          "type": "uint8"
        },
        {
          "internalType": "uint256",
          "name": "bet",
          "type": "uint256"
        }
      ],
      "name": "deposit",
      "outputs": [],
      "stateMutability": "payable",
      "type": "function",
      "payable": true
    },
    {
      "inputs": [
        {
          "internalType": "uint256",
          "name": "roll",
          "type": "uint256"
        }
      ],
      "name": "add_history",
      "outputs": [],
      "stateMutability": "nonpayable",
      "type": "function"
    },
    {
      "inputs": [
        {
          "internalType": "uint256",
          "name": "mod",
          "type": "uint256"
        }
      ],
      "name": "random",
      "outputs": [
        {
          "internalType": "uint256",
          "name": "",
          "type": "uint256"
        }
      ],
      "stateMutability": "view",
      "type": "function",
      "constant": true
    },
    {
      "inputs": [
        {
          "internalType": "uint256",
          "name": "roll",
          "type": "uint256"
        }
      ],
      "name": "is_red",
      "outputs": [
        {
          "internalType": "bool",
          "name": "",
          "type": "bool"
        }
      ],
      "stateMutability": "pure",
      "type": "function",
      "constant": true
    },
    {
      "inputs": [
        {
          "components": [
            {
              "internalType": "address payable",
              "name": "player",
              "type": "address"
            },
            {
              "internalType": "enum Roulette.BetType",
              "name": "bet_type",
              "type": "uint8"
            },
            {
              "internalType": "uint256",
              "name": "bet",
              "type": "uint256"
            },
            {
              "internalType": "uint256",
              "name": "bet_amount",
              "type": "uint256"
            }
          ],
          "internalType": "struct Roulette.Bet",
          "name": "bet",
          "type": "tuple"
        },
        {
          "internalType": "uint256",
          "name": "roll",
          "type": "uint256"
        }
      ],
      "name": "get_winnings",
      "outputs": [
        {
          "internalType": "uint256",
          "name": "",
          "type": "uint256"
        }
      ],
      "stateMutability": "pure",
      "type": "function",
      "constant": true
    },
    {
      "inputs": [],
      "name": "play",
      "outputs": [],
      "stateMutability": "nonpayable",
      "type": "function"
    }
  ],
  "bytecode": "0x60806040526001600060146101000a81548160ff02191690831515021790555034801561002b57600080fd5b50336000806101000a81548173ffffffffffffffffffffffffffffffffffffffff021916908373ffffffffffffffffffffffffffffffffffffffff1602179055506112c18061007b6000396000f3fe6080604052600436106100865760003560e01c806393e84cd91161005957806393e84cd914610135578063b4b674cb1461014c578063b863bd3714610189578063f0780bd5146101c6578063f4d4c9d71461020357610086565b80635fe36f0a1461008b57806366ec8dbf146100b6578063797fae9d146100df5780637b275c881461010a575b600080fd5b34801561009757600080fd5b506100a061021f565b6040516100ad9190610e35565b60405180910390f35b3480156100c257600080fd5b506100dd60048036038101906100d89190610bc9565b61026a565b005b3480156100eb57600080fd5b506100f46102fb565b6040516101019190610e87565b60405180910390f35b34801561011657600080fd5b5061011f610308565b60405161012c9190610e13565b60405180910390f35b34801561014157600080fd5b5061014a61040c565b005b34801561015857600080fd5b50610173600480360381019061016e9190610bc9565b6106a2565b6040516101809190610e51565b60405180910390f35b34801561019557600080fd5b506101b060048036038101906101ab9190610bc9565b6106f3565b6040516101bd9190610e87565b60405180910390f35b3480156101d257600080fd5b506101ed60048036038101906101e89190610b89565b610733565b6040516101fa9190610e87565b60405180910390f35b61021d60048036038101906102189190610b49565b610881565b005b6102276109e9565b6002606480602002604051908101604052809291908260648015610260576020028201915b81548152602001906001019080831161024c575b5050505050905090565b60005b6001606461027b9190610fdd565b8110156102d05760026001826102919190610f2d565b606481106102a2576102a16111c0565b5b0154600282606481106102b8576102b76111c0565b5b018190555080806102c8906110af565b91505061026d565b50806002600160646102e29190610fdd565b606481106102f3576102f26111c0565b5b018190555050565b6000600180549050905090565b60606001805480602002602001604051908101604052809291908181526020016000905b8282101561040357838290600052602060002090600302016040518060800160405290816000820160009054906101000a900473ffffffffffffffffffffffffffffffffffffffff1673ffffffffffffffffffffffffffffffffffffffff1673ffffffffffffffffffffffffffffffffffffffff1681526020016000820160149054906101000a900460ff1660028111156103ca576103c9611191565b5b60028111156103dc576103db611191565b5b8152602001600182015481526020016002820154815250508152602001906001019061032c565b50505050905090565b60008054906101000a900473ffffffffffffffffffffffffffffffffffffffff1673ffffffffffffffffffffffffffffffffffffffff163373ffffffffffffffffffffffffffffffffffffffff161461046457600080fd5b600060149054906101000a900460ff1661047d57600080fd5b60008060146101000a81548160ff02191690831515021790555060006104a360256106f3565b90507f34cc19c6a5758956f8aec81e3f501b1a3fe6c4b9879081781ec6be0a438f3a54816040516104d49190610e87565b60405180910390a160005b6001805490508110156106755760006105c960018381548110610505576105046111c0565b5b90600052602060002090600302016040518060800160405290816000820160009054906101000a900473ffffffffffffffffffffffffffffffffffffffff1673ffffffffffffffffffffffffffffffffffffffff1673ffffffffffffffffffffffffffffffffffffffff1681526020016000820160149054906101000a900460ff16600281111561059957610598611191565b5b60028111156105ab576105aa611191565b5b81526020016001820154815260200160028201548152505084610733565b9050600081111561066157600182815481106105e8576105e76111c0565b5b906000526020600020906003020160000160009054906101000a900473ffffffffffffffffffffffffffffffffffffffff1673ffffffffffffffffffffffffffffffffffffffff166108fc829081150290604051600060405180830381858888f1935050505015801561065f573d6000803e3d6000fd5b505b50808061066d906110af565b9150506104df565b50600160006106849190610a0c565b6001600060146101000a81548160ff02191690831515021790555050565b6000600b8210806106bf57506012821180156106be5750601d82105b5b156106db5760016002836106d39190611102565b1490506106ee565b60006002836106ea9190611102565b1490505b919050565b6000814442604051602001610709929190610de7565b6040516020818303038152906040528051906020012060001c61072c9190611102565b9050919050565b600080821415610746576000905061087b565b6000600281111561075a57610759611191565b5b8360200151600281111561077157610770611191565b5b14156107b957610780826106a2565b61078b57600161078e565b60005b60ff16836040015114156107b457600283606001516107ad9190610f83565b905061087b565b610876565b600160028111156107cd576107cc611191565b5b836020015160028111156107e4576107e3611191565b5b141561081f576002826107f79190611102565b8360400151141561081a57600283606001516108139190610f83565b905061087b565b610875565b60028081111561083257610831611191565b5b8360200151600281111561084957610848611191565b5b1415610874578183604001511415610873576023836060015161086c9190610f83565b905061087b565b5b5b5b600090505b92915050565b600060149054906101000a900460ff1661089a57600080fd5b600034116108a757600080fd5b600060405180608001604052803373ffffffffffffffffffffffffffffffffffffffff1681526020018460028111156108e3576108e2611191565b5b8152602001838152602001348152509050600181908060018154018082558091505060019003906000526020600020906003020160009091909190915060008201518160000160006101000a81548173ffffffffffffffffffffffffffffffffffffffff021916908373ffffffffffffffffffffffffffffffffffffffff16021790555060208201518160000160146101000a81548160ff0219169083600281111561099257610991611191565b5b0217905550604082015181600101556060820151816002015550507fa57654d9dea7a6159d461426e0cf53aeec9acb37e0bc98d127aad3e8ed0e3566816040516109dc9190610e6c565b60405180910390a1505050565b60405180610c800160405280606490602082028036833780820191505090505090565b5080546000825560030290600052602060002090810190610a2d9190610a30565b50565b5b80821115610a8e57600080820160006101000a81549073ffffffffffffffffffffffffffffffffffffffff02191690556000820160146101000a81549060ff02191690556001820160009055600282016000905550600301610a31565b5090565b600081359050610aa18161124d565b92915050565b600081359050610ab681611264565b92915050565b600060808284031215610ad257610ad161121e565b5b610adc6080610ea2565b90506000610aec84828501610a92565b6000830152506020610b0084828501610aa7565b6020830152506040610b1484828501610b34565b6040830152506060610b2884828501610b34565b60608301525092915050565b600081359050610b4381611274565b92915050565b60008060408385031215610b6057610b5f611223565b5b6000610b6e85828601610aa7565b9250506020610b7f85828601610b34565b9150509250929050565b60008060a08385031215610ba057610b9f611223565b5b6000610bae85828601610abc565b9250506080610bbf85828601610b34565b9150509250929050565b600060208284031215610bdf57610bde611223565b5b6000610bed84828501610b34565b91505092915050565b6000610c028383610d08565b60808301905092915050565b6000610c1a8383610db2565b60208301905092915050565b610c2f81611011565b82525050565b6000610c4082610ee1565b610c4a8185610f11565b9350610c5583610ec7565b8060005b83811015610c86578151610c6d8882610bf6565b9750610c7883610ef7565b925050600181019050610c59565b5085935050505092915050565b610c9c81610eec565b610ca68184610f22565b9250610cb182610ed7565b8060005b83811015610ce2578151610cc98782610c0e565b9650610cd483610f04565b925050600181019050610cb5565b505050505050565b610cf381611023565b82525050565b610d028161106c565b82525050565b608082016000820151610d1e6000850182610c26565b506020820151610d316020850182610cf9565b506040820151610d446040850182610db2565b506060820151610d576060850182610db2565b50505050565b608082016000820151610d736000850182610c26565b506020820151610d866020850182610cf9565b506040820151610d996040850182610db2565b506060820151610dac6060850182610db2565b50505050565b610dbb81611062565b82525050565b610dca81611062565b82525050565b610de1610ddc82611062565b6110f8565b82525050565b6000610df38285610dd0565b602082019150610e038284610dd0565b6020820191508190509392505050565b60006020820190508181036000830152610e2d8184610c35565b905092915050565b6000610c8082019050610e4b6000830184610c93565b92915050565b6000602082019050610e666000830184610cea565b92915050565b6000608082019050610e816000830184610d5d565b92915050565b6000602082019050610e9c6000830184610dc1565b92915050565b6000610eac610ebd565b9050610eb8828261107e565b919050565b6000604051905090565b6000819050602082019050919050565b6000819050919050565b600081519050919050565b600060649050919050565b6000602082019050919050565b6000602082019050919050565b600082825260208201905092915050565b600081905092915050565b6000610f3882611062565b9150610f4383611062565b9250827fffffffffffffffffffffffffffffffffffffffffffffffffffffffffffffffff03821115610f7857610f77611133565b5b828201905092915050565b6000610f8e82611062565b9150610f9983611062565b9250817fffffffffffffffffffffffffffffffffffffffffffffffffffffffffffffffff0483118215151615610fd257610fd1611133565b5b828202905092915050565b6000610fe882611062565b9150610ff383611062565b92508282101561100657611005611133565b5b828203905092915050565b600061101c82611042565b9050919050565b60008115159050919050565b600081905061103d82611239565b919050565b600073ffffffffffffffffffffffffffffffffffffffff82169050919050565b6000819050919050565b60006110778261102f565b9050919050565b61108782611228565b810181811067ffffffffffffffff821117156110a6576110a56111ef565b5b80604052505050565b60006110ba82611062565b91507fffffffffffffffffffffffffffffffffffffffffffffffffffffffffffffffff8214156110ed576110ec611133565b5b600182019050919050565b6000819050919050565b600061110d82611062565b915061111883611062565b92508261112857611127611162565b5b828206905092915050565b7f4e487b7100000000000000000000000000000000000000000000000000000000600052601160045260246000fd5b7f4e487b7100000000000000000000000000000000000000000000000000000000600052601260045260246000fd5b7f4e487b7100000000000000000000000000000000000000000000000000000000600052602160045260246000fd5b7f4e487b7100000000000000000000000000000000000000000000000000000000600052603260045260246000fd5b7f4e487b7100000000000000000000000000000000000000000000000000000000600052604160045260246000fd5b600080fd5b600080fd5b6000601f19601f8301169050919050565b6003811061124a57611249611191565b5b50565b61125681611011565b811461126157600080fd5b50565b6003811061127157600080fd5b50565b61127d81611062565b811461128857600080fd5b5056fea26469706673582212206c60b212aebb411fb33da5215d52d24adb77da4bcc6dbad05ae0354dd5a536fe64736f6c63430008070033",
  "immutableReferences": {},
  "source": "// SPDX-License-Identifier: MIT\npragma solidity >=0.4.22 <0.9.0;\n\ncontract Roulette {\n  uint8 private constant HISTORY_LENGTH = 100;\n\n  enum BetType {\n    COLOUR,\n    ODDEVEN,\n    STRAIGHTUP\n    /*\n            HIGHLOW, \n            COLUMN, \n            DOZENS, \n            SPLIT, \n            STREET, \n            CORNER, \n            LINE, \n            FIVE, \n            BASKET, \n            SNAKE \n            */\n  }\n\n  struct Bet {\n    address payable player;\n    BetType bet_type;\n    uint256 bet;\n    uint256 bet_amount;\n  }\n\n  // Used so dApp can listen to emitted event to update UIs as soon as the outcome is rolled\n  event OutcomeDecided(uint256 roll);\n  event BetPlaced(Bet bet);\n\n  address house;\n  bool ready = true;\n  Bet[] bets;\n  uint256[HISTORY_LENGTH] history;\n\n  // Sets the house on minting of the contract, i.e. who controls the flow of the game\n  constructor() {\n    house = msg.sender;\n  }\n\n  function get_bets() public view returns (Bet[] memory) {\n    return bets;\n  }\n\n  function get_bets_length() public view returns (uint256) {\n    return bets.length;\n  }\n\n  function get_history() public view returns (uint256[HISTORY_LENGTH] memory) {\n    return history;\n  }\n\n  function deposit(BetType bet_type, uint256 bet) public payable {\n    require(ready);\n    require(msg.value > 0);\n    Bet memory b = Bet(payable(msg.sender), bet_type, bet, msg.value);\n    bets.push(b);\n    emit BetPlaced(b);\n  }\n\n  function add_history(uint256 roll) public {\n    for (uint256 i = 0; i < history.length - 1; i++) {\n      history[i] = history[i + 1];\n    }\n\n    history[history.length - 1] = roll;\n  }\n\n  // Note: Replace with chainlink\n  function random(uint256 mod) public view returns (uint256) {\n    return\n      uint256(keccak256(abi.encodePacked(block.difficulty, block.timestamp))) %\n      mod;\n  }\n\n  function is_red(uint256 roll) public pure returns (bool) {\n    if (roll < 11 || (roll > 18 && roll < 29)) {\n      // Red odd, black even\n      return roll % 2 == 1;\n    } else {\n      return roll % 2 == 0;\n    }\n  }\n\n  function get_winnings(Bet memory bet, uint256 roll)\n    public\n    pure\n    returns (uint256)\n  {\n    // House edge, contract keeps the money\n    if (roll == 0) {\n      return 0;\n    }\n\n    if (bet.bet_type == BetType.COLOUR) {\n      // 0 = red, 1 = black\n      if (bet.bet == (is_red(roll) ? 0 : 1)) {\n        return bet.bet_amount * 2;\n      }\n    } else if (bet.bet_type == BetType.ODDEVEN) {\n      // 0 = even, 1 = odd\n      if (bet.bet == (roll % 2)) {\n        return bet.bet_amount * 2;\n      }\n    } else if (bet.bet_type == BetType.STRAIGHTUP) {\n      if (bet.bet == roll) {\n        return bet.bet_amount * 35;\n      }\n    }\n\n    return 0;\n  }\n\n  function play() public {\n    require(msg.sender == house);\n    require(ready);\n\n    ready = false;\n\n    uint256 roll = random(37);\n    //add_history(roll);\n    emit OutcomeDecided(roll);\n\n    for (uint256 i = 0; i < bets.length; i++) {\n      uint256 w = get_winnings(bets[i], roll);\n\n      if (w > 0) {\n        bets[i].player.transfer(w);\n      }\n    }\n\n    delete bets;\n    ready = true;\n  }\n}\n",
  "sourcePath": "F:\\1Repo\\glass-casino\\contracts\\Roulette.sol",
  "compiler": {
    "name": "solc",
    "version": "0.8.7+commit.e28d00a7.Emscripten.clang"
  },
  "schemaVersion": "3.4.3",
  "updatedAt": "2021-12-08T19:02:19.478Z",
  "networkType": "ethereum",
  "devdoc": {
    "kind": "dev",
    "methods": {},
    "version": 1
  },
  "userdoc": {
    "kind": "user",
    "methods": {},
    "version": 1
  }
}