{
  "contractName": "Roulette",
  "abi": [
    {
      "inputs": [],
      "stateMutability": "nonpayable",
      "type": "constructor"
    },
    {
      "anonymous": false,
      "inputs": [
        {
          "components": [
            {
              "internalType": "address payable",
              "name": "player",
              "type": "address"
            },
            {
              "internalType": "enum Roulette.BetType",
              "name": "bet_type",
              "type": "uint8"
            },
            {
              "internalType": "uint256",
              "name": "bet",
              "type": "uint256"
            },
            {
              "internalType": "uint256",
              "name": "bet_amount",
              "type": "uint256"
            }
          ],
          "indexed": false,
          "internalType": "struct Roulette.Bet",
          "name": "bet",
          "type": "tuple"
        }
      ],
      "name": "BetPlaced",
      "type": "event"
    },
    {
      "anonymous": false,
      "inputs": [
        {
          "indexed": false,
          "internalType": "uint256",
          "name": "roll",
          "type": "uint256"
        }
      ],
      "name": "OutcomeDecided",
      "type": "event"
    },
    {
      "inputs": [],
      "name": "get_num_bets",
      "outputs": [
        {
          "internalType": "uint256",
          "name": "",
          "type": "uint256"
        }
      ],
      "stateMutability": "view",
      "type": "function"
    },
    {
      "inputs": [],
      "name": "get_bets",
      "outputs": [
        {
          "components": [
            {
              "internalType": "address payable",
              "name": "player",
              "type": "address"
            },
            {
              "internalType": "enum Roulette.BetType",
              "name": "bet_type",
              "type": "uint8"
            },
            {
              "internalType": "uint256",
              "name": "bet",
              "type": "uint256"
            },
            {
              "internalType": "uint256",
              "name": "bet_amount",
              "type": "uint256"
            }
          ],
          "internalType": "struct Roulette.Bet[]",
          "name": "",
          "type": "tuple[]"
        }
      ],
      "stateMutability": "view",
      "type": "function"
    },
    {
      "inputs": [
        {
          "internalType": "enum Roulette.BetType",
          "name": "bet_type",
          "type": "uint8"
        },
        {
          "internalType": "uint256",
          "name": "bet",
          "type": "uint256"
        }
      ],
      "name": "deposit",
      "outputs": [],
      "stateMutability": "payable",
      "type": "function"
    },
    {
      "inputs": [],
      "name": "play",
      "outputs": [],
      "stateMutability": "nonpayable",
      "type": "function"
    }
  ],
  "bytecode": "0x60806040526001600060146101000a81548160ff02191690831515021790555034801561002b57600080fd5b50336000806101000a81548173ffffffffffffffffffffffffffffffffffffffff021916908373ffffffffffffffffffffffffffffffffffffffff160217905550610d4c8061007b6000396000f3fe60806040526004361061003f5760003560e01c80637b275c881461004457806393e84cd91461006f578063990e959114610086578063f4d4c9d7146100b1575b600080fd5b34801561005057600080fd5b506100596100cd565b6040516100669190610a16565b60405180910390f35b34801561007b57600080fd5b506100846101d1565b005b34801561009257600080fd5b5061009b610467565b6040516100a89190610a47565b60405180910390f35b6100cb60048036038101906100c69190610ab8565b610474565b005b60606001805480602002602001604051908101604052809291908181526020016000905b828210156101c857838290600052602060002090600302016040518060800160405290816000820160009054906101000a900473ffffffffffffffffffffffffffffffffffffffff1673ffffffffffffffffffffffffffffffffffffffff1673ffffffffffffffffffffffffffffffffffffffff1681526020016000820160149054906101000a900460ff16600281111561018f5761018e6108ae565b5b60028111156101a1576101a06108ae565b5b815260200160018201548152602001600282015481525050815260200190600101906100f1565b50505050905090565b60008054906101000a900473ffffffffffffffffffffffffffffffffffffffff1673ffffffffffffffffffffffffffffffffffffffff163373ffffffffffffffffffffffffffffffffffffffff161461022957600080fd5b600060149054906101000a900460ff1661024257600080fd5b60008060146101000a81548160ff021916908315150217905550600061026860256105dc565b90507f34cc19c6a5758956f8aec81e3f501b1a3fe6c4b9879081781ec6be0a438f3a54816040516102999190610a47565b60405180910390a160005b60018054905081101561043a57600061038e600183815481106102ca576102c9610af8565b5b90600052602060002090600302016040518060800160405290816000820160009054906101000a900473ffffffffffffffffffffffffffffffffffffffff1673ffffffffffffffffffffffffffffffffffffffff1673ffffffffffffffffffffffffffffffffffffffff1681526020016000820160149054906101000a900460ff16600281111561035e5761035d6108ae565b5b60028111156103705761036f6108ae565b5b8152602001600182015481526020016002820154815250508461061c565b9050600081111561042657600182815481106103ad576103ac610af8565b5b906000526020600020906003020160000160009054906101000a900473ffffffffffffffffffffffffffffffffffffffff1673ffffffffffffffffffffffffffffffffffffffff166108fc829081150290604051600060405180830381858888f19350505050158015610424573d6000803e3d6000fd5b505b50808061043290610b56565b9150506102a4565b506001600061044991906107bb565b6001600060146101000a81548160ff02191690831515021790555050565b6000600180549050905090565b600060149054906101000a900460ff1661048d57600080fd5b6000341161049a57600080fd5b600060405180608001604052803373ffffffffffffffffffffffffffffffffffffffff1681526020018460028111156104d6576104d56108ae565b5b8152602001838152602001348152509050600181908060018154018082558091505060019003906000526020600020906003020160009091909190915060008201518160000160006101000a81548173ffffffffffffffffffffffffffffffffffffffff021916908373ffffffffffffffffffffffffffffffffffffffff16021790555060208201518160000160146101000a81548160ff02191690836002811115610585576105846108ae565b5b0217905550604082015181600101556060820151816002015550507fa57654d9dea7a6159d461426e0cf53aeec9acb37e0bc98d127aad3e8ed0e3566816040516105cf9190610bf4565b60405180910390a1505050565b60008144426040516020016105f2929190610c30565b6040516020818303038152906040528051906020012060001c6106159190610c8b565b9050919050565b60008082141561062f5760009050610764565b60006002811115610643576106426108ae565b5b8360200151600281111561065a576106596108ae565b5b14156106a2576106698261076a565b610674576001610677565b60005b60ff168360400151141561069d57600283606001516106969190610cbc565b9050610764565b61075f565b600160028111156106b6576106b56108ae565b5b836020015160028111156106cd576106cc6108ae565b5b1415610708576002826106e09190610c8b565b8360400151141561070357600283606001516106fc9190610cbc565b9050610764565b61075e565b60028081111561071b5761071a6108ae565b5b83602001516002811115610732576107316108ae565b5b141561075d57818360400151141561075c57602383606001516107559190610cbc565b9050610764565b5b5b5b600090505b92915050565b6000600b82108061078757506012821180156107865750601d82105b5b156107a357600160028361079b9190610c8b565b1490506107b6565b60006002836107b29190610c8b565b1490505b919050565b50805460008255600302906000526020600020908101906107dc91906107df565b50565b5b8082111561083d57600080820160006101000a81549073ffffffffffffffffffffffffffffffffffffffff02191690556000820160146101000a81549060ff021916905560018201600090556002820160009055506003016107e0565b5090565b600081519050919050565b600082825260208201905092915050565b6000819050602082019050919050565b600073ffffffffffffffffffffffffffffffffffffffff82169050919050565b60006108988261086d565b9050919050565b6108a88161088d565b82525050565b7f4e487b7100000000000000000000000000000000000000000000000000000000600052602160045260246000fd5b600381106108ee576108ed6108ae565b5b50565b60008190506108ff826108dd565b919050565b600061090f826108f1565b9050919050565b61091f81610904565b82525050565b6000819050919050565b61093881610925565b82525050565b608082016000820151610954600085018261089f565b5060208201516109676020850182610916565b50604082015161097a604085018261092f565b50606082015161098d606085018261092f565b50505050565b600061099f838361093e565b60808301905092915050565b6000602082019050919050565b60006109c382610841565b6109cd818561084c565b93506109d88361085d565b8060005b83811015610a095781516109f08882610993565b97506109fb836109ab565b9250506001810190506109dc565b5085935050505092915050565b60006020820190508181036000830152610a3081846109b8565b905092915050565b610a4181610925565b82525050565b6000602082019050610a5c6000830184610a38565b92915050565b600080fd5b60038110610a7457600080fd5b50565b600081359050610a8681610a67565b92915050565b610a9581610925565b8114610aa057600080fd5b50565b600081359050610ab281610a8c565b92915050565b60008060408385031215610acf57610ace610a62565b5b6000610add85828601610a77565b9250506020610aee85828601610aa3565b9150509250929050565b7f4e487b7100000000000000000000000000000000000000000000000000000000600052603260045260246000fd5b7f4e487b7100000000000000000000000000000000000000000000000000000000600052601160045260246000fd5b6000610b6182610925565b91507fffffffffffffffffffffffffffffffffffffffffffffffffffffffffffffffff821415610b9457610b93610b27565b5b600182019050919050565b608082016000820151610bb5600085018261089f565b506020820151610bc86020850182610916565b506040820151610bdb604085018261092f565b506060820151610bee606085018261092f565b50505050565b6000608082019050610c096000830184610b9f565b92915050565b6000819050919050565b610c2a610c2582610925565b610c0f565b82525050565b6000610c3c8285610c19565b602082019150610c4c8284610c19565b6020820191508190509392505050565b7f4e487b7100000000000000000000000000000000000000000000000000000000600052601260045260246000fd5b6000610c9682610925565b9150610ca183610925565b925082610cb157610cb0610c5c565b5b828206905092915050565b6000610cc782610925565b9150610cd283610925565b9250817fffffffffffffffffffffffffffffffffffffffffffffffffffffffffffffffff0483118215151615610d0b57610d0a610b27565b5b82820290509291505056fea2646970667358221220dd45a95c135f8869f55e08aa25297560a7dbbe529f6460ceed2f8263e5e4754564736f6c63430008090033",
  "immutableReferences": {},
  "source": "// SPDX-License-Identifier: MIT\npragma solidity >=0.4.22 <0.9.0;\n\ncontract Roulette {\n    enum BetType{ \n        COLOUR, \n        ODDEVEN,\n        STRAIGHTUP\n        /*\n        HIGHLOW, \n        COLUMN, \n        DOZENS, \n        SPLIT, \n        STREET, \n        CORNER, \n        LINE, \n        FIVE, \n        BASKET, \n        SNAKE \n        */\n    }\n    \n    struct Bet {\n        address payable player;\n        BetType bet_type;\n        uint bet;\n        uint bet_amount;\n    }\n    \n    \n    \n    // Used so dApp can listen to emitted event to update UIs as soon as the outcome is rolled\n    event OutcomeDecided(uint roll);\n    event BetPlaced(Bet bet);\n    \n    address house;\n    bool ready = true;\n    Bet[] bets;\n    \n    // Sets the house on minting of the contract, i.e. who controls the flow of the game\n    constructor() {\n        house = msg.sender;\n    }\n    \n    // Note: Replace with chainlink\n    function random(uint mod) private view returns (uint) {\n        return uint(keccak256(abi.encodePacked(block.difficulty, block.timestamp))) % mod;\n    } \n    \n    function get_num_bets() public view returns (uint) {\n        return bets.length;\n    }\n\n    function get_bets() public view returns (Bet[] memory) {\n        return bets;\n    }\n\n    function deposit(BetType bet_type, uint bet) public payable {\n        require(ready);\n        require(msg.value > 0);\n        Bet memory b = Bet(payable(msg.sender), bet_type, bet, msg.value);\n        bets.push(b);\n        emit BetPlaced(b);\n    }\n    \n    function is_red(uint roll) pure private returns (bool) {\n        if(roll < 11 || (roll > 18 && roll < 29)) {\n            // Red odd, black even\n            return roll % 2 == 1;\n        } else {\n            return roll % 2 == 0;\n        }           \n    }\n    \n    function get_winnings(Bet memory bet, uint roll) pure private returns (uint256) {\n        // House edge, contract keeps the money\n        if(roll == 0) {\n            return 0;\n        }\n        \n        if(bet.bet_type == BetType.COLOUR) {\n            // 0 = red, 1 = black\n            if(bet.bet == (is_red(roll) ? 0 : 1)) {\n                return bet.bet_amount * 2;\n            }\n        } else if(bet.bet_type == BetType.ODDEVEN) {\n            // 0 = even, 1 = odd\n            if(bet.bet == (roll % 2)) {\n                return bet.bet_amount * 2;\n            }\n        } else if(bet.bet_type == BetType.STRAIGHTUP) {\n            if(bet.bet == roll) {\n                return bet.bet_amount * 35;\n            }\n        }\n        \n        return 0;\n    }\n    \n    function play() public {\n        require(msg.sender == house);\n        require(ready);\n        \n        ready = false;\n        \n        uint roll = random(37);\n        emit OutcomeDecided(roll);\n        \n        for(uint256 i = 0; i < bets.length; i ++) {\n            uint256 w = get_winnings(bets[i], roll);\n            \n            if(w > 0) {\n               bets[i].player.transfer(w);\n            }\n        }\n        \n        delete bets;\n        ready = true;\n    }\n}\n",
  "sourcePath": "F:\\1Repo\\glass-casino\\contracts\\Roulette.sol",
  "compiler": {
    "name": "solc",
    "version": "0.8.9+commit.e5eed63a.Emscripten.clang"
  },
  "schemaVersion": "3.4.3",
  "updatedAt": "2021-11-09T15:59:11.372Z",
  "devdoc": {
    "kind": "dev",
    "methods": {},
    "version": 1
  },
  "userdoc": {
    "kind": "user",
    "methods": {},
    "version": 1
  }
}