{
  "contractName": "Roulette",
  "abi": [
    {
      "inputs": [],
      "stateMutability": "nonpayable",
      "type": "constructor"
    },
    {
      "anonymous": false,
      "inputs": [
        {
          "components": [
            {
              "internalType": "address payable",
              "name": "player",
              "type": "address"
            },
            {
              "internalType": "enum Roulette.BetType",
              "name": "bet_type",
              "type": "uint8"
            },
            {
              "internalType": "uint256",
              "name": "bet",
              "type": "uint256"
            },
            {
              "internalType": "uint256",
              "name": "bet_amount",
              "type": "uint256"
            }
          ],
          "indexed": false,
          "internalType": "struct Roulette.Bet",
          "name": "bet",
          "type": "tuple"
        }
      ],
      "name": "BetPlaced",
      "type": "event"
    },
    {
      "anonymous": false,
      "inputs": [
        {
          "indexed": false,
          "internalType": "uint256",
          "name": "roll",
          "type": "uint256"
        }
      ],
      "name": "OutcomeDecided",
      "type": "event"
    },
    {
      "inputs": [],
      "name": "get_bets",
      "outputs": [
        {
          "components": [
            {
              "internalType": "address payable",
              "name": "player",
              "type": "address"
            },
            {
              "internalType": "enum Roulette.BetType",
              "name": "bet_type",
              "type": "uint8"
            },
            {
              "internalType": "uint256",
              "name": "bet",
              "type": "uint256"
            },
            {
              "internalType": "uint256",
              "name": "bet_amount",
              "type": "uint256"
            }
          ],
          "internalType": "struct Roulette.Bet[]",
          "name": "",
          "type": "tuple[]"
        }
      ],
      "stateMutability": "view",
      "type": "function",
      "constant": true
    },
    {
      "inputs": [],
      "name": "get_bets_length",
      "outputs": [
        {
          "internalType": "uint256",
          "name": "",
          "type": "uint256"
        }
      ],
      "stateMutability": "view",
      "type": "function",
      "constant": true
    },
    {
      "inputs": [
        {
          "internalType": "enum Roulette.BetType",
          "name": "bet_type",
          "type": "uint8"
        },
        {
          "internalType": "uint256",
          "name": "bet",
          "type": "uint256"
        }
      ],
      "name": "deposit",
      "outputs": [],
      "stateMutability": "payable",
      "type": "function",
      "payable": true
    },
    {
      "inputs": [
        {
          "internalType": "uint256",
          "name": "mod",
          "type": "uint256"
        }
      ],
      "name": "random",
      "outputs": [
        {
          "internalType": "uint256",
          "name": "",
          "type": "uint256"
        }
      ],
      "stateMutability": "view",
      "type": "function",
      "constant": true
    },
    {
      "inputs": [
        {
          "internalType": "uint256",
          "name": "roll",
          "type": "uint256"
        }
      ],
      "name": "is_red",
      "outputs": [
        {
          "internalType": "bool",
          "name": "",
          "type": "bool"
        }
      ],
      "stateMutability": "pure",
      "type": "function",
      "constant": true
    },
    {
      "inputs": [
        {
          "components": [
            {
              "internalType": "address payable",
              "name": "player",
              "type": "address"
            },
            {
              "internalType": "enum Roulette.BetType",
              "name": "bet_type",
              "type": "uint8"
            },
            {
              "internalType": "uint256",
              "name": "bet",
              "type": "uint256"
            },
            {
              "internalType": "uint256",
              "name": "bet_amount",
              "type": "uint256"
            }
          ],
          "internalType": "struct Roulette.Bet",
          "name": "bet",
          "type": "tuple"
        },
        {
          "internalType": "uint256",
          "name": "roll",
          "type": "uint256"
        }
      ],
      "name": "get_winnings",
      "outputs": [
        {
          "internalType": "uint256",
          "name": "",
          "type": "uint256"
        }
      ],
      "stateMutability": "pure",
      "type": "function",
      "constant": true
    },
    {
      "inputs": [],
      "name": "play",
      "outputs": [],
      "stateMutability": "nonpayable",
      "type": "function"
    }
  ],
  "bytecode": "0x60806040526001600060146101000a81548160ff02191690831515021790555034801561002b57600080fd5b50336000806101000a81548173ffffffffffffffffffffffffffffffffffffffff021916908373ffffffffffffffffffffffffffffffffffffffff1602179055506110168061007b6000396000f3fe6080604052600436106100705760003560e01c8063b4b674cb1161004e578063b4b674cb146100e2578063b863bd371461011f578063f0780bd51461015c578063f4d4c9d71461019957610070565b8063797fae9d146100755780637b275c88146100a057806393e84cd9146100cb575b600080fd5b34801561008157600080fd5b5061008a6101b5565b6040516100979190610c93565b60405180910390f35b3480156100ac57600080fd5b506100b56101c2565b6040516100c29190610c3b565b60405180910390f35b3480156100d757600080fd5b506100e06102c6565b005b3480156100ee57600080fd5b5061010960048036038101906101049190610a60565b61055c565b6040516101169190610c5d565b60405180910390f35b34801561012b57600080fd5b5061014660048036038101906101419190610a60565b6105ad565b6040516101539190610c93565b60405180910390f35b34801561016857600080fd5b50610183600480360381019061017e9190610a20565b6105ed565b6040516101909190610c93565b60405180910390f35b6101b360048036038101906101ae91906109e0565b61073b565b005b6000600180549050905090565b60606001805480602002602001604051908101604052809291908181526020016000905b828210156102bd57838290600052602060002090600302016040518060800160405290816000820160009054906101000a900473ffffffffffffffffffffffffffffffffffffffff1673ffffffffffffffffffffffffffffffffffffffff1673ffffffffffffffffffffffffffffffffffffffff1681526020016000820160149054906101000a900460ff16600281111561028457610283610ee6565b5b600281111561029657610295610ee6565b5b815260200160018201548152602001600282015481525050815260200190600101906101e6565b50505050905090565b60008054906101000a900473ffffffffffffffffffffffffffffffffffffffff1673ffffffffffffffffffffffffffffffffffffffff163373ffffffffffffffffffffffffffffffffffffffff161461031e57600080fd5b600060149054906101000a900460ff1661033757600080fd5b60008060146101000a81548160ff021916908315150217905550600061035d60256105ad565b90507f34cc19c6a5758956f8aec81e3f501b1a3fe6c4b9879081781ec6be0a438f3a548160405161038e9190610c93565b60405180910390a160005b60018054905081101561052f576000610483600183815481106103bf576103be610f15565b5b90600052602060002090600302016040518060800160405290816000820160009054906101000a900473ffffffffffffffffffffffffffffffffffffffff1673ffffffffffffffffffffffffffffffffffffffff1673ffffffffffffffffffffffffffffffffffffffff1681526020016000820160149054906101000a900460ff16600281111561045357610452610ee6565b5b600281111561046557610464610ee6565b5b815260200160018201548152602001600282015481525050846105ed565b9050600081111561051b57600182815481106104a2576104a1610f15565b5b906000526020600020906003020160000160009054906101000a900473ffffffffffffffffffffffffffffffffffffffff1673ffffffffffffffffffffffffffffffffffffffff166108fc829081150290604051600060405180830381858888f19350505050158015610519573d6000803e3d6000fd5b505b50808061052790610e04565b915050610399565b506001600061053e91906108a3565b6001600060146101000a81548160ff02191690831515021790555050565b6000600b82108061057957506012821180156105785750601d82105b5b1561059557600160028361058d9190610e57565b1490506105a8565b60006002836105a49190610e57565b1490505b919050565b60008144426040516020016105c3929190610c0f565b6040516020818303038152906040528051906020012060001c6105e69190610e57565b9050919050565b6000808214156106005760009050610735565b6000600281111561061457610613610ee6565b5b8360200151600281111561062b5761062a610ee6565b5b14156106735761063a8261055c565b610645576001610648565b60005b60ff168360400151141561066e57600283606001516106679190610d0c565b9050610735565b610730565b6001600281111561068757610686610ee6565b5b8360200151600281111561069e5761069d610ee6565b5b14156106d9576002826106b19190610e57565b836040015114156106d457600283606001516106cd9190610d0c565b9050610735565b61072f565b6002808111156106ec576106eb610ee6565b5b8360200151600281111561070357610702610ee6565b5b141561072e57818360400151141561072d57602383606001516107269190610d0c565b9050610735565b5b5b5b600090505b92915050565b600060149054906101000a900460ff1661075457600080fd5b6000341161076157600080fd5b600060405180608001604052803373ffffffffffffffffffffffffffffffffffffffff16815260200184600281111561079d5761079c610ee6565b5b8152602001838152602001348152509050600181908060018154018082558091505060019003906000526020600020906003020160009091909190915060008201518160000160006101000a81548173ffffffffffffffffffffffffffffffffffffffff021916908373ffffffffffffffffffffffffffffffffffffffff16021790555060208201518160000160146101000a81548160ff0219169083600281111561084c5761084b610ee6565b5b0217905550604082015181600101556060820151816002015550507fa57654d9dea7a6159d461426e0cf53aeec9acb37e0bc98d127aad3e8ed0e3566816040516108969190610c78565b60405180910390a1505050565b50805460008255600302906000526020600020908101906108c491906108c7565b50565b5b8082111561092557600080820160006101000a81549073ffffffffffffffffffffffffffffffffffffffff02191690556000820160146101000a81549060ff021916905560018201600090556002820160009055506003016108c8565b5090565b60008135905061093881610fa2565b92915050565b60008135905061094d81610fb9565b92915050565b60006080828403121561096957610968610f73565b5b6109736080610cae565b9050600061098384828501610929565b60008301525060206109978482850161093e565b60208301525060406109ab848285016109cb565b60408301525060606109bf848285016109cb565b60608301525092915050565b6000813590506109da81610fc9565b92915050565b600080604083850312156109f7576109f6610f78565b5b6000610a058582860161093e565b9250506020610a16858286016109cb565b9150509250929050565b60008060a08385031215610a3757610a36610f78565b5b6000610a4585828601610953565b9250506080610a56858286016109cb565b9150509250929050565b600060208284031215610a7657610a75610f78565b5b6000610a84848285016109cb565b91505092915050565b6000610a998383610b30565b60808301905092915050565b610aae81610d66565b82525050565b6000610abf82610ce3565b610ac98185610cfb565b9350610ad483610cd3565b8060005b83811015610b05578151610aec8882610a8d565b9750610af783610cee565b925050600181019050610ad8565b5085935050505092915050565b610b1b81610d78565b82525050565b610b2a81610dc1565b82525050565b608082016000820151610b466000850182610aa5565b506020820151610b596020850182610b21565b506040820151610b6c6040850182610bda565b506060820151610b7f6060850182610bda565b50505050565b608082016000820151610b9b6000850182610aa5565b506020820151610bae6020850182610b21565b506040820151610bc16040850182610bda565b506060820151610bd46060850182610bda565b50505050565b610be381610db7565b82525050565b610bf281610db7565b82525050565b610c09610c0482610db7565b610e4d565b82525050565b6000610c1b8285610bf8565b602082019150610c2b8284610bf8565b6020820191508190509392505050565b60006020820190508181036000830152610c558184610ab4565b905092915050565b6000602082019050610c726000830184610b12565b92915050565b6000608082019050610c8d6000830184610b85565b92915050565b6000602082019050610ca86000830184610be9565b92915050565b6000610cb8610cc9565b9050610cc48282610dd3565b919050565b6000604051905090565b6000819050602082019050919050565b600081519050919050565b6000602082019050919050565b600082825260208201905092915050565b6000610d1782610db7565b9150610d2283610db7565b9250817fffffffffffffffffffffffffffffffffffffffffffffffffffffffffffffffff0483118215151615610d5b57610d5a610e88565b5b828202905092915050565b6000610d7182610d97565b9050919050565b60008115159050919050565b6000819050610d9282610f8e565b919050565b600073ffffffffffffffffffffffffffffffffffffffff82169050919050565b6000819050919050565b6000610dcc82610d84565b9050919050565b610ddc82610f7d565b810181811067ffffffffffffffff82111715610dfb57610dfa610f44565b5b80604052505050565b6000610e0f82610db7565b91507fffffffffffffffffffffffffffffffffffffffffffffffffffffffffffffffff821415610e4257610e41610e88565b5b600182019050919050565b6000819050919050565b6000610e6282610db7565b9150610e6d83610db7565b925082610e7d57610e7c610eb7565b5b828206905092915050565b7f4e487b7100000000000000000000000000000000000000000000000000000000600052601160045260246000fd5b7f4e487b7100000000000000000000000000000000000000000000000000000000600052601260045260246000fd5b7f4e487b7100000000000000000000000000000000000000000000000000000000600052602160045260246000fd5b7f4e487b7100000000000000000000000000000000000000000000000000000000600052603260045260246000fd5b7f4e487b7100000000000000000000000000000000000000000000000000000000600052604160045260246000fd5b600080fd5b600080fd5b6000601f19601f8301169050919050565b60038110610f9f57610f9e610ee6565b5b50565b610fab81610d66565b8114610fb657600080fd5b50565b60038110610fc657600080fd5b50565b610fd281610db7565b8114610fdd57600080fd5b5056fea2646970667358221220f6e2d639d6a352b612b03822427bc869bd16624411988c033cf9fd474d04e9ad64736f6c63430008070033",
  "immutableReferences": {},
  "source": "/// @title Roulette 0.1.1\n/// @author awphi (https://github.com/awphi)\n/// @notice Roulette game from GlassCasino - L3 BSc ComSci Project @ Durham University\n/// @dev -\n\n// SPDX-License-Identifier: MIT\npragma solidity >=0.4.22 <0.9.0;\n\ncontract Roulette {\n  // TODO redo history with mappings\n\n  enum BetType {\n    COLOUR,\n    ODDEVEN,\n    STRAIGHTUP\n    /*\n            HIGHLOW, \n            COLUMN, \n            DOZENS, \n            SPLIT, \n            STREET, \n            CORNER, \n            LINE, \n            FIVE, \n            BASKET, \n            SNAKE \n            */\n  }\n\n  struct Bet {\n    address payable player;\n    BetType bet_type;\n    uint256 bet;\n    uint256 bet_amount;\n  }\n\n  // Used so dApp can listen to emitted event to update UIs as soon as the outcome is rolled\n  event OutcomeDecided(uint256 roll);\n  event BetPlaced(Bet bet);\n\n  address house;\n  bool ready = true;\n  Bet[] bets;\n\n  // Sets the house on minting of the contract, i.e. who controls the flow of the game\n  constructor() {\n    house = msg.sender;\n  }\n\n  function get_bets() public view returns (Bet[] memory) {\n    return bets;\n  }\n\n  function get_bets_length() public view returns (uint256) {\n    return bets.length;\n  }\n\n  function deposit(BetType bet_type, uint256 bet) public payable {\n    require(ready);\n    require(msg.value > 0);\n    Bet memory b = Bet(payable(msg.sender), bet_type, bet, msg.value);\n    bets.push(b);\n    emit BetPlaced(b);\n  }\n\n  // Note: Replace with chainlink\n  function random(uint256 mod) public view returns (uint256) {\n    return\n      uint256(keccak256(abi.encodePacked(block.difficulty, block.timestamp))) %\n      mod;\n  }\n\n  function is_red(uint256 roll) public pure returns (bool) {\n    if (roll < 11 || (roll > 18 && roll < 29)) {\n      // Red odd, black even\n      return roll % 2 == 1;\n    } else {\n      return roll % 2 == 0;\n    }\n  }\n\n  function get_winnings(Bet memory bet, uint256 roll)\n    public\n    pure\n    returns (uint256)\n  {\n    // House edge, contract keeps the money\n    if (roll == 0) {\n      return 0;\n    }\n\n    if (bet.bet_type == BetType.COLOUR) {\n      // 0 = red, 1 = black\n      if (bet.bet == (is_red(roll) ? 0 : 1)) {\n        return bet.bet_amount * 2;\n      }\n    } else if (bet.bet_type == BetType.ODDEVEN) {\n      // 0 = even, 1 = odd\n      if (bet.bet == (roll % 2)) {\n        return bet.bet_amount * 2;\n      }\n    } else if (bet.bet_type == BetType.STRAIGHTUP) {\n      if (bet.bet == roll) {\n        return bet.bet_amount * 35;\n      }\n    }\n\n    return 0;\n  }\n\n  function play() public {\n    require(msg.sender == house);\n    require(ready);\n\n    ready = false;\n\n    uint256 roll = random(37);\n    //add_history(roll);\n    emit OutcomeDecided(roll);\n\n    for (uint256 i = 0; i < bets.length; i++) {\n      uint256 w = get_winnings(bets[i], roll);\n\n      if (w > 0) {\n        bets[i].player.transfer(w);\n      }\n    }\n\n    delete bets;\n    ready = true;\n  }\n}\n",
  "sourcePath": "F:\\1Repo\\glass-casino\\contracts\\Roulette.sol",
  "compiler": {
    "name": "solc",
    "version": "0.8.7+commit.e28d00a7.Emscripten.clang"
  },
  "schemaVersion": "3.4.3",
  "updatedAt": "2022-01-11T16:58:04.717Z",
  "networkType": "ethereum",
  "devdoc": {
    "kind": "dev",
    "methods": {},
    "version": 1
  },
  "userdoc": {
    "kind": "user",
    "methods": {},
    "version": 1
  }
}