{
  "contractName": "Roulette",
  "abi": [
    {
      "anonymous": false,
      "inputs": [
        {
          "components": [
            {
              "internalType": "uint16",
              "name": "bet_type",
              "type": "uint16"
            },
            {
              "internalType": "uint16",
              "name": "bet",
              "type": "uint16"
            },
            {
              "internalType": "uint64",
              "name": "timestamp",
              "type": "uint64"
            },
            {
              "internalType": "address",
              "name": "player",
              "type": "address"
            },
            {
              "internalType": "uint256",
              "name": "bet_amount",
              "type": "uint256"
            }
          ],
          "indexed": false,
          "internalType": "struct Roulette.Bet",
          "name": "bet",
          "type": "tuple"
        }
      ],
      "name": "BetPlaced",
      "type": "event"
    },
    {
      "anonymous": false,
      "inputs": [
        {
          "indexed": false,
          "internalType": "uint256",
          "name": "roll",
          "type": "uint256"
        }
      ],
      "name": "OutcomeDecided",
      "type": "event"
    },
    {
      "anonymous": false,
      "inputs": [
        {
          "indexed": true,
          "internalType": "address",
          "name": "previousOwner",
          "type": "address"
        },
        {
          "indexed": true,
          "internalType": "address",
          "name": "newOwner",
          "type": "address"
        }
      ],
      "name": "OwnershipTransferred",
      "type": "event"
    },
    {
      "inputs": [
        {
          "internalType": "address",
          "name": "add",
          "type": "address"
        }
      ],
      "name": "balanceOf",
      "outputs": [
        {
          "internalType": "uint256",
          "name": "",
          "type": "uint256"
        }
      ],
      "stateMutability": "view",
      "type": "function",
      "constant": true
    },
    {
      "inputs": [],
      "name": "deposit",
      "outputs": [],
      "stateMutability": "payable",
      "type": "function",
      "payable": true
    },
    {
      "inputs": [],
      "name": "owner",
      "outputs": [
        {
          "internalType": "address",
          "name": "",
          "type": "address"
        }
      ],
      "stateMutability": "view",
      "type": "function",
      "constant": true
    },
    {
      "inputs": [],
      "name": "renounceOwnership",
      "outputs": [],
      "stateMutability": "nonpayable",
      "type": "function"
    },
    {
      "inputs": [
        {
          "internalType": "address",
          "name": "newOwner",
          "type": "address"
        }
      ],
      "name": "transferOwnership",
      "outputs": [],
      "stateMutability": "nonpayable",
      "type": "function"
    },
    {
      "inputs": [
        {
          "internalType": "uint256",
          "name": "amount",
          "type": "uint256"
        }
      ],
      "name": "withdraw",
      "outputs": [],
      "stateMutability": "nonpayable",
      "type": "function"
    },
    {
      "inputs": [],
      "name": "get_bets",
      "outputs": [
        {
          "components": [
            {
              "internalType": "uint16",
              "name": "bet_type",
              "type": "uint16"
            },
            {
              "internalType": "uint16",
              "name": "bet",
              "type": "uint16"
            },
            {
              "internalType": "uint64",
              "name": "timestamp",
              "type": "uint64"
            },
            {
              "internalType": "address",
              "name": "player",
              "type": "address"
            },
            {
              "internalType": "uint256",
              "name": "bet_amount",
              "type": "uint256"
            }
          ],
          "internalType": "struct Roulette.Bet[]",
          "name": "",
          "type": "tuple[]"
        }
      ],
      "stateMutability": "view",
      "type": "function",
      "constant": true
    },
    {
      "inputs": [],
      "name": "get_bets_length",
      "outputs": [
        {
          "internalType": "uint128",
          "name": "",
          "type": "uint128"
        }
      ],
      "stateMutability": "view",
      "type": "function",
      "constant": true
    },
    {
      "inputs": [],
      "name": "get_max_bets",
      "outputs": [
        {
          "internalType": "uint256",
          "name": "",
          "type": "uint256"
        }
      ],
      "stateMutability": "view",
      "type": "function",
      "constant": true
    },
    {
      "inputs": [
        {
          "internalType": "uint16",
          "name": "bet_type",
          "type": "uint16"
        },
        {
          "internalType": "uint256",
          "name": "bet_amount",
          "type": "uint256"
        },
        {
          "internalType": "uint16",
          "name": "bet",
          "type": "uint16"
        }
      ],
      "name": "place_bet",
      "outputs": [],
      "stateMutability": "nonpayable",
      "type": "function"
    },
    {
      "inputs": [
        {
          "internalType": "uint256",
          "name": "mod",
          "type": "uint256"
        }
      ],
      "name": "random",
      "outputs": [
        {
          "internalType": "uint256",
          "name": "",
          "type": "uint256"
        }
      ],
      "stateMutability": "view",
      "type": "function",
      "constant": true
    },
    {
      "inputs": [
        {
          "internalType": "uint256",
          "name": "roll",
          "type": "uint256"
        }
      ],
      "name": "is_red",
      "outputs": [
        {
          "internalType": "bool",
          "name": "",
          "type": "bool"
        }
      ],
      "stateMutability": "pure",
      "type": "function",
      "constant": true
    },
    {
      "inputs": [
        {
          "components": [
            {
              "internalType": "uint16",
              "name": "bet_type",
              "type": "uint16"
            },
            {
              "internalType": "uint16",
              "name": "bet",
              "type": "uint16"
            },
            {
              "internalType": "uint64",
              "name": "timestamp",
              "type": "uint64"
            },
            {
              "internalType": "address",
              "name": "player",
              "type": "address"
            },
            {
              "internalType": "uint256",
              "name": "bet_amount",
              "type": "uint256"
            }
          ],
          "internalType": "struct Roulette.Bet",
          "name": "bet",
          "type": "tuple"
        },
        {
          "internalType": "uint256",
          "name": "roll",
          "type": "uint256"
        }
      ],
      "name": "calculate_winnings",
      "outputs": [
        {
          "internalType": "uint256",
          "name": "",
          "type": "uint256"
        }
      ],
      "stateMutability": "pure",
      "type": "function",
      "constant": true
    },
    {
      "inputs": [],
      "name": "play",
      "outputs": [],
      "stateMutability": "nonpayable",
      "type": "function"
    }
  ],
  "bytecode": "0x6080604052600280546001600160801b031916905534801561002057600080fd5b5061002a3361002f565b61007f565b600080546001600160a01b038381166001600160a01b0319831681178455604051919092169283917f8be0079c531659141344cd1fd0a4f28419497f9722a3daafe3b4186f6b6457e09190a35050565b6110dd8061008e6000396000f3fe6080604052600436106100dd5760003560e01c80638da5cb5b1161007f578063b4b674cb11610059578063b4b674cb1461023d578063b863bd371461026d578063d0e30db01461028d578063f2fde38b1461029557600080fd5b80638da5cb5b146101ec57806393e84cd9146102145780639b5547ad1461022957600080fd5b806370a08231116100bb57806370a0823114610157578063715018a61461018d578063797fae9d146101a25780637b275c88146101ca57600080fd5b80632e1a7d4d146100e257806332e5b0bc1461010457806342acafbc14610137575b600080fd5b3480156100ee57600080fd5b506101026100fd366004610ed9565b6102b5565b005b34801561011057600080fd5b5061012461011f366004610df1565b610460565b6040519081526020015b60405180910390f35b34801561014357600080fd5b50610102610152366004610e9d565b610534565b34801561016357600080fd5b50610124610172366004610dcf565b6001600160a01b031660009081526001602052604090205490565b34801561019957600080fd5b50610102610818565b3480156101ae57600080fd5b506002546040516001600160801b03909116815260200161012e565b3480156101d657600080fd5b506101df61084e565b60405161012e9190610ef2565b3480156101f857600080fd5b506000546040516001600160a01b03909116815260200161012e565b34801561022057600080fd5b50610102610999565b34801561023557600080fd5b506080610124565b34801561024957600080fd5b5061025d610258366004610ed9565b610b9f565b604051901515815260200161012e565b34801561027957600080fd5b50610124610288366004610ed9565b610beb565b610102610c2d565b3480156102a157600080fd5b506101026102b0366004610dcf565b610ca3565b600081116103165760405162461bcd60e51b8152602060048201526024808201527f496e76616c6964207769746864726177616c20616d6f756e74207265717565736044820152633a32b21760e11b60648201526084015b60405180910390fd5b336000908152600160205260409020548111156103875760405162461bcd60e51b815260206004820152602960248201527f496e73756666696369656e742066756e647320746f2070726f636573732077696044820152683a34323930bbb0b61760b91b606482015260840161030d565b8047101561040b5760405162461bcd60e51b8152602060048201526044602482018190527f42616e6b2068617320696e73756666696369656e742066756e647320746f2070908201527f726f63657373207769746864726177616c202d2074727920616761696e206c616064820152633a32b91760e11b608482015260a40161030d565b336000908152600160205260408120805483929061042a908490611011565b9091555050604051339082156108fc029083906000818181858888f1935050505015801561045c573d6000803e3d6000fd5b5050565b60008161046f5750600061052e565b825161ffff166104be5761048282610b9f565b61048d576001610490565b60005b60ff16836020015161ffff1614156104b95760808301516104b2906002610ff2565b905061052e565b61052a565b826000015161ffff16600114156104f9576104da600283611043565b836020015161ffff1614156104b95760808301516104b2906002610ff2565b826000015161ffff166002141561052a5781836020015161ffff16141561052a5760808301516104b2906023610ff2565b5060005b92915050565b6000821161057a5760405162461bcd60e51b815260206004820152601360248201527224b73b30b634b2103132ba1030b6b7bab73a1760691b604482015260640161030d565b336000908152600160205260409020548211156105d95760405162461bcd60e51b815260206004820181905260248201527f496e73756666696369656e742066756e647320746f20636f766572206265742e604482015260640161030d565b60025460806001600160801b039091161061062e5760405162461bcd60e51b815260206004820152601560248201527426b0bc34b6bab6903132ba39903932b0b1b432b21760591b604482015260640161030d565b336000908152600160205260408120805484929061064d908490611011565b90915550506040805160a08101825261ffff80861682528316602082015267ffffffffffffffff42169181019190915233606082015260808082018490526002546003916001600160801b039091169081106106ab576106ab61107b565b825160029182029290920180546020850151604086015160608701516001600160a01b0316600160601b026bffffffffffffffffffffffff67ffffffffffffffff909216640100000000029190911663ffffffff61ffff938416620100000263ffffffff19909516939097169290921792909217949094169390931792909217825560809092015160019182015581549091906000906107559084906001600160801b0316610faf565b92506101000a8154816001600160801b0302191690836001600160801b031602179055507f168ba5d36b75cd9e2c0d58cc82bada2c8502840a34b832d9f9f943252ae3db0d6003600160806107aa9190611011565b608081106107ba576107ba61107b565b6002020160405161080b9190815461ffff8082168352601082901c1660208084019190915281901c67ffffffffffffffff166040830152606090811c90820152600190910154608082015260a00190565b60405180910390a1505050565b6000546001600160a01b031633146108425760405162461bcd60e51b815260040161030d90610f7a565b61084c6000610d3e565b565b6002546060906000906001600160801b031667ffffffffffffffff81111561087857610878611091565b6040519080825280602002602001820160405280156108d157816020015b6040805160a0810182526000808252602080830182905292820181905260608201819052608082015282526000199092019101816108965790505b50905060005b6002546001600160801b031681101561099357600381608081106108fd576108fd61107b565b6040805160a08101825260029290920292909201805461ffff8082168452620100008204166020840152640100000000810467ffffffffffffffff1693830193909352600160601b9092046001600160a01b03166060820152600190910154608082015282518390839081106109755761097561107b565b6020026020010181905250808061098b90611028565b9150506108d7565b50919050565b6000546001600160a01b031633146109c35760405162461bcd60e51b815260040161030d90610f7a565b60006109cf6025610beb565b90507f34cc19c6a5758956f8aec81e3f501b1a3fe6c4b9879081781ec6be0a438f3a5481604051610a0291815260200190565b60405180910390a160005b6002546001600160801b0316811015610b82576000610aa260038360808110610a3857610a3861107b565b6040805160a08101825260029290920292909201805461ffff8082168452620100008204166020840152640100000000810467ffffffffffffffff1693830193909352600160601b9092046001600160a01b03166060820152600190910154608082015284610460565b90508015610b0457806001600060038560808110610ac257610ac261107b565b6002020154600160601b90046001600160a01b03168152602081019190915260400160009081208054909190610af9908490610fda565b90915550610b6f9050565b82610b6f5760038260808110610b1c57610b1c61107b565b600202016001015460016000610b3a6000546001600160a01b031690565b6001600160a01b03166001600160a01b031681526020019081526020016000206000828254610b699190610fda565b90915550505b5080610b7a81611028565b915050610a0d565b5050600280546fffffffffffffffffffffffffffffffff19169055565b6000600b821080610bbb5750601282118015610bbb5750601d82105b15610bd457610bcb600283611043565b60011492915050565b610bdf600283611043565b1592915050565b919050565b6000814442604051602001610c0a929190918252602082015260400190565b6040516020818303038152906040528051906020012060001c61052e9190611043565b60003411610c7d5760405162461bcd60e51b815260206004820152601760248201527f496e76616c6964206465706f73697420616d6f756e742e000000000000000000604482015260640161030d565b3360009081526001602052604081208054349290610c9c908490610fda565b9091555050565b6000546001600160a01b03163314610ccd5760405162461bcd60e51b815260040161030d90610f7a565b6001600160a01b038116610d325760405162461bcd60e51b815260206004820152602660248201527f4f776e61626c653a206e6577206f776e657220697320746865207a65726f206160448201526564647265737360d01b606482015260840161030d565b610d3b81610d3e565b50565b600080546001600160a01b038381166001600160a01b0319831681178455604051919092169283917f8be0079c531659141344cd1fd0a4f28419497f9722a3daafe3b4186f6b6457e09190a35050565b80356001600160a01b0381168114610be657600080fd5b803561ffff81168114610be657600080fd5b803567ffffffffffffffff81168114610be657600080fd5b600060208284031215610de157600080fd5b610dea82610d8e565b9392505050565b60008082840360c0811215610e0557600080fd5b60a0811215610e1357600080fd5b5060405160a0810181811067ffffffffffffffff82111715610e4557634e487b7160e01b600052604160045260246000fd5b604052610e5184610da5565b8152610e5f60208501610da5565b6020820152610e7060408501610db7565b6040820152610e8160608501610d8e565b6060820152608084810135908201529460a09093013593505050565b600080600060608486031215610eb257600080fd5b610ebb84610da5565b925060208401359150610ed060408501610da5565b90509250925092565b600060208284031215610eeb57600080fd5b5035919050565b602080825282518282018190526000919060409081850190868401855b82811015610f6d578151805161ffff90811686528782015116878601528581015167ffffffffffffffff16868601526060808201516001600160a01b0316908601526080908101519085015260a09093019290850190600101610f0f565b5091979650505050505050565b6020808252818101527f4f776e61626c653a2063616c6c6572206973206e6f7420746865206f776e6572604082015260600190565b60006001600160801b03808316818516808303821115610fd157610fd1611065565b01949350505050565b60008219821115610fed57610fed611065565b500190565b600081600019048311821515161561100c5761100c611065565b500290565b60008282101561102357611023611065565b500390565b600060001982141561103c5761103c611065565b5060010190565b60008261106057634e487b7160e01b600052601260045260246000fd5b500690565b634e487b7160e01b600052601160045260246000fd5b634e487b7160e01b600052603260045260246000fd5b634e487b7160e01b600052604160045260246000fdfea26469706673582212205a6183cb9e183e18443ca6695b739de3bdc0910fd124b9f12a01106abfb62fa964736f6c63430008070033",
  "immutableReferences": {},
  "source": "/// @title Roulette 0.2.2\n/// @author awphi (https://github.com/awphi)\n\n// SPDX-License-Identifier: MIT\npragma solidity >=0.4.22 <0.9.0;\n\nimport \"./Bank.sol\";\nimport \"@openzeppelin/contracts/access/Ownable.sol\";\n\ncontract Roulette is Ownable, Bank {\n  struct Bet {\n    uint16 bet_type;\n    uint16 bet;\n    uint64 timestamp;\n    address player;\n\n    uint256 bet_amount;\n  }\n\n  uint128 numBets = 0;\n  Bet[128] bets;\n\n  // Used so dApp can listen to emitted event to update UIs as soon as the outcome is rolled\n  event OutcomeDecided(uint roll);\n  event BetPlaced(Bet bet);\n\n  function get_bets() public view returns (Bet[] memory) {\n    Bet[] memory ret = new Bet[](numBets);\n\n    for(uint i = 0; i < numBets; i ++) {\n      ret[i] = bets[i];\n    }\n\n    return ret;\n  }\n\n  function get_bets_length() public view returns (uint128) {\n    return numBets;\n  }\n\n  function get_max_bets() public view returns (uint) {\n    return bets.length;\n  }\n\n  function place_bet(uint16 bet_type, uint256 bet_amount, uint16 bet) public {\n    require(bet_amount > 0, \"Invalid bet amount.\");\n    require(funds[msg.sender] >= bet_amount, \"Insufficient funds to cover bet.\");\n    require(numBets < bets.length, \"Maximum bets reached.\");\n\n    funds[msg.sender] -= bet_amount;\n    bets[numBets] = Bet(bet_type, bet, uint64(block.timestamp), msg.sender, bet_amount);\n    numBets += 1;\n    emit BetPlaced(bets[bets.length - 1]);\n  }\n\n  // Note: Replace with chainlink\n  function random(uint mod) public view returns (uint) {\n    return\n      uint(keccak256(abi.encodePacked(block.difficulty, block.timestamp))) % mod;\n  }\n\n  function is_red(uint roll) public pure returns (bool) {\n    if (roll < 11 || (roll > 18 && roll < 29)) {\n      // Red odd, black even\n      return roll % 2 == 1;\n    } else {\n      return roll % 2 == 0;\n    }\n  }\n\n  function calculate_winnings(Bet memory bet, uint roll) public pure returns (uint) {\n    // House edge\n    if (roll == 0) {\n      return 0;\n    }\n\n    /*\n    COLOUR = 0,\n    ODDEVEN = 1,\n    STRAIGHTUP = 2,\n    HIGHLOW = 3, \n    COLUMN = 4, \n    DOZENS = 5, \n    SPLIT = 6, \n    STREET = 7, \n    CORNER = 8, \n    LINE = 9, \n    FIVE = 10, \n    BASKET = 11, \n    SNAKE = 12 \n    */\n\n    if (bet.bet_type == 0) {\n      // 0 = red, 1 = black\n      if (bet.bet == (is_red(roll) ? 0 : 1)) {\n        return bet.bet_amount * 2;\n      }\n    } else if (bet.bet_type == 1) {\n      // 0 = even, 1 = odd\n      if (bet.bet == (roll % 2)) {\n        return bet.bet_amount * 2;\n      }\n    } else if (bet.bet_type == 2) {\n      if (bet.bet == roll) {\n        return bet.bet_amount * 35;\n      }\n    }\n\n    return 0;\n  }\n\n  function play() public onlyOwner {\n    uint roll = random(37);\n    emit OutcomeDecided(roll);\n\n    for (uint i = 0; i < numBets; i++) {\n      uint w = calculate_winnings(bets[i], roll);\n      if(w > 0) {\n        // If player won (w > 0) designate their winnings (incl. stake) to them\n        funds[bets[i].player] += w;\n      } else if(roll == 0) {\n        /** @dev When a 0 is rolled, house will skim all bets. This can be used to pay for more LINK, hosting fees or just treated as profit - \n          it up to the owner. In the long-term, with enough initial capital this is a stable system.\n        **/\n        funds[owner()] += bets[i].bet_amount;\n      }\n    }\n\n    numBets = 0;\n  }\n}\n",
  "sourcePath": "F:\\1Repo\\glass-casino\\contracts\\Roulette.sol",
  "compiler": {
    "name": "solc",
    "version": "0.8.7+commit.e28d00a7.Emscripten.clang"
  },
  "schemaVersion": "3.4.3",
  "updatedAt": "2022-02-21T23:22:56.048Z",
  "networkType": "ethereum",
  "devdoc": {
    "kind": "dev",
    "methods": {
      "owner()": {
        "details": "Returns the address of the current owner."
      },
      "renounceOwnership()": {
        "details": "Leaves the contract without owner. It will not be possible to call `onlyOwner` functions anymore. Can only be called by the current owner. NOTE: Renouncing ownership will leave the contract without an owner, thereby removing any functionality that is only available to the owner."
      },
      "transferOwnership(address)": {
        "details": "Transfers ownership of the contract to a new account (`newOwner`). Can only be called by the current owner."
      }
    },
    "version": 1
  },
  "userdoc": {
    "kind": "user",
    "methods": {},
    "version": 1
  }
}