{
  "contractName": "Roulette",
  "abi": [
    {
      "inputs": [
        {
          "internalType": "address",
          "name": "bankAddr",
          "type": "address"
        }
      ],
      "stateMutability": "nonpayable",
      "type": "constructor"
    },
    {
      "anonymous": false,
      "inputs": [
        {
          "components": [
            {
              "internalType": "uint16",
              "name": "bet_type",
              "type": "uint16"
            },
            {
              "internalType": "uint16",
              "name": "bet",
              "type": "uint16"
            },
            {
              "internalType": "uint64",
              "name": "timestamp",
              "type": "uint64"
            },
            {
              "internalType": "address",
              "name": "player",
              "type": "address"
            },
            {
              "internalType": "uint256",
              "name": "bet_amount",
              "type": "uint256"
            }
          ],
          "indexed": false,
          "internalType": "struct Roulette.Bet",
          "name": "bet",
          "type": "tuple"
        }
      ],
      "name": "BetPlaced",
      "type": "event"
    },
    {
      "anonymous": false,
      "inputs": [
        {
          "indexed": false,
          "internalType": "uint256",
          "name": "roll",
          "type": "uint256"
        }
      ],
      "name": "OutcomeDecided",
      "type": "event"
    },
    {
      "anonymous": false,
      "inputs": [
        {
          "indexed": true,
          "internalType": "address",
          "name": "previousOwner",
          "type": "address"
        },
        {
          "indexed": true,
          "internalType": "address",
          "name": "newOwner",
          "type": "address"
        }
      ],
      "name": "OwnershipTransferred",
      "type": "event"
    },
    {
      "inputs": [],
      "name": "owner",
      "outputs": [
        {
          "internalType": "address",
          "name": "",
          "type": "address"
        }
      ],
      "stateMutability": "view",
      "type": "function",
      "constant": true
    },
    {
      "inputs": [],
      "name": "renounceOwnership",
      "outputs": [],
      "stateMutability": "nonpayable",
      "type": "function"
    },
    {
      "inputs": [
        {
          "internalType": "address",
          "name": "newOwner",
          "type": "address"
        }
      ],
      "name": "transferOwnership",
      "outputs": [],
      "stateMutability": "nonpayable",
      "type": "function"
    },
    {
      "inputs": [],
      "name": "get_bets",
      "outputs": [
        {
          "components": [
            {
              "internalType": "uint16",
              "name": "bet_type",
              "type": "uint16"
            },
            {
              "internalType": "uint16",
              "name": "bet",
              "type": "uint16"
            },
            {
              "internalType": "uint64",
              "name": "timestamp",
              "type": "uint64"
            },
            {
              "internalType": "address",
              "name": "player",
              "type": "address"
            },
            {
              "internalType": "uint256",
              "name": "bet_amount",
              "type": "uint256"
            }
          ],
          "internalType": "struct Roulette.Bet[]",
          "name": "",
          "type": "tuple[]"
        }
      ],
      "stateMutability": "view",
      "type": "function",
      "constant": true
    },
    {
      "inputs": [],
      "name": "get_bets_length",
      "outputs": [
        {
          "internalType": "uint128",
          "name": "",
          "type": "uint128"
        }
      ],
      "stateMutability": "view",
      "type": "function",
      "constant": true
    },
    {
      "inputs": [],
      "name": "get_max_bets",
      "outputs": [
        {
          "internalType": "uint256",
          "name": "",
          "type": "uint256"
        }
      ],
      "stateMutability": "view",
      "type": "function",
      "constant": true
    },
    {
      "inputs": [
        {
          "internalType": "uint16",
          "name": "bet_type",
          "type": "uint16"
        },
        {
          "internalType": "uint256",
          "name": "bet_amount",
          "type": "uint256"
        },
        {
          "internalType": "uint16",
          "name": "bet",
          "type": "uint16"
        }
      ],
      "name": "place_bet",
      "outputs": [],
      "stateMutability": "nonpayable",
      "type": "function"
    },
    {
      "inputs": [
        {
          "internalType": "uint256",
          "name": "mod",
          "type": "uint256"
        }
      ],
      "name": "random",
      "outputs": [
        {
          "internalType": "uint256",
          "name": "",
          "type": "uint256"
        }
      ],
      "stateMutability": "view",
      "type": "function",
      "constant": true
    },
    {
      "inputs": [
        {
          "internalType": "uint256",
          "name": "roll",
          "type": "uint256"
        }
      ],
      "name": "is_red",
      "outputs": [
        {
          "internalType": "bool",
          "name": "",
          "type": "bool"
        }
      ],
      "stateMutability": "pure",
      "type": "function",
      "constant": true
    },
    {
      "inputs": [
        {
          "components": [
            {
              "internalType": "uint16",
              "name": "bet_type",
              "type": "uint16"
            },
            {
              "internalType": "uint16",
              "name": "bet",
              "type": "uint16"
            },
            {
              "internalType": "uint64",
              "name": "timestamp",
              "type": "uint64"
            },
            {
              "internalType": "address",
              "name": "player",
              "type": "address"
            },
            {
              "internalType": "uint256",
              "name": "bet_amount",
              "type": "uint256"
            }
          ],
          "internalType": "struct Roulette.Bet",
          "name": "bet",
          "type": "tuple"
        },
        {
          "internalType": "uint256",
          "name": "roll",
          "type": "uint256"
        }
      ],
      "name": "calculate_winnings",
      "outputs": [
        {
          "internalType": "uint256",
          "name": "",
          "type": "uint256"
        }
      ],
      "stateMutability": "pure",
      "type": "function",
      "constant": true
    },
    {
      "inputs": [],
      "name": "play",
      "outputs": [],
      "stateMutability": "nonpayable",
      "type": "function"
    }
  ],
  "bytecode": "0x6080604052600280546001600160801b031916905534801561002057600080fd5b50604051610fca380380610fca83398101604081905261003f916100bf565b806100493361006f565b600180546001600160a01b0319166001600160a01b0392909216919091179055506100ef565b600080546001600160a01b038381166001600160a01b0319831681178455604051919092169283917f8be0079c531659141344cd1fd0a4f28419497f9722a3daafe3b4186f6b6457e09190a35050565b6000602082840312156100d157600080fd5b81516001600160a01b03811681146100e857600080fd5b9392505050565b610ecc806100fe6000396000f3fe608060405234801561001057600080fd5b50600436106100a95760003560e01c80638da5cb5b116100715780638da5cb5b1461012157806393e84cd91461013c5780639b5547ad14610144578063b4b674cb1461014b578063b863bd371461016e578063f2fde38b1461018157600080fd5b806332e5b0bc146100ae57806342acafbc146100d4578063715018a6146100e9578063797fae9d146100f15780637b275c881461010c575b600080fd5b6100c16100bc366004610bdf565b610194565b6040519081526020015b60405180910390f35b6100e76100e2366004610c8b565b610268565b005b6100e7610606565b6002546040516001600160801b0390911681526020016100cb565b61011461063c565b6040516100cb9190610cf9565b6000546040516001600160a01b0390911681526020016100cb565b6100e7610787565b60806100c1565b61015e610159366004610cc7565b610a03565b60405190151581526020016100cb565b6100c161017c366004610cc7565b610a4f565b6100e761018f366004610bbd565b610a91565b6000816101a357506000610262565b825161ffff166101f2576101b682610a03565b6101c15760016101c4565b60005b60ff16836020015161ffff1614156101ed5760808301516101e6906002610de1565b9050610262565b61025e565b826000015161ffff166001141561022d5761020e600283610e32565b836020015161ffff1614156101ed5760808301516101e6906002610de1565b826000015161ffff166002141561025e5781836020015161ffff16141561025e5760808301516101e6906023610de1565b5060005b92915050565b8160008082116102b55760405162461bcd60e51b815260206004820152601360248201527224b73b30b634b2103132ba1030b6b7bab73a1760691b60448201526064015b60405180910390fd5b6001546040516370a0823160e01b8152336004820152859182916001600160a01b03909116906370a082319060240160206040518083038186803b1580156102fc57600080fd5b505afa158015610310573d6000803e3d6000fd5b505050506040513d601f19601f820116820180604052508101906103349190610ce0565b10156103825760405162461bcd60e51b815260206004820181905260248201527f496e73756666696369656e742066756e647320746f20636f766572206265742e60448201526064016102ac565b60025460806001600160801b03909116106103d75760405162461bcd60e51b815260206004820152601560248201527426b0bc34b6bab6903132ba39903932b0b1b432b21760591b60448201526064016102ac565b600154604051630c61411f60e01b8152336004820152602481018790526001600160a01b0390911690630c61411f90604401600060405180830381600087803b15801561042357600080fd5b505af1158015610437573d6000803e3d6000fd5b50506040805160a08101825261ffff808b1682528816602082015267ffffffffffffffff4216918101919091523360608201526080808201899052600254919350600392506001600160801b0390911690811061049657610496610e6a565b825160029182029290920180546020850151604086015160608701516001600160a01b0316600160601b026bffffffffffffffffffffffff67ffffffffffffffff909216640100000000029190911663ffffffff61ffff938416620100000263ffffffff19909516939097169290921792909217949094169390931792909217825560809092015160019182015581549091906000906105409084906001600160801b0316610db6565b92506101000a8154816001600160801b0302191690836001600160801b031602179055507f168ba5d36b75cd9e2c0d58cc82bada2c8502840a34b832d9f9f943252ae3db0d6003600160806105959190610e00565b608081106105a5576105a5610e6a565b600202016040516105f69190815461ffff8082168352601082901c1660208084019190915281901c67ffffffffffffffff166040830152606090811c90820152600190910154608082015260a00190565b60405180910390a1505050505050565b6000546001600160a01b031633146106305760405162461bcd60e51b81526004016102ac90610d81565b61063a6000610b2c565b565b6002546060906000906001600160801b031667ffffffffffffffff81111561066657610666610e80565b6040519080825280602002602001820160405280156106bf57816020015b6040805160a0810182526000808252602080830182905292820181905260608201819052608082015282526000199092019101816106845790505b50905060005b6002546001600160801b031681101561078157600381608081106106eb576106eb610e6a565b6040805160a08101825260029290920292909201805461ffff8082168452620100008204166020840152640100000000810467ffffffffffffffff1693830193909352600160601b9092046001600160a01b031660608201526001909101546080820152825183908390811061076357610763610e6a565b6020026020010181905250808061077990610e17565b9150506106c5565b50919050565b6000546001600160a01b031633146107b15760405162461bcd60e51b81526004016102ac90610d81565b60006107bd6025610a4f565b90507f34cc19c6a5758956f8aec81e3f501b1a3fe6c4b9879081781ec6be0a438f3a54816040516107f091815260200190565b60405180910390a160005b6002546001600160801b03168110156109e65760006108906003836080811061082657610826610e6a565b6040805160a08101825260029290920292909201805461ffff8082168452620100008204166020840152640100000000810467ffffffffffffffff1693830193909352600160601b9092046001600160a01b03166060820152600190910154608082015284610194565b9050801561092c576001546001600160a01b031663bc4b3365600384608081106108bc576108bc610e6a565b600202015460405160e083901b6001600160e01b0319168152600160601b9091046001600160a01b0316600482015260248101849052604401600060405180830381600087803b15801561090f57600080fd5b505af1158015610923573d6000803e3d6000fd5b505050506109d3565b826109d3576001546001600160a01b031663bc4b33656109546000546001600160a01b031690565b6003856080811061096757610967610e6a565b60020201600101546040518363ffffffff1660e01b81526004016109a09291906001600160a01b03929092168252602082015260400190565b600060405180830381600087803b1580156109ba57600080fd5b505af11580156109ce573d6000803e3d6000fd5b505050505b50806109de81610e17565b9150506107fb565b5050600280546fffffffffffffffffffffffffffffffff19169055565b6000600b821080610a1f5750601282118015610a1f5750601d82105b15610a3857610a2f600283610e32565b60011492915050565b610a43600283610e32565b1592915050565b919050565b6000814442604051602001610a6e929190918252602082015260400190565b6040516020818303038152906040528051906020012060001c6102629190610e32565b6000546001600160a01b03163314610abb5760405162461bcd60e51b81526004016102ac90610d81565b6001600160a01b038116610b205760405162461bcd60e51b815260206004820152602660248201527f4f776e61626c653a206e6577206f776e657220697320746865207a65726f206160448201526564647265737360d01b60648201526084016102ac565b610b2981610b2c565b50565b600080546001600160a01b038381166001600160a01b0319831681178455604051919092169283917f8be0079c531659141344cd1fd0a4f28419497f9722a3daafe3b4186f6b6457e09190a35050565b80356001600160a01b0381168114610a4a57600080fd5b803561ffff81168114610a4a57600080fd5b803567ffffffffffffffff81168114610a4a57600080fd5b600060208284031215610bcf57600080fd5b610bd882610b7c565b9392505050565b60008082840360c0811215610bf357600080fd5b60a0811215610c0157600080fd5b5060405160a0810181811067ffffffffffffffff82111715610c3357634e487b7160e01b600052604160045260246000fd5b604052610c3f84610b93565b8152610c4d60208501610b93565b6020820152610c5e60408501610ba5565b6040820152610c6f60608501610b7c565b6060820152608084810135908201529460a09093013593505050565b600080600060608486031215610ca057600080fd5b610ca984610b93565b925060208401359150610cbe60408501610b93565b90509250925092565b600060208284031215610cd957600080fd5b5035919050565b600060208284031215610cf257600080fd5b5051919050565b602080825282518282018190526000919060409081850190868401855b82811015610d74578151805161ffff90811686528782015116878601528581015167ffffffffffffffff16868601526060808201516001600160a01b0316908601526080908101519085015260a09093019290850190600101610d16565b5091979650505050505050565b6020808252818101527f4f776e61626c653a2063616c6c6572206973206e6f7420746865206f776e6572604082015260600190565b60006001600160801b03808316818516808303821115610dd857610dd8610e54565b01949350505050565b6000816000190483118215151615610dfb57610dfb610e54565b500290565b600082821015610e1257610e12610e54565b500390565b6000600019821415610e2b57610e2b610e54565b5060010190565b600082610e4f57634e487b7160e01b600052601260045260246000fd5b500690565b634e487b7160e01b600052601160045260246000fd5b634e487b7160e01b600052603260045260246000fd5b634e487b7160e01b600052604160045260246000fdfea2646970667358221220ad39305a4221337ccdb6f552dc13ff95356dba36e2d3549a941b1fb38fc04c7064736f6c63430008070033",
  "immutableReferences": {},
  "source": "/// @title Roulette 0.2.2\n/// @author awphi (https://github.com/awphi)\n\n// SPDX-License-Identifier: MIT\npragma solidity >=0.4.22 <0.9.0;\n\nimport \"./ICentralBank.sol\";\nimport \"./Game.sol\";\nimport \"@openzeppelin/contracts/access/Ownable.sol\";\n\ncontract Roulette is Game {\n  struct Bet {\n    uint16 bet_type;\n    uint16 bet;\n    uint64 timestamp;\n    address player;\n\n    uint256 bet_amount;\n  }\n\n  constructor(address bankAddr) Game(bankAddr) {}\n\n  uint128 numBets = 0;\n  Bet[128] bets;\n\n  // Used so dApp can listen to emitted event to update UIs as soon as the outcome is rolled\n  event OutcomeDecided(uint roll);\n  event BetPlaced(Bet bet);\n\n  function get_bets() public view returns (Bet[] memory) {\n    Bet[] memory ret = new Bet[](numBets);\n\n    for(uint i = 0; i < numBets; i ++) {\n      ret[i] = bets[i];\n    }\n\n    return ret;\n  }\n\n  function get_bets_length() public view returns (uint128) {\n    return numBets;\n  }\n\n  function get_max_bets() public view returns (uint) {\n    return bets.length;\n  }\n\n  function place_bet(uint16 bet_type, uint256 bet_amount, uint16 bet) public minimumBet(bet_amount, 0) requireFunds(bet_amount) {\n    require(numBets < bets.length, \"Maximum bets reached.\");\n\n    _bank.subtractFunds(msg.sender, bet_amount);\n    bets[numBets] = Bet(bet_type, bet, uint64(block.timestamp), msg.sender, bet_amount);\n    numBets += 1;\n    emit BetPlaced(bets[bets.length - 1]);\n  }\n\n  // Note: Replace with chainlink\n  function random(uint mod) public view returns (uint) {\n    return uint(keccak256(abi.encodePacked(block.difficulty, block.timestamp))) % mod;\n  }\n\n  function is_red(uint roll) public pure returns (bool) {\n    if (roll < 11 || (roll > 18 && roll < 29)) {\n      // Red odd, black even\n      return roll % 2 == 1;\n    } else {\n      return roll % 2 == 0;\n    }\n  }\n\n  function calculate_winnings(Bet memory bet, uint roll) public pure returns (uint) {\n    // House edge\n    if (roll == 0) {\n      return 0;\n    }\n\n    /*\n    COLOUR = 0,\n    ODDEVEN = 1,\n    STRAIGHTUP = 2,\n    HIGHLOW = 3, \n    COLUMN = 4, \n    DOZENS = 5, \n    SPLIT = 6, \n    STREET = 7, \n    CORNER = 8, \n    LINE = 9, \n    FIVE = 10, \n    BASKET = 11, \n    SNAKE = 12 \n    */\n\n    if (bet.bet_type == 0) {\n      // 0 = red, 1 = black\n      if (bet.bet == (is_red(roll) ? 0 : 1)) {\n        return bet.bet_amount * 2;\n      }\n    } else if (bet.bet_type == 1) {\n      // 0 = even, 1 = odd\n      if (bet.bet == (roll % 2)) {\n        return bet.bet_amount * 2;\n      }\n    } else if (bet.bet_type == 2) {\n      if (bet.bet == roll) {\n        return bet.bet_amount * 35;\n      }\n    }\n\n    return 0;\n  }\n\n  function play() public onlyOwner {\n    uint roll = random(37);\n    emit OutcomeDecided(roll);\n\n    for (uint i = 0; i < numBets; i++) {\n      uint winnings = calculate_winnings(bets[i], roll);\n      if(winnings > 0) {\n        // If player won (w > 0) designate their winnings (incl. stake) to them\n        _bank.addFunds(bets[i].player, winnings);\n      } else if(roll == 0) {\n        /** @dev When a 0 is rolled, house will skim all bets. This can be used to pay for more LINK, hosting fees or just treated as profit - \n          it up to the owner. In the long-term, with enough initial capital this is a stable system.\n        **/\n        _bank.addFunds(owner(), bets[i].bet_amount);\n      }\n    }\n\n    numBets = 0;\n  }\n}\n",
  "sourcePath": "F:\\1Repo\\glass-casino\\contracts\\Roulette.sol",
  "compiler": {
    "name": "solc",
    "version": "0.8.7+commit.e28d00a7.Emscripten.clang"
  },
  "schemaVersion": "3.4.3",
  "updatedAt": "2022-02-22T19:05:49.611Z",
  "networkType": "ethereum",
  "devdoc": {
    "kind": "dev",
    "methods": {
      "owner()": {
        "details": "Returns the address of the current owner."
      },
      "renounceOwnership()": {
        "details": "Leaves the contract without owner. It will not be possible to call `onlyOwner` functions anymore. Can only be called by the current owner. NOTE: Renouncing ownership will leave the contract without an owner, thereby removing any functionality that is only available to the owner."
      },
      "transferOwnership(address)": {
        "details": "Transfers ownership of the contract to a new account (`newOwner`). Can only be called by the current owner."
      }
    },
    "version": 1
  },
  "userdoc": {
    "kind": "user",
    "methods": {},
    "version": 1
  }
}