{
  "contractName": "Roulette",
  "abi": [
    {
      "inputs": [
        {
          "internalType": "address",
          "name": "bankAddr",
          "type": "address"
        }
      ],
      "stateMutability": "nonpayable",
      "type": "constructor"
    },
    {
      "anonymous": false,
      "inputs": [
        {
          "components": [
            {
              "internalType": "uint16",
              "name": "bet_type",
              "type": "uint16"
            },
            {
              "internalType": "uint16",
              "name": "bet",
              "type": "uint16"
            },
            {
              "internalType": "uint64",
              "name": "timestamp",
              "type": "uint64"
            },
            {
              "internalType": "address",
              "name": "player",
              "type": "address"
            },
            {
              "internalType": "uint256",
              "name": "bet_amount",
              "type": "uint256"
            }
          ],
          "indexed": false,
          "internalType": "struct Roulette.Bet",
          "name": "bet",
          "type": "tuple"
        }
      ],
      "name": "BetPlaced",
      "type": "event"
    },
    {
      "anonymous": false,
      "inputs": [
        {
          "indexed": false,
          "internalType": "uint256",
          "name": "roll",
          "type": "uint256"
        }
      ],
      "name": "OutcomeDecided",
      "type": "event"
    },
    {
      "anonymous": false,
      "inputs": [
        {
          "indexed": true,
          "internalType": "address",
          "name": "previousOwner",
          "type": "address"
        },
        {
          "indexed": true,
          "internalType": "address",
          "name": "newOwner",
          "type": "address"
        }
      ],
      "name": "OwnershipTransferred",
      "type": "event"
    },
    {
      "inputs": [],
      "name": "owner",
      "outputs": [
        {
          "internalType": "address",
          "name": "",
          "type": "address"
        }
      ],
      "stateMutability": "view",
      "type": "function",
      "constant": true
    },
    {
      "inputs": [],
      "name": "renounceOwnership",
      "outputs": [],
      "stateMutability": "nonpayable",
      "type": "function"
    },
    {
      "inputs": [
        {
          "internalType": "address",
          "name": "newOwner",
          "type": "address"
        }
      ],
      "name": "transferOwnership",
      "outputs": [],
      "stateMutability": "nonpayable",
      "type": "function"
    },
    {
      "inputs": [],
      "name": "get_bets",
      "outputs": [
        {
          "components": [
            {
              "internalType": "uint16",
              "name": "bet_type",
              "type": "uint16"
            },
            {
              "internalType": "uint16",
              "name": "bet",
              "type": "uint16"
            },
            {
              "internalType": "uint64",
              "name": "timestamp",
              "type": "uint64"
            },
            {
              "internalType": "address",
              "name": "player",
              "type": "address"
            },
            {
              "internalType": "uint256",
              "name": "bet_amount",
              "type": "uint256"
            }
          ],
          "internalType": "struct Roulette.Bet[]",
          "name": "",
          "type": "tuple[]"
        }
      ],
      "stateMutability": "view",
      "type": "function",
      "constant": true
    },
    {
      "inputs": [],
      "name": "get_bets_length",
      "outputs": [
        {
          "internalType": "uint128",
          "name": "",
          "type": "uint128"
        }
      ],
      "stateMutability": "view",
      "type": "function",
      "constant": true
    },
    {
      "inputs": [],
      "name": "get_max_bets",
      "outputs": [
        {
          "internalType": "uint256",
          "name": "",
          "type": "uint256"
        }
      ],
      "stateMutability": "view",
      "type": "function",
      "constant": true
    },
    {
      "inputs": [
        {
          "internalType": "uint16",
          "name": "bet_type",
          "type": "uint16"
        },
        {
          "internalType": "uint256",
          "name": "bet_amount",
          "type": "uint256"
        },
        {
          "internalType": "uint16",
          "name": "bet",
          "type": "uint16"
        }
      ],
      "name": "place_bet",
      "outputs": [],
      "stateMutability": "nonpayable",
      "type": "function"
    },
    {
      "inputs": [],
      "name": "play",
      "outputs": [],
      "stateMutability": "nonpayable",
      "type": "function"
    }
  ],
  "bytecode": "0x6080604052600280546001600160801b031916905534801561002057600080fd5b50604051610e65380380610e6583398101604081905261003f916100bf565b806100493361006f565b600180546001600160a01b0319166001600160a01b0392909216919091179055506100ef565b600080546001600160a01b038381166001600160a01b0319831681178455604051919092169283917f8be0079c531659141344cd1fd0a4f28419497f9722a3daafe3b4186f6b6457e09190a35050565b6000602082840312156100d157600080fd5b81516001600160a01b03811681146100e857600080fd5b9392505050565b610d67806100fe6000396000f3fe608060405234801561001057600080fd5b50600436106100885760003560e01c80638da5cb5b1161005b5780638da5cb5b146100df57806393e84cd9146100fa5780639b5547ad14610102578063f2fde38b1461011157600080fd5b806342acafbc1461008d578063715018a6146100a2578063797fae9d146100aa5780637b275c88146100ca575b600080fd5b6100a061009b366004610b56565b610124565b005b6100a06104c5565b6002546040516001600160801b0390911681526020015b60405180910390f35b6100d26104fb565b6040516100c19190610bab565b6000546040516001600160a01b0390911681526020016100c1565b6100a0610646565b604051608081526020016100c1565b6100a061011f366004610b26565b6108c2565b8160008082116101715760405162461bcd60e51b815260206004820152601360248201527224b73b30b634b2103132ba1030b6b7bab73a1760691b60448201526064015b60405180910390fd5b6001546040516370a0823160e01b8152336004820152859182916001600160a01b03909116906370a082319060240160206040518083038186803b1580156101b857600080fd5b505afa1580156101cc573d6000803e3d6000fd5b505050506040513d601f19601f820116820180604052508101906101f09190610b92565b101561023e5760405162461bcd60e51b815260206004820181905260248201527f496e73756666696369656e742066756e647320746f20636f766572206265742e6044820152606401610168565b60025460806001600160801b03909116106102935760405162461bcd60e51b815260206004820152601560248201527426b0bc34b6bab6903132ba39903932b0b1b432b21760591b6044820152606401610168565b600154604051630c61411f60e01b8152336004820152602481018790526001600160a01b0390911690630c61411f90604401600060405180830381600087803b1580156102df57600080fd5b505af11580156102f3573d6000803e3d6000fd5b50506040805160a08101825261ffff808b1682528816602082015267ffffffffffffffff4216918101919091523360608201526080808201899052600254919350600392506001600160801b0390911690811061035257610352610d05565b825160029182029290920180546020850151604086015160608701516001600160a01b0316600160601b026bffffffffffffffffffffffff67ffffffffffffffff909216640100000000029190911663ffffffff61ffff938416620100000263ffffffff199095169390971692909217929092179490941693909317929092178255608092830151600190920191909155547f168ba5d36b75cd9e2c0d58cc82bada2c8502840a34b832d9f9f943252ae3db0d916003916001600160801b031690811061042157610421610d05565b600202016040516104729190815461ffff8082168352601082901c1660208084019190915281901c67ffffffffffffffff166040830152606090811c90820152600190910154608082015260a00190565b60405180910390a160028054600191906000906104999084906001600160801b0316610c68565b92506101000a8154816001600160801b0302191690836001600160801b03160217905550505050505050565b6000546001600160a01b031633146104ef5760405162461bcd60e51b815260040161016890610c33565b6104f9600061095d565b565b6002546060906000906001600160801b031667ffffffffffffffff81111561052557610525610d1b565b60405190808252806020026020018201604052801561057e57816020015b6040805160a0810182526000808252602080830182905292820181905260608201819052608082015282526000199092019101816105435790505b50905060005b6002546001600160801b031681101561064057600381608081106105aa576105aa610d05565b6040805160a08101825260029290920292909201805461ffff8082168452620100008204166020840152640100000000810467ffffffffffffffff1693830193909352600160601b9092046001600160a01b031660608201526001909101546080820152825183908390811061062257610622610d05565b6020026020010181905250808061063890610cb2565b915050610584565b50919050565b6000546001600160a01b031633146106705760405162461bcd60e51b815260040161016890610c33565b600061067c60256109ad565b90507f34cc19c6a5758956f8aec81e3f501b1a3fe6c4b9879081781ec6be0a438f3a54816040516106af91815260200190565b60405180910390a160005b6002546001600160801b03168110156108a557600061074f600383608081106106e5576106e5610d05565b6040805160a08101825260029290920292909201805461ffff8082168452620100008204166020840152640100000000810467ffffffffffffffff1693830193909352600160601b9092046001600160a01b031660608201526001909101546080820152846109f5565b905080156107eb576001546001600160a01b031663bc4b33656003846080811061077b5761077b610d05565b600202015460405160e083901b6001600160e01b0319168152600160601b9091046001600160a01b0316600482015260248101849052604401600060405180830381600087803b1580156107ce57600080fd5b505af11580156107e2573d6000803e3d6000fd5b50505050610892565b82610892576001546001600160a01b031663bc4b33656108136000546001600160a01b031690565b6003856080811061082657610826610d05565b60020201600101546040518363ffffffff1660e01b815260040161085f9291906001600160a01b03929092168252602082015260400190565b600060405180830381600087803b15801561087957600080fd5b505af115801561088d573d6000803e3d6000fd5b505050505b508061089d81610cb2565b9150506106ba565b5050600280546fffffffffffffffffffffffffffffffff19169055565b6000546001600160a01b031633146108ec5760405162461bcd60e51b815260040161016890610c33565b6001600160a01b0381166109515760405162461bcd60e51b815260206004820152602660248201527f4f776e61626c653a206e6577206f776e657220697320746865207a65726f206160448201526564647265737360d01b6064820152608401610168565b61095a8161095d565b50565b600080546001600160a01b038381166001600160a01b0319831681178455604051919092169283917f8be0079c531659141344cd1fd0a4f28419497f9722a3daafe3b4186f6b6457e09190a35050565b60008144426040516020016109cc929190918252602082015260400190565b6040516020818303038152906040528051906020012060001c6109ef9190610ccd565b92915050565b600081610a04575060006109ef565b825161ffff16610a5357610a1782610ac8565b610a22576001610a25565b60005b60ff16836020015161ffff161415610a4e576080830151610a47906002610c93565b90506109ef565b610abf565b826000015161ffff1660011415610a8e57610a6f600283610ccd565b836020015161ffff161415610a4e576080830151610a47906002610c93565b826000015161ffff1660021415610abf5781836020015161ffff161415610abf576080830151610a47906023610c93565b50600092915050565b6000600b821080610ae45750601282118015610ae45750601d82105b15610afd57610af4600283610ccd565b60011492915050565b610b08600283610ccd565b1592915050565b919050565b803561ffff81168114610b0f57600080fd5b600060208284031215610b3857600080fd5b81356001600160a01b0381168114610b4f57600080fd5b9392505050565b600080600060608486031215610b6b57600080fd5b610b7484610b14565b925060208401359150610b8960408501610b14565b90509250925092565b600060208284031215610ba457600080fd5b5051919050565b602080825282518282018190526000919060409081850190868401855b82811015610c26578151805161ffff90811686528782015116878601528581015167ffffffffffffffff16868601526060808201516001600160a01b0316908601526080908101519085015260a09093019290850190600101610bc8565b5091979650505050505050565b6020808252818101527f4f776e61626c653a2063616c6c6572206973206e6f7420746865206f776e6572604082015260600190565b60006001600160801b03808316818516808303821115610c8a57610c8a610cef565b01949350505050565b6000816000190483118215151615610cad57610cad610cef565b500290565b6000600019821415610cc657610cc6610cef565b5060010190565b600082610cea57634e487b7160e01b600052601260045260246000fd5b500690565b634e487b7160e01b600052601160045260246000fd5b634e487b7160e01b600052603260045260246000fd5b634e487b7160e01b600052604160045260246000fdfea2646970667358221220a3baf2c9261588ef5625f926bcb0544c00441ddae4fe7b4db69c87e7bd8a18e564736f6c63430008070033",
  "immutableReferences": {},
  "source": "/// @title Roulette 0.2.2\n/// @author awphi (https://github.com/awphi)\n\n// SPDX-License-Identifier: MIT\npragma solidity >=0.4.22 <0.9.0;\n\nimport \"./ICentralBank.sol\";\nimport \"./Game.sol\";\nimport \"@openzeppelin/contracts/access/Ownable.sol\";\n\ncontract Roulette is Game {\n  struct Bet {\n    uint16 bet_type;\n    uint16 bet;\n    uint64 timestamp;\n    address player;\n\n    uint256 bet_amount;\n  }\n\n  constructor(address bankAddr) Game(bankAddr) {}\n\n  uint128 numBets = 0;\n  Bet[128] bets;\n\n  // Used so dApp can listen to emitted event to update UIs as soon as the outcome is rolled\n  event OutcomeDecided(uint roll);\n  event BetPlaced(Bet bet);\n\n  function get_bets() public view returns (Bet[] memory) {\n    Bet[] memory ret = new Bet[](numBets);\n\n    for(uint i = 0; i < numBets; i ++) {\n      ret[i] = bets[i];\n    }\n\n    return ret;\n  }\n\n  function get_bets_length() public view returns (uint128) {\n    return numBets;\n  }\n\n  function get_max_bets() public view returns (uint) {\n    return bets.length;\n  }\n\n  function place_bet(uint16 bet_type, uint256 bet_amount, uint16 bet) public minimumBet(bet_amount, 0) requireFunds(bet_amount) {\n    require(numBets < bets.length, \"Maximum bets reached.\");\n\n    _bank.subtractFunds(msg.sender, bet_amount);\n    bets[numBets] = Bet(bet_type, bet, uint64(block.timestamp), msg.sender, bet_amount);\n    emit BetPlaced(bets[numBets]);\n    numBets += 1;\n  }\n\n  // Note: Replace with chainlink\n  function _random(uint mod) internal view returns (uint) {\n    return uint(keccak256(abi.encodePacked(block.difficulty, block.timestamp))) % mod;\n  }\n\n  function _is_red(uint roll) internal pure returns (bool) {\n    if (roll < 11 || (roll > 18 && roll < 29)) {\n      // Red odd, black even\n      return roll % 2 == 1;\n    } else {\n      return roll % 2 == 0;\n    }\n  }\n\n  function _calculate_winnings(Bet memory bet, uint roll) internal pure returns (uint) {\n    // House edge\n    if (roll == 0) {\n      return 0;\n    }\n\n    /*\n    COLOUR = 0,\n    ODDEVEN = 1,\n    STRAIGHTUP = 2,\n    HIGHLOW = 3, \n    COLUMN = 4, \n    DOZENS = 5, \n    SPLIT = 6, \n    STREET = 7, \n    CORNER = 8, \n    LINE = 9, \n    FIVE = 10, \n    BASKET = 11, \n    SNAKE = 12 \n    */\n\n    if (bet.bet_type == 0) {\n      // 0 = red, 1 = black\n      if (bet.bet == (_is_red(roll) ? 0 : 1)) {\n        return bet.bet_amount * 2;\n      }\n    } else if (bet.bet_type == 1) {\n      // 0 = even, 1 = odd\n      if (bet.bet == (roll % 2)) {\n        return bet.bet_amount * 2;\n      }\n    } else if (bet.bet_type == 2) {\n      if (bet.bet == roll) {\n        return bet.bet_amount * 35;\n      }\n    }\n\n    return 0;\n  }\n\n  function play() public onlyOwner {\n    uint roll = _random(37);\n    emit OutcomeDecided(roll);\n\n    for (uint i = 0; i < numBets; i++) {\n      uint winnings = _calculate_winnings(bets[i], roll);\n      if(winnings > 0) {\n        // If player won (w > 0) designate their winnings (incl. stake) to them\n        _bank.addFunds(bets[i].player, winnings);\n      } else if(roll == 0) {\n        /** @dev When a 0 is rolled, house will skim all bets. This can be used to pay for more LINK, hosting fees or just treated as profit - \n          it up to the owner. In the long-term, with enough initial capital this is a stable system.\n        **/\n        _bank.addFunds(owner(), bets[i].bet_amount);\n      }\n    }\n\n    numBets = 0;\n  }\n}\n",
  "sourcePath": "F:\\1Repo\\glass-casino\\contracts\\Roulette.sol",
  "compiler": {
    "name": "solc",
    "version": "0.8.7+commit.e28d00a7.Emscripten.clang"
  },
  "schemaVersion": "3.4.3",
  "updatedAt": "2022-03-01T17:38:43.603Z",
  "networkType": "ethereum",
  "devdoc": {
    "kind": "dev",
    "methods": {
      "owner()": {
        "details": "Returns the address of the current owner."
      },
      "renounceOwnership()": {
        "details": "Leaves the contract without owner. It will not be possible to call `onlyOwner` functions anymore. Can only be called by the current owner. NOTE: Renouncing ownership will leave the contract without an owner, thereby removing any functionality that is only available to the owner."
      },
      "transferOwnership(address)": {
        "details": "Transfers ownership of the contract to a new account (`newOwner`). Can only be called by the current owner."
      }
    },
    "version": 1
  },
  "userdoc": {
    "kind": "user",
    "methods": {},
    "version": 1
  }
}