{
  "contractName": "Roulette",
  "abi": [
    {
      "inputs": [],
      "stateMutability": "nonpayable",
      "type": "constructor"
    },
    {
      "anonymous": false,
      "inputs": [
        {
          "components": [
            {
              "internalType": "address payable",
              "name": "player",
              "type": "address"
            },
            {
              "internalType": "enum BetType",
              "name": "bet_type",
              "type": "uint8"
            },
            {
              "internalType": "uint256",
              "name": "bet",
              "type": "uint256"
            },
            {
              "internalType": "uint256",
              "name": "bet_amount",
              "type": "uint256"
            }
          ],
          "indexed": false,
          "internalType": "struct Bet",
          "name": "bet",
          "type": "tuple"
        }
      ],
      "name": "BetPlaced",
      "type": "event"
    },
    {
      "anonymous": false,
      "inputs": [
        {
          "indexed": false,
          "internalType": "uint256",
          "name": "roll",
          "type": "uint256"
        }
      ],
      "name": "OutcomeDecided",
      "type": "event"
    },
    {
      "inputs": [],
      "name": "get_bets",
      "outputs": [
        {
          "components": [
            {
              "internalType": "address payable",
              "name": "player",
              "type": "address"
            },
            {
              "internalType": "enum BetType",
              "name": "bet_type",
              "type": "uint8"
            },
            {
              "internalType": "uint256",
              "name": "bet",
              "type": "uint256"
            },
            {
              "internalType": "uint256",
              "name": "bet_amount",
              "type": "uint256"
            }
          ],
          "internalType": "struct Bet[]",
          "name": "",
          "type": "tuple[]"
        }
      ],
      "stateMutability": "view",
      "type": "function",
      "constant": true
    },
    {
      "inputs": [
        {
          "internalType": "enum BetType",
          "name": "bet_type",
          "type": "uint8"
        },
        {
          "internalType": "uint256",
          "name": "bet",
          "type": "uint256"
        }
      ],
      "name": "deposit",
      "outputs": [],
      "stateMutability": "payable",
      "type": "function",
      "payable": true
    },
    {
      "inputs": [
        {
          "internalType": "uint256",
          "name": "mod",
          "type": "uint256"
        }
      ],
      "name": "random",
      "outputs": [
        {
          "internalType": "uint256",
          "name": "",
          "type": "uint256"
        }
      ],
      "stateMutability": "view",
      "type": "function",
      "constant": true
    },
    {
      "inputs": [
        {
          "internalType": "uint256",
          "name": "roll",
          "type": "uint256"
        }
      ],
      "name": "is_red",
      "outputs": [
        {
          "internalType": "bool",
          "name": "",
          "type": "bool"
        }
      ],
      "stateMutability": "pure",
      "type": "function",
      "constant": true
    },
    {
      "inputs": [],
      "name": "make_bet",
      "outputs": [
        {
          "components": [
            {
              "internalType": "address payable",
              "name": "player",
              "type": "address"
            },
            {
              "internalType": "enum BetType",
              "name": "bet_type",
              "type": "uint8"
            },
            {
              "internalType": "uint256",
              "name": "bet",
              "type": "uint256"
            },
            {
              "internalType": "uint256",
              "name": "bet_amount",
              "type": "uint256"
            }
          ],
          "internalType": "struct Bet",
          "name": "",
          "type": "tuple"
        }
      ],
      "stateMutability": "view",
      "type": "function",
      "constant": true
    },
    {
      "inputs": [
        {
          "components": [
            {
              "internalType": "address payable",
              "name": "player",
              "type": "address"
            },
            {
              "internalType": "enum BetType",
              "name": "bet_type",
              "type": "uint8"
            },
            {
              "internalType": "uint256",
              "name": "bet",
              "type": "uint256"
            },
            {
              "internalType": "uint256",
              "name": "bet_amount",
              "type": "uint256"
            }
          ],
          "internalType": "struct Bet",
          "name": "bet",
          "type": "tuple"
        },
        {
          "internalType": "uint256",
          "name": "roll",
          "type": "uint256"
        }
      ],
      "name": "get_winnings",
      "outputs": [
        {
          "internalType": "uint256",
          "name": "",
          "type": "uint256"
        }
      ],
      "stateMutability": "pure",
      "type": "function",
      "constant": true
    },
    {
      "inputs": [],
      "name": "play",
      "outputs": [],
      "stateMutability": "nonpayable",
      "type": "function"
    }
  ],
  "bytecode": "0x60806040526001600060146101000a81548160ff02191690831515021790555034801561002b57600080fd5b50336000806101000a81548173ffffffffffffffffffffffffffffffffffffffff021916908373ffffffffffffffffffffffffffffffffffffffff1602179055506110b28061007b6000396000f3fe6080604052600436106100705760003560e01c8063b863bd371161004e578063b863bd37146100f4578063ea02f88f14610131578063f0780bd51461015c578063f4d4c9d71461019957610070565b80637b275c881461007557806393e84cd9146100a0578063b4b674cb146100b7575b600080fd5b34801561008157600080fd5b5061008a6101b5565b6040516100979190610cd7565b60405180910390f35b3480156100ac57600080fd5b506100b56102b9565b005b3480156100c357600080fd5b506100de60048036038101906100d99190610afc565b61054f565b6040516100eb9190610cf9565b60405180910390f35b34801561010057600080fd5b5061011b60048036038101906101169190610afc565b6105a0565b6040516101289190610d2f565b60405180910390f35b34801561013d57600080fd5b506101466105e0565b6040516101539190610d14565b60405180910390f35b34801561016857600080fd5b50610183600480360381019061017e9190610abc565b610639565b6040516101909190610d2f565b60405180910390f35b6101b360048036038101906101ae9190610a7c565b610787565b005b60606001805480602002602001604051908101604052809291908181526020016000905b828210156102b057838290600052602060002090600302016040518060800160405290816000820160009054906101000a900473ffffffffffffffffffffffffffffffffffffffff1673ffffffffffffffffffffffffffffffffffffffff1673ffffffffffffffffffffffffffffffffffffffff1681526020016000820160149054906101000a900460ff16600281111561027757610276610f82565b5b600281111561028957610288610f82565b5b815260200160018201548152602001600282015481525050815260200190600101906101d9565b50505050905090565b60008054906101000a900473ffffffffffffffffffffffffffffffffffffffff1673ffffffffffffffffffffffffffffffffffffffff163373ffffffffffffffffffffffffffffffffffffffff161461031157600080fd5b600060149054906101000a900460ff1661032a57600080fd5b60008060146101000a81548160ff021916908315150217905550600061035060256105a0565b90507f34cc19c6a5758956f8aec81e3f501b1a3fe6c4b9879081781ec6be0a438f3a54816040516103819190610d2f565b60405180910390a160005b600180549050811015610522576000610476600183815481106103b2576103b1610fb1565b5b90600052602060002090600302016040518060800160405290816000820160009054906101000a900473ffffffffffffffffffffffffffffffffffffffff1673ffffffffffffffffffffffffffffffffffffffff1673ffffffffffffffffffffffffffffffffffffffff1681526020016000820160149054906101000a900460ff16600281111561044657610445610f82565b5b600281111561045857610457610f82565b5b81526020016001820154815260200160028201548152505084610639565b9050600081111561050e576001828154811061049557610494610fb1565b5b906000526020600020906003020160000160009054906101000a900473ffffffffffffffffffffffffffffffffffffffff1673ffffffffffffffffffffffffffffffffffffffff166108fc829081150290604051600060405180830381858888f1935050505015801561050c573d6000803e3d6000fd5b505b50808061051a90610ea0565b91505061038c565b506001600061053191906108ef565b6001600060146101000a81548160ff02191690831515021790555050565b6000600b82108061056c575060128211801561056b5750601d82105b5b156105885760016002836105809190610ef3565b14905061059b565b60006002836105979190610ef3565b1490505b919050565b60008144426040516020016105b6929190610cab565b6040516020818303038152906040528051906020012060001c6105d99190610ef3565b9050919050565b6105e8610913565b60405180608001604052803373ffffffffffffffffffffffffffffffffffffffff1681526020016000600281111561062357610622610f82565b5b8152602001600081526020016001815250905090565b60008082141561064c5760009050610781565b600060028111156106605761065f610f82565b5b8360200151600281111561067757610676610f82565b5b14156106bf576106868261054f565b610691576001610694565b60005b60ff16836040015114156106ba57600283606001516106b39190610da8565b9050610781565b61077c565b600160028111156106d3576106d2610f82565b5b836020015160028111156106ea576106e9610f82565b5b1415610725576002826106fd9190610ef3565b8360400151141561072057600283606001516107199190610da8565b9050610781565b61077b565b60028081111561073857610737610f82565b5b8360200151600281111561074f5761074e610f82565b5b141561077a57818360400151141561077957602383606001516107729190610da8565b9050610781565b5b5b5b600090505b92915050565b600060149054906101000a900460ff166107a057600080fd5b600034116107ad57600080fd5b600060405180608001604052803373ffffffffffffffffffffffffffffffffffffffff1681526020018460028111156107e9576107e8610f82565b5b8152602001838152602001348152509050600181908060018154018082558091505060019003906000526020600020906003020160009091909190915060008201518160000160006101000a81548173ffffffffffffffffffffffffffffffffffffffff021916908373ffffffffffffffffffffffffffffffffffffffff16021790555060208201518160000160146101000a81548160ff0219169083600281111561089857610897610f82565b5b0217905550604082015181600101556060820151816002015550507fa57654d9dea7a6159d461426e0cf53aeec9acb37e0bc98d127aad3e8ed0e3566816040516108e29190610d14565b60405180910390a1505050565b50805460008255600302906000526020600020908101906109109190610963565b50565b6040518060800160405280600073ffffffffffffffffffffffffffffffffffffffff1681526020016000600281111561094f5761094e610f82565b5b815260200160008152602001600081525090565b5b808211156109c157600080820160006101000a81549073ffffffffffffffffffffffffffffffffffffffff02191690556000820160146101000a81549060ff02191690556001820160009055600282016000905550600301610964565b5090565b6000813590506109d48161103e565b92915050565b6000813590506109e981611055565b92915050565b600060808284031215610a0557610a0461100f565b5b610a0f6080610d4a565b90506000610a1f848285016109c5565b6000830152506020610a33848285016109da565b6020830152506040610a4784828501610a67565b6040830152506060610a5b84828501610a67565b60608301525092915050565b600081359050610a7681611065565b92915050565b60008060408385031215610a9357610a92611014565b5b6000610aa1858286016109da565b9250506020610ab285828601610a67565b9150509250929050565b60008060a08385031215610ad357610ad2611014565b5b6000610ae1858286016109ef565b9250506080610af285828601610a67565b9150509250929050565b600060208284031215610b1257610b11611014565b5b6000610b2084828501610a67565b91505092915050565b6000610b358383610bcc565b60808301905092915050565b610b4a81610e02565b82525050565b6000610b5b82610d7f565b610b658185610d97565b9350610b7083610d6f565b8060005b83811015610ba1578151610b888882610b29565b9750610b9383610d8a565b925050600181019050610b74565b5085935050505092915050565b610bb781610e14565b82525050565b610bc681610e5d565b82525050565b608082016000820151610be26000850182610b41565b506020820151610bf56020850182610bbd565b506040820151610c086040850182610c76565b506060820151610c1b6060850182610c76565b50505050565b608082016000820151610c376000850182610b41565b506020820151610c4a6020850182610bbd565b506040820151610c5d6040850182610c76565b506060820151610c706060850182610c76565b50505050565b610c7f81610e53565b82525050565b610c8e81610e53565b82525050565b610ca5610ca082610e53565b610ee9565b82525050565b6000610cb78285610c94565b602082019150610cc78284610c94565b6020820191508190509392505050565b60006020820190508181036000830152610cf18184610b50565b905092915050565b6000602082019050610d0e6000830184610bae565b92915050565b6000608082019050610d296000830184610c21565b92915050565b6000602082019050610d446000830184610c85565b92915050565b6000610d54610d65565b9050610d608282610e6f565b919050565b6000604051905090565b6000819050602082019050919050565b600081519050919050565b6000602082019050919050565b600082825260208201905092915050565b6000610db382610e53565b9150610dbe83610e53565b9250817fffffffffffffffffffffffffffffffffffffffffffffffffffffffffffffffff0483118215151615610df757610df6610f24565b5b828202905092915050565b6000610e0d82610e33565b9050919050565b60008115159050919050565b6000819050610e2e8261102a565b919050565b600073ffffffffffffffffffffffffffffffffffffffff82169050919050565b6000819050919050565b6000610e6882610e20565b9050919050565b610e7882611019565b810181811067ffffffffffffffff82111715610e9757610e96610fe0565b5b80604052505050565b6000610eab82610e53565b91507fffffffffffffffffffffffffffffffffffffffffffffffffffffffffffffffff821415610ede57610edd610f24565b5b600182019050919050565b6000819050919050565b6000610efe82610e53565b9150610f0983610e53565b925082610f1957610f18610f53565b5b828206905092915050565b7f4e487b7100000000000000000000000000000000000000000000000000000000600052601160045260246000fd5b7f4e487b7100000000000000000000000000000000000000000000000000000000600052601260045260246000fd5b7f4e487b7100000000000000000000000000000000000000000000000000000000600052602160045260246000fd5b7f4e487b7100000000000000000000000000000000000000000000000000000000600052603260045260246000fd5b7f4e487b7100000000000000000000000000000000000000000000000000000000600052604160045260246000fd5b600080fd5b600080fd5b6000601f19601f8301169050919050565b6003811061103b5761103a610f82565b5b50565b61104781610e02565b811461105257600080fd5b50565b6003811061106257600080fd5b50565b61106e81610e53565b811461107957600080fd5b5056fea2646970667358221220e30d5773bcd1c5c1ad147bd246bc644fa56053f870a98e72723cf413cc0b80df64736f6c63430008070033",
  "immutableReferences": {},
  "source": "// SPDX-License-Identifier: MIT\npragma solidity >=0.4.22 <0.9.0;\n\nenum BetType {\n    COLOUR,\n    ODDEVEN,\n    STRAIGHTUP\n    /*\n        HIGHLOW, \n        COLUMN, \n        DOZENS, \n        SPLIT, \n        STREET, \n        CORNER, \n        LINE, \n        FIVE, \n        BASKET, \n        SNAKE \n        */\n}\n\nstruct Bet {\n    address payable player;\n    BetType bet_type;\n    uint256 bet;\n    uint256 bet_amount;\n}\n\ncontract Roulette {\n    // Used so dApp can listen to emitted event to update UIs as soon as the outcome is rolled\n    event OutcomeDecided(uint256 roll);\n    event BetPlaced(Bet bet);\n    \n    address house;\n    bool ready = true;\n    Bet[] bets;\n    \n    // Sets the house on minting of the contract, i.e. who controls the flow of the game\n    constructor() {\n        house = msg.sender;\n    }\n    \n    function get_bets() public view returns (Bet[] memory) {\n        return bets;\n    }\n    \n    function deposit(BetType bet_type, uint256 bet) public payable {\n        require(ready);\n        require(msg.value > 0);\n        Bet memory b = Bet(payable(msg.sender), bet_type, bet, msg.value);\n        bets.push(b);\n        emit BetPlaced(b);\n    }\n    \n    // Note: Replace with chainlink\n    function random(uint256 mod) public view returns (uint256) {\n        return uint256(keccak256(abi.encodePacked(block.difficulty, block.timestamp))) % mod;\n    }\n    \n    function is_red(uint256 roll) public pure returns (bool) {\n        if (roll < 11 || (roll > 18 && roll < 29)) {\n            // Red odd, black even\n            return roll % 2 == 1;\n        } else {\n            return roll % 2 == 0;\n        }\n    }\n    \n    function make_bet() public view returns(Bet memory) {\n        return Bet(payable(msg.sender), BetType.COLOUR, 0, 1);\n    }\n    \n    function get_winnings(Bet memory bet, uint256 roll) public pure returns (uint256) {\n        // House edge, contract keeps the money\n        if (roll == 0) {\n        return 0;\n        }\n        \n        if (bet.bet_type == BetType.COLOUR) {\n            // 0 = red, 1 = black\n            if (bet.bet == (is_red(roll) ? 0 : 1)) {\n                return bet.bet_amount * 2;\n            }\n        } else if (bet.bet_type == BetType.ODDEVEN) {\n            // 0 = even, 1 = odd\n            if (bet.bet == (roll % 2)) {\n                return bet.bet_amount * 2;\n            }\n        } else if (bet.bet_type == BetType.STRAIGHTUP) {\n            if (bet.bet == roll) {\n                return bet.bet_amount * 35;\n            }\n        }\n        \n        return 0;\n    }\n    \n    function play() public {\n        require(msg.sender == house);\n        require(ready);\n        \n        ready = false;\n        \n        uint256 roll = random(37);\n        //history.push(roll);\n        emit OutcomeDecided(roll);\n        \n        for (uint256 i = 0; i < bets.length; i++) {\n            uint256 w = get_winnings(bets[i], roll);\n        \n            if (w > 0) {\n                bets[i].player.transfer(w);\n            }\n        }\n        \n        delete bets;\n        ready = true;\n    }\n}\n",
  "sourcePath": "F:\\1Repo\\glass-casino\\contracts\\Roulette.sol",
  "compiler": {
    "name": "solc",
    "version": "0.8.7+commit.e28d00a7.Emscripten.clang"
  },
  "schemaVersion": "3.4.3",
  "updatedAt": "2021-11-24T16:38:39.800Z",
  "networkType": "ethereum",
  "devdoc": {
    "kind": "dev",
    "methods": {},
    "version": 1
  },
  "userdoc": {
    "kind": "user",
    "methods": {},
    "version": 1
  }
}