{
  "contractName": "Roulette",
  "abi": [
    {
      "inputs": [],
      "stateMutability": "nonpayable",
      "type": "constructor"
    },
    {
      "anonymous": false,
      "inputs": [
        {
          "components": [
            {
              "internalType": "address payable",
              "name": "player",
              "type": "address"
            },
            {
              "internalType": "enum Roulette.BetType",
              "name": "bet_type",
              "type": "uint8"
            },
            {
              "internalType": "uint256",
              "name": "bet",
              "type": "uint256"
            },
            {
              "internalType": "uint256",
              "name": "bet_amount",
              "type": "uint256"
            }
          ],
          "indexed": false,
          "internalType": "struct Roulette.Bet",
          "name": "bet",
          "type": "tuple"
        }
      ],
      "name": "BetPlaced",
      "type": "event"
    },
    {
      "anonymous": false,
      "inputs": [
        {
          "indexed": false,
          "internalType": "uint256",
          "name": "roll",
          "type": "uint256"
        }
      ],
      "name": "OutcomeDecided",
      "type": "event"
    },
    {
      "inputs": [],
      "name": "get_bets_n",
      "outputs": [
        {
          "internalType": "uint256",
          "name": "",
          "type": "uint256"
        }
      ],
      "stateMutability": "view",
      "type": "function",
      "constant": true
    },
    {
      "inputs": [
        {
          "internalType": "enum Roulette.BetType",
          "name": "bet_type",
          "type": "uint8"
        },
        {
          "internalType": "uint256",
          "name": "bet",
          "type": "uint256"
        }
      ],
      "name": "deposit",
      "outputs": [],
      "stateMutability": "payable",
      "type": "function",
      "payable": true
    },
    {
      "inputs": [],
      "name": "play",
      "outputs": [],
      "stateMutability": "nonpayable",
      "type": "function"
    }
  ],
  "bytecode": "0x60806040526001600060146101000a81548160ff02191690831515021790555034801561002b57600080fd5b50336000806101000a81548173ffffffffffffffffffffffffffffffffffffffff021916908373ffffffffffffffffffffffffffffffffffffffff160217905550610aec8061007b6000396000f3fe6080604052600436106100345760003560e01c80630ee1d3a41461003957806393e84cd914610064578063f4d4c9d71461007b575b600080fd5b34801561004557600080fd5b5061004e610097565b60405161005b9190610720565b60405180910390f35b34801561007057600080fd5b506100796100a4565b005b61009560048036038101906100909190610791565b61033a565b005b6000600180549050905090565b60008054906101000a900473ffffffffffffffffffffffffffffffffffffffff1673ffffffffffffffffffffffffffffffffffffffff163373ffffffffffffffffffffffffffffffffffffffff16146100fc57600080fd5b600060149054906101000a900460ff1661011557600080fd5b60008060146101000a81548160ff021916908315150217905550600061013b60256104a2565b90507f34cc19c6a5758956f8aec81e3f501b1a3fe6c4b9879081781ec6be0a438f3a548160405161016c9190610720565b60405180910390a160005b60018054905081101561030d5760006102616001838154811061019d5761019c6107d1565b5b90600052602060002090600302016040518060800160405290816000820160009054906101000a900473ffffffffffffffffffffffffffffffffffffffff1673ffffffffffffffffffffffffffffffffffffffff1673ffffffffffffffffffffffffffffffffffffffff1681526020016000820160149054906101000a900460ff16600281111561023157610230610800565b5b600281111561024357610242610800565b5b815260200160018201548152602001600282015481525050846104e2565b905060008111156102f957600182815481106102805761027f6107d1565b5b906000526020600020906003020160000160009054906101000a900473ffffffffffffffffffffffffffffffffffffffff1673ffffffffffffffffffffffffffffffffffffffff166108fc829081150290604051600060405180830381858888f193505050501580156102f7573d6000803e3d6000fd5b505b5080806103059061085e565b915050610177565b506001600061031c9190610681565b6001600060146101000a81548160ff02191690831515021790555050565b600060149054906101000a900460ff1661035357600080fd5b6000341161036057600080fd5b600060405180608001604052803373ffffffffffffffffffffffffffffffffffffffff16815260200184600281111561039c5761039b610800565b5b8152602001838152602001348152509050600181908060018154018082558091505060019003906000526020600020906003020160009091909190915060008201518160000160006101000a81548173ffffffffffffffffffffffffffffffffffffffff021916908373ffffffffffffffffffffffffffffffffffffffff16021790555060208201518160000160146101000a81548160ff0219169083600281111561044b5761044a610800565b5b0217905550604082015181600101556060820151816002015550507fa57654d9dea7a6159d461426e0cf53aeec9acb37e0bc98d127aad3e8ed0e3566816040516104959190610994565b60405180910390a1505050565b60008144426040516020016104b89291906109d0565b6040516020818303038152906040528051906020012060001c6104db9190610a2b565b9050919050565b6000808214156104f5576000905061062a565b6000600281111561050957610508610800565b5b836020015160028111156105205761051f610800565b5b14156105685761052f82610630565b61053a57600161053d565b60005b60ff1683604001511415610563576002836060015161055c9190610a5c565b905061062a565b610625565b6001600281111561057c5761057b610800565b5b8360200151600281111561059357610592610800565b5b14156105ce576002826105a69190610a2b565b836040015114156105c957600283606001516105c29190610a5c565b905061062a565b610624565b6002808111156105e1576105e0610800565b5b836020015160028111156105f8576105f7610800565b5b1415610623578183604001511415610622576023836060015161061b9190610a5c565b905061062a565b5b5b5b600090505b92915050565b6000600b82108061064d575060128211801561064c5750601d82105b5b156106695760016002836106619190610a2b565b14905061067c565b60006002836106789190610a2b565b1490505b919050565b50805460008255600302906000526020600020908101906106a291906106a5565b50565b5b8082111561070357600080820160006101000a81549073ffffffffffffffffffffffffffffffffffffffff02191690556000820160146101000a81549060ff021916905560018201600090556002820160009055506003016106a6565b5090565b6000819050919050565b61071a81610707565b82525050565b60006020820190506107356000830184610711565b92915050565b600080fd5b6003811061074d57600080fd5b50565b60008135905061075f81610740565b92915050565b61076e81610707565b811461077957600080fd5b50565b60008135905061078b81610765565b92915050565b600080604083850312156107a8576107a761073b565b5b60006107b685828601610750565b92505060206107c78582860161077c565b9150509250929050565b7f4e487b7100000000000000000000000000000000000000000000000000000000600052603260045260246000fd5b7f4e487b7100000000000000000000000000000000000000000000000000000000600052602160045260246000fd5b7f4e487b7100000000000000000000000000000000000000000000000000000000600052601160045260246000fd5b600061086982610707565b91507fffffffffffffffffffffffffffffffffffffffffffffffffffffffffffffffff82141561089c5761089b61082f565b5b600182019050919050565b600073ffffffffffffffffffffffffffffffffffffffff82169050919050565b60006108d2826108a7565b9050919050565b6108e2816108c7565b82525050565b600381106108f9576108f8610800565b5b50565b600081905061090a826108e8565b919050565b600061091a826108fc565b9050919050565b61092a8161090f565b82525050565b61093981610707565b82525050565b60808201600082015161095560008501826108d9565b5060208201516109686020850182610921565b50604082015161097b6040850182610930565b50606082015161098e6060850182610930565b50505050565b60006080820190506109a9600083018461093f565b92915050565b6000819050919050565b6109ca6109c582610707565b6109af565b82525050565b60006109dc82856109b9565b6020820191506109ec82846109b9565b6020820191508190509392505050565b7f4e487b7100000000000000000000000000000000000000000000000000000000600052601260045260246000fd5b6000610a3682610707565b9150610a4183610707565b925082610a5157610a506109fc565b5b828206905092915050565b6000610a6782610707565b9150610a7283610707565b9250817fffffffffffffffffffffffffffffffffffffffffffffffffffffffffffffffff0483118215151615610aab57610aaa61082f565b5b82820290509291505056fea26469706673582212203e50a367b65839dc893f529c9e32c49fb74039ec320f28a0936a95433537daa464736f6c63430008090033",
  "immutableReferences": {},
  "source": "// SPDX-License-Identifier: MIT\npragma solidity >=0.4.22 <0.9.0;\n\ncontract Roulette {\n    enum BetType{ \n        COLOUR, \n        ODDEVEN,\n        STRAIGHTUP\n        /*\n        HIGHLOW, \n        COLUMN, \n        DOZENS, \n        SPLIT, \n        STREET, \n        CORNER, \n        LINE, \n        FIVE, \n        BASKET, \n        SNAKE \n        */\n    }\n    \n    struct Bet {\n        address payable player;\n        BetType bet_type;\n        uint bet;\n        uint bet_amount;\n    }\n    \n    \n    \n    // Used so dApp can listen to emitted event to update UIs as soon as the outcome is rolled\n    event OutcomeDecided(uint roll);\n    event BetPlaced(Bet bet);\n    \n    address house;\n    bool ready = true;\n    Bet[] bets;\n    \n    // Sets the house on minting of the contract, i.e. who controls the flow of the game\n    constructor() {\n        house = msg.sender;\n    }\n    \n    // Note: Replace with chainlink\n    function random(uint mod) private view returns (uint) {\n        return uint(keccak256(abi.encodePacked(block.difficulty, block.timestamp))) % mod;\n    } \n    \n    function get_bets_n() public view returns (uint) {\n        return bets.length;\n    }\n\n    function deposit(BetType bet_type, uint bet) public payable {\n        require(ready);\n        require(msg.value > 0);\n        Bet memory b = Bet(payable(msg.sender), bet_type, bet, msg.value);\n        bets.push(b);\n        emit BetPlaced(b);\n    }\n    \n    function is_red(uint roll) pure private returns (bool) {\n        if(roll < 11 || (roll > 18 && roll < 29)) {\n            // Red odd, black even\n            return roll % 2 == 1;\n        } else {\n            return roll % 2 == 0;\n        }           \n    }\n    \n    function get_winnings(Bet memory bet, uint roll) pure private returns (uint256) {\n        // House edge, contract keeps the money\n        if(roll == 0) {\n            return 0;\n        }\n        \n        if(bet.bet_type == BetType.COLOUR) {\n            // 0 = red, 1 = black\n            if(bet.bet == (is_red(roll) ? 0 : 1)) {\n                return bet.bet_amount * 2;\n            }\n        } else if(bet.bet_type == BetType.ODDEVEN) {\n            // 0 = even, 1 = odd\n            if(bet.bet == (roll % 2)) {\n                return bet.bet_amount * 2;\n            }\n        } else if(bet.bet_type == BetType.STRAIGHTUP) {\n            if(bet.bet == roll) {\n                return bet.bet_amount * 35;\n            }\n        }\n        \n        return 0;\n    }\n    \n    function play() public {\n        require(msg.sender == house);\n        require(ready);\n        \n        ready = false;\n        \n        uint roll = random(37);\n        emit OutcomeDecided(roll);\n        \n        for(uint256 i = 0; i < bets.length; i ++) {\n            uint256 w = get_winnings(bets[i], roll);\n            \n            if(w > 0) {\n               bets[i].player.transfer(w);\n            }\n        }\n        \n        delete bets;\n        ready = true;\n    }\n}\n",
  "sourcePath": "F:\\1Repo\\glass-casino\\contracts\\Roulette.sol",
  "compiler": {
    "name": "solc",
    "version": "0.8.9+commit.e5eed63a.Emscripten.clang"
  },
  "schemaVersion": "3.4.3",
  "updatedAt": "2021-11-07T15:48:27.344Z",
  "networkType": "ethereum",
  "devdoc": {
    "kind": "dev",
    "methods": {},
    "version": 1
  },
  "userdoc": {
    "kind": "user",
    "methods": {},
    "version": 1
  }
}