{
  "contractName": "Roulette",
  "abi": [
    {
      "inputs": [
        {
          "internalType": "address",
          "name": "bankAddr",
          "type": "address"
        }
      ],
      "stateMutability": "nonpayable",
      "type": "constructor"
    },
    {
      "anonymous": false,
      "inputs": [
        {
          "components": [
            {
              "internalType": "uint16",
              "name": "bet_type",
              "type": "uint16"
            },
            {
              "internalType": "uint16",
              "name": "bet",
              "type": "uint16"
            },
            {
              "internalType": "uint64",
              "name": "timestamp",
              "type": "uint64"
            },
            {
              "internalType": "address",
              "name": "player",
              "type": "address"
            },
            {
              "internalType": "uint256",
              "name": "bet_amount",
              "type": "uint256"
            }
          ],
          "indexed": false,
          "internalType": "struct Roulette.Bet",
          "name": "bet",
          "type": "tuple"
        }
      ],
      "name": "BetPlaced",
      "type": "event"
    },
    {
      "anonymous": false,
      "inputs": [
        {
          "indexed": false,
          "internalType": "uint256",
          "name": "roll",
          "type": "uint256"
        }
      ],
      "name": "OutcomeDecided",
      "type": "event"
    },
    {
      "anonymous": false,
      "inputs": [
        {
          "indexed": true,
          "internalType": "address",
          "name": "previousOwner",
          "type": "address"
        },
        {
          "indexed": true,
          "internalType": "address",
          "name": "newOwner",
          "type": "address"
        }
      ],
      "name": "OwnershipTransferred",
      "type": "event"
    },
    {
      "inputs": [],
      "name": "lastRoll",
      "outputs": [
        {
          "internalType": "uint256",
          "name": "",
          "type": "uint256"
        }
      ],
      "stateMutability": "view",
      "type": "function",
      "constant": true
    },
    {
      "inputs": [],
      "name": "numBets",
      "outputs": [
        {
          "internalType": "uint128",
          "name": "",
          "type": "uint128"
        }
      ],
      "stateMutability": "view",
      "type": "function",
      "constant": true
    },
    {
      "inputs": [],
      "name": "owner",
      "outputs": [
        {
          "internalType": "address",
          "name": "",
          "type": "address"
        }
      ],
      "stateMutability": "view",
      "type": "function",
      "constant": true
    },
    {
      "inputs": [],
      "name": "renounceOwnership",
      "outputs": [],
      "stateMutability": "nonpayable",
      "type": "function"
    },
    {
      "inputs": [
        {
          "internalType": "address",
          "name": "newOwner",
          "type": "address"
        }
      ],
      "name": "transferOwnership",
      "outputs": [],
      "stateMutability": "nonpayable",
      "type": "function"
    },
    {
      "inputs": [],
      "name": "get_max_bets",
      "outputs": [
        {
          "internalType": "uint256",
          "name": "",
          "type": "uint256"
        }
      ],
      "stateMutability": "view",
      "type": "function",
      "constant": true
    },
    {
      "inputs": [
        {
          "internalType": "uint16",
          "name": "bet_type",
          "type": "uint16"
        },
        {
          "internalType": "uint256",
          "name": "bet_amount",
          "type": "uint256"
        },
        {
          "internalType": "uint16",
          "name": "bet",
          "type": "uint16"
        }
      ],
      "name": "place_bet",
      "outputs": [],
      "stateMutability": "nonpayable",
      "type": "function"
    },
    {
      "inputs": [],
      "name": "play",
      "outputs": [],
      "stateMutability": "nonpayable",
      "type": "function"
    }
  ],
  "bytecode": "0x60806040526000600255600380546001600160801b031916905534801561002557600080fd5b50604051610c8f380380610c8f833981016040819052610044916100c8565b8061004e33610078565b600180546001600160a01b0319166001600160a01b039290921691909117905550436002556100f8565b600080546001600160a01b038381166001600160a01b0319831681178455604051919092169283917f8be0079c531659141344cd1fd0a4f28419497f9722a3daafe3b4186f6b6457e09190a35050565b6000602082840312156100da57600080fd5b81516001600160a01b03811681146100f157600080fd5b9392505050565b610b88806101076000396000f3fe608060405234801561001057600080fd5b50600436106100885760003560e01c80639b5547ad1161005b5780639b5547ad146100d2578063bf02cb91146100e3578063df06f906146100ec578063f2fde38b1461011757600080fd5b806342acafbc1461008d578063715018a6146100a25780638da5cb5b146100aa57806393e84cd9146100ca575b600080fd5b6100a061009b366004610a15565b61012a565b005b6100a06104cb565b6000546040516001600160a01b0390911681526020015b60405180910390f35b6100a0610501565b60805b6040519081526020016100c1565b6100d560025481565b6003546100ff906001600160801b031681565b6040516001600160801b0390911681526020016100c1565b6100a06101253660046109e5565b610781565b8160008082116101775760405162461bcd60e51b815260206004820152601360248201527224b73b30b634b2103132ba1030b6b7bab73a1760691b60448201526064015b60405180910390fd5b6001546040516370a0823160e01b8152336004820152859182916001600160a01b03909116906370a082319060240160206040518083038186803b1580156101be57600080fd5b505afa1580156101d2573d6000803e3d6000fd5b505050506040513d601f19601f820116820180604052508101906101f69190610a51565b10156102445760405162461bcd60e51b815260206004820181905260248201527f496e73756666696369656e742066756e647320746f20636f766572206265742e604482015260640161016e565b60035460806001600160801b03909116106102995760405162461bcd60e51b815260206004820152601560248201527426b0bc34b6bab6903132ba39903932b0b1b432b21760591b604482015260640161016e565b600154604051630c61411f60e01b8152336004820152602481018790526001600160a01b0390911690630c61411f90604401600060405180830381600087803b1580156102e557600080fd5b505af11580156102f9573d6000803e3d6000fd5b50506040805160a08101825261ffff808b1682528816602082015267ffffffffffffffff4216918101919091523360608201526080808201899052600354919350600492506001600160801b0390911690811061035857610358610b3c565b82516002919091029190910180546020840151604085015160608601516001600160a01b0316600160601b026bffffffffffffffffffffffff67ffffffffffffffff909216640100000000029190911663ffffffff61ffff938416620100000263ffffffff1990951693909616929092179290921793909316929092179190911781556080918201516001909101556003547f168ba5d36b75cd9e2c0d58cc82bada2c8502840a34b832d9f9f943252ae3db0d916004916001600160801b031690811061042757610427610b3c565b600202016040516104789190815461ffff8082168352601082901c1660208084019190915281901c67ffffffffffffffff166040830152606090811c90820152600190910154608082015260a00190565b60405180910390a1600380546001919060009061049f9084906001600160801b0316610a9f565b92506101000a8154816001600160801b0302191690836001600160801b03160217905550505050505050565b6000546001600160a01b031633146104f55760405162461bcd60e51b815260040161016e90610a6a565b6104ff600061081c565b565b6000546001600160a01b0316331461052b5760405162461bcd60e51b815260040161016e90610a6a565b6000610537602561086c565b90507f34cc19c6a5758956f8aec81e3f501b1a3fe6c4b9879081781ec6be0a438f3a548160405161056a91815260200190565b60405180910390a160005b6003546001600160801b031681101561076057600061060a600483608081106105a0576105a0610b3c565b6040805160a08101825260029290920292909201805461ffff8082168452620100008204166020840152640100000000810467ffffffffffffffff1693830193909352600160601b9092046001600160a01b031660608201526001909101546080820152846108b4565b905080156106a6576001546001600160a01b031663bc4b33656004846080811061063657610636610b3c565b600202015460405160e083901b6001600160e01b0319168152600160601b9091046001600160a01b0316600482015260248101849052604401600060405180830381600087803b15801561068957600080fd5b505af115801561069d573d6000803e3d6000fd5b5050505061074d565b8261074d576001546001600160a01b031663bc4b33656106ce6000546001600160a01b031690565b600485608081106106e1576106e1610b3c565b60020201600101546040518363ffffffff1660e01b815260040161071a9291906001600160a01b03929092168252602082015260400190565b600060405180830381600087803b15801561073457600080fd5b505af1158015610748573d6000803e3d6000fd5b505050505b508061075881610ae9565b915050610575565b5050600380546fffffffffffffffffffffffffffffffff1916905543600255565b6000546001600160a01b031633146107ab5760405162461bcd60e51b815260040161016e90610a6a565b6001600160a01b0381166108105760405162461bcd60e51b815260206004820152602660248201527f4f776e61626c653a206e6577206f776e657220697320746865207a65726f206160448201526564647265737360d01b606482015260840161016e565b6108198161081c565b50565b600080546001600160a01b038381166001600160a01b0319831681178455604051919092169283917f8be0079c531659141344cd1fd0a4f28419497f9722a3daafe3b4186f6b6457e09190a35050565b600081444260405160200161088b929190918252602082015260400190565b6040516020818303038152906040528051906020012060001c6108ae9190610b04565b92915050565b6000816108c3575060006108ae565b825161ffff16610912576108d682610987565b6108e15760016108e4565b60005b60ff16836020015161ffff16141561090d576080830151610906906002610aca565b90506108ae565b61097e565b826000015161ffff166001141561094d5761092e600283610b04565b836020015161ffff16141561090d576080830151610906906002610aca565b826000015161ffff166002141561097e5781836020015161ffff16141561097e576080830151610906906023610aca565b50600092915050565b6000600b8210806109a357506012821180156109a35750601d82105b156109bc576109b3600283610b04565b60011492915050565b6109c7600283610b04565b1592915050565b919050565b803561ffff811681146109ce57600080fd5b6000602082840312156109f757600080fd5b81356001600160a01b0381168114610a0e57600080fd5b9392505050565b600080600060608486031215610a2a57600080fd5b610a33846109d3565b925060208401359150610a48604085016109d3565b90509250925092565b600060208284031215610a6357600080fd5b5051919050565b6020808252818101527f4f776e61626c653a2063616c6c6572206973206e6f7420746865206f776e6572604082015260600190565b60006001600160801b03808316818516808303821115610ac157610ac1610b26565b01949350505050565b6000816000190483118215151615610ae457610ae4610b26565b500290565b6000600019821415610afd57610afd610b26565b5060010190565b600082610b2157634e487b7160e01b600052601260045260246000fd5b500690565b634e487b7160e01b600052601160045260246000fd5b634e487b7160e01b600052603260045260246000fdfea2646970667358221220193724c05d9c081f3cebd72419b30faebc3d651ce650739aded65db06f1b01bd64736f6c63430008070033",
  "immutableReferences": {},
  "source": "/// @title Roulette 0.2.2\n/// @author awphi (https://github.com/awphi)\n\n// SPDX-License-Identifier: MIT\npragma solidity >=0.4.22 <0.9.0;\n\nimport \"./ICentralBank.sol\";\nimport \"./Game.sol\";\nimport \"@openzeppelin/contracts/access/Ownable.sol\";\n\ncontract Roulette is Game {\n  struct Bet {\n    uint16 bet_type;\n    uint16 bet;\n    uint64 timestamp;\n    address player;\n\n    uint256 bet_amount;\n  }\n\n  constructor(address bankAddr) Game(bankAddr) {\n    lastRoll = block.number;\n  }\n\n  uint256 public lastRoll = 0;\n  uint128 public numBets = 0;\n  Bet[128] bets;\n\n  // Used so dApp can listen to emitted event to update UIs as soon as the outcome is rolled\n  event OutcomeDecided(uint roll);\n  event BetPlaced(Bet bet);\n\n  function get_max_bets() public view returns (uint) {\n    return bets.length;\n  }\n\n  function place_bet(uint16 bet_type, uint256 bet_amount, uint16 bet) public minimumBet(bet_amount, 0) requireFunds(bet_amount) {\n    require(numBets < bets.length, \"Maximum bets reached.\");\n\n    _bank.subtractFunds(msg.sender, bet_amount);\n    bets[numBets] = Bet(bet_type, bet, uint64(block.timestamp), msg.sender, bet_amount);\n    emit BetPlaced(bets[numBets]);\n    numBets += 1;\n  }\n\n  // Note: Replace with chainlink\n  function _random(uint mod) internal view returns (uint) {\n    return uint(keccak256(abi.encodePacked(block.difficulty, block.timestamp))) % mod;\n  }\n\n  function _is_red(uint roll) internal pure returns (bool) {\n    if (roll < 11 || (roll > 18 && roll < 29)) {\n      // Red odd, black even\n      return roll % 2 == 1;\n    } else {\n      return roll % 2 == 0;\n    }\n  }\n\n  function _calculate_winnings(Bet memory bet, uint roll) internal pure returns (uint) {\n    // House edge\n    if (roll == 0) {\n      return 0;\n    }\n\n    /*\n    COLOUR = 0,\n    ODDEVEN = 1,\n    STRAIGHTUP = 2,\n    HIGHLOW = 3, \n    COLUMN = 4, \n    DOZENS = 5, \n    SPLIT = 6, \n    STREET = 7, \n    CORNER = 8, \n    LINE = 9, \n    FIVE = 10, \n    BASKET = 11, \n    SNAKE = 12 \n    */\n\n    if (bet.bet_type == 0) {\n      // 0 = red, 1 = black\n      if (bet.bet == (_is_red(roll) ? 0 : 1)) {\n        return bet.bet_amount * 2;\n      }\n    } else if (bet.bet_type == 1) {\n      // 0 = even, 1 = odd\n      if (bet.bet == (roll % 2)) {\n        return bet.bet_amount * 2;\n      }\n    } else if (bet.bet_type == 2) {\n      if (bet.bet == roll) {\n        return bet.bet_amount * 35;\n      }\n    }\n\n    return 0;\n  }\n\n  function play() public onlyOwner {\n    uint roll = _random(37);\n    emit OutcomeDecided(roll);\n\n    for (uint i = 0; i < numBets; i++) {\n      uint winnings = _calculate_winnings(bets[i], roll);\n      if(winnings > 0) {\n        // If player won (w > 0) designate their winnings (incl. stake) to them\n        _bank.addFunds(bets[i].player, winnings);\n      } else if(roll == 0) {\n        /** @dev When a 0 is rolled, house will skim all bets. This can be used to pay for more LINK, hosting fees or just treated as profit - \n          it up to the owner. In the long-term, with enough initial capital this is a stable system.\n        **/\n        _bank.addFunds(owner(), bets[i].bet_amount);\n      }\n    }\n\n    numBets = 0;\n    lastRoll = block.number;\n  }\n}\n",
  "sourcePath": "F:\\1Repo\\glass-casino\\contracts\\Roulette.sol",
  "compiler": {
    "name": "solc",
    "version": "0.8.7+commit.e28d00a7.Emscripten.clang"
  },
  "schemaVersion": "3.4.3",
  "updatedAt": "2022-04-05T21:40:10.434Z",
  "networkType": "ethereum",
  "devdoc": {
    "kind": "dev",
    "methods": {
      "owner()": {
        "details": "Returns the address of the current owner."
      },
      "renounceOwnership()": {
        "details": "Leaves the contract without owner. It will not be possible to call `onlyOwner` functions anymore. Can only be called by the current owner. NOTE: Renouncing ownership will leave the contract without an owner, thereby removing any functionality that is only available to the owner."
      },
      "transferOwnership(address)": {
        "details": "Transfers ownership of the contract to a new account (`newOwner`). Can only be called by the current owner."
      }
    },
    "version": 1
  },
  "userdoc": {
    "kind": "user",
    "methods": {},
    "version": 1
  }
}