{
  "contractName": "RouletteUtils",
  "abi": [
    {
      "inputs": [
        {
          "internalType": "uint256",
          "name": "bet_type",
          "type": "uint256"
        },
        {
          "internalType": "uint256",
          "name": "bet",
          "type": "uint256"
        },
        {
          "internalType": "uint256",
          "name": "bet_amount",
          "type": "uint256"
        }
      ],
      "name": "make_bet",
      "outputs": [
        {
          "components": [
            {
              "internalType": "address payable",
              "name": "player",
              "type": "address"
            },
            {
              "internalType": "enum RouletteUtils.BetType",
              "name": "bet_type",
              "type": "RouletteUtils.BetType"
            },
            {
              "internalType": "uint256",
              "name": "bet",
              "type": "uint256"
            },
            {
              "internalType": "uint256",
              "name": "bet_amount",
              "type": "uint256"
            }
          ],
          "internalType": "struct RouletteUtils.Bet",
          "name": "",
          "type": "tuple"
        }
      ],
      "stateMutability": "view",
      "type": "function",
      "constant": true
    },
    {
      "inputs": [
        {
          "internalType": "uint256",
          "name": "mod",
          "type": "uint256"
        }
      ],
      "name": "random",
      "outputs": [
        {
          "internalType": "uint256",
          "name": "",
          "type": "uint256"
        }
      ],
      "stateMutability": "view",
      "type": "function",
      "constant": true
    },
    {
      "inputs": [
        {
          "internalType": "uint256",
          "name": "roll",
          "type": "uint256"
        }
      ],
      "name": "is_red",
      "outputs": [
        {
          "internalType": "bool",
          "name": "",
          "type": "bool"
        }
      ],
      "stateMutability": "pure",
      "type": "function",
      "constant": true
    },
    {
      "inputs": [
        {
          "components": [
            {
              "internalType": "address payable",
              "name": "player",
              "type": "address"
            },
            {
              "internalType": "enum RouletteUtils.BetType",
              "name": "bet_type",
              "type": "RouletteUtils.BetType"
            },
            {
              "internalType": "uint256",
              "name": "bet",
              "type": "uint256"
            },
            {
              "internalType": "uint256",
              "name": "bet_amount",
              "type": "uint256"
            }
          ],
          "internalType": "struct RouletteUtils.Bet",
          "name": "bet",
          "type": "tuple"
        },
        {
          "internalType": "uint256",
          "name": "roll",
          "type": "uint256"
        }
      ],
      "name": "get_winnings",
      "outputs": [
        {
          "internalType": "uint256",
          "name": "",
          "type": "uint256"
        }
      ],
      "stateMutability": "pure",
      "type": "function",
      "constant": true
    }
  ],
  "bytecode": "0x610918610053600b82828239805160001a607314610046577f4e487b7100000000000000000000000000000000000000000000000000000000600052600060045260246000fd5b30600052607381538281f3fe73000000000000000000000000000000000000000030146080604052600436106100565760003560e01c80632f1bbce21461005b57806382c9f89d1461008b578063b4b674cb146100bb578063b863bd37146100eb575b600080fd5b61007560048036038101906100709190610587565b61011b565b60405161008291906105d6565b60405180910390f35b6100a560048036038101906100a091906105f1565b610269565b6040516100b2919061072e565b60405180910390f35b6100d560048036038101906100d09190610749565b6102d5565b6040516100e29190610791565b60405180910390f35b61010560048036038101906101009190610749565b610326565b60405161011291906105d6565b60405180910390f35b60008082141561012e5760009050610263565b6000600281111561014257610141610653565b5b8360200151600281111561015957610158610653565b5b14156101a157610168826102d5565b610173576001610176565b60005b60ff168360400151141561019c576002836060015161019591906107db565b9050610263565b61025e565b600160028111156101b5576101b4610653565b5b836020015160028111156101cc576101cb610653565b5b1415610207576002826101df9190610864565b8360400151141561020257600283606001516101fb91906107db565b9050610263565b61025d565b60028081111561021a57610219610653565b5b8360200151600281111561023157610230610653565b5b141561025c57818360400151141561025b576023836060015161025491906107db565b9050610263565b5b5b5b600090505b92915050565b610271610366565b60405180608001604052803373ffffffffffffffffffffffffffffffffffffffff1681526020018560028111156102ab576102aa610653565b5b60028111156102bd576102bc610653565b5b81526020018481526020018381525090509392505050565b6000600b8210806102f257506012821180156102f15750601d82105b5b1561030e5760016002836103069190610864565b149050610321565b600060028361031d9190610864565b1490505b919050565b600081444260405160200161033c9291906108b6565b6040516020818303038152906040528051906020012060001c61035f9190610864565b9050919050565b6040518060800160405280600073ffffffffffffffffffffffffffffffffffffffff168152602001600060028111156103a2576103a1610653565b5b815260200160008152602001600081525090565b6000604051905090565b600080fd5b600080fd5b6000601f19601f8301169050919050565b7f4e487b7100000000000000000000000000000000000000000000000000000000600052604160045260246000fd5b610413826103ca565b810181811067ffffffffffffffff82111715610432576104316103db565b5b80604052505050565b60006104456103b6565b9050610451828261040a565b919050565b600073ffffffffffffffffffffffffffffffffffffffff82169050919050565b600061048182610456565b9050919050565b61049181610476565b811461049c57600080fd5b50565b6000813590506104ae81610488565b92915050565b600381106104c157600080fd5b50565b6000813590506104d3816104b4565b92915050565b6000819050919050565b6104ec816104d9565b81146104f757600080fd5b50565b600081359050610509816104e3565b92915050565b600060808284031215610525576105246103c5565b5b61052f608061043b565b9050600061053f8482850161049f565b6000830152506020610553848285016104c4565b6020830152506040610567848285016104fa565b604083015250606061057b848285016104fa565b60608301525092915050565b60008060a0838503121561059e5761059d6103c0565b5b60006105ac8582860161050f565b92505060806105bd858286016104fa565b9150509250929050565b6105d0816104d9565b82525050565b60006020820190506105eb60008301846105c7565b92915050565b60008060006060848603121561060a576106096103c0565b5b6000610618868287016104fa565b9350506020610629868287016104fa565b925050604061063a868287016104fa565b9150509250925092565b61064d81610476565b82525050565b7f4e487b7100000000000000000000000000000000000000000000000000000000600052602160045260246000fd5b6003811061069357610692610653565b5b50565b60008190506106a482610682565b919050565b60006106b482610696565b9050919050565b6106c4816106a9565b82525050565b6106d3816104d9565b82525050565b6080820160008201516106ef6000850182610644565b50602082015161070260208501826106bb565b50604082015161071560408501826106ca565b50606082015161072860608501826106ca565b50505050565b600060808201905061074360008301846106d9565b92915050565b60006020828403121561075f5761075e6103c0565b5b600061076d848285016104fa565b91505092915050565b60008115159050919050565b61078b81610776565b82525050565b60006020820190506107a66000830184610782565b92915050565b7f4e487b7100000000000000000000000000000000000000000000000000000000600052601160045260246000fd5b60006107e6826104d9565b91506107f1836104d9565b9250817fffffffffffffffffffffffffffffffffffffffffffffffffffffffffffffffff048311821515161561082a576108296107ac565b5b828202905092915050565b7f4e487b7100000000000000000000000000000000000000000000000000000000600052601260045260246000fd5b600061086f826104d9565b915061087a836104d9565b92508261088a57610889610835565b5b828206905092915050565b6000819050919050565b6108b06108ab826104d9565b610895565b82525050565b60006108c2828561089f565b6020820191506108d2828461089f565b602082019150819050939250505056fea2646970667358221220206ef9e919e830e220cadf0edb313e697c18c962a483a37de410295af6fd6f7864736f6c63430008090033",
  "immutableReferences": {},
  "source": "// SPDX-License-Identifier: MIT\npragma solidity >=0.4.22 <0.9.0;\n\nlibrary RouletteUtils {\n  enum BetType {\n    COLOUR,\n    ODDEVEN,\n    STRAIGHTUP\n    /*\n        HIGHLOW, \n        COLUMN, \n        DOZENS, \n        SPLIT, \n        STREET, \n        CORNER, \n        LINE, \n        FIVE, \n        BASKET, \n        SNAKE \n        */\n  }\n\n  struct Bet {\n    address payable player;\n    BetType bet_type;\n    uint256 bet;\n    uint256 bet_amount;\n  }\n\n  function make_bet(uint256 bet_type, uint256 bet, uint256 bet_amount) public view returns (Bet memory) {\n    return Bet(payable(msg.sender), BetType(bet_type), bet, bet_amount);\n  }\n\n  // Note: Replace with chainlink\n  function random(uint256 mod) public view returns (uint256) {\n    return\n      uint256(keccak256(abi.encodePacked(block.difficulty, block.timestamp))) %\n      mod;\n  }\n\n  function is_red(uint256 roll) public pure returns (bool) {\n    if (roll < 11 || (roll > 18 && roll < 29)) {\n      // Red odd, black even\n      return roll % 2 == 1;\n    } else {\n      return roll % 2 == 0;\n    }\n  }\n\n  function get_winnings(Bet memory bet, uint256 roll)\n    public\n    pure\n    returns (uint256)\n  {\n    // House edge, contract keeps the money\n    if (roll == 0) {\n      return 0;\n    }\n\n    if (bet.bet_type == BetType.COLOUR) {\n      // 0 = red, 1 = black\n      if (bet.bet == (is_red(roll) ? 0 : 1)) {\n        return bet.bet_amount * 2;\n      }\n    } else if (bet.bet_type == BetType.ODDEVEN) {\n      // 0 = even, 1 = odd\n      if (bet.bet == (roll % 2)) {\n        return bet.bet_amount * 2;\n      }\n    } else if (bet.bet_type == BetType.STRAIGHTUP) {\n      if (bet.bet == roll) {\n        return bet.bet_amount * 35;\n      }\n    }\n\n    return 0;\n  }\n}\n",
  "sourcePath": "F:\\1Repo\\glass-casino\\contracts\\RouletteUtils.sol",
  "compiler": {
    "name": "solc",
    "version": "0.8.9+commit.e5eed63a.Emscripten.clang"
  },
  "schemaVersion": "3.4.3",
  "updatedAt": "2021-11-24T16:04:08.866Z",
  "networkType": "ethereum",
  "devdoc": {
    "kind": "dev",
    "methods": {},
    "version": 1
  },
  "userdoc": {
    "kind": "user",
    "methods": {},
    "version": 1
  }
}