{
  "contractName": "Roulette",
  "abi": [
    {
      "inputs": [],
      "stateMutability": "nonpayable",
      "type": "constructor"
    },
    {
      "anonymous": false,
      "inputs": [
        {
          "components": [
            {
              "internalType": "address payable",
              "name": "player",
              "type": "address"
            },
            {
              "internalType": "enum Roulette.BetType",
              "name": "bet_type",
              "type": "uint8"
            },
            {
              "internalType": "uint256",
              "name": "bet",
              "type": "uint256"
            },
            {
              "internalType": "uint256",
              "name": "bet_amount",
              "type": "uint256"
            },
            {
              "internalType": "uint256",
              "name": "timestamp",
              "type": "uint256"
            }
          ],
          "indexed": false,
          "internalType": "struct Roulette.Bet",
          "name": "bet",
          "type": "tuple"
        }
      ],
      "name": "BetPlaced",
      "type": "event"
    },
    {
      "anonymous": false,
      "inputs": [
        {
          "indexed": false,
          "internalType": "uint256",
          "name": "roll",
          "type": "uint256"
        }
      ],
      "name": "OutcomeDecided",
      "type": "event"
    },
    {
      "inputs": [],
      "name": "house",
      "outputs": [
        {
          "internalType": "address",
          "name": "",
          "type": "address"
        }
      ],
      "stateMutability": "view",
      "type": "function",
      "constant": true
    },
    {
      "inputs": [],
      "name": "get_bets",
      "outputs": [
        {
          "components": [
            {
              "internalType": "address payable",
              "name": "player",
              "type": "address"
            },
            {
              "internalType": "enum Roulette.BetType",
              "name": "bet_type",
              "type": "uint8"
            },
            {
              "internalType": "uint256",
              "name": "bet",
              "type": "uint256"
            },
            {
              "internalType": "uint256",
              "name": "bet_amount",
              "type": "uint256"
            },
            {
              "internalType": "uint256",
              "name": "timestamp",
              "type": "uint256"
            }
          ],
          "internalType": "struct Roulette.Bet[]",
          "name": "",
          "type": "tuple[]"
        }
      ],
      "stateMutability": "view",
      "type": "function",
      "constant": true
    },
    {
      "inputs": [],
      "name": "get_bets_length",
      "outputs": [
        {
          "internalType": "uint256",
          "name": "",
          "type": "uint256"
        }
      ],
      "stateMutability": "view",
      "type": "function",
      "constant": true
    },
    {
      "inputs": [
        {
          "internalType": "enum Roulette.BetType",
          "name": "bet_type",
          "type": "uint8"
        },
        {
          "internalType": "uint256",
          "name": "bet",
          "type": "uint256"
        }
      ],
      "name": "deposit",
      "outputs": [],
      "stateMutability": "payable",
      "type": "function",
      "payable": true
    },
    {
      "inputs": [
        {
          "internalType": "uint256",
          "name": "mod",
          "type": "uint256"
        }
      ],
      "name": "random",
      "outputs": [
        {
          "internalType": "uint256",
          "name": "",
          "type": "uint256"
        }
      ],
      "stateMutability": "view",
      "type": "function",
      "constant": true
    },
    {
      "inputs": [
        {
          "internalType": "uint256",
          "name": "roll",
          "type": "uint256"
        }
      ],
      "name": "is_red",
      "outputs": [
        {
          "internalType": "bool",
          "name": "",
          "type": "bool"
        }
      ],
      "stateMutability": "pure",
      "type": "function",
      "constant": true
    },
    {
      "inputs": [
        {
          "components": [
            {
              "internalType": "address payable",
              "name": "player",
              "type": "address"
            },
            {
              "internalType": "enum Roulette.BetType",
              "name": "bet_type",
              "type": "uint8"
            },
            {
              "internalType": "uint256",
              "name": "bet",
              "type": "uint256"
            },
            {
              "internalType": "uint256",
              "name": "bet_amount",
              "type": "uint256"
            },
            {
              "internalType": "uint256",
              "name": "timestamp",
              "type": "uint256"
            }
          ],
          "internalType": "struct Roulette.Bet",
          "name": "bet",
          "type": "tuple"
        },
        {
          "internalType": "uint256",
          "name": "roll",
          "type": "uint256"
        }
      ],
      "name": "get_winnings",
      "outputs": [
        {
          "internalType": "uint256",
          "name": "",
          "type": "uint256"
        }
      ],
      "stateMutability": "pure",
      "type": "function",
      "constant": true
    },
    {
      "inputs": [],
      "name": "play",
      "outputs": [],
      "stateMutability": "nonpayable",
      "type": "function"
    }
  ],
  "bytecode": "0x60806040526001600060146101000a81548160ff02191690831515021790555034801561002b57600080fd5b50336000806101000a81548173ffffffffffffffffffffffffffffffffffffffff021916908373ffffffffffffffffffffffffffffffffffffffff1602179055506111128061007b6000396000f3fe60806040526004361061007b5760003560e01c8063b4b674cb1161004e578063b4b674cb1461012a578063b863bd3714610167578063f4d4c9d7146101a4578063ff9b3acf146101c05761007b565b8063797fae9d146100805780637b275c88146100ab57806393e84cd9146100d6578063b1c44cd3146100ed575b600080fd5b34801561008c57600080fd5b506100956101eb565b6040516100a29190610d7d565b60405180910390f35b3480156100b757600080fd5b506100c06101f8565b6040516100cd9190610d25565b60405180910390f35b3480156100e257600080fd5b506100eb610306565b005b3480156100f957600080fd5b50610114600480360381019061010f9190610aba565b6105a6565b6040516101219190610d7d565b60405180910390f35b34801561013657600080fd5b50610151600480360381019061014c9190610afa565b6106f4565b60405161015e9190610d47565b60405180910390f35b34801561017357600080fd5b5061018e60048036038101906101899190610afa565b610745565b60405161019b9190610d7d565b60405180910390f35b6101be60048036038101906101b99190610a7a565b610785565b005b3480156101cc57600080fd5b506101d56108fd565b6040516101e29190610d0a565b60405180910390f35b6000600180549050905090565b60606001805480602002602001604051908101604052809291908181526020016000905b828210156102fd57838290600052602060002090600402016040518060a00160405290816000820160009054906101000a900473ffffffffffffffffffffffffffffffffffffffff1673ffffffffffffffffffffffffffffffffffffffff1673ffffffffffffffffffffffffffffffffffffffff1681526020016000820160149054906101000a900460ff1660028111156102ba576102b9610fe2565b5b60028111156102cc576102cb610fe2565b5b815260200160018201548152602001600282015481526020016003820154815250508152602001906001019061021c565b50505050905090565b60008054906101000a900473ffffffffffffffffffffffffffffffffffffffff1673ffffffffffffffffffffffffffffffffffffffff163373ffffffffffffffffffffffffffffffffffffffff161461035e57600080fd5b600060149054906101000a900460ff1661037757600080fd5b60008060146101000a81548160ff021916908315150217905550600061039d6025610745565b90507f34cc19c6a5758956f8aec81e3f501b1a3fe6c4b9879081781ec6be0a438f3a54816040516103ce9190610d7d565b60405180910390a160005b6001805490508110156105795760006104cd600183815481106103ff576103fe611011565b5b90600052602060002090600402016040518060a00160405290816000820160009054906101000a900473ffffffffffffffffffffffffffffffffffffffff1673ffffffffffffffffffffffffffffffffffffffff1673ffffffffffffffffffffffffffffffffffffffff1681526020016000820160149054906101000a900460ff16600281111561049357610492610fe2565b5b60028111156104a5576104a4610fe2565b5b81526020016001820154815260200160028201548152602001600382015481525050846105a6565b9050600081111561056557600182815481106104ec576104eb611011565b5b906000526020600020906004020160000160009054906101000a900473ffffffffffffffffffffffffffffffffffffffff1673ffffffffffffffffffffffffffffffffffffffff166108fc829081150290604051600060405180830381858888f19350505050158015610563573d6000803e3d6000fd5b505b50808061057190610f00565b9150506103d9565b50600160006105889190610921565b6001600060146101000a81548160ff02191690831515021790555050565b6000808214156105b957600090506106ee565b600060028111156105cd576105cc610fe2565b5b836020015160028111156105e4576105e3610fe2565b5b141561062c576105f3826106f4565b6105fe576001610601565b60005b60ff168360400151141561062757600283606001516106209190610df6565b90506106ee565b6106e9565b600160028111156106405761063f610fe2565b5b8360200151600281111561065757610656610fe2565b5b14156106925760028261066a9190610f53565b8360400151141561068d57600283606001516106869190610df6565b90506106ee565b6106e8565b6002808111156106a5576106a4610fe2565b5b836020015160028111156106bc576106bb610fe2565b5b14156106e75781836040015114156106e657602383606001516106df9190610df6565b90506106ee565b5b5b5b600090505b92915050565b6000600b82108061071157506012821180156107105750601d82105b5b1561072d5760016002836107259190610f53565b149050610740565b600060028361073c9190610f53565b1490505b919050565b600081444260405160200161075b929190610cde565b6040516020818303038152906040528051906020012060001c61077e9190610f53565b9050919050565b600060149054906101000a900460ff1661079e57600080fd5b600034116107ab57600080fd5b60006040518060a001604052803373ffffffffffffffffffffffffffffffffffffffff1681526020018460028111156107e7576107e6610fe2565b5b8152602001838152602001348152602001428152509050600181908060018154018082558091505060019003906000526020600020906004020160009091909190915060008201518160000160006101000a81548173ffffffffffffffffffffffffffffffffffffffff021916908373ffffffffffffffffffffffffffffffffffffffff16021790555060208201518160000160146101000a81548160ff0219169083600281111561089c5761089b610fe2565b5b021790555060408201518160010155606082015181600201556080820151816003015550507f29f156ad513b7b2d9699a68b4b2a96f0c4f22d41903adcba76052b0470e511b4816040516108f09190610d62565b60405180910390a1505050565b60008054906101000a900473ffffffffffffffffffffffffffffffffffffffff1681565b50805460008255600402906000526020600020908101906109429190610945565b50565b5b808211156109ab57600080820160006101000a81549073ffffffffffffffffffffffffffffffffffffffff02191690556000820160146101000a81549060ff021916905560018201600090556002820160009055600382016000905550600401610946565b5090565b6000813590506109be8161109e565b92915050565b6000813590506109d3816110b5565b92915050565b600060a082840312156109ef576109ee61106f565b5b6109f960a0610d98565b90506000610a09848285016109af565b6000830152506020610a1d848285016109c4565b6020830152506040610a3184828501610a65565b6040830152506060610a4584828501610a65565b6060830152506080610a5984828501610a65565b60808301525092915050565b600081359050610a74816110c5565b92915050565b60008060408385031215610a9157610a90611074565b5b6000610a9f858286016109c4565b9250506020610ab085828601610a65565b9150509250929050565b60008060c08385031215610ad157610ad0611074565b5b6000610adf858286016109d9565b92505060a0610af085828601610a65565b9150509250929050565b600060208284031215610b1057610b0f611074565b5b6000610b1e84828501610a65565b91505092915050565b6000610b338383610bd9565b60a08301905092915050565b610b4881610e62565b82525050565b610b5781610e50565b82525050565b6000610b6882610dcd565b610b728185610de5565b9350610b7d83610dbd565b8060005b83811015610bae578151610b958882610b27565b9750610ba083610dd8565b925050600181019050610b81565b5085935050505092915050565b610bc481610e74565b82525050565b610bd381610ebd565b82525050565b60a082016000820151610bef6000850182610b3f565b506020820151610c026020850182610bca565b506040820151610c156040850182610ca9565b506060820151610c286060850182610ca9565b506080820151610c3b6080850182610ca9565b50505050565b60a082016000820151610c576000850182610b3f565b506020820151610c6a6020850182610bca565b506040820151610c7d6040850182610ca9565b506060820151610c906060850182610ca9565b506080820151610ca36080850182610ca9565b50505050565b610cb281610eb3565b82525050565b610cc181610eb3565b82525050565b610cd8610cd382610eb3565b610f49565b82525050565b6000610cea8285610cc7565b602082019150610cfa8284610cc7565b6020820191508190509392505050565b6000602082019050610d1f6000830184610b4e565b92915050565b60006020820190508181036000830152610d3f8184610b5d565b905092915050565b6000602082019050610d5c6000830184610bbb565b92915050565b600060a082019050610d776000830184610c41565b92915050565b6000602082019050610d926000830184610cb8565b92915050565b6000610da2610db3565b9050610dae8282610ecf565b919050565b6000604051905090565b6000819050602082019050919050565b600081519050919050565b6000602082019050919050565b600082825260208201905092915050565b6000610e0182610eb3565b9150610e0c83610eb3565b9250817fffffffffffffffffffffffffffffffffffffffffffffffffffffffffffffffff0483118215151615610e4557610e44610f84565b5b828202905092915050565b6000610e5b82610e93565b9050919050565b6000610e6d82610e93565b9050919050565b60008115159050919050565b6000819050610e8e8261108a565b919050565b600073ffffffffffffffffffffffffffffffffffffffff82169050919050565b6000819050919050565b6000610ec882610e80565b9050919050565b610ed882611079565b810181811067ffffffffffffffff82111715610ef757610ef6611040565b5b80604052505050565b6000610f0b82610eb3565b91507fffffffffffffffffffffffffffffffffffffffffffffffffffffffffffffffff821415610f3e57610f3d610f84565b5b600182019050919050565b6000819050919050565b6000610f5e82610eb3565b9150610f6983610eb3565b925082610f7957610f78610fb3565b5b828206905092915050565b7f4e487b7100000000000000000000000000000000000000000000000000000000600052601160045260246000fd5b7f4e487b7100000000000000000000000000000000000000000000000000000000600052601260045260246000fd5b7f4e487b7100000000000000000000000000000000000000000000000000000000600052602160045260246000fd5b7f4e487b7100000000000000000000000000000000000000000000000000000000600052603260045260246000fd5b7f4e487b7100000000000000000000000000000000000000000000000000000000600052604160045260246000fd5b600080fd5b600080fd5b6000601f19601f8301169050919050565b6003811061109b5761109a610fe2565b5b50565b6110a781610e62565b81146110b257600080fd5b50565b600381106110c257600080fd5b50565b6110ce81610eb3565b81146110d957600080fd5b5056fea2646970667358221220a2c581f9ce9766b7f35e0b53113a5635b2e24150264d2fbf77ba64a2b0575d3264736f6c63430008070033",
  "immutableReferences": {},
  "source": "/// @title Roulette 0.1.1\n/// @author awphi (https://github.com/awphi)\n/// @notice Roulette game from GlassCasino - L3 BSc ComSci Project @ Durham University\n/// @dev -\n\n// SPDX-License-Identifier: MIT\npragma solidity >=0.4.22 <0.9.0;\n\ncontract Roulette {\n  // TODO redo history with mappings\n\n  enum BetType {\n    COLOUR,\n    ODDEVEN,\n    STRAIGHTUP\n    /*\n            HIGHLOW, \n            COLUMN, \n            DOZENS, \n            SPLIT, \n            STREET, \n            CORNER, \n            LINE, \n            FIVE, \n            BASKET, \n            SNAKE \n            */\n  }\n\n  struct Bet {\n    address payable player;\n    BetType bet_type;\n    uint256 bet;\n    uint256 bet_amount;\n    uint256 timestamp;\n  }\n\n  // Used so dApp can listen to emitted event to update UIs as soon as the outcome is rolled\n  event OutcomeDecided(uint256 roll);\n  event BetPlaced(Bet bet);\n\n  address public house;\n  bool ready = true;\n  Bet[] bets;\n\n  // Sets the house on minting of the contract, i.e. who controls the flow of the game\n  constructor() {\n    house = msg.sender;\n  }\n\n  function get_bets() public view returns (Bet[] memory) {\n    return bets;\n  }\n\n  function get_bets_length() public view returns (uint256) {\n    return bets.length;\n  }\n\n  function deposit(BetType bet_type, uint256 bet) public payable {\n    require(ready);\n    require(msg.value > 0);\n    Bet memory b = Bet(payable(msg.sender), bet_type, bet, msg.value, block.timestamp);\n    bets.push(b);\n    emit BetPlaced(b);\n  }\n\n  // Note: Replace with chainlink\n  function random(uint256 mod) public view returns (uint256) {\n    return\n      uint256(keccak256(abi.encodePacked(block.difficulty, block.timestamp))) %\n      mod;\n  }\n\n  function is_red(uint256 roll) public pure returns (bool) {\n    if (roll < 11 || (roll > 18 && roll < 29)) {\n      // Red odd, black even\n      return roll % 2 == 1;\n    } else {\n      return roll % 2 == 0;\n    }\n  }\n\n  function get_winnings(Bet memory bet, uint256 roll)\n    public\n    pure\n    returns (uint256)\n  {\n    // House edge, contract keeps the money\n    if (roll == 0) {\n      return 0;\n    }\n\n    if (bet.bet_type == BetType.COLOUR) {\n      // 0 = red, 1 = black\n      if (bet.bet == (is_red(roll) ? 0 : 1)) {\n        return bet.bet_amount * 2;\n      }\n    } else if (bet.bet_type == BetType.ODDEVEN) {\n      // 0 = even, 1 = odd\n      if (bet.bet == (roll % 2)) {\n        return bet.bet_amount * 2;\n      }\n    } else if (bet.bet_type == BetType.STRAIGHTUP) {\n      if (bet.bet == roll) {\n        return bet.bet_amount * 35;\n      }\n    }\n\n    return 0;\n  }\n\n  function play() public {\n    require(msg.sender == house);\n    require(ready);\n\n    ready = false;\n\n    uint256 roll = random(37);\n    //add_history(roll);\n    emit OutcomeDecided(roll);\n\n    for (uint256 i = 0; i < bets.length; i++) {\n      uint256 w = get_winnings(bets[i], roll);\n\n      if (w > 0) {\n        bets[i].player.transfer(w);\n      }\n    }\n\n    delete bets;\n    ready = true;\n  }\n}\n",
  "sourcePath": "F:\\1Repo\\glass-casino\\contracts\\Roulette.sol",
  "compiler": {
    "name": "solc",
    "version": "0.8.7+commit.e28d00a7.Emscripten.clang"
  },
  "schemaVersion": "3.4.3",
  "updatedAt": "2022-01-14T01:29:35.039Z",
  "networkType": "ethereum",
  "devdoc": {
    "kind": "dev",
    "methods": {},
    "version": 1
  },
  "userdoc": {
    "kind": "user",
    "methods": {},
    "version": 1
  }
}