{
  "contractName": "Roulette",
  "abi": [
    {
      "inputs": [],
      "stateMutability": "nonpayable",
      "type": "constructor"
    },
    {
      "anonymous": false,
      "inputs": [
        {
          "components": [
            {
              "internalType": "address payable",
              "name": "player",
              "type": "address"
            },
            {
              "internalType": "enum Roulette.BetType",
              "name": "bet_type",
              "type": "uint8"
            },
            {
              "internalType": "uint256",
              "name": "bet",
              "type": "uint256"
            },
            {
              "internalType": "uint256",
              "name": "bet_amount",
              "type": "uint256"
            },
            {
              "internalType": "uint256",
              "name": "timestamp",
              "type": "uint256"
            }
          ],
          "indexed": false,
          "internalType": "struct Roulette.Bet",
          "name": "bet",
          "type": "tuple"
        }
      ],
      "name": "BetPlaced",
      "type": "event"
    },
    {
      "anonymous": false,
      "inputs": [
        {
          "indexed": false,
          "internalType": "uint256",
          "name": "roll",
          "type": "uint256"
        }
      ],
      "name": "OutcomeDecided",
      "type": "event"
    },
    {
      "inputs": [],
      "name": "get_bets",
      "outputs": [
        {
          "components": [
            {
              "internalType": "address payable",
              "name": "player",
              "type": "address"
            },
            {
              "internalType": "enum Roulette.BetType",
              "name": "bet_type",
              "type": "uint8"
            },
            {
              "internalType": "uint256",
              "name": "bet",
              "type": "uint256"
            },
            {
              "internalType": "uint256",
              "name": "bet_amount",
              "type": "uint256"
            },
            {
              "internalType": "uint256",
              "name": "timestamp",
              "type": "uint256"
            }
          ],
          "internalType": "struct Roulette.Bet[]",
          "name": "",
          "type": "tuple[]"
        }
      ],
      "stateMutability": "view",
      "type": "function",
      "constant": true
    },
    {
      "inputs": [],
      "name": "get_bets_length",
      "outputs": [
        {
          "internalType": "uint256",
          "name": "",
          "type": "uint256"
        }
      ],
      "stateMutability": "view",
      "type": "function",
      "constant": true
    },
    {
      "inputs": [
        {
          "internalType": "enum Roulette.BetType",
          "name": "bet_type",
          "type": "uint8"
        },
        {
          "internalType": "uint256",
          "name": "bet",
          "type": "uint256"
        }
      ],
      "name": "deposit",
      "outputs": [],
      "stateMutability": "payable",
      "type": "function",
      "payable": true
    },
    {
      "inputs": [
        {
          "internalType": "uint256",
          "name": "mod",
          "type": "uint256"
        }
      ],
      "name": "random",
      "outputs": [
        {
          "internalType": "uint256",
          "name": "",
          "type": "uint256"
        }
      ],
      "stateMutability": "view",
      "type": "function",
      "constant": true
    },
    {
      "inputs": [
        {
          "internalType": "uint256",
          "name": "roll",
          "type": "uint256"
        }
      ],
      "name": "is_red",
      "outputs": [
        {
          "internalType": "bool",
          "name": "",
          "type": "bool"
        }
      ],
      "stateMutability": "pure",
      "type": "function",
      "constant": true
    },
    {
      "inputs": [
        {
          "components": [
            {
              "internalType": "address payable",
              "name": "player",
              "type": "address"
            },
            {
              "internalType": "enum Roulette.BetType",
              "name": "bet_type",
              "type": "uint8"
            },
            {
              "internalType": "uint256",
              "name": "bet",
              "type": "uint256"
            },
            {
              "internalType": "uint256",
              "name": "bet_amount",
              "type": "uint256"
            },
            {
              "internalType": "uint256",
              "name": "timestamp",
              "type": "uint256"
            }
          ],
          "internalType": "struct Roulette.Bet",
          "name": "bet",
          "type": "tuple"
        },
        {
          "internalType": "uint256",
          "name": "roll",
          "type": "uint256"
        }
      ],
      "name": "get_winnings",
      "outputs": [
        {
          "internalType": "uint256",
          "name": "",
          "type": "uint256"
        }
      ],
      "stateMutability": "pure",
      "type": "function",
      "constant": true
    },
    {
      "inputs": [],
      "name": "play",
      "outputs": [],
      "stateMutability": "nonpayable",
      "type": "function"
    }
  ],
  "bytecode": "0x60806040526001600060146101000a81548160ff02191690831515021790555034801561002b57600080fd5b50336000806101000a81548173ffffffffffffffffffffffffffffffffffffffff021916908373ffffffffffffffffffffffffffffffffffffffff16021790555061107c8061007b6000396000f3fe6080604052600436106100705760003560e01c8063b1c44cd31161004e578063b1c44cd3146100e2578063b4b674cb1461011f578063b863bd371461015c578063f4d4c9d71461019957610070565b8063797fae9d146100755780637b275c88146100a057806393e84cd9146100cb575b600080fd5b34801561008157600080fd5b5061008a6101b5565b6040516100979190610cf9565b60405180910390f35b3480156100ac57600080fd5b506100b56101c2565b6040516100c29190610ca1565b60405180910390f35b3480156100d757600080fd5b506100e06102d0565b005b3480156100ee57600080fd5b5061010960048036038101906101049190610a60565b610570565b6040516101169190610cf9565b60405180910390f35b34801561012b57600080fd5b5061014660048036038101906101419190610aa0565b6106be565b6040516101539190610cc3565b60405180910390f35b34801561016857600080fd5b50610183600480360381019061017e9190610aa0565b61070f565b6040516101909190610cf9565b60405180910390f35b6101b360048036038101906101ae9190610a20565b61074f565b005b6000600180549050905090565b60606001805480602002602001604051908101604052809291908181526020016000905b828210156102c757838290600052602060002090600402016040518060a00160405290816000820160009054906101000a900473ffffffffffffffffffffffffffffffffffffffff1673ffffffffffffffffffffffffffffffffffffffff1673ffffffffffffffffffffffffffffffffffffffff1681526020016000820160149054906101000a900460ff16600281111561028457610283610f4c565b5b600281111561029657610295610f4c565b5b81526020016001820154815260200160028201548152602001600382015481525050815260200190600101906101e6565b50505050905090565b60008054906101000a900473ffffffffffffffffffffffffffffffffffffffff1673ffffffffffffffffffffffffffffffffffffffff163373ffffffffffffffffffffffffffffffffffffffff161461032857600080fd5b600060149054906101000a900460ff1661034157600080fd5b60008060146101000a81548160ff0219169083151502179055506000610367602561070f565b90507f34cc19c6a5758956f8aec81e3f501b1a3fe6c4b9879081781ec6be0a438f3a54816040516103989190610cf9565b60405180910390a160005b600180549050811015610543576000610497600183815481106103c9576103c8610f7b565b5b90600052602060002090600402016040518060a00160405290816000820160009054906101000a900473ffffffffffffffffffffffffffffffffffffffff1673ffffffffffffffffffffffffffffffffffffffff1673ffffffffffffffffffffffffffffffffffffffff1681526020016000820160149054906101000a900460ff16600281111561045d5761045c610f4c565b5b600281111561046f5761046e610f4c565b5b8152602001600182015481526020016002820154815260200160038201548152505084610570565b9050600081111561052f57600182815481106104b6576104b5610f7b565b5b906000526020600020906004020160000160009054906101000a900473ffffffffffffffffffffffffffffffffffffffff1673ffffffffffffffffffffffffffffffffffffffff166108fc829081150290604051600060405180830381858888f1935050505015801561052d573d6000803e3d6000fd5b505b50808061053b90610e6a565b9150506103a3565b506001600061055291906108c7565b6001600060146101000a81548160ff02191690831515021790555050565b60008082141561058357600090506106b8565b6000600281111561059757610596610f4c565b5b836020015160028111156105ae576105ad610f4c565b5b14156105f6576105bd826106be565b6105c85760016105cb565b60005b60ff16836040015114156105f157600283606001516105ea9190610d72565b90506106b8565b6106b3565b6001600281111561060a57610609610f4c565b5b8360200151600281111561062157610620610f4c565b5b141561065c576002826106349190610ebd565b8360400151141561065757600283606001516106509190610d72565b90506106b8565b6106b2565b60028081111561066f5761066e610f4c565b5b8360200151600281111561068657610685610f4c565b5b14156106b15781836040015114156106b057602383606001516106a99190610d72565b90506106b8565b5b5b5b600090505b92915050565b6000600b8210806106db57506012821180156106da5750601d82105b5b156106f75760016002836106ef9190610ebd565b14905061070a565b60006002836107069190610ebd565b1490505b919050565b6000814442604051602001610725929190610c75565b6040516020818303038152906040528051906020012060001c6107489190610ebd565b9050919050565b600060149054906101000a900460ff1661076857600080fd5b6000341161077557600080fd5b60006040518060a001604052803373ffffffffffffffffffffffffffffffffffffffff1681526020018460028111156107b1576107b0610f4c565b5b8152602001838152602001348152602001428152509050600181908060018154018082558091505060019003906000526020600020906004020160009091909190915060008201518160000160006101000a81548173ffffffffffffffffffffffffffffffffffffffff021916908373ffffffffffffffffffffffffffffffffffffffff16021790555060208201518160000160146101000a81548160ff0219169083600281111561086657610865610f4c565b5b021790555060408201518160010155606082015181600201556080820151816003015550507f29f156ad513b7b2d9699a68b4b2a96f0c4f22d41903adcba76052b0470e511b4816040516108ba9190610cde565b60405180910390a1505050565b50805460008255600402906000526020600020908101906108e891906108eb565b50565b5b8082111561095157600080820160006101000a81549073ffffffffffffffffffffffffffffffffffffffff02191690556000820160146101000a81549060ff0219169055600182016000905560028201600090556003820160009055506004016108ec565b5090565b60008135905061096481611008565b92915050565b6000813590506109798161101f565b92915050565b600060a0828403121561099557610994610fd9565b5b61099f60a0610d14565b905060006109af84828501610955565b60008301525060206109c38482850161096a565b60208301525060406109d784828501610a0b565b60408301525060606109eb84828501610a0b565b60608301525060806109ff84828501610a0b565b60808301525092915050565b600081359050610a1a8161102f565b92915050565b60008060408385031215610a3757610a36610fde565b5b6000610a458582860161096a565b9250506020610a5685828601610a0b565b9150509250929050565b60008060c08385031215610a7757610a76610fde565b5b6000610a858582860161097f565b92505060a0610a9685828601610a0b565b9150509250929050565b600060208284031215610ab657610ab5610fde565b5b6000610ac484828501610a0b565b91505092915050565b6000610ad98383610b70565b60a08301905092915050565b610aee81610dcc565b82525050565b6000610aff82610d49565b610b098185610d61565b9350610b1483610d39565b8060005b83811015610b45578151610b2c8882610acd565b9750610b3783610d54565b925050600181019050610b18565b5085935050505092915050565b610b5b81610dde565b82525050565b610b6a81610e27565b82525050565b60a082016000820151610b866000850182610ae5565b506020820151610b996020850182610b61565b506040820151610bac6040850182610c40565b506060820151610bbf6060850182610c40565b506080820151610bd26080850182610c40565b50505050565b60a082016000820151610bee6000850182610ae5565b506020820151610c016020850182610b61565b506040820151610c146040850182610c40565b506060820151610c276060850182610c40565b506080820151610c3a6080850182610c40565b50505050565b610c4981610e1d565b82525050565b610c5881610e1d565b82525050565b610c6f610c6a82610e1d565b610eb3565b82525050565b6000610c818285610c5e565b602082019150610c918284610c5e565b6020820191508190509392505050565b60006020820190508181036000830152610cbb8184610af4565b905092915050565b6000602082019050610cd86000830184610b52565b92915050565b600060a082019050610cf36000830184610bd8565b92915050565b6000602082019050610d0e6000830184610c4f565b92915050565b6000610d1e610d2f565b9050610d2a8282610e39565b919050565b6000604051905090565b6000819050602082019050919050565b600081519050919050565b6000602082019050919050565b600082825260208201905092915050565b6000610d7d82610e1d565b9150610d8883610e1d565b9250817fffffffffffffffffffffffffffffffffffffffffffffffffffffffffffffffff0483118215151615610dc157610dc0610eee565b5b828202905092915050565b6000610dd782610dfd565b9050919050565b60008115159050919050565b6000819050610df882610ff4565b919050565b600073ffffffffffffffffffffffffffffffffffffffff82169050919050565b6000819050919050565b6000610e3282610dea565b9050919050565b610e4282610fe3565b810181811067ffffffffffffffff82111715610e6157610e60610faa565b5b80604052505050565b6000610e7582610e1d565b91507fffffffffffffffffffffffffffffffffffffffffffffffffffffffffffffffff821415610ea857610ea7610eee565b5b600182019050919050565b6000819050919050565b6000610ec882610e1d565b9150610ed383610e1d565b925082610ee357610ee2610f1d565b5b828206905092915050565b7f4e487b7100000000000000000000000000000000000000000000000000000000600052601160045260246000fd5b7f4e487b7100000000000000000000000000000000000000000000000000000000600052601260045260246000fd5b7f4e487b7100000000000000000000000000000000000000000000000000000000600052602160045260246000fd5b7f4e487b7100000000000000000000000000000000000000000000000000000000600052603260045260246000fd5b7f4e487b7100000000000000000000000000000000000000000000000000000000600052604160045260246000fd5b600080fd5b600080fd5b6000601f19601f8301169050919050565b6003811061100557611004610f4c565b5b50565b61101181610dcc565b811461101c57600080fd5b50565b6003811061102c57600080fd5b50565b61103881610e1d565b811461104357600080fd5b5056fea2646970667358221220dedf215edbe16f2971dac68ef363f15efd60ff2335efb85e18a8c30473b5478064736f6c63430008070033",
  "immutableReferences": {},
  "source": "/// @title Roulette 0.1.1\n/// @author awphi (https://github.com/awphi)\n/// @notice Roulette game from GlassCasino - L3 BSc ComSci Project @ Durham University\n/// @dev -\n\n// SPDX-License-Identifier: MIT\npragma solidity >=0.4.22 <0.9.0;\n\ncontract Roulette {\n  // TODO redo history with mappings\n\n  enum BetType {\n    COLOUR,\n    ODDEVEN,\n    STRAIGHTUP\n    /*\n            HIGHLOW, \n            COLUMN, \n            DOZENS, \n            SPLIT, \n            STREET, \n            CORNER, \n            LINE, \n            FIVE, \n            BASKET, \n            SNAKE \n            */\n  }\n\n  struct Bet {\n    address payable player;\n    BetType bet_type;\n    uint256 bet;\n    uint256 bet_amount;\n    uint256 timestamp;\n  }\n\n  // Used so dApp can listen to emitted event to update UIs as soon as the outcome is rolled\n  event OutcomeDecided(uint256 roll);\n  event BetPlaced(Bet bet);\n\n  address house;\n  bool ready = true;\n  Bet[] bets;\n\n  // Sets the house on minting of the contract, i.e. who controls the flow of the game\n  constructor() {\n    house = msg.sender;\n  }\n\n  function get_bets() public view returns (Bet[] memory) {\n    return bets;\n  }\n\n  function get_bets_length() public view returns (uint256) {\n    return bets.length;\n  }\n\n  function deposit(BetType bet_type, uint256 bet) public payable {\n    require(ready);\n    require(msg.value > 0);\n    Bet memory b = Bet(payable(msg.sender), bet_type, bet, msg.value, block.timestamp);\n    bets.push(b);\n    emit BetPlaced(b);\n  }\n\n  // Note: Replace with chainlink\n  function random(uint256 mod) public view returns (uint256) {\n    return\n      uint256(keccak256(abi.encodePacked(block.difficulty, block.timestamp))) %\n      mod;\n  }\n\n  function is_red(uint256 roll) public pure returns (bool) {\n    if (roll < 11 || (roll > 18 && roll < 29)) {\n      // Red odd, black even\n      return roll % 2 == 1;\n    } else {\n      return roll % 2 == 0;\n    }\n  }\n\n  function get_winnings(Bet memory bet, uint256 roll)\n    public\n    pure\n    returns (uint256)\n  {\n    // House edge, contract keeps the money\n    if (roll == 0) {\n      return 0;\n    }\n\n    if (bet.bet_type == BetType.COLOUR) {\n      // 0 = red, 1 = black\n      if (bet.bet == (is_red(roll) ? 0 : 1)) {\n        return bet.bet_amount * 2;\n      }\n    } else if (bet.bet_type == BetType.ODDEVEN) {\n      // 0 = even, 1 = odd\n      if (bet.bet == (roll % 2)) {\n        return bet.bet_amount * 2;\n      }\n    } else if (bet.bet_type == BetType.STRAIGHTUP) {\n      if (bet.bet == roll) {\n        return bet.bet_amount * 35;\n      }\n    }\n\n    return 0;\n  }\n\n  function play() public {\n    require(msg.sender == house);\n    require(ready);\n\n    ready = false;\n\n    uint256 roll = random(37);\n    //add_history(roll);\n    emit OutcomeDecided(roll);\n\n    for (uint256 i = 0; i < bets.length; i++) {\n      uint256 w = get_winnings(bets[i], roll);\n\n      if (w > 0) {\n        bets[i].player.transfer(w);\n      }\n    }\n\n    delete bets;\n    ready = true;\n  }\n}\n",
  "sourcePath": "F:\\1Repo\\glass-casino\\contracts\\Roulette.sol",
  "compiler": {
    "name": "solc",
    "version": "0.8.7+commit.e28d00a7.Emscripten.clang"
  },
  "schemaVersion": "3.4.3",
  "updatedAt": "2022-01-12T03:13:24.930Z",
  "networkType": "ethereum",
  "devdoc": {
    "kind": "dev",
    "methods": {},
    "version": 1
  },
  "userdoc": {
    "kind": "user",
    "methods": {},
    "version": 1
  }
}