{
  "contractName": "Roulette",
  "abi": [
    {
      "anonymous": false,
      "inputs": [
        {
          "components": [
            {
              "internalType": "uint16",
              "name": "bet_type",
              "type": "uint16"
            },
            {
              "internalType": "uint16",
              "name": "bet",
              "type": "uint16"
            },
            {
              "internalType": "uint64",
              "name": "timestamp",
              "type": "uint64"
            },
            {
              "internalType": "address",
              "name": "player",
              "type": "address"
            },
            {
              "internalType": "uint256",
              "name": "bet_amount",
              "type": "uint256"
            }
          ],
          "indexed": false,
          "internalType": "struct Roulette.Bet",
          "name": "bet",
          "type": "tuple"
        }
      ],
      "name": "BetPlaced",
      "type": "event"
    },
    {
      "anonymous": false,
      "inputs": [
        {
          "indexed": false,
          "internalType": "uint256",
          "name": "roll",
          "type": "uint256"
        }
      ],
      "name": "OutcomeDecided",
      "type": "event"
    },
    {
      "inputs": [],
      "name": "balance",
      "outputs": [
        {
          "internalType": "uint256",
          "name": "",
          "type": "uint256"
        }
      ],
      "stateMutability": "view",
      "type": "function"
    },
    {
      "inputs": [],
      "name": "deposit",
      "outputs": [],
      "stateMutability": "payable",
      "type": "function"
    },
    {
      "inputs": [],
      "name": "owner",
      "outputs": [
        {
          "internalType": "address",
          "name": "",
          "type": "address"
        }
      ],
      "stateMutability": "view",
      "type": "function"
    },
    {
      "inputs": [
        {
          "internalType": "uint256",
          "name": "amount",
          "type": "uint256"
        }
      ],
      "name": "withdraw",
      "outputs": [],
      "stateMutability": "nonpayable",
      "type": "function"
    },
    {
      "inputs": [],
      "name": "get_bets",
      "outputs": [
        {
          "components": [
            {
              "internalType": "uint16",
              "name": "bet_type",
              "type": "uint16"
            },
            {
              "internalType": "uint16",
              "name": "bet",
              "type": "uint16"
            },
            {
              "internalType": "uint64",
              "name": "timestamp",
              "type": "uint64"
            },
            {
              "internalType": "address",
              "name": "player",
              "type": "address"
            },
            {
              "internalType": "uint256",
              "name": "bet_amount",
              "type": "uint256"
            }
          ],
          "internalType": "struct Roulette.Bet[]",
          "name": "",
          "type": "tuple[]"
        }
      ],
      "stateMutability": "view",
      "type": "function"
    },
    {
      "inputs": [],
      "name": "get_bets_length",
      "outputs": [
        {
          "internalType": "uint128",
          "name": "",
          "type": "uint128"
        }
      ],
      "stateMutability": "view",
      "type": "function"
    },
    {
      "inputs": [],
      "name": "get_max_bets",
      "outputs": [
        {
          "internalType": "uint256",
          "name": "",
          "type": "uint256"
        }
      ],
      "stateMutability": "view",
      "type": "function"
    },
    {
      "inputs": [
        {
          "internalType": "uint16",
          "name": "bet_type",
          "type": "uint16"
        },
        {
          "internalType": "uint256",
          "name": "bet_amount",
          "type": "uint256"
        },
        {
          "internalType": "uint16",
          "name": "bet",
          "type": "uint16"
        }
      ],
      "name": "place_bet",
      "outputs": [],
      "stateMutability": "nonpayable",
      "type": "function"
    },
    {
      "inputs": [
        {
          "internalType": "uint256",
          "name": "mod",
          "type": "uint256"
        }
      ],
      "name": "random",
      "outputs": [
        {
          "internalType": "uint256",
          "name": "",
          "type": "uint256"
        }
      ],
      "stateMutability": "view",
      "type": "function"
    },
    {
      "inputs": [
        {
          "internalType": "uint256",
          "name": "roll",
          "type": "uint256"
        }
      ],
      "name": "is_red",
      "outputs": [
        {
          "internalType": "bool",
          "name": "",
          "type": "bool"
        }
      ],
      "stateMutability": "pure",
      "type": "function"
    },
    {
      "inputs": [
        {
          "components": [
            {
              "internalType": "uint16",
              "name": "bet_type",
              "type": "uint16"
            },
            {
              "internalType": "uint16",
              "name": "bet",
              "type": "uint16"
            },
            {
              "internalType": "uint64",
              "name": "timestamp",
              "type": "uint64"
            },
            {
              "internalType": "address",
              "name": "player",
              "type": "address"
            },
            {
              "internalType": "uint256",
              "name": "bet_amount",
              "type": "uint256"
            }
          ],
          "internalType": "struct Roulette.Bet",
          "name": "bet",
          "type": "tuple"
        },
        {
          "internalType": "uint256",
          "name": "roll",
          "type": "uint256"
        }
      ],
      "name": "calculate_winnings",
      "outputs": [
        {
          "internalType": "uint256",
          "name": "",
          "type": "uint256"
        }
      ],
      "stateMutability": "pure",
      "type": "function"
    },
    {
      "inputs": [],
      "name": "play",
      "outputs": [],
      "stateMutability": "nonpayable",
      "type": "function"
    }
  ],
  "bytecode": "0x6080604052600280546001600160801b031916905534801561002057600080fd5b50600080546001600160a01b03191633179055610dbc806100426000396000f3fe6080604052600436106100a75760003560e01c806393e84cd91161006457806393e84cd9146101a35780639b5547ad146101b8578063b4b674cb146101cc578063b69ef8a8146101fc578063b863bd371461021e578063d0e30db01461023e57600080fd5b80632e1a7d4d146100ac57806332e5b0bc146100ce57806342acafbc14610101578063797fae9d146101215780637b275c88146101495780638da5cb5b1461016b575b600080fd5b3480156100b857600080fd5b506100cc6100c7366004610bed565b610246565b005b3480156100da57600080fd5b506100ee6100e9366004610b05565b6102d1565b6040519081526020015b60405180910390f35b34801561010d57600080fd5b506100cc61011c366004610bb1565b6103a5565b34801561012d57600080fd5b506002546040516001600160801b0390911681526020016100f8565b34801561015557600080fd5b5061015e61068e565b6040516100f89190610c06565b34801561017757600080fd5b5060005461018b906001600160a01b031681565b6040516001600160a01b0390911681526020016100f8565b3480156101af57600080fd5b506100cc6107d9565b3480156101c457600080fd5b5060806100ee565b3480156101d857600080fd5b506101ec6101e7366004610bed565b610a03565b60405190151581526020016100f8565b34801561020857600080fd5b50336000908152600160205260409020546100ee565b34801561022a57600080fd5b506100ee610239366004610bed565b610a4f565b6100cc610a91565b6000811161025357600080fd5b3360009081526001602052604090205481111561026f57600080fd5b8047101561027c57600080fd5b336000908152600160205260408120805483929061029b908490610cf0565b9091555050604051339082156108fc029083906000818181858888f193505050501580156102cd573d6000803e3d6000fd5b5050565b6000816102e05750600061039f565b825161ffff1661032f576102f382610a03565b6102fe576001610301565b60005b60ff16836020015161ffff16141561032a576080830151610323906002610cd1565b905061039f565b61039b565b826000015161ffff166001141561036a5761034b600283610d22565b836020015161ffff16141561032a576080830151610323906002610cd1565b826000015161ffff166002141561039b5781836020015161ffff16141561039b576080830151610323906023610cd1565b5060005b92915050565b600082116103f05760405162461bcd60e51b815260206004820152601360248201527224b73b30b634b2103132ba1030b6b7bab73a1760691b60448201526064015b60405180910390fd5b3360009081526001602052604090205482111561044f5760405162461bcd60e51b815260206004820181905260248201527f496e73756666696369656e742066756e647320746f20636f766572206265742e60448201526064016103e7565b60025460806001600160801b03909116106104a45760405162461bcd60e51b815260206004820152601560248201527426b0bc34b6bab6903132ba39903932b0b1b432b21760591b60448201526064016103e7565b33600090815260016020526040812080548492906104c3908490610cf0565b90915550506040805160a08101825261ffff80861682528316602082015267ffffffffffffffff42169181019190915233606082015260808082018490526002546003916001600160801b0390911690811061052157610521610d5a565b825160029182029290920180546020850151604086015160608701516001600160a01b0316600160601b026bffffffffffffffffffffffff67ffffffffffffffff909216640100000000029190911663ffffffff61ffff938416620100000263ffffffff19909516939097169290921792909217949094169390931792909217825560809092015160019182015581549091906000906105cb9084906001600160801b0316610c8e565b92506101000a8154816001600160801b0302191690836001600160801b031602179055507f168ba5d36b75cd9e2c0d58cc82bada2c8502840a34b832d9f9f943252ae3db0d6003600160806106209190610cf0565b6080811061063057610630610d5a565b600202016040516106819190815461ffff8082168352601082901c1660208084019190915281901c67ffffffffffffffff166040830152606090811c90820152600190910154608082015260a00190565b60405180910390a1505050565b6002546060906000906001600160801b031667ffffffffffffffff8111156106b8576106b8610d70565b60405190808252806020026020018201604052801561071157816020015b6040805160a0810182526000808252602080830182905292820181905260608201819052608082015282526000199092019101816106d65790505b50905060005b6002546001600160801b03168110156107d3576003816080811061073d5761073d610d5a565b6040805160a08101825260029290920292909201805461ffff8082168452620100008204166020840152640100000000810467ffffffffffffffff1693830193909352600160601b9092046001600160a01b03166060820152600190910154608082015282518390839081106107b5576107b5610d5a565b602002602001018190525080806107cb90610d07565b915050610717565b50919050565b6000546001600160a01b031633146108455760405162461bcd60e51b815260206004820152602960248201527f5472616e73616374696f6e2073656e646572206973206e6f7420636f6e74726160448201526831ba1037bbb732b91760b91b60648201526084016103e7565b60006108516025610a4f565b90507f34cc19c6a5758956f8aec81e3f501b1a3fe6c4b9879081781ec6be0a438f3a548160405161088491815260200190565b60405180910390a160005b6002546001600160801b03168110156109e6576000610924600383608081106108ba576108ba610d5a565b6040805160a08101825260029290920292909201805461ffff8082168452620100008204166020840152640100000000810467ffffffffffffffff1693830193909352600160601b9092046001600160a01b031660608201526001909101546080820152846102d1565b905080156109865780600160006003856080811061094457610944610d5a565b6002020154600160601b90046001600160a01b0316815260208101919091526040016000908120805490919061097b908490610cb9565b909155506109d39050565b6003826080811061099957610999610d5a565b60020201600190810154600080546001600160a01b03168152602092909252604082208054919290916109cd908490610cb9565b90915550505b50806109de81610d07565b91505061088f565b5050600280546fffffffffffffffffffffffffffffffff19169055565b6000600b821080610a1f5750601282118015610a1f5750601d82105b15610a3857610a2f600283610d22565b60011492915050565b610a43600283610d22565b1592915050565b919050565b6000814442604051602001610a6e929190918252602082015260400190565b6040516020818303038152906040528051906020012060001c61039f9190610d22565b60003411610a9e57600080fd5b3360009081526001602052604081208054349290610abd908490610cb9565b9091555050565b80356001600160a01b0381168114610a4a57600080fd5b803561ffff81168114610a4a57600080fd5b803567ffffffffffffffff81168114610a4a57600080fd5b60008082840360c0811215610b1957600080fd5b60a0811215610b2757600080fd5b5060405160a0810181811067ffffffffffffffff82111715610b5957634e487b7160e01b600052604160045260246000fd5b604052610b6584610adb565b8152610b7360208501610adb565b6020820152610b8460408501610aed565b6040820152610b9560608501610ac4565b6060820152608084810135908201529460a09093013593505050565b600080600060608486031215610bc657600080fd5b610bcf84610adb565b925060208401359150610be460408501610adb565b90509250925092565b600060208284031215610bff57600080fd5b5035919050565b602080825282518282018190526000919060409081850190868401855b82811015610c81578151805161ffff90811686528782015116878601528581015167ffffffffffffffff16868601526060808201516001600160a01b0316908601526080908101519085015260a09093019290850190600101610c23565b5091979650505050505050565b60006001600160801b03808316818516808303821115610cb057610cb0610d44565b01949350505050565b60008219821115610ccc57610ccc610d44565b500190565b6000816000190483118215151615610ceb57610ceb610d44565b500290565b600082821015610d0257610d02610d44565b500390565b6000600019821415610d1b57610d1b610d44565b5060010190565b600082610d3f57634e487b7160e01b600052601260045260246000fd5b500690565b634e487b7160e01b600052601160045260246000fd5b634e487b7160e01b600052603260045260246000fd5b634e487b7160e01b600052604160045260246000fdfea26469706673582212209db42a3f37439c6139f5a8dbb13422c3500f8b2ccbaa4fced5f9214c47cd8f7664736f6c63430008070033",
  "immutableReferences": {},
  "source": "/// @title Roulette 0.2.0\n/// @author awphi (https://github.com/awphi)\n/// @notice Roulette game from GlassCasino - L3 BSc ComSci Project @ Durham University\n/// @dev See get_winnings function for bet types/bet operand breakdown\n\n// SPDX-License-Identifier: MIT\npragma solidity >=0.4.22 <0.9.0;\n\nimport \"./Bank.sol\";\nimport \"./Owned.sol\";\n\ncontract Roulette is Owned, Bank {\n  struct Bet {\n    uint16 bet_type;\n    uint16 bet;\n    uint64 timestamp;\n    address player;\n\n    uint256 bet_amount;\n  }\n\n  uint128 numBets = 0;\n  Bet[128] bets;\n\n  // Used so dApp can listen to emitted event to update UIs as soon as the outcome is rolled\n  event OutcomeDecided(uint roll);\n  event BetPlaced(Bet bet);\n\n  function get_bets() public view returns (Bet[] memory) {\n    Bet[] memory ret = new Bet[](numBets);\n\n    for(uint i = 0; i < numBets; i ++) {\n      ret[i] = bets[i];\n    }\n\n    return ret;\n  }\n\n  function get_bets_length() public view returns (uint128) {\n    return numBets;\n  }\n\n  function get_max_bets() public view returns (uint) {\n    return bets.length;\n  }\n\n  function place_bet(uint16 bet_type, uint256 bet_amount, uint16 bet) public {\n    require(bet_amount > 0, \"Invalid bet amount.\");\n    require(funds[msg.sender] >= bet_amount, \"Insufficient funds to cover bet.\");\n    require(numBets < bets.length, \"Maximum bets reached.\");\n\n    funds[msg.sender] -= bet_amount;\n    bets[numBets] = Bet(bet_type, bet, uint64(block.timestamp), msg.sender, bet_amount);\n    numBets += 1;\n    emit BetPlaced(bets[bets.length - 1]);\n  }\n\n  // Note: Replace with chainlink\n  function random(uint mod) public view returns (uint) {\n    return\n      uint(keccak256(abi.encodePacked(block.difficulty, block.timestamp))) % mod;\n  }\n\n  function is_red(uint roll) public pure returns (bool) {\n    if (roll < 11 || (roll > 18 && roll < 29)) {\n      // Red odd, black even\n      return roll % 2 == 1;\n    } else {\n      return roll % 2 == 0;\n    }\n  }\n\n  function calculate_winnings(Bet memory bet, uint roll) public pure returns (uint) {\n    // House edge\n    if (roll == 0) {\n      return 0;\n    }\n\n    /*\n    COLOUR = 0,\n    ODDEVEN = 1,\n    STRAIGHTUP = 2,\n    HIGHLOW = 3, \n    COLUMN = 4, \n    DOZENS = 5, \n    SPLIT = 6, \n    STREET = 7, \n    CORNER = 8, \n    LINE = 9, \n    FIVE = 10, \n    BASKET = 11, \n    SNAKE = 12 \n    */\n\n    if (bet.bet_type == 0) {\n      // 0 = red, 1 = black\n      if (bet.bet == (is_red(roll) ? 0 : 1)) {\n        return bet.bet_amount * 2;\n      }\n    } else if (bet.bet_type == 1) {\n      // 0 = even, 1 = odd\n      if (bet.bet == (roll % 2)) {\n        return bet.bet_amount * 2;\n      }\n    } else if (bet.bet_type == 2) {\n      if (bet.bet == roll) {\n        return bet.bet_amount * 35;\n      }\n    }\n\n    return 0;\n  }\n\n  function play() public onlyHouse {\n    uint roll = random(37);\n    emit OutcomeDecided(roll);\n\n    for (uint i = 0; i < numBets; i++) {\n      uint w = calculate_winnings(bets[i], roll);\n      if(w > 0) {\n        // If player won (w > 0) designate their winnings (incl. stake) to them\n        funds[bets[i].player] += w;\n      } else {\n        // Else player lost, stake is designated to the house to pay off winners & VRF fees etc.\n        funds[owner] += bets[i].bet_amount;\n      }\n    }\n\n    numBets = 0;\n  }\n}\n",
  "sourcePath": "F:\\1Repo\\glass-casino\\contracts\\Roulette.sol",
  "compiler": {
    "name": "solc",
    "version": "0.8.7+commit.e28d00a7.Emscripten.clang"
  },
  "schemaVersion": "3.4.3",
  "updatedAt": "2022-02-13T14:36:49.008Z",
  "devdoc": {
    "kind": "dev",
    "methods": {},
    "version": 1
  },
  "userdoc": {
    "kind": "user",
    "methods": {},
    "version": 1
  }
}